:020000040800F2
:10000000B82200207102000829290008F9250008FB
:1000100025290008490E00082937000800000000C3
:10002000000000000000000000000000093500088A
:10003000B90F0008000000002D2900080D35000848
:100040008B0200088B0200088B0200088B0200085C
:100050008B0200088B0200088B0200088B0200084C
:100060008B0200088B020008BD0F00088B020008FD
:100070008B0200088B0200088B0200088B0200082C
:100080008B0200088B0200088B0200088B0200081C
:100090008B0200088B0200088B020008D10F0008B9
:1000A0008B020008CD3500088B0200088B02000887
:1000B0008B0200088B020008D93500088B0200086B
:1000C0008B0200088B0200088B0200088B020008DC
:1000D0008B0200088B0200088B0200088B020008CC
:1000E0008B0200088B0200088B0200088B020008BC
:1000F0008B0200088B0200088B0200088B020008AC
:100100008B0200088B0200088B0200088B0200089B
:100110008B0200088B0200088B0200088B0200088B
:100120008B0200088B0200088B0200088B0200087B
:100130008B02000800000000000000008B02000895
:100140008B0200088B0200088B0200088B0200085B
:100150008B0200088B0200088B0200088B0200084B
:100160008B0200088B0200088B0200088B0200083B
:100170008B0200088B020008000000000000000055
:100180008B0200088B02000800F002F800F061F812
:1001900014A696E8000CB244B344DA4501D100F04D
:1001A00058F8BAE80F000FA696E83000A5EB040552
:1001B00004EB0607AAEB0704A7F101074FEA1515A0
:1001C0004FEA3414A4F10104AC4201D300F041F829
:1001D00013F0010F18BFFB1A43F0010300F001F800
:1001E000DBE71847006B0000206B0000103A24BFCB
:1001F00078C878C1FAD8520724BF30C830C144BF8C
:1002000004680C6070470000704700000023002461
:1002100000250026103A28BF78C1FBD8520728BF16
:1002200030C148BF0B607047662906F0CB830020C1
:1002300070471FB506F03FFB00F03CFC04000020B7
:10024000002105F0D9FFE06000F0B4F91FBD10B542
:1002500010BD00F045FD1146FFF7EBFF05F0C0FAB9
:1002600000F063FD03B4FFF7F2FF03BC00F02EFDC6
:100270000948804709480047FEE7FEE7FEE7FEE73A
:10028000FEE7FEE7FEE7FEE7FEE7FEE70448054976
:10029000054A064B70470000B9350008890100087F
:1002A000B8100020B8220020B8120020B812002098
:1002B00053EA020C00F069802DE9F04B4FF0000684
:1002C000002B1FBFB3FA83F503FA05F424FA05F6F1
:1002D0005E4012BF1643B2FA82F502FA05F4C5F188
:1002E00020051EBF22FA05FC44EA0C04203556EA1C
:1002F000044C4FEA144418BF641C4FF000084FF040
:100300000009904271EB030C39D3002919BFB1FAEF
:1003100081F701FA07F6B0FA80F700FA07F6C7F19D
:1003200020071EBF20FA07FC46EA0C062037B6FB62
:10033000F4FCA7EB0507103F07F01F0BCBF12006DD
:100340002CFA06F60CFA0BFB44BFB3460026202F0E
:10035000A4BF5E464FF0000B5BEA060C08BF4FF0EF
:10036000010B19EB0B0948EB0608ABFB027C06FB03
:1003700002CC0BFB03CCC01B71EB0C01C1E70B469D
:10038000024641464846BDE8F08B13B5084318BF06
:100390004FF0FF300146AFF30080BDE81C407047CE
:1003A0000FB41CB5074B06AA7B446946009005981C
:1003B00000F035FB0020694600F044FB1CBC5DF8F2
:1003C00014FB0000990600002DE9F0474FF0000AE9
:1003D00089460446C0F820A02046E16888470028E6
:1003E00076D0252806D0D4E901219047206A401C08
:1003F0002062F1E7E168204600258847C4F81CA088
:1004000006460027C4F818A02A2E09D0304605F069
:10041000EBFE38B304EB8708303EC8F8186019E0EB
:1004200059F8041B204604EB87029161E168884774
:10043000012F064618D1E069002820DA25F02005B2
:100440001DE0D8F8180000EB800006EB40003038C3
:10045000C8F818002046E1688847064605F0C4FE43
:100460000028EED1012F0AD02E2E08D12046E168B7
:1004700088477F1C0646022F45F02005C4DBA06993
:10048000002803DA404245F00105A061E80701D0E9
:1004900025F01005B6B1A6F14100192802D8203682
:1004A00045F400654A463146204625604D46FFF733
:1004B000BBFE58B1012806D0ED1D25F0070000F164
:1004C000080989E704E005F1040985E730468AE771
:1004D000206ABDE8F087032A40F2308010F0030C58
:1004E00000F0158011F8013BBCF1020F624498BF87
:1004F00011F801CB00F8013B38BF11F8013BA2F124
:10050000040298BF00F801CB38BF00F8013B11F09E
:10051000030300F09C82083AC0F0088051F8043BC5
:10052000083A51F804CBA0E80810F5E7121D5CBFAB
:1005300051F8043B40F8043BAFF30080D20724BFDE
:1005400011F8013B11F801CB48BF11F8012B24BF72
:1005500000F8013B00F801CB48BF00F8012B7047C1
:100560004FF0000200B5134694469646203922BF4C
:10057000A0E80C50A0E80C50B1F12001BFF4F7AF97
:10058000090728BFA0E80C5048BF0CC05DF804EB79
:10059000890028BF40F8042B08BF704748BF20F8E7
:1005A000022B11F0804F18BF00F8012B70477047E5
:1005B0007047704708487CB57844009007487844F5
:1005C000009C0546019004E02046016808448047ED
:1005D000241DAC42F8D17CBD646700006267000056
:1005E00010B500F06BFA006810BD10B5044600F0BD
:1005F00065FA046010BD2DE9FF4F0C461E464FF012
:10060000FF378BB0D2E90001DDF860800A908A469E
:10061000C1F30A5505B93D46002108464FF00000D8
:10062000BAF1000F00F4400005DA00EB80004FF44F
:10063000400101EA50004FEA9059B9F1010F00DD85
:10064000B9460A9850EA4A000ED044F61050A5F276
:10065000FF3545432F14B8F1000F1ED07542291EF7
:100660001EDDC9F100021CE0B8F1010F4FF00000DF
:1006700001D0302103E0F24305E02154401CB04298
:10068000FBDB30460022002121540B99C1F8088081
:10069000C1E900200FB0BDE8F08FBD1B6D1CDEE787
:1006A0004A4600DA694206A800F092FA06AB93E8DF
:1006B000070003AB83E8070050460A9905F054F998
:1006C0008DE80700A0F500501F3800900398002D1A
:1006D0000ADD42F21F014A460844002303A90390A1
:1006E000684605F0BDFB09E0A0F500504A461F38FA
:1006F000002303A90390684605F0C7FB8DE80700B7
:100700000004000C03D04FF0FF30410800E0104619
:10071000B8F1000F03D00022009215461EE0751EAE
:1007200005D400F0CFF9303262556D1EF9D5B346CD
:100730000122084302D000227F1C04E020783028E8
:1007400001D100227F1E002A099784D01DE0112DBF
:1007500007DA00F0B7F9303262556D1C50EA010239
:10076000F5D1084302D00098C8B10EE00021681E00
:1007700005E0235C625C63542254401E491C8142A4
:10078000F7DBAB46A81B401E0990002004F80B00C5
:100790000B98099AC0F80880C0E9002B7AE7112667
:1007A0004FF0000857E72DE9F04F88460446D21D68
:1007B00022F0070191B0D1E90001CDE90A0105F06D
:1007C0009BFC02460B98C00F01D02D2007E020684B
:1007D000810701D52B2002E0202101EAC000032A75
:1007E000099001D0072A05DB03464146204600F068
:1007F000AFF90BE12078800601D5E06900E0062022
:10080000B8F1650F814606D0B8F1660F18D0B8F17F
:10081000670F70D131E00020B9F1110F009001DBBA
:10082000112301E009F101030AAA01A90CA8FFF7AD
:10083000E2FEDDE90C70002609F10105834647E080
:1008400001204B4600904FF000470AAA01A90CA8CE
:10085000FFF7D1FEDDE90DB00C995D46002610B919
:1008600009F101000D18B9EB050003D4C0F1FF3602
:1008700009F10105A5EB09002BE0B9F1010F01DA3F
:100880004FF001090020B9F1110F0090484601DD39
:10089000112300E003460AAA01A90CA8FFF7ABFE4A
:1008A000DDE90C704D4600268346207800070AD407
:1008B000AB4500DA5D4601A8012D04DD411911F8B0
:1008C000011C302907D04F4502DA17F1040F04DA72
:1008D000012082460FE06D1EEEE7002F02DCED1BCB
:1008E0003E4403E0781CA84200DD7D1CB81B00F1EB
:1008F000010A4FF000472078000703D4AA4501DB26
:100900004FF0FF3A0021B7F1004F0DF143088DF889
:10091000431024D002202B23002F01DA7F422D2305
:100920000A21021EA0F1010000DC5FB197FBF1FC7F
:1009300097FBF1F201FB1C7C17460CF1300C08F818
:1009400001CDEEE7A8F1010003702188090501D56A
:10095000452100E06521A0F1010800F8011C09987B
:100960000FA9A1EB0807FF1D00B10120411901EB00
:10097000EA70A1693844081A401EA0612078C006B8
:1009800002D42046AFF30080099828B1D4E90121B0
:100990009047206A401C20622078C00622D520465D
:1009A000AFF300801EE0002E04DBB34502DD01A89A
:1009B000805D00E03020D4E901219047206A401C8E
:1009C0002062761CAAF101005FEA000A0AD100F059
:1009D00071F8C0680168405CD4E901219047206A41
:1009E000401C2062281EA5F10105DCDC07E0D4E9EB
:1009F000012118F8010B9047206A401C2062381E24
:100A0000A7F10107F3DC2046AFF30080032011B00B
:100A100041E6000001694A1C02610878704700B590
:100A20008FB0CDE901310021059105497944CDE927
:100A3000031011466846FFF7C7FC0FB000BD000069
:100A4000E5FFFFFF0A6802F8010B0A60704710B566
:100A5000203AC0F00B80B1E81850A0E81850B1E877
:100A60001850A0E81850203ABFF4F5AF5FEA027CB6
:100A700024BFB1E81850A0E8185044BF18C918C0E6
:100A8000BDE810405FEA827C24BF51F8043B40F887
:100A9000043B08BF7047D20728BF31F8023B48BF6C
:100AA00011F8012B28BF20F8023B48BF00F8012BAA
:100AB0007047000000487047080100200048704758
:100AC000E800002030B5B0F10A0271F100034FEAEE
:100AD000900E4EEA817EB0EB0E0061EB91014FEA81
:100AE000101E4EEA017E10EB0E0041EB11114FEA91
:100AF000102E4EEA016E10EB0E0041EB11214FEA71
:100B0000104E4EEA014E10EB0E0041EB1141401821
:100B100041F100014FEAD00040EA41704FEAD101B3
:100B20004FEA810444EA907410EB800544EB010421
:100B30006D1944EB0404521BA3414FF0000348BF5E
:100B40000A3200D530BD401C41F1000130BD00002B
:100B50002DE9F0411F46044603260168072A01F4E7
:100B6000006004DB08B116A505E016A503E008B196
:100B700015A500E015A521F010002060A069C01E99
:100B8000A0610FB1401EA0612046AFF300804FB1BD
:100B9000D4E9012138469047206A401C2062C01CDD
:100BA000206206E0206AFAE7D4E9012115F8010B7A
:100BB0009047761EF8D22046AFF30080BDE8F08162
:100BC0004E414E006E616E00494E4600696E6600F1
:100BD0002DE9F047814616468AB0354878440DC85D
:100BE0008DE80D0032487844801C03AC0DC884E8C1
:100BF0000D0041F69B300844372190FBF1F290FB49
:100C0000F1F5A5F1800501FB12041B3C02D56442FD
:100C1000012000E00020DFF898A080460027FA4479
:100C2000AAF1BE0A0EE0E0070AD03246684607EB9A
:100C3000470101230AEB810105F027F98DE8070040
:100C400064107F1C002CEED1194F7F44AE3F19E099
:100C5000E80715D007EB04100DF1180A90E80E0014
:100C60008AE80E00C068F04201D198190890324617
:100C7000012306A903A805F008F903AB83E80700E0
:100C80006D10641C002DE3D14FF00103324669461C
:100C9000B8F1000F03A802D005F0E2F801E005F07A
:100CA000F4F8C9E90001C9F808200AB0BDE8F087E6
:100CB000645E000010B5002000F040F8FFF7C7FAAE
:100CC000BDE81040012000F001B8000001491820E3
:100CD000ABBEFEE72600020000487047E800002097
:100CE0007546FFF7F9FFAE4605006946534620F00A
:100CF0000700854618B020B5FFF7C8FABDE82040C8
:100D00004FF000064FF000074FF000084FF0000BC7
:100D1000AC46ACE8C009ACE8C009ACE8C009ACE836
:100D2000C00921F007018D46704710B50446AFF3A6
:100D300000802046BDE81040FFF794BA10B500F0DF
:100D40004BF8BDE8104000F042B800000000000081
:100D500030B44FF0013C50F8042B51F8043BCCFA6E
:100D600052F4D51A20D1FCB950F8042B51F8043BA9
:100D7000CCFA52F4D51A17D1B4B950F8042B51F863
:100D8000043BCCFA52F4D51A0ED16CB950F8042BAE
:100D900051F8043BCCFA52F4D51A05D1002CDAD024
:100DA00030BC4FF00000704729BAB1FA81F111F060
:100DB0001801D1F120008440F2D1CA40CB4012F09A
:100DC000FF0213F0FF0330BCD01A704770470028B1
:100DD00001D0FFF77BBF704710B5002102A000F0E3
:100DE00013F8012010BD0000534947414252543AC4
:100DF0002041626E6F726D616C207465726D696EF8
:100E00006174696F6E00000070B505460C460A20DB
:100E100000E06D1C00F011F835B128780028F8D1F9
:100E200002E0641C00F009F814B120780028F8D121
:100E3000BDE870400A20AFF3008008B569468DF820
:100E400000000320ABBE08BDFEE7000070B540F215
:100E50005C16C2F20006B16841F204050446CEF207
:100E60000005E9B94EF6FC50CEF20000016841F0F1
:100E7000807101600020286055F8040C40F00100EA
:100E800045F8040C00F048FB306030684DF6836193
:100E9000C4F21B31A0FB0101880C70600120B0601E
:100EA00070682A68604300210AE000BFD6431944F5
:100EB000934288BF5642314481421A4628BF70BDD2
:100EC0002B689342F2D12B689342EFD12B68934267
:100ED000ECD12B689342F3D0E8E7000070B541F203
:100EE000000040F25C14CEF20000C2F2000446683A
:100EF0006568A16821B1E068B04220D1606970BD29
:100F00004EF6FC51CEF200010A6842F080720A608F
:100F100000214160016841F00101016000F0FCFA2C
:100F2000206020684DF68361C4F21B31A0FB0101F3
:100F3000880C60600120A060E068B042DED0C14350
:100F4000864288BF41422069314408448542C4E951
:100F50000360D3D8B0FBF5F1626901FB15000A44C8
:100F600062612061606970BD80B54EF6FC50CEF2C2
:100F70000000016841F08071016041F20000CEF292
:100F8000000000214160016841F00101016000F0B2
:100F9000C3FA40F25C11C2F20001086008684DF625
:100FA0008362C4F21B32A0FB0202900C4860012253
:100FB00000208A6080BD00007047000080B51020CE
:100FC00000F04AF81020BDE8804000F02BB8000087
:100FD00080B5202000F040F84FF4007000F03CF89D
:100FE000202000F01FF84FF40070BDE8804000F0B2
:100FF00019B8000072B600BFFEE70000B0B50446A5
:1010000000F01AF9054640F20000C2F20000007834
:10101000611C18BF044400BF00F00EF9401BA04241
:10102000FAD3B0BDB0F5007F0AD020280ED010282A
:1010300018BF704741F26000C2F2000002F030BEFB
:1010400041F26000C2F2000002F04ABE41F26000CC
:10105000C2F2000002F034BE43F61441C4F20101B2
:101060000A68024214BF08607047FFF7DBBF000048
:101070002DE9F04F82B000F13E4707F1FF7786057A
:1010800046EA972741F60046C4F20206082243F6D4
:10109000004EB04208BF0722C4F2010E072F38BF2E
:1010A0003A46002600274FF00008009209E000BFF2
:1010B00008F101080237B8F1100F06F1040600F03C
:1010C000A3800D68012202FA08F415EA0409EFD0A2
:1010D000D1F804B003220BF0030CACF10105BA40C7
:1010E000012D6FEA020A0FD88268CD6802EA0A026F
:1010F000BD402A4382604268A243CBF3001404FA45
:1011000008F42243426005E0BCF1030F02D14FF026
:10111000030C1EE0C2688C6802EA0A02BC4022434B
:10112000BCF1020FC26014D16FF0030202EA580250
:101130000244D2F820C006F01C040F230D69A3401E
:101140002CEA0303A5402B431362D1F804B00BF043
:10115000030C02680CFA07F302EA0A021A431BF4B2
:10116000403F0260A4D0002243F644030192C4F23F
:1011700002031A684FF6084C42F480421A601A685B
:10118000CFF6FF7C02F480420192019A28F003021C
:10119000724452F80C3006F00C050F24AC40A34307
:1011A000009C04FA05F52B4342F80C30DEF80820C9
:1011B0004B6842EA090543F60C4CDC0258BF22EAB0
:1011C0000905CEF80850C4F2010CDCF800209C029E
:1011D00042EA090558BF22EA0905CCF80050DEF8BA
:1011E00004209C0342EA090558BF22EA0905CEF80B
:1011F0000450DEF80020DB0342EA090558BF22EA6A
:101200000905CEF8005053E702B0BDE8F08F0000AA
:101210000069084018BF012070470000426902EAD7
:101220000103914341EA034181617047002A08BFED
:10123000090481617047000041F2B400C2F200006D
:101240000068704740F2000041F2B401C2F20000B1
:10125000C2F2000100780A6810440860704700007C
:1012600080B543F60040C4F20200016841F4007109
:101270000160016841F480610160016841F480719E
:101280000160032000F086F80F2000F005F800F060
:1012900027F8002080BD000070B540F20006C2F2C1
:1012A000000640F208013278C2F200014FF47A736E
:1012B0000968B3FBF2F20446B1FBF2F1084600F014
:1012C00039FB0F2C4FF0010508D838B94FF0FF302B
:1012D00021460022002500F031F87460284670BDD8
:1012E00082B0002043F640010190C4F202014A6836
:1012F00042F480424A604A6802F480420192019AB4
:101300000090086840F080500860086800F0805045
:101310000090009802B07047002848BF704700F066
:101320001F01012202FA01F11C2202EAD0004EF252
:101330000012CEF2000281507047000010B54EF648
:101340000C5CCEF2000CDCF80030C3F3022E8EF001
:101350000704042C28BF0424BEF103034FF0FF3E12
:101360000EFA04F438BF0023A14399400EFA03F3A8
:101370009A43114300F00F0200F160430901043A5F
:1013800003F564436244002848BF02F10C0319705E
:1013900010BD00004EF60C51CEF200010A684FF667
:1013A000FF031A4060F30A2242F0806040F0FD70B3
:1013B00008607047002804BF012070472DE9F04104
:1013C00043F60808C4F202080446D8F8F8030D46AC
:1013D00000F00700884207D288F8F853D8F8F803DD
:1013E00000F00700A84277D12068810717D5410790
:1013F00005D5D8F8001041F4E051C8F800100107F5
:1014000005D5D8F8001041F46041C8F80010D8F8AC
:101410000010A26821F0F0011143C8F80010C007C5
:1014200040D1D8F8F80300F00700A84207D988F89F
:10143000F853D8F8F80300F00700A8424CD1206810
:10144000410707D5D8F80010E26821F4E0511143B4
:10145000C8F80010000708D5D8F80000216920F46A
:10146000604040EAC100C8F8000000F055F8D8F824
:10147000001046F65C22C1F30311C0F60002515C75
:1014800040F2080220FA01F140F20400C2F200002A
:101490000068C2F200021160FFF7FEFE0020BDE806
:1014A000F08100BF6068811E022907D258F8081C2D
:1014B00089015CBF0120BDE8F08111E0012807D15E
:1014C00058F8081C89035CBF0120BDE8F08107E0E3
:1014D00058F8081C890703D40120BDE8F08100BF3B
:1014E000D8F8001021F003010843C8F80000FFF706
:1014F000A3FE064641F28837D8F80000616800F084
:101500000C00B0EB810F8CD0FFF796FE801BB84229
:10151000F2D90320BDE8F08110B543F60404C4F20B
:101520000204606800F00C0142F200400829C0F299
:10153000F40007D0042918BF10BD41F20020C0F20A
:101540007A0010BD216801F03F022168236849023A
:10155000C3F3881106D4A1FB00010023FEF7A8FE07
:1015600007E000BF41F20020C0F27A004843B0FB20
:10157000F2F021680222C1F3014102EB4101B0FB0C
:10158000F1F010BD002804BF012070472DE9F041A3
:1015900082B00446007843F60006C007C4F2020693
:1015A0000CD0B06800F00C00042840F08180306856
:1015B000800303D56068002800F06A8120788007E6
:1015C0001BD5B06810F00C0F09D0B06800F00C000B
:1015D000082840F087807068400200F183803068FE
:1015E000800703D5E068012840F052813068216906
:1015F00020F0F80040EAC10030602078000713D4E2
:10160000207840072AD4A569002D00F03C81B068FD
:1016100000F00C00082840F0A180012D40F010815E
:10162000012002B0BDE8F0816069002840F20000AE
:10163000C4F2472000F07E800121C0F8801EFFF731
:10164000FBFD0546706F8007DAD4FFF7F5FD401B00
:101650000228F7D9032002B0BDE8F081306C5FEAC0
:10166000C0080AD400200190306C40F080503064F3
:10167000306C00F080500190019847F20007C4F2EE
:1016800000073868C00547D4386840F48070386077
:10169000FFF7D2FD054600BF3868C0053CD4FFF710
:1016A000CBFD401B0228F7D9032002B0BDE8F08132
:1016B000B06800F00C00082803D1706840023FF5C4
:1016C00076AF6068B0F5803F07D0B0F5A02F40F04E
:1016D0009B80306840F480203060306840F4803077
:1016E00030609BE0E06800285CD00020C4F2472016
:1016F00001210160FFF7A0FD054600BF30688007AB
:101700003FF574AFFFF798FD401B0228F6D9032080
:1017100002B0BDE8F08100BFA068012805D005280F
:1017200054D1306F40F004003067306F40F001005A
:10173000306755E00021C0F8801EFFF77DFD0546AB
:10174000706F80077FF55CAFFFF776FD401B0228C6
:10175000F6D9032002B0BDE8F08100BF0027C4F233
:10176000472700203866FFF767FD022D05460DD19B
:101770003068800140F19080FFF75EFD401B022839
:101780004FF00300F4D902B0BDE8F0813068800169
:1017900079D5FFF751FD401B02284FF00300F5D922
:1017A000F1E700BF0020C4F2472000210160FFF7ED
:1017B00043FD0546306880077FF51FAFFFF73CFD0E
:1017C000401B02284FF00300F4D9DCE7316F0028FA
:1017D00021F001013167316F21F0040131677DD0C3
:1017E000FFF72AFD054641F2883700BF306F8007BA
:1017F00000F18680FFF720FD401BB842F6D9032098
:1018000002B0BDE8F08100BF3168002821F48031CA
:101810003160316821F4802131607BD0FFF70CFD0D
:10182000054600BF306880033FF5C8AEFFF704FDF2
:10183000401B6428F6D9032002B0BDE8F08100BF48
:101840007068E16900F480028A4221D1216A00F0C7
:101850003F028A421CD147F6C071626A0140B1EB77
:10186000821F15D1A16A4FF6FF73C903994300F493
:101870004032A1F580318A420AD1E16A00F07060FD
:10188000B0EB016F04D1002002B0BDE8F08100BFD1
:10189000012002B0BDE8F08104F11C052FCD084302
:1018A00040EA8210D9034FF6FF729143A1F58031CF
:1018B00040EA05600843706001203866FFF7BCFC11
:1018C000044600BF30688001DDD4FFF7B5FC001B83
:1018D00002284FF00300F5D955E700BFFFF7ACFC35
:1018E000054641F2883700BF306F800708D5FFF703
:1018F000A3FC401BB8424FF00300F5D943E700BFFB
:10190000B8F1000F3FF57FAE306C20F080503064AE
:1019100079E600BFFFF790FC054600BF3068800302
:101920007FF54CAEFFF788FC401B64284FF00300A6
:10193000F4D928E7411E0020B0EB116F1CBF012035
:1019400070474EF21002CEF2000251604EF6235163
:10195000CEF20001F0230B700721906011607047F8
:10196000704700007047000090F83C20012A04BF37
:1019700002207047B0B501F108053CCDD1E900CE99
:1019800023F47C5322F470521A432EF4F0431A438A
:101990002CF4E0431A4324F4C0431A432A43C96990
:1019A00022F48042036811435964002180F83C10FE
:1019B000BDE8B0400846704790F83C20012A4FF03F
:1019C000020254D010B580F83D200268D2F804E03D
:1019D000D2F808C00C682EF07003234341F2FF7464
:1019E000C4F20004A24253600EDC40F2FF73C4F262
:1019F00000039A4216DCB2F1804F2BD040F2004334
:101A0000C4F2000324E000BF40F2FF33C4F201033C
:101A10009A4213DC41F60003C4F200039A4219D043
:101A2000002313E040F60003C4F200039A4211D0F1
:101A300040F60043C4F200030AE000BF44F2000392
:101A4000C4F201039A4205D040F20043C4F20103FC
:101A50009A4204D149682CF0800319439160012116
:101A6000002280F83D1080F83C20BDE81040104670
:101A70007047000041B1082910D0042914BF00F1BB
:101A8000450200F143020BE090F84220012A1CBFFE
:101A900001207047022280F8422013E000F1440246
:101AA0001278012A1CBF012070470222082907D0A2
:101AB000042914BF80F8452080F8432002E000BFCD
:101AC00080F84420006801F00F010422036A02FA42
:101AD00001F123EA01020262026A11430162416CD0
:101AE00041F2FF72C4F2000241F4004190424164AD
:101AF0000EDC40F2FF71C4F20001884216DCB0F146
:101B0000804F2BD040F20041C4F2000124E000BF1E
:101B100040F2FF31C4F20101884213DC41F60001BA
:101B2000C4F20001884219D0002113E040F6000100
:101B3000C4F20001884211D040F60041C4F2000115
:101B40000AE000BF44F20001C4F20101884205D05E
:101B500040F20041C4F20101884204D1816801F0E1
:101B60000701062903D0016841F00101016000204E
:101B70007047000010B5026801F00F0E4FF0040C22
:101B8000146A0CFA0EF324EA03031362136A136255
:101B9000146A41F211131C4206D1D2F820C040F25F
:101BA00044441CEA040F0DD0146A1C4211D1136A7C
:101BB00040F2444423420CD1136823F00103136024
:101BC00007E000BF546C24F400445464146A1C42BF
:101BD000EDD008290CD0042910D000294FF00101C4
:101BE00014BF80F8451080F84210002010BD00BFDF
:101BF000012180F84410002010BD00BF012180F8B1
:101C00004310002010BD0000002804BF01207047D1
:101C100010B5044690F83D0028B9002084F83C0037
:101C2000204600F01FF8022084F83D002068211DA6
:101C300001F0D8FC012084F8460084F83E0084F8C6
:101C40003F0084F8400084F8410084F8420084F8A2
:101C5000430084F8440084F8450084F83D000020E7
:101C600010BD000010B582B0006840F60001C4F25B
:101C70000001884216D00021C4F2010188422DD112
:101C80000020019043F64000C4F20200416819248C
:101C900041F001014160406800F0010001900198AD
:101CA00010E000BF0020009043F64000C4F20200A4
:101CB00001681E2441F004010160006800F0040086
:101CC00000900098204600210022FFF737FB2046B5
:101CD00002B0BDE81040FFF71FBB00BF02B010BD4F
:101CE00090F83D1001291CBF01207047022180F8A7
:101CF0003D10006841F2FF71C4F2000188420DDC22
:101D000040F2FF71C4F20001884215DCB0F1804F4F
:101D10002AD040F20041C4F2000123E040F2FF313A
:101D2000C4F20101884213DC41F60001C4F2000153
:101D3000884219D0002113E040F60001C4F20001EE
:101D4000884211D040F60041C4F200010AE000BF11
:101D500044F20001C4F20101884205D040F2004182
:101D6000C4F20101884206D1816801F00701062909
:101D700004BF00207047016841F0010101600020AC
:101D80007047000090F83D1001291CBF01207047EA
:101D9000022180F83D10006841F2FF72C168C4F270
:101DA0000002904241F00101C1600DDC40F2FF7180
:101DB000C4F20001884215DCB0F1804F2AD040F215
:101DC0000041C4F2000123E040F2FF31C4F20101FE
:101DD000884213DC41F60001C4F20001884219D0A8
:101DE000002113E040F60001C4F20001884211D046
:101DF00040F60041C4F200010AE000BF44F20001D5
:101E0000C4F20101884205D040F20041C4F2010150
:101E1000884206D1816801F00701062904BF00202D
:101E20007047016841F00101016000207047000027
:101E300090F83C20012A4FF0020200F0C58080B5E6
:101E400080F83D20D0F800C04FF67772DCF80830FB
:101E500023EA0202CCF808200B684F2B28DC1F2B4A
:101E600044DD202B45D0302B43D0402B40F0AE80BA
:101E7000D1F804E0C968DCF82030DCF8202022F03A
:101E80000102CCF82020DCF8182022F0F00242EA0F
:101E9000011123F00A0242EA0E02CCF81810CCF825
:101EA0002020DCF8081041F0470121F0300180E0EB
:101EB0006F2B27DDB3F5005F48D0B3F5805F7AD094
:101EC000702B40F08380D1E901E3C968DCF8082079
:101ED00043EA0E0322F47F4243EA01211143CCF886
:101EE0000810DCF8081041F0770162E00BB1102B0C
:101EF0006CD1DCF8081021F07001194341F00701A2
:101F000057E000BF502B35D0602B5FD1D1F804E0F3
:101F1000C968DCF82030DCF8202022F01002CCF870
:101F20002020DCF8182022F4704242EA013123F02C
:101F3000A00242EA0E12CCF81810CCF82020DCF8EF
:101F4000081041F0670121F0100132E0D1E901E30E
:101F5000C968DCF8082043EA0E0322F47F4243EA12
:101F600001211143CCF80810DCF8081041F480413D
:101F70001FE000BFD1F804E0C968DCF82030DCF8CD
:101F8000202022F00102CCF82020DCF8182022F0DA
:101F9000F00242EA011123F00A0242EA0E02CCF8F2
:101FA0001810CCF82020DCF8081041F0570121F07F
:101FB0002001CCF808100022012180F83D100021FA
:101FC00080F83C10BDE88040104670470122F3E7DE
:101FD0007047000070B504460068C5680669B1071F
:101FE00016D515F0020113D06FF002010161012135
:101FF00021778069800703D02046FFF7E9FF05E0DD
:10200000204600F08FF8204600F0D0F9002020771D
:10201000700719D515F0040016D020686FF0040180
:10202000016102212177806910F4407F04D02046AD
:10203000FFF7CEFF06E000BF204600F073F8204611
:1020400000F0B4F900202077300717D515F008000C
:1020500014D020686FF00801016104212177C06964
:10206000800703D02046FFF7B3FF05E0204600F0CD
:1020700059F8204600F09AF900202077F00619D58B
:1020800015F0100016D020686FF0100101610821D2
:102090002177C06910F4407F04D02046FFF798FFF5
:1020A00006E000BF204600F03DF8204600F07EF933
:1020B00000202077F00718BF15F0010002D130068C
:1020C00009D412E020686FF001010161204600F0A0
:1020D00055FA300609D515F0800006D020686FF05B
:1020E000800101612046FFF73BFC700609D515F021
:1020F000400006D020686FF040010161204600F0EA
:1021000079FAB00658BF70BD15F0200008D02168DC
:102110006FF0200220460A61BDE87040FFF722BC44
:1021200070BD00007047000090F83C30012B04BFE8
:10213000022070474FEAB202032A00F201812DE922
:10214000F043DFE802F0033F7FBF00BF036840F2C7
:1021500000461C6A1A6A24F0020422F001021A6284
:102160001A46D3F804C052F818EF8F6843F480651C
:10217000C4F20106B54244EA070405D1CF6824F051
:102180000C0427F004073C430F68B54206D1D1E99F
:1021900005582CF440762E4346EA080C2EF07306C0
:1021A0003743C3F804C09F614F6809695F631C62CD
:1021B0009F6947F008079F619F6927F004079F61A7
:1021C000B2E000BF036840F200481C6A1A6A24F0BB
:1021D000200422F010021A621A46D3F804C052F802
:1021E00018EF8F6843F48065C4F20108454544EA5E
:1021F000071407D1CF686FF0400624F0C00406EA48
:1022000007163443D1F80090454506D1D1E905566B
:102210002CF440672E4347EA860C2EF4E64747EA43
:102220000927C3F804C09F614F6809699F631C6256
:102230009F6947F400679F619F6927F480679F61EA
:1022400071E000BF036840F200481C6A1A6A24F477
:10225000007422F480721A621A46D3F804C052F84D
:102260001CEF8F6843F48065C4F20108454544EAD9
:10227000072408D1CF6840F2FF463F0224F44064AF
:1022800027EA06063443D1F80090454506D1D1E946
:1022900005562CF440572E4347EA061C2EF07307D0
:1022A00047EA0907C3F804C0DF614F680969DF63C3
:1022B0001C62DF6947F00807DF61DF6927F0040768
:1022C000DF6131E0036840F20045D3F820C01A6AAC
:1022D00043F4806722F480521A621A465C6852F80E
:1022E0001CEFD1F800808E68C4F20105AF4204D122
:1022F0004D6924F4804444EA85142CF4005747EADD
:1023000006372EF4E64646EA08265C60DE614E6833
:1023100009691E641F62DF6947F40067DF61DF69D6
:1023200027F48067DF6109021368194311600021F7
:10233000BDE8F043002280F83C200846704700BF0B
:102340000121002280F83C2008467047002804BF85
:102350000120704710B5044690F83D0028B90020D0
:1023600084F83C00204600F01FF8022084F83D006D
:102370002068211D01F036F9012084F8460084F818
:102380003E0084F83F0084F8400084F8410084F85F
:10239000420084F8430084F8440084F8450084F83F
:1023A0003D00002010BD0000704700007047000095
:1023B00041B1082910D0042914BF00F1410200F1F5
:1023C0003F020BE090F83E20012A1CBF012070471D
:1023D000022280F83E2013E000F140021278012A28
:1023E0001CBF012070470222082907D0042914BF0E
:1023F00080F8412080F83F2002E000BF80F84020B4
:10240000006801F01F010122036A02FA01F123EAC8
:1024100001020262026A114341F2FF72C4F2000239
:102420009042016210DC40F2FF71C4F20001884268
:102430001CDCB0F1804F3FD040F20041C4F20001FB
:10244000884239D03DE000BF40F2FF31C4F20101C3
:10245000884219DC41F60001C4F2000188422BD009
:102460000021C4F2010188421AD02AE040F600019E
:10247000C4F2000188421FD040F60041C4F20001BE
:10248000884219D01DE000BF44F20001C4F20101EE
:10249000884211D040F20041C4F20101884210D1BB
:1024A000416C40F2004340F48062C4F2010341F405
:1024B00000419A42416404D1816801F00701062974
:1024C00003D0016841F00101016000207047000065
:1024D00010B5026801F01F0E4FF0010C146A0CFADF
:1024E0000EF324EA0303136240F20043D2F820C043
:1024F00042F48064C4F201039C42C2F820C009D1B6
:10250000136A41F21114234204D1136A40F2444485
:1025100023420FD0136A41F21114234213D1136ADC
:1025200040F2444423420ED1136823F001031360A8
:1025300009E000BF536C23F400435364136A41F273
:1025400011142342EBD008290CD0042910D0002903
:102550004FF0010114BF80F8411080F83E100020B8
:1025600010BD00BF012180F84010002010BD00BF49
:10257000012180F83F10002010BD0000006840F6E7
:102580000001C4F20001884218BF704710B540F640
:10259000F064C2F20004204602F0F6FF40F20C00A4
:1025A000C2F2000090ED000A204602F079FD01F031
:1025B0007BFAD4F8542140F2A81192ED040A92ED6E
:1025C000051A92ED062AB2EE043AC2F2000120EE9C
:1025D000030A21EE031A22EE032A086081ED010AA4
:1025E00081ED021A0120102281ED032ABDE810407E
:1025F00000F032BB70470000FEE700002DE9F0411B
:1026000086B0002643F63000CDE904660096C4F299
:102610000200016840F6004441F080010160016859
:10262000C4F2020401F08001009100990096016853
:10263000002241F00201016001684FF0040801F03E
:102640000201009100990096016841F004010160C7
:10265000016801F00401009100990096016841F0C1
:1026600001010160016801F00101009100990096EB
:10267000016841F0080101600068042100F00800D1
:10268000009000982046FEF7D1FD4FF4007001AD98
:1026900001904FF44417A4F580602946CDE90276F5
:1026A000FEF7E6FC012002210290CDE9031020464E
:1026B0002946CDF80480FEF7DBFC3020CDE9010788
:1026C000A4F5006029460396FEF7D2FC0A200021FB
:1026D0000022FEF733FE0A20FEF71EFE172000211F
:1026E0000022FEF72BFE1720FEF716FE06B0BDE80F
:1026F000F08100002DE9F0419CB040F2000840F666
:102700006060C4F201080021C2F20000202241F200
:102710006803012680241691CDE914111191CDE9A9
:102720000F11CDE90D11CDE90B11CDE90911CDE95D
:102730000711CDE90511CDE90311CDE90111C0E97A
:102740000081C0E90223C0E904168461FFF75CFA46
:10275000002818BFFEF74EFC4FF48050139040F64F
:102760006060C2F2000013A9FFF762FB002818BFE7
:10277000FEF740FC40F66060C2F20000FFF7E6FDA5
:10278000002818BFFEF736FC2020109040F660604D
:102790000024C2F2000010A91194FFF70DF90028DF
:1027A00018BFFEF727FC7020099041F26800CDE9C0
:1027B0000A0440F66060C2F2000009A90022CDE9D7
:1027C0000C44CDE90E44FFF7AFFC002818BFFEF71C
:1027D00011FC40F66060C2F2000009A90422FFF774
:1027E000A3FC002818BFFEF705FC40F66060C2F2AB
:1027F000000009A90822FFF797FC002818BFFEF780
:10280000F9FB0020642140F66064CDE904104FF428
:102810000051C2F20004CDE9010003900691089036
:1028200001A92046FFF7A0F8002818BFFEF7E2FB39
:102830002068404502D01CB0BDE8F081002643F678
:1028400030001796C4F20200016817AC41F0020193
:1028500001600168022701F002011791179917968C
:102860000168012541F0010101600068214600F086
:102870000100179017984FF46040179008F58230C8
:10288000CDE918761A971B95FEF7F2FB4FF4E0603E
:10289000CDE9170708F580302146CDE919671B956A
:1028A000FEF7E6FB1CB0BDE8F081000080B586B005
:1028B00040F6A8600021C2F2000040F6000240F29B
:1028C000F31C0591CDE90311CDE90011C4F200021A
:1028D0005323C0E9021C01618021C0E9002381610A
:1028E000FFF792F9002818BFFEF784FB4FF48050E1
:1028F000029040F6A860C2F2000002A9FFF798FA21
:10290000002818BFFEF776FB40F6A860C2F2000070
:102910006946FFF751F8002818BFFEF76BFB06B0B9
:1029200080BD0000FEE70000FEE7000070470000E9
:1029300010B52DED028B8EB001AC20463221B0EEE9
:10294000408AFDF70DFE18EE100A03F043FF024621
:102950000B4606A12046FDF723FD06A100202246D6
:1029600000F09CFA0EB0BDEC028B10BD252E346633
:102970000A000000257300002DE9F04140F6B8146C
:10298000C2F200041746227898460D46532A06469E
:102990003DD02046A821FDF7E3FD032020616061C2
:1029A00046F6DA4140F66020C0F60001C2F20000AF
:1029B000A161E0614FF4806020620020A06260624B
:1029C000E062216640F24811C2F200010131616605
:1029D0001021A16653212067E0666067BFF35F8F17
:1029E0002170452147226170A270E270217152214D
:1029F00020226171A271E171542121726172A07271
:102A0000E07220736073A073E073BFF35F8F022ED8
:102A100084BF4FF0FF30BDE8F081069AEFF31180DC
:102A20004FF0200181F3118856B106EB460104EB0B
:102A3000C10100238D61CF61C1F820808B624B62A0
:102A400006EB460104EBC101CA6280F31188002045
:102A5000BDE8F0812DE9F04782B040F6B81AC2F225
:102A6000000A9AF80010054653295BD05046A82169
:102A7000FDF776FD0320CAF81000CAF8140046F6E8
:102A8000DA4140F66020C0F60001C2F20000CAF848
:102A90001810CAF81C004FF48060CAF8200000200B
:102AA000CAF82800CAF82400CAF82C00CAF8601036
:102AB00040F24811C2F200010131CAF8641010213D
:102AC000CAF868105321CAF87000CAF86C00CAF836
:102AD0007400BFF35F8F8AF80010452147228AF8FF
:102AE00001108AF802208AF803208AF80410522183
:102AF00020228AF805108AF806208AF80710542147
:102B00008AF808108AF809108AF80A008AF80B0077
:102B10008AF80C008AF80D008AF80E008AF80F0077
:102B2000BFF35F8FFF200F2D8DF8060048D846F6C3
:102B30008230C0F60000405D8DF80700EFF3118988
:102B40004FF0200181F31188DAF82C0000F0030027
:102B500002283BD140F24810C2F20000DAF824709B
:102B600005700DF10605022421E000BFDAF820000F
:102B7000FA4311440144C61BB14238BF0E46DAF88D
:102B80001C00A64228BF2646384429463246FDF797
:102B9000A2FCDAF82000F119A41B0F1A354418BF63
:102BA0000F46002CBFF35F8FCAF824704DD0DAF8BF
:102BB0002810B942DAD9FA43DAF820001144DAE7EA
:102BC0004FF0FF3002B0BDE8F08700BFDAF8241004
:102BD000DAF8280088420BD9CA43104402280ED2E2
:102BE0004FF0FF3089F3118802B0BDE8F08700BFD5
:102BF000DAF82020CB43184410440228F0D340F2E6
:102C00004810DAE90723C2F2000005705D1A032DAF
:102C100002EB010006D3BDF806208E1C0280BFF334
:102C20005F8F10E00DF1060841462A46FDF753FC80
:102C3000C5F10206DAF81C0008EB05013246FDF783
:102C40004AFCBFF35F8FCAF82460002089F3118823
:102C500002B0BDE8F0870000F0B581B040F6B817CB
:102C6000C2F2000714463A780D46532A06463DD074
:102C70003846A821FDF774FC03203861786146F6D8
:102C8000DA4140F66020C0F60001C2F20000B961EE
:102C9000F8614FF4806038620020B8627862F862B0
:102CA000396640F24811C2F2000101317966102103
:102CB000B96653213867F8667867BFF35F8F39705C
:102CC000452147227970BA70FA7039715221202259
:102CD0007971BA71F971542139727972B872F872D6
:102CE00038737873B873F873BFF35F8FEFF311879E
:102CF0004FF0200181F3118830462946224600F02A
:102D000005F887F3118801B0F0BD00002DE9F04F00
:102D100081B040F6B81300EB4000C2F2000303EBB1
:102D2000C007F86A14460228894613D0012845D006
:102D300058B93D4655F8246F6868B04240F27C802F
:102D4000F1430844A04280F07E800026304601B066
:102D5000BDE8F08F57F8245F0026381DA7F1040B5B
:102D6000BA46A7F1080800900098EA430068DBF82B
:102D70000010A842104498BF08444F1BB84238BF07
:102D80000746D8F80000A74228BF274628444946EE
:102D90003A46FDF7A0FBDBF800007919E41B0D1A99
:102DA0003E44B94418BF0D46002CBFF35F8FCAF8EC
:102DB0000050D9D1304601B0BDE8F08FBA465AF87C
:102DC000245FDAF80410A94204D9EA43386A1144AE
:102DD00004E000BF386AEA4311440144A14238BF0D
:102DE0000C46461B57F81C0FB44228440ED24946E5
:102DF0002246FDF770FB6019BFF35F8FCAF8000031
:102E00002646304601B0BDE8F08F00BF4946324645
:102E1000FDF761FBA4EB0608386809EB06014246A2
:102E2000FDF759FBBFF35F8FCAF800802646304696
:102E300001B0BDE8F08F00BF396AF2431044084486
:102E4000A042FFF482AF57F81C0F79683044A1EB21
:102E5000060A54450CD249462246FDF73CFB301980
:102E6000BFF35F8F28602646304601B0BDE8F08F83
:102E700049465246FDF72FFBA4EB0A08386809EBD8
:102E80000A014246FDF727FBBFF35F8FC5F80080BC
:102E90002646304601B0BDE8F08F000082B080B514
:102EA00082B0CDE9042304AA019201AA00F006F839
:102EB00002B0BDE8804002B0704700002DE9F04F3D
:102EC0009BB0904606AA16924022002504901A90C4
:102ED0000DF1580900208A461792CDE9185507E0F0
:102EE00000F048FC19985146B0F1FF3F40F30483CD
:102EF0001AF8013B252B1BD0002B00F0ED82DDE9F9
:102F00001720411C914207D8169A13541998179A02
:102F100001301990084618919042E3D116991A98F9
:102F2000FFF79AFE1899884240F0D0821895D9E7A9
:102F300001F1040A4FF0000B1AF8031CA1F123035E
:102F40000D2B00F25F800222DFE803F0085C5C5C7E
:102F50005C5C5C5C0A5C0C5C5C0D00BF082202E0FF
:102F6000042200E001221AF8021C4BEA020BA1F134
:102F700023030D2B00F28C800222DFE803F0078987
:102F800089898989898909890B89890C082202E044
:102F9000042200E001221AF8011C4BEA020BA1F105
:102FA00023030D2B00F280800222DFE803F0077D6F
:102FB0007D7D7D7D7D7D097D0B7D7D0C082202E080
:102FC000042200E001229AF800104BEA020BA1F162
:102FD00023030D2B5ED80222DFE803F0105C5C5C5B
:102FE0005C5C5C5C125C0E5C5C0800BF4BEA020B34
:102FF0000AF1040AA0E700BF0122F7E70822F5E77B
:103000000422F3E7AAF1030AA1F13A0212F10A0F2E
:1030100045D30AF1020A002606EB860201EB4202C2
:103020001AF8011CA2F13006A1F13A0313F10A0FBC
:1030300042D306EB860201EB42029AF80010A2F19D
:103040003006A1F13A0313F10A0F37D306EB8602DB
:1030500001EB42029AF80110A2F13006A1F13A0305
:1030600013F10A0F76D306EB860201EB42029AF8BF
:103070000210A2F13006A1F13A0212F10A0F0AF190
:10308000040AC9D2AAF1020A2E2919D00AE000BF07
:10309000AAF1020AA1F13A0212F10A0FB9D20026EE
:1030A0002E290DD0002761E0AAF1010AA1F13A0210
:1030B00012F10A0FF3D3ACE7AAF1010A2E29F1D1DC
:1030C000524612F8011FA1F13A0313F10A0F03D27D
:1030D000002792464AE000BF0AF1020A002700BF1B
:1030E0009AF8002007EB870301EB4301A2F13A03B2
:1030F00013F10A0FA1F1300738D39AF8011007EB4A
:10310000870302EB4302A1F13A0313F10A0FA2F184
:10311000300725D39AF8022007EB870301EB430120
:10312000A2F13A0313F10A0FA1F130071CD307EB08
:10313000870102EB41029AF80310A2F13007A1F1D6
:103140003A0212F10B0F0AF1040AC9D8AAF1010AD6
:103150000CE000BF0AF1010A2E29B1D0A2E700BF9E
:103160000AF1010A02E000BF0AF1020A9AF800100F
:1031700001F0FB02682A41D19AF8011001F0FB022C
:10318000682A40F04D809AF8021001F0FB02682A8C
:1031900040F04E809AF803100AF1040A01F0FB0295
:1031A000682AE3D0A1F15802202A2DD8DFE802F0E6
:1031B00022202020202020202020204858202020AD
:1031C00020202020202020201220208820B820200D
:1031D000220000BFD8F800001022011DC8F800101E
:1031E0000168484608230827CDE9007578E600BF46
:1031F00078E600BFD8F80000102294E00AF1010A36
:10320000A1F15802202AD1D925297FF46BAEDDE93E
:103210001720411C91423FF67FAE169A252374E693
:103220000AF1020AA1F15802202ABFD9ECE700BF37
:103230000AF1030AA1F15802202A7FF6B7AFE3E7AB
:10324000DDE91720D8F80030411C1F1D9142C8F855
:1032500000703FF661AE1A68169B1A5456E600BF1E
:10326000D8F8001041F2597C0A1DC8F800200968FE
:1032700048F29F640029C1F100028E4648BF114602
:103280000A2942F21075CDF2B71CC0F20104039274
:10329000CDF8148050D34FF0020800BF642955D3F5
:1032A000B1F57A7F4CD3A9424ED3A1FB0C23A142A6
:1032B0004FEA533108F10408F0D8A8F1010845E0BD
:1032C000D8F800100A1DC8F800200C688CA1002C4A
:1032D00008BF0C4606E000BFB0F1FF3F04F1010457
:1032E0007FF700AE2778002F3FF4FCADDDE9172112
:1032F0004B1C934207D8169847541998179A0130D7
:103300001946189319909142E6D116991A98FFF729
:10331000A3FC1899884240F0D98019981895DBE7EA
:10332000D8F800000A22011DC8F8001001684846BC
:103330003B46CDE9006BD3E54FF0010806E000BF46
:1033400008F1010802E000BF08F10208B845744620
:1033500098BFB84676B10021002C48BF01210BF080
:10336000040241EA9201A6EB01095FEA8B7506D4DB
:1033700006E000BF4FF000095FEA8B7500D55FB330
:103380005FEACB7128D1B9F1000F25D0A9F1010670
:103390004E4538BFC8451FD2DDE917214B1C93426B
:1033A00008D81698202242541998179A01301946C5
:1033B0001893199091420AD116991A98FFF74CFC6C
:1033C0001899884240F082801998002118910028AD
:1033D000B146DBD572E000BF00286FD4B4F1FF3FE7
:1033E00020DD5FEA4B7130D5DDE917214B1C93429C
:1033F00008D816982B2242541998179A013018931E
:103400001990194691421ED116991A98FFF724FC7B
:10341000189988425AD1002018901998002814D57C
:103420004CE000BFDDE917214B1C934208D81698E9
:103430002D2242541998179A013019461893199061
:10344000039C9142E0D0002838D4002D0CD416A85B
:1034500021460A223B46CDE9009B814600F08AF9CD
:10346000DDF8148000253DE50BF001013943EED174
:10347000B9F1000FEBD0A9F101064E4538BFC845A0
:10348000E5D2DDE917214B1C934208D8169830226B
:1034900042541998179A013019461893199091427D
:1034A00009D116991A98FFF7D7FB189988420DD1C0
:1034B0001998002118910028B146DCD5DDF8148058
:1034C00000250DF15809FFF70DBD00BF4FF0FF308B
:1034D0001BB0BDE8F08F00BF40B1189A52B10498FC
:1034E00006A9FFF7B9FBDDE9181004E000201BB0C6
:1034F000BDE8F08F002108441BB0BDE8F08F00BF8D
:10350000284E554C4C29000070470000FDF79ABE2C
:10351000B0B592B0002443F64000CDE90A44CDE9AD
:1035200008440594CDE90344CDE901440094C4F274
:1035300002000168022541F080510160006800F03E
:1035400080500090009847F200000094C4F2000000
:10355000016841F4804101600068A82100F48040C6
:1035600000900098012006904FF4803007904FF4AF
:1035700080000D9004200E90119006A80C95CDE9C6
:103580000F15FDF7FFFF18B172B600BFFEE700BFD1
:103590000F20CDE901054FF4A05004904FF4805066
:1035A000059001A805210394FDF704FF10B172B640
:1035B000FEE700BF12B0B0BD4EF68850CEF200005C
:1035C000016841F4700101607047000040F66060DE
:1035D000C2F20000FEF7FEBC40F6A860C2F2000096
:1035E000FEF7F8BCB0B540F6FF3E0568C4F2000E29
:1035F00040F2004C7045C4F2010C27DCB0F1804F62
:1036000031D040F20043C4F2000398422BD040F680
:103610000003C4F20003984225D041F6FF73C4F2C0
:10362000000398422ADC70453CDCB0F1804F5FD04B
:1036300040F20043C4F20003984259D040F6000320
:10364000C4F20003984253D057E000BF40F6004355
:10365000C4F20003984206D0604504D00023C4F2AF
:1036600001039842D9D14B6825F0700243EA020564
:1036700041F6FF73C4F200039842D4DD43F6FF73B2
:10368000C4F20103984221DC42F20003C4F20003B9
:1036900098422DD00023C4F20103984228D06045FF
:1036A00026D02AE040F60043C4F2000398421FD01F
:1036B00041F60003C4F20003984219D041F60043DA
:1036C000C4F20003984213D017E000BF44F2000395
:1036D000C4F2010398420BD044F60003C4F2010384
:1036E000984205D044F20043C4F20103984204D149
:1036F000CB6825F4407243EA02050A688C684B697E
:10370000C46240F480648262644504BF0969016355
:10371000026825F0800142F0040219430260012290
:1037200042610160B0BD0000FEE7000080B540F2DC
:103730007410C2F2000040F660610430C2F2000171
:1037400000F072FD9FED0A0A40F6F060C2F2000040
:103750001521F0EE400AB0EE401A01F0DBFF41F215
:103760006000C2F200001521BDE8804000F0CABA36
:1037700000E440C62DE9F04F81B0DDF828901F46E7
:1037800015468B469142044602D24FF001081FE0D5
:103790004FF00408584600BFB0FBF5F0A84211D323
:1037A000B0FBF5F0A84211D3B0FBF5F0A8420FD35F
:1037B000B0FBF5F008F10408A842EDD2A8F1030827
:1037C00006E000BFA8F1020802E000BFA8F101086E
:1037D0000B99B84598BFB846B9F1000F34D011F035
:1037E000010031D12026880748BF30264FF0000A5B
:1037F0002020002F18BF064606E000BFC4F808A02E
:10380000E068B0F1FF3F1FDDB9F1000F1CD0C845E3
:103810001AD2D4E90120411C914207D822681654DB
:10382000E06862680130E0600846A1609042A9F15A
:103830000109E5D121682069FFF70EFAA1688842E5
:10384000DCD04FF0FF30E060E068002859D401265A
:1038500002E000BF013F6E43022F01D3013F03E0AE
:10386000BBFBF6F1A9421BD3012F05FB06F601D9DC
:10387000013F03E0BBFBF6F1A94211D3012F05FB89
:1038800006F601D9013F03E0BBFBF6F1A94207D3DD
:10389000012F05FB06F6DDD8BBFBF6F1A942DAD213
:1038A000A2682EA76168BBFBF6FA531C8B4209D8AD
:1038B00017F80A0021688854E068616801301A46E8
:1038C000A360E0608A4209D121682069FFF7C4F94A
:1038D000A26890420CD1E0680022A26000280AD4BD
:1038E000B6FBF5F10AFB16BBAE420E46DAD202E099
:1038F0004FF0FF30E0600B99C90718BFB9F1000F16
:1039000002D101B0BDE8F08F2025A9F101064E4596
:1039100038BFC845F5D26168531C8B4207D8206870
:103920008554E068616801301A46A360E0608A420D
:1039300009D121682069FFF78FF9A168884207D172
:10394000E0680022A260B0F1FF3FB146DDDCD8E7BD
:103950004FF0FF30E06001B0BDE8F08F303132331E
:1039600034353637383941424344454680B52DED2C
:10397000028B9FED0A8AF0EE480A02F0D5FB30EE8A
:10398000081AB5EE400AF1EE10FAA8BFB0EE401AE0
:10399000B0EE410ABDEC028B80BD00BFDB0FC94019
:1039A00001EE100AB8EEC11A21EE000A70470000BD
:1039B0009FED091A9FED0A2A30EE010A9FED071AC2
:1039C000B4EE420A30EE011AF1EE10FAC8BFB0EEC2
:1039D000410A00F009B800BFDB0FC93FDB0FC9C0C7
:1039E000DB0FC9400000000080B510EE100A02F0A5
:1039F000F1FE9FED290B53EC102B02F0FFFC02F0BF
:103A0000B9FCC0F307223F2A0AD846F60031C0F6B7
:103A1000000101EB420331F812105A882EE000BF7A
:103A20007F2A0DD846F60033C2F18001C0F60003AC
:103A3000C2F17F0233F8111033F812201EE000BFEC
:103A4000BF2A0DD846F60031C0F6000101EB420155
:103A50006FF0FF028A5A31F8FE3C51425A420DE0A3
:103A600046F60033C2F58071C0F6000382F0FF0213
:103A700033F8111033F8122049425242C0B2521AA0
:103A8000504301EB202000EE100A9FED051AB8EE1E
:103A9000C00A20EE010A80BDB4F94664305FC4401C
:103AA00000000038FDF7AABAFDF718BAB0B52DED41
:103AB000028B0C460546B0EE408AFFF795FF85ED78
:103AC000000AB0EE480AFFF773FF84ED000ABDEC70
:103AD000028BB0BD70B52DED028BC66B056D9FEDF1
:103AE000148A05B30446FFF7DFFF801BB0EB450FD8
:103AF00019DC94ED0A0A9FED0F1AB8EEC00A81EEA8
:103B0000000A01EE105A9FED0C2AB8EEC11A81EEA0
:103B1000021A94F92C0002EE100AB8EEC22A20EE26
:103B2000020A80EE018AB0EE480ABDEC028B70BD3D
:103B300000000000DB0FC9400024744910B50446A2
:103B4000FFF7B2FFA16C626C236C01EB420101EB49
:103B5000830194F92E204BB2934208BF10BD84F824
:103B60002E1094F92E101FA2525694F92F10511AAC
:103B7000042907DBFF2184F82C10236B013B23630E
:103B800016E000BF94F92F10511A11F1040F07DC51
:103B9000012184F82C10236B0133236308E000BF5C
:103BA00094F92F30FF219A42C8BF012184F82C10CC
:103BB00084F82F2094F82D20914206BFE26B821AE0
:103BC00000222265E063606B01306063E26C84F880
:103BD0002D102AB194F92F00BDE81040104700BF06
:103BE00010BD00BFFF000405020103FF016B90F947
:103BF0002F2001EB410102EB410190ED0A1A00EE8A
:103C0000101AB8EEC00AB8EEC11A80EE010A9FED94
:103C1000021A20EE010A7047DB0FC940B0B540F22E
:103C2000004504460020C4F2020520632846102106
:103C3000FDF7EEFA206428462021FDF7E9FA6064DA
:103C400005F580604FF40071FDF7E2FAA0642046AC
:103C5000FFF774FFFFF728FFE063B0BD816AC26B16
:103C600001EE101A0261026B90F92F3002EB420252
:103C700003EB420292FBF1F3B8EEC11A03FB1122EF
:103C8000C36100EE102AB8EEC00A80EE010A9FED73
:103C9000031A20EE010A80ED030A7047DB0FC940CA
:103CA00010B5044640F20040C4F202001021FDF7B6
:103CB000AFFA014620462164BDE81040FFF73EBF41
:103CC00010B5044640F20040C4F202002021FDF786
:103CD0009FFA014620466164BDE81040FFF72EBF01
:103CE00010B5044640F60000C4F202004FF4007123
:103CF000FDF78EFA01462046A164BDE81040FFF7AB
:103D00001DBF000046F66C224BF2177CC0F6000285
:103D1000C3F6D10C083201EB4101C0E9002C0022AE
:103D200049000023C4F27A42816201210362C0E9A2
:103D30000233C0E90433C0E906338263C36480F808
:103D40002410704780B52DED068B82B00168B0EE6F
:103D5000409A89688847B5EE401AB0EE408AF1EE85
:103D600010FA19D0B5EE408AF1EE10FA1ED0F5EE39
:103D7000400AF1EE10FA27D038EE200A9FED292AEA
:103D800031EE000A20EE020A9FED221A38EE408A38
:103D900030EEC00A1CE000BF9FED1E0A9FED1E1A08
:103DA00020EE800A28EE011A18E000BF31EE200A4A
:103DB0009FED181A9FED192AB1EE408A20EE811A64
:103DC00020EE020A0AE000BF38EE010A9FED141A45
:103DD0009FED112A20EE010A28EE021A31EE00AA08
:103DE000684601A9B0EE490AFFF760FE9DED001A92
:103DF0009DED012A2AEE010A28EE023A21EE081A68
:103E00002AEE022A33EE000A72EE410A02B0BDEC3D
:103E1000068B80BD3ACD933F3ACD133F3ACD13BFC9
:103E20003ACD93BFABAAAA3E10B5044680ED000A76
:103E30000020A060FFF738FE01462046616010BDFB
:103E400010B52DED028BB0EE408A0446FFF72CFE34
:103E500061689FED191A411A00EE101AB8EE400A77
:103E600020EE010AB5EE400AF1EE10FA02DA9FEDFB
:103E7000130A06E09FED121AB4EE410AF1EE10FAB1
:103E800011DC94ED001AB7EE002A30EE010A81EE43
:103E9000000A94ED021A32EE402A22EE082A20EEA1
:103EA000010A30EE028A84ED028AB0EE480A6060B0
:103EB000BDEC028B10BD00BFBD3786356F12833A53
:103EC0009A99993E10B5044680EC050A0020C4E991
:103ED0000500E061FFF7E8FD01462046216210BDC4
:103EE00010B52DED028BB0EE408A0446FFF7DCFDE5
:103EF000216A9FED411A411A00EE101AB8EE400AED
:103F000020EE011AB6EE000AB4EE401A9FED3B2AED
:103F1000F1EE10FAB5EE401AC8BFB0EE421AF1EE5B
:103F200010FAD8BFB0EE421A94ED003A94ED057A3B
:103F300094ED025A63EE080A38EE473A23EE053A4A
:103F4000C3EE011A94ED014A94ED075A24EE013AAA
:103F500023EE000A37EE083A94ED046A20EE030AD5
:103F600030EE053AB1EE464AB4EE463A94ED032AF5
:103F7000F1EE10FAB4EE443AC8BFB0EE463AF1EEB4
:103F800010FAB8BFB0EE443A30EE830A31EE800A40
:103F9000B4EE460AF1EE10FAB4EE440AC8BFB0EE31
:103FA000460AF1EE10FAB5EE402AB8BFB0EE440A68
:103FB000F1EE10FA15DD94ED064A30EE445A85EE26
:103FC000015AB4EE425AF1EE10FA06DCB1EE422A82
:103FD000B4EE425AF1EE10FA03DA22EE010A30EEA4
:103FE000040A84ED058A84ED060A84ED073A20620E
:103FF000BDEC028B10BD00BFBD3786356F12833A12
:1040000070470000B0B50446406A0168C96A616043
:104010000021C4F2C011E160FDF762FE606A002178
:104020000025FEF755FA606A0021FDF7A3FD606ADE
:104030000421FEF74DFA606A0421FDF79BFD606ADA
:104040000821FEF745FA606A0821FDF793FD6368D1
:1040500005A112A20020C4E90455A561FEF71EFFC8
:10406000012101202177B0BD5B25735D20424C44C6
:10407000434472697665723650574D20696E697493
:1040800020737563636573732C2066726571756543
:104090006E63793A202564200A000000696E697415
:1040A0000000000010B5044600689FED110AC168C9
:1040B0002046F0EE400AB0EE401A8847606A0021C0
:1040C000FEF776F9606A0021FDF7D4FC606A0421EE
:1040D000FEF76EF9606A0421FDF7CCFC606A0821E6
:1040E000FEF766F9606A0821BDE81040FDF7C2BC22
:1040F0000000000090ED035A90ED023AB4EE405AF1
:10410000F1EE10FAB5EE400AB8BFB0EE450AB0EED7
:10411000412A9FED301AF1EE10FAB8BFB0EE410A15
:1041200080EE034AB4EE605AF1EE10FAF5EE400A62
:10413000B8BFF0EE450AF1EE10FAB4EE425AB8BF3D
:10414000F0EE410AF1EE10FAB5EE402AB8BFB0EE3B
:10415000452AF1EE10FA0146B8BFB0EE412AB5EE9D
:10416000404AF1EE10FAB0EE410A08DBB7EE000A61
:10417000B4EE404AF1EE10FAD8BFB0EE440A80EE39
:10418000834AF0EE410A81ED040AB5EE404AF1EEB1
:1041900010FA08DBF7EE000AB4EE604AF1EE10FA0E
:1041A000D8BFF0EE440A82EE032AC1ED050AB5EE4F
:1041B000402AF1EE10FA08DBB7EE001AB4EE412AFD
:1041C000F1EE10FAD8BFB0EE421A486A81ED061A35
:1041D00001F0E4BA0000000010B5044600689FED4D
:1041E000110AC1682046F0EE400AB0EE401A884736
:1041F000606A0021FEF76CF9606A0021FDF7BAFCE5
:10420000606A0421FEF764F9606A0421FDF7B2FCDC
:10421000606A0821FEF75CF9606A0821BDE8104079
:10422000FDF7A8BC000000004FF0000C46F69823F4
:10423000C0F60003C0E908C14CF6C771083301227B
:10424000CFF6FF7180F81CC080F8282040F2000CE7
:104250004EF20042C0E900314DF20A71C4F2C01CB6
:10426000CCF24062C3F6A341C0E902C2C16270470A
:104270000020704700000000F0B581B0C468C0693C
:1042800002F0A5F8054620460E4602F0A3FA9FED7F
:104290000A0B04460F4653EC102B2846314602F019
:1042A000ADF822463B4601F0BDFF41EC100B01B0DA
:1042B000F0BD00BF00BF00BF00000060FB2119403F
:1042C000C069704790ED030A7047000090ED071A2F
:1042D0009FED052A90ED030AB8EEC11A21EE021AED
:1042E00031EE000A704700BFDB0FC940C0F848112B
:1042F00070470000B0B52DED028B0446D0F84801A0
:10430000B0B194F9341104F58C7500EE101A0168FF
:10431000B8EEC08A496888472846FFF791FD94EDBA
:104320004B1A28EE000A30EE410ABDEC028BB0BDFC
:1043300094ED030ABDEC028BB0BD0000D0F848112B
:10434000B1B110B52DED028B90F9342100F58674D2
:1043500000EE102A0A680846D268B8EEC08A904774
:104360002046FFF76DFD20EE080ABDEC028B10BD64
:1043700090ED050A7047000010B52DED028B044644
:10438000D0F84801B0B194F93411626C514302681D
:1043900000EE101A1168B8EEC08A884794ED4C1AE6
:1043A00028EE000A30EE410ABDEC028BBDE8104059
:1043B000FFF7DCBA94ED040ABDEC028B10BD0000DF
:1043C000B0B52DED068B044646F6B420C0F60000CD
:1043D00008309FED4F8A20600120B6EE009AB3EEC0
:1043E00008AA002584F85F0004F16400B0EE490AD1
:1043F000F0EE490AB0EE481AF0EE481AB0EE4A2A3A
:10440000A560A4F85C50FFF75DFD04F18800B0EEF4
:10441000490AF0EE490AB0EE481AF0EE481AB0EE3A
:104420004A2AFFF74FFD9FED3B9A04F1AC00B0EE36
:10443000490AFFF7F9FC04F1B800B0EE490AFFF7AA
:10444000F3FC9FED350A04F1C400F2EE040AB0EE6D
:10445000481AF0EE481AB0EE4A2AFFF733FDB3EEE1
:10446000040A04F1E800F0EE480AB0EE481AF0EE53
:10447000481AB0EE402AFFF725FD9FED280A04F503
:104480008670FFF7D1FC04F58C70B0EE480AFFF798
:10449000CBFC4EF20040CCF24060C4F83001642006
:1044A000C4F83801092084F83E010420C4F8400112
:1044B000632084F844010020C4F2A01000210022EF
:1044C000C4F2C011C4F2A002A0650020C4E9141215
:1044D0004FF07E51C4F24000C4E9495584F834518C
:1044E000A4F83C51C4F8505184F85E506560A56151
:1044F000C4F82C51C4E95255C4E90955C4E90B5517
:10450000C4E90D502046E163BDEC068BB0BD00BF91
:10451000000000000AD7233C9A99993E0AD7A33B92
:10452000C0F854117047000070B52DED0A8B82B0B1
:1045300046F6C9420446A8A1C0F600020020FEF7D4
:10454000ADFCD4F8480101688969884728B1204644
:1045500000F058FC002800F0DF8094F83401E8B146
:10456000A4A146F6C942C0F600020020FEF796FC60
:1045700094ED4C0A9FEDBE1AB4EE410AF1EE10FA2A
:1045800000F0D08046F6214146F6C942C0F600014F
:10459000C0F600020020FEF781FC03E19FED9CAA1B
:1045A0009FED9CBA9FED9CCA9FED9C8A002540F22E
:1045B000F51600BF00EE105AB8EEC00A20EE0A0A47
:1045C00080EE0B1A206894ED0E0A81692046F0EE09
:1045D000480A31EE0C1A8847D4F848010168496945
:1045E00088470220FFF75EFA0135B542E2D1D4F8E0
:1045F0004801016849698847D4F848010168496859
:1046000088479FED869AB0EE408A4FF4FA7500BF56
:1046100000EE105AB8EEC00A20EE0A0A80EE0B1A1D
:10462000206894ED0E0A81692046F0EE490A31EEC9
:104630000C1A8847D4F84801016849698847022064
:10464000FFF730FA013D681CE2D1D4F84801016857
:1046500049698847D4F84801016849688847206853
:10466000B0EE409A9FED6D0A81692046F0EE400A57
:10467000B0EE401A8847C820FFF714FA38EE490A0E
:104680009FED671AB0EEC0BAB4EE41BAF1EE10FA7F
:10469000C0F28E8046F67B40C0F600006BA1B4EEFF
:1046A000498A46F6C942F1EE10FAB8BF01464FF00A
:1046B0000105C0F600024FF00000B8BF4FF0FF3513
:1046C000FEF7ECFB94ED110A9FED681AB8EEC00AF4
:1046D0002BEE000A30EE010AB0EEC00AB6EE001A68
:1046E000B4EE410AF1EE10FA84F834516EDD8AEE30
:1046F0000B0A10EE100A02F06DF841EC100B46F6B2
:10470000B03146F6C942C0F60001C0F600020020F2
:104710008DED000B2AE700BF0024204602B0BDEC5F
:104720000A8B70BD20689FED3D8A94ED0E0A816969
:104730009FED391A2046F0EE480A88474FF42F7053
:10474000FFF7B0F9D4F848010168496988470020AB
:10475000C4F830012046FFF70FFE142084ED4C0A08
:10476000FFF7A0F9D4F8300102F034F841EC100B57
:1047700046F6923146F6C942C0F60001C0F6000284
:1047800000208DED000BFEF789FB2068B0EE480A93
:1047900081692046F0EE480AB0EE481A8847C820E2
:1047A000FFF780F90124204602B0BDEC0A8B70BDF2
:1047B00046F6C9421BA1C0F6000200200024FEF705
:1047C0006DFB204602B0BDEC0A8B70BD46F6F031A1
:1047D000C0F60001C5E600BF5B25735D204D4F5458
:1047E0003A20416C69676E2073656E736F722E0A92
:1047F000000000005B25735D204D4F543A20536B41
:104800006970206469722063616C69622E0A00001D
:10481000DB0FC9400000FA43E4CB964000000000E3
:10482000A9CF7E3D5B25735D204D4F543A204661F4
:10483000696C656420746F206E6F74696365206DA8
:104840006F76656D656E740A000000005B25735D10
:10485000204D4F543A2073656E736F725F646972B6
:10486000656374696F6E3D3D43570A00DB0FC9C035
:1048700000E440C6B0B52DED048BB0EE408A04468E
:10488000FFF712F9D4F86C110546401A00EE100A31
:104890009FED461AB8EE400A20EE011AB6EE000A65
:1048A000B4EE401A9FED422AF1EE10FAB5EE401A2E
:1048B000C8BFB0EE421AF1EE10FAD8BFB0EE421AFD
:1048C00094ED032A94ED160A38EE423A20EE015A8E
:1048D000B0EEC34AB0EEC55AB4EE454AF1EE10FA56
:1048E00018DD9FED345AB5EE403AB7EE004AF1EECE
:1048F00010FAC8BFB0EE445ABFEE003AB8BFB0EEEF
:10490000435AB0EEC03A23EE053A23EE011A31EED7
:10491000028A01E09FED270A94ED101A9FED262AE6
:1049200094ED149AB4EE421AF1EE10FA84ED038A73
:1049300084ED050A21D094ED0D0A94ED152AB0EE10
:10494000C00A22EE012A32EE003AB1EE492AB4EE54
:10495000423AF1EE10FA08DBB4EE493AB0EE492AD9
:10496000F1EE10FAD8BFB0EE432A32EE400A80EEE4
:10497000010AB0EE429A84ED0C0AB0EE480AFEF746
:10498000F5FF606CFFF70CF82068DFED0A0A81691B
:10499000B0EE401A2046B0EE490A8847B0EE490A08
:1049A000C4F86C51BDEC048BB0BD00BFBD3786357B
:1049B0006F12833A0000000000E440C610B52DEDF0
:1049C000048B82B0044690F85E00B0EE408A022864
:1049D0004CD3032800F0B480022840F080819FED82
:1049E000C90A31EE000AFEF7C1FF9FEDC71A94F81D
:1049F0005F1080EE010AB1EE081A20EE010ABDEE4A
:104A0000C00A10EE100AB0EE480A39B1D4F85411B9
:104A1000B6EE001A91ED030A20EE010A40F21001F1
:104A200000EB4000C2F2000151F8202001EB8000B1
:104A3000002A00F0FB8001EE102A4168B8EEC11A8E
:104A400021EE081A31EE001A002984ED561A00F002
:104A50000B8101EE101AB8EEC11A21EE081A31EEE0
:104A6000001AD4F8540184ED571A2FE1684601A9C1
:104A7000B0EE410AB0EE609AFFF718F89DED001A0B
:104A80009DED012A21EE080A22EE093A22EE082ABB
:104A900021EE091A31EE022A9FED981A9FED985ADD
:104AA00033EE400ABEEE004AD4F8540184ED5A2A8F
:104AB00022EE011A20EE043A22EE052A33EE011A04
:104AC00033EE022A90ED033A94F85E00B6EE005AF7
:104AD000012823EE053A84ED590A25D1B4EE421A95
:104AE000B0EE425AF1EE10FAB8BFB0EE415AB4EE51
:104AF000450AF1EE10FAB4EE421AB0EE426AB8BFBF
:104B0000B0EE405AF1EE10FAC8BFB0EE416AB4EE12
:104B1000460AF1EE10FAC8BFB0EE406A36EE055A0A
:104B200025EE044A33EE043A94F85F0000285FD083
:104B300030EE030A31EE031A32EE032A6EE000BFB4
:104B40009FED700A31EE000AFEF710FF9FED6E1A1E
:104B500094F85F1080EE010AB2EE081A20EE010A06
:104B6000BDEEC00A10EE100AB0EE480A39B1D4F812
:104B70005411B6EE001A91ED030A20EE010A40F23C
:104B8000580200EB4000C2F2000252F8201002EB83
:104B9000800000294AD04268002A75D001EE101A20
:104BA00002EE102A8068B8EEC11AB8EEC22A21EED1
:104BB000081A22EE082A31EE001A32EE002A0028E6
:104BC00084ED561A84ED572A00F07E8001EE100A1B
:104BD000B8EEC11AD4F8540121EE081A31EE000AD9
:104BE000016884ED580AD1F810C001213AE000BFF5
:104BF000B4EE421AB0EE423AF1EE10FAB8BFB0EE9F
:104C0000413AB4EE430AF1EE10FAB8BFB0EE403AC2
:104C100030EE430A31EE431A32EE432A84ED560A4F
:104C200084ED571A84ED582A59E000BF90ED011A1F
:104C300090ED022AB8EEC11AB8EEC22AD4F8540197
:104C400021EE081A22EE082A31EE001A32EE002A6E
:104C5000016884ED560A84ED571A84ED582AD1F87C
:104C600010C0002101222CE090ED021AD4F854016A
:104C7000B8EEC11A21EE081A016831EE001A84ED6F
:104C8000570A84ED581A18E090ED022A01EE101A26
:104C9000B8EEC11AB8EEC22AD4F8540121EE081AAF
:104CA00022EE082A31EE001A32EE002A016884ED65
:104CB000561A84ED570A84ED582AD1F810C0012104
:104CC000002201230AE000BFD4F85401016884EDFA
:104CD000580AD1F810C0012101220023E047D4F87E
:104CE000540194ED560A0168D4ED570A94ED581A10
:104CF000C968884702B0BDEC048B10BDD7B35D3FD7
:104D0000D7B35DBF920A063FDB0FC940B0B52DEDAA
:104D1000048BB0EE409A0446FEF7C6FED4F86C1140
:104D20000546401A00EE100A9FED321AB8EE400A0E
:104D300020EE010AB6EE001AB4EE410A9FED2E2ACB
:104D4000F1EE10FAB5EE400AC8BFB0EE420AF1EE3D
:104D500010FAD8BFB0EE420A94ED031A29EE000A09
:104D600030EE010AFEF702FE94ED101A9FED232AA1
:104D700094ED148AB4EE421AF1EE10FA84ED030AAF
:104D800084ED059A21D094ED0D2A94ED153AB0EEFC
:104D9000C22A23EE013A33EE024AB1EE483AB4EEAB
:104DA000434AF1EE10FA08DBB4EE484AB0EE483A56
:104DB000F1EE10FAD8BFB0EE443A33EE422A82EE5A
:104DC000011AB0EE438A84ED0C1A606CFEF7E8FD20
:104DD0002068DFED0B0A8169B0EE401A2046B0EE84
:104DE000480A8847B0EE480AC4F86C51BDEC048B01
:104DF000B0BD00BFBD3786356F12833A00E440C6B0
:104E000000000000B0B52DED088B46F6B642044612
:104E100031A1C0F6000200200025FEF73FF8D4E9DA
:104E20000E1094ED16AAA065D4F8480194ED149ADA
:104E300021650168E5608969884710B394ED030A2C
:104E40009FED2CBAB4EE4B0AF1EE10FA19DA9FED91
:104E50002A8A00BF2046B0EE480AFFF70BFDD4F8BF
:104E60004801016849698847D4F84801016889699F
:104E7000884730B194ED030AB4EE4B0AF1EE10FA14
:104E8000E8DB20689FED1D0A81692046F0EE400AAC
:104E9000B0EE401A8847D4F8480184ED16AA01689C
:104EA00084ED149A8969884715A21AA1002808BFC1
:104EB000114646F6B642C0F600020020FDF7EEFFAE
:104EC000D4F84801016889698847B0FA80F0400940
:104ED000BDEC088BB0BD00BF5B25735D204D4F540A
:104EE0003A20496E646578207365617263682E2E7E
:104EF0002E0A0000DB0FC940E4CB16410000000081
:104F00005B25735D204D4F543A2053756363657381
:104F100073210A005B25735D204D4F543A20457282
:104F2000726F723A204E6F7420666F756E64210A3C
:104F30000000000010B50446D0F8540100286DD0E0
:104F4000007F00286AD0012046F6D54284F85D0033
:104F500039A1C0F600020020FDF7A0FFD4F85401EB
:104F600094ED140A90ED031A9FED374AB4EE410A0E
:104F7000F1EE10FAC4BF84ED141AB0EE410A94EDBC
:104F80000E1AB4EE401AF1EE10FAC8BF84ED0E0A04
:104F9000D4F84C0100281CBF84ED1D0A84ED260ABC
:104FA00094ED152A94F8600094ED101AB0EE423A90
:104FB000002808BFB0EE403A94F86100B4EE441AFD
:104FC000F1EE10FAA0F1030008BFB0EE432A012869
:104FD000A06D84ED352AC4F8F80006D894F83401A1
:104FE000002804BF012084F834014FF4FA70FEF762
:104FF00059FD46F6D54215A1C0F600020020FDF786
:105000004DFF20688168204688474FF4FA70FEF70C
:1050100049FD022084F85D0010BD00BF0F2346F655
:10502000D54211A1C0F60002002084F85D30BDE831
:105030001040FDF733BF00BF5B25735D204D4F541B
:105040003A20496E69740A0000E440C65B25735D2E
:10505000204D4F543A20456E61626C652064726940
:105060007665722E0A0000005B25735D204D4F545B
:105070003A20496E6974206E6F7420706F73736983
:10508000626C652C20647269766572206E6F742084
:10509000696E697469616C697A65640A0000000070
:1050A00010B52DED048B0446D0E949014A1C81421C
:1050B000C4F82821C0F0078194F86100B0EE408A5E
:1050C000033800210228C4F8281104D32046FFF732
:1050D00011F984ED030A2046FFF730F994F85C00DB
:1050E00084ED050A002800F0EE809FED9E9AB4EE54
:1050F000498AF1EE10FA18BF84ED018A94ED121A74
:10510000B4EE491AF1EE10FA07D080EE011A9FEDC5
:10511000962A81EE021A84ED0D1AD4F84C0180B95A
:1051200094ED101AB4EE491AF1EE10FA09D094ED8C
:105130000A2A94ED0D3A32EE432A82EE011A84EDEA
:105140000C1A94F86100042800F2BD80DFE800F03A
:10515000040E2AA8B00000BF94F86000002800F0F8
:10516000B5806068A061BDEC048B10BD94ED011AA0
:1051700004F1C40031EE400A84ED071AFEF7B0FED8
:1051800094F8600084ED060A002840F09C8094EDBD
:10519000101AB4EE491AF1EE10FA3CD1B0EE401AF2
:1051A00051E000BF94ED010A94ED031A94ED028AD8
:1051B00084ED080A04F1E80030EE410AFEF790FEA3
:1051C00094ED161A38EE000AB1EE413AB4EE410AF7
:1051D00094ED052AF1EE10FAB4EE430AC8BFB0EE22
:1051E000410AF1EE10FAB8BFB0EE430A84ED070AA7
:1051F00004F1C40030EE420AFEF772FE94F860003B
:1052000084ED060A00285ED194ED101AB4EE491A16
:10521000F1EE10FAC2D094ED0D2A20EE011A94EDB1
:10522000143A31EE021AB1EE432AB4EE431AF1EE0B
:1052300010FAB4EE421AC8BFB0EE431AF1EE10FAFB
:10524000B8BFB0EE421A94ED132A84ED0A1AB4EEF8
:10525000492AF1EE10FA34D094ED051A94ED113A82
:1052600020EE410AB8EEC31A94ED144A20EE010A6A
:1052700022EE000AB1EE441AB4EE440AF1EE10FA3E
:10528000B4EE410AC8BFB0EE440AF1EE10FAB8BF5E
:10529000B0EE410A84ED090ABDEC048B10BD00BFDD
:1052A00094ED010A204684ED070AFFF72FFD06E082
:1052B00094ED010A204684ED080AFFF7DBFA84ED3D
:1052C0000A0A00206062BDEC048B10BD94ED012A37
:1052D00094ED105A94ED0D3A94ED141A22EE056AED
:1052E00036EE033AB4EE495AB0EE425A94ED134A00
:1052F000F1EE10FA18BFB0EE435AB1EE413AB4EEF7
:10530000415AF1EE10FAB4EE435AC8BFB0EE415A1A
:10531000F1EE10FAB4EE494AB8BFB0EE435AF1EEDE
:1053200010FA84ED0A5ACCD094ED115A22EE400ABC
:10533000B8EEC52A20EE020A24EE000AB4EE410AB5
:10534000F1EE10FAB4EE430AC8BFB0EE410AF1EE36
:1053500010FAB8BFB0EE430A84ED090ABDEC048B25
:1053600010BD00BF00E440C65077D63D10B50446DE
:10537000D0F85401016849688847D4F854019FED7A
:10538000060A0168F0EE400AC968B0EE401A884784
:10539000012084F85C0010BD0000000010B5044638
:1053A000D0F854019FED080A0168F0EE400AC96880
:1053B000B0EE401A8847D4F85401016889688847DC
:1053C000002084F85C0010BD00000000B0B5044669
:1053D000032084F85D004FF4FA70FEF763FBD4F805
:1053E000480100283ED02046FFF79EF8D4F8481127
:1053F00005460A680846526990472046FEF77AFF3C
:105400004FF4FA7084ED030AFEF74CFB002D62D0D6
:10541000D4F84C01A0B3007B002847D046F65B418E
:1054200046F6A442C0F60001C0F600020020FDF7D7
:1054300035FDD4F84C0194ED0E0A0168496888479F
:1054400000283DD0054646F6DB3146F6A442C0F6BC
:105450000001C0F6000200202B46FDF71FFD012DC4
:1054600016DA38E046F69C4241A1C0F60002002060
:10547000FDF714FD4FF4FA70FEF714FB2BE000BFAC
:1054800046F69C422DA1C0F600020020FDF706FD65
:1054900046F69C4231A1C0F600020020FDF7FEFC5A
:1054A000042084F85D000120B0BD00BF0E2046F648
:1054B0009C4284F85D0012A1C0F6000208E000BF23
:1054C00046F6094146F6A442C0F60001C0F60002C5
:1054D0000020FDF7E3FC46F63F4146F69C42C0F64D
:1054E0000001C0F6000200200025FDF7D7FC0E20C9
:1054F000216884F85D004968204688472846B0BD89
:105500005B25735D204D4F543A20496E69742046E7
:105510004F43206572726F722C2063757272656ED4
:10552000742073656E7365206E6F7420696E697484
:1055300069616C697A65640A000000005B25735D2F
:10554000204D4F543A204E6F2063757272656E7411
:105550002073656E73652E0A000000005B25735D85
:10556000204D4F543A2052656164792E0A000000A4
:105570005B25735D204D4F543A204E6F2073656E4E
:10558000736F722E0A00000010B50446D0F848016F
:1055900010B101684969884794F86100033802280E
:1055A00056D394F85C00002852D02046FEF7E4FE63
:1055B00094F8600084ED040A002800F08580022839
:1055C00048D0012878D1D4F84C01002840D0016897
:1055D000C968884704F1AC0084ED0C0AFEF730FC82
:1055E00094ED061A84ED0C0A04F1640031EE400AD1
:1055F000FEF776FC94ED131A9FED392A84ED0A0A22
:10560000B4EE421AF1EE10FA5CD094ED050A94ED76
:10561000062A94ED113A22EE400AB8EEC32A94ED20
:10562000144A20EE020A21EE000AB1EE441AB4EE4A
:10563000440AF1EE10FAB4EE410AC8BFB0EE440AD3
:10564000F1EE10FAB8BFB0EE410A84ED090A3BE072
:1056500010BD00BFD4F84C01002808BF10BDFEF7F4
:1056600071FB84ED0B0A04F1AC00B0EE600AC4EDEE
:105670000C0AFEF7E5FB84ED0C0A94ED0B0A04F12D
:10568000B800FEF7DDFB84ED0B0A94ED060A94EDFD
:105690000C1A04F1640030EE410AFEF721FC84ED9F
:1056A0000A0A94ED0B0A04F18800B1EE400AFEF7F5
:1056B00017FC84ED090A07E00AA114A20020FDF7F7
:1056C000EDFB01E0002060622068D4ED090A94ED52
:1056D0000A0A94ED041A81692046BDE81040084783
:1056E00000E440C65B25735D204D4F543A206E6F39
:1056F00020746F7271756520636F6E74726F6C20A9
:1057000073656C6563746564210A00006C6F6F706B
:10571000464F430010B52DED068BB0EE418AB0EE3A
:10572000609AB0EE40AA0C46FEF74AFE46F6D82133
:10573000C0F600019FED0E1A08319FED0C0A0160C2
:10574000B4EE419A0021446480ED10AA29EE000ACB
:10575000F1EE10FA18BFB0EE401A80ED121A80F880
:10576000601080ED138ABDEC068B10BDF304B53FCD
:1057700000E440C601A000F031F800BF507572652A
:10578000207669727475616C2066756E6374696FDA
:105790006E2063616C6C656421000000006890ED10
:1057A0000B2A90ED0B3AB8EE422A22EE000AB8EE30
:1057B000432A90ED0B3A22EE202AB8EE433ABCEE93
:1057C000C00A23EE011A80ED0D0ABCEEC20A80ED7C
:1057D0000E0ABCEEC10A80ED0F0A7047FBF76AFAA9
:1057E000FBF73EFDFDF794FEFCF708FFFCF782FF98
:1057F000FDF75CF80020FDF72DF9FBF7B5FB00F095
:1058000003F800BFFEE7000082B040F2B8124FF08C
:10581000000948A1C2F2000201204FF40063CDF854
:105820000090FDF7A9F840F27418C2F200080027B2
:1058300008F10406C4F2C0173046C8E90377FEF742
:10584000E1FB41F26004C2F200042046FEF7E6F9F3
:1058500040F6F065C2F2000528462146FEF746FDF7
:105860004CF6CD40C3F6CC50002105F1C402C4F281
:10587000201182E803024DF20A70C3F62340C5F8F6
:105880000C0128463146C5F8D0902F65FEF748FE3A
:105890004FF48070A5F8600028462F65FFF74AFB9B
:1058A0000020C4F24020C5F8D4000020C4F2C0009B
:1058B000A863284685F85E9085F83491FFF786FD49
:1058C00020A10020FDF7EAFA95ED4C0AFDF730F82B
:1058D00023A10020FDF7E2FA2046FEF7F3FCFDF7D6
:1058E00027F84FF47A70FBF789FB40F6A860C2F204
:1058F0000000FCF747FA4FF47A70FBF77FFB40F6A5
:10590000004648F2A067C4F20206C0F2010700BFD9
:1059100030460421FBF782FC2046FEF79FF995ED07
:10592000050A88ED000AFDF703F83846FBF78EFA02
:10593000EEE700BF4A53636F70655F743466346688
:10594000346634006D6F746F722E7A65726F5F65A6
:105950006C6563747269635F616E676C653A0000C1
:1059600053656E736F723A005FEA400C08BF91F0A6
:10597000000F4FEA8C234FEAC12243EA51514FEA0C
:105980001C5018BF00F5F0404FEA300018BF41F03E
:1059900000415FEA6C5C00F02980BCF1FF3F08BF6A
:1059A00040F080407047130C06BF12044FF0100CFB
:1059B0004FF0000C130E04BF12020CF1080C130F71
:1059C00004BF12010CF1040C930F04BF92000CF100
:1059D000020CD30F04BF52000CF1010C11464FF022
:1059E0000002A0F11F00A0EB0C00704711F0004F67
:1059F00008BF704731F000413FF4D5AF0B0C06BF34
:105A000009044FF0100C4FF0000C0B0E04BF0902FC
:105A10000CF1080C0B0F04BF09010CF1040C8B0FE7
:105A200004BF89000CF1020CCB0F04BF49000CF13C
:105A3000010CCCF1200322FA03F341EA030102FA3C
:105A40000CF2A0EB0C0000F10100704723F07F473F
:105A500020F07F4C80EA030000F00040ACEB07032D
:105A600003F57C5303F1FF032DE9804909B44FEAA4
:105A7000144324EA03484FEA154B25EA0B4E0FF274
:105A8000042606EB13273E7803FB0667C7F50007DD
:105A900007FB06F64FEAD64606F102064FEA5437F0
:105AA00007FB066CCCF1005C4FEA1C472CEA074C64
:105AB0000CFB06F507FB06F404EB15464FEA9616B9
:105AC00049085FEA320234BF00204FF000404FEA3D
:105AD000D13706FB07FC4FEA1C4C0CFB0BF7D21B23
