:020000040800F2
:10000000580F0020D1010008452F00085127000893
:10001000412F0008B90C0008353800080000000026
:10002000000000000000000000000000113800087F
:10003000290E000800000000492F000815380008AC
:10004000EB010008EB010008EB010008EB010008E0
:10005000EB010008EB010008EB010008EB010008D0
:10006000EB010008EB010008EB010008EB010008C0
:10007000EB010008EB010008EB010008EB010008B0
:10008000EB010008EB010008EB010008EB010008A0
:10009000EB010008EB010008EB010008EB01000890
:1000A000EB010008EB010008EB010008EB01000880
:1000B0001D380008EB01000829380008EB01000892
:1000C000EB010008EB010008EB010008EB01000860
:1000D000EB010008EB010008EB010008EB01000850
:1000E000EB010008EB010008EB01000800F002F84A
:1000F00000F05FF814A696E8000CB244B344DA4569
:1001000001D100F056F8BAE80F000FA696E83000CB
:10011000A5EB040504EB0607AAEB0704A7F101070A
:100120004FEA15154FEA3414A4F10104AC4201D38F
:1001300000F03FF813F0010F18BFFB1A43F0010362
:1001400000F001F8DBE71847CC710000EC7100000B
:10015000103A24BF78C878C1FAD8520724BF30C8F3
:1001600030C144BF04680C60704700007047000055
:100170000023002400250026103A28BF78C1FBD8B0
:10018000520728BF30C148BF0B607047662906F090
:100190007C87002070471FB500F0C4FB04000020DE
:1001A000002106F001F8E06000F03CF91FBD10B539
:1001B00010BD00F0CDFC1146FFF7EDFF05F032FB5E
:1001C00000F0EBFC03B4FFF7F2FF03BC00F0B6FC59
:1001D0000948804709480047FEE7FEE7FEE7FEE7DB
:1001E000FEE7FEE7FEE7FEE7FEE7FEE70448054917
:1001F000054A064B7047000019380008ED0000085A
:1002000058090020580F0020580B0020580B0020E0
:100210000FB41CB5074B06AA7B44694600900598AD
:1002200000F035FB0020694600F044FB1CBC5DF883
:1002300014FB0000990600002DE9F0474FF0000A7A
:1002400089460446C0F820A02046E1688847002877
:1002500076D0252806D0D4E901219047206A401C99
:100260002062F1E7E168204600258847C4F81CA019
:1002700006460027C4F818A02A2E09D0304605F0FB
:1002800055FF38B304EB8708303EC8F8186019E012
:1002900059F8041B204604EB87029161E168884706
:1002A000012F064618D1E069002820DA25F0200544
:1002B0001DE0D8F8180000EB800006EB4000303855
:1002C000C8F818002046E1688847064605F02EFF6A
:1002D0000028EED1012F0AD02E2E08D12046E16849
:1002E00088477F1C0646022F45F02005C4DBA06925
:1002F000002803DA404245F00105A061E80701D07B
:1003000025F01005B6B1A6F14100192802D8203613
:1003100045F400654A463146204625604D46FFF7C4
:1003200035FF58B1012806D0ED1D25F0070000F17A
:10033000080989E704E005F1040985E730468AE702
:10034000206ABDE8F087032A40F2308010F0030CE9
:1003500000F0158011F8013BBCF1020F624498BF18
:1003600011F801CB00F8013B38BF11F8013BA2F1B5
:10037000040298BF00F801CB38BF00F8013B11F030
:10038000030300F09C82083AC0F0088051F8043B57
:10039000083A51F804CBA0E80810F5E7121D5CBF3D
:1003A00051F8043B40F8043BAFF30080D20724BF70
:1003B00011F8013B11F801CB48BF11F8012B24BF04
:1003C00000F8013B00F801CB48BF00F8012B704753
:1003D0004FF0000200B5134694469646203922BFDE
:1003E000A0E80C50A0E80C50B1F12001BFF4F7AF29
:1003F000090728BFA0E80C5048BF0CC05DF804EB0B
:10040000890028BF40F8042B08BF704748BF20F878
:10041000022B11F0804F18BF00F8012B7047704776
:100420007047704708487CB5784400900748784486
:10043000009C0546019004E020460168084480477E
:10044000241DAC42F8D17CBD246F0000226F000057
:1004500010B500F06BFA006810BD10B5044600F04E
:1004600065FA046010BD2DE9FF4F0C461E464FF0A3
:10047000FF378BB0D2E90001DDF860800A908A4630
:10048000C1F30A5505B93D46002108464FF000006A
:10049000BAF1000F00F4400005DA00EB80004FF4E1
:1004A000400101EA50004FEA9059B9F1010F00DD17
:1004B000B9460A9850EA4A000ED044F61050A5F208
:1004C000FF3545432F14B8F1000F1ED07542291E89
:1004D0001EDDC9F100021CE0B8F1010F4FF0000071
:1004E00001D0302103E0F24305E02154401CB0422A
:1004F000FBDB30460022002121540B99C1F8088013
:10050000C1E900200FB0BDE8F08FBD1B6D1CDEE718
:100510004A4600DA694206A800F092FA06AB93E870
:10052000070003AB83E8070050460A9905F01EFA5E
:100530008DE80700A0F500501F3800900398002DAB
:100540000ADD42F21F014A460844002303A9039032
:10055000684605F087FC09E0A0F500504A461F38C0
:10056000002303A90390684605F091FC8DE807007D
:100570000004000C03D04FF0FF30410800E01046AB
:10058000B8F1000F03D00022009215461EE0751E40
:1005900005D400F0CFF9303262556D1EF9D5B3465F
:1005A0000122084302D000227F1C04E0207830287A
:1005B00001D100227F1E002A099784D01DE0112D51
:1005C00007DA00F0B7F9303262556D1C50EA0102CB
:1005D000F5D1084302D00098C8B10EE00021681E92
:1005E00005E0235C625C63542254401E491C814236
:1005F000F7DBAB46A81B401E0990002004F80B0057
:100600000B98099AC0F80880C0E9002B7AE71126F8
:100610004FF0000857E72DE9F04F88460446D21DF9
:1006200022F0070191B0D1E90001CDE90A0105F0FE
:1006300065FD02460B98C00F01D02D2007E0206811
:10064000810701D52B2002E0202101EAC000032A06
:10065000099001D0072A05DB03464146204600F0F9
:10066000AFF90BE12078800601D5E06900E00620B3
:10067000B8F1650F814606D0B8F1660F18D0B8F111
:10068000670F70D131E00020B9F1110F009001DB4C
:10069000112301E009F101030AAA01A90CA8FFF73F
:1006A000E2FEDDE90C70002609F10105834647E012
:1006B00001204B4600904FF000470AAA01A90CA860
:1006C000FFF7D1FEDDE90DB00C995D46002610B9AB
:1006D00009F101000D18B9EB050003D4C0F1FF3694
:1006E00009F10105A5EB09002BE0B9F1010F01DAD1
:1006F0004FF001090020B9F1110F0090484601DDCB
:10070000112300E003460AAA01A90CA8FFF7ABFEDB
:10071000DDE90C704D4600268346207800070AD498
:10072000AB4500DA5D4601A8012D04DD411911F841
:10073000011C302907D04F4502DA17F1040F04DA03
:10074000012082460FE06D1EEEE7002F02DCED1B5C
:100750003E4403E0781CA84200DD7D1CB81B00F17C
:10076000010A4FF000472078000703D4AA4501DBB7
:100770004FF0FF3A0021B7F1004F0DF143088DF81B
:10078000431024D002202B23002F01DA7F422D2397
:100790000A21021EA0F1010000DC5FB197FBF1FC11
:1007A00097FBF1F201FB1C7C17460CF1300C08F8AA
:1007B00001CDEEE7A8F1010003702188090501D5FC
:1007C000452100E06521A0F1010800F8011C09980D
:1007D0000FA9A1EB0807FF1D00B10120411901EB92
:1007E000EA70A1693844081A401EA0612078C0064A
:1007F00002D42046AFF30080099828B1D4E9012142
:100800009047206A401C20622078C00622D52046EE
:10081000AFF300801EE0002E04DBB34502DD01A82B
:10082000805D00E03020D4E901219047206A401C1F
:100830002062761CAAF101005FEA000A0AD100F0EA
:1008400071F8C0680168405CD4E901219047206AD2
:10085000401C2062281EA5F10105DCDC07E0D4E97C
:10086000012118F8010B9047206A401C2062381EB5
:10087000A7F10107F3DC2046AFF30080032011B09D
:1008800041E6000001694A1C02610878704700B522
:100890008FB0CDE901310021059105497944CDE9B9
:1008A000031011466846FFF7C7FC0FB000BD0000FB
:1008B000E5FFFFFF0A6802F8010B0A60704710B5F8
:1008C000203AC0F00B80B1E81850A0E81850B1E809
:1008D0001850A0E81850203ABFF4F5AF5FEA027C48
:1008E00024BFB1E81850A0E8185044BF18C918C078
:1008F000BDE810405FEA827C24BF51F8043B40F819
:10090000043B08BF7047D20728BF31F8023B48BFFD
:1009100011F8012B28BF20F8023B48BF00F8012B3B
:1009200070470000004870471801002000487047D9
:10093000F800002030B5B0F10A0271F100034FEA6F
:10094000900E4EEA817EB0EB0E0061EB91014FEA12
:10095000101E4EEA017E10EB0E0041EB11114FEA22
:10096000102E4EEA016E10EB0E0041EB11214FEA02
:10097000104E4EEA014E10EB0E0041EB11414018B3
:1009800041F100014FEAD00040EA41704FEAD10145
:100990004FEA810444EA907410EB800544EB0104B3
:1009A0006D1944EB0404521BA3414FF0000348BFF0
:1009B0000A3200D530BD401C41F1000130BD0000BD
:1009C0002DE9F0411F46044603260168072A01F479
:1009D000006004DB08B116A505E016A503E008B128
:1009E00015A500E015A521F010002060A069C01E2B
:1009F000A0610FB1401EA0612046AFF300804FB14F
:100A0000D4E9012138469047206A401C2062C01C6E
:100A1000206206E0206AFAE7D4E9012115F8010B0B
:100A20009047761EF8D22046AFF30080BDE8F081F3
:100A30004E414E006E616E00494E4600696E660082
:100A40002DE9F047814616468AB0354878440DC8EE
:100A50008DE80D0032487844801C03AC0DC884E852
:100A60000D0041F69B300844372190FBF1F290FBDA
:100A7000F1F5A5F1800501FB12041B3C02D564428F
:100A8000012000E00020DFF898A080460027FA440B
:100A9000AAF1BE0A0EE0E0070AD03246684607EB2C
:100AA000470101230AEB810105F0F1F98DE8070008
:100AB00064107F1C002CEED1194F7F44AE3F19E02B
:100AC000E80715D007EB04100DF1180A90E80E00A6
:100AD0008AE80E00C068F04201D1981908903246A9
:100AE000012306A903A805F0D2F903AB83E80700A8
:100AF0006D10641C002DE3D14FF0010332466946AE
:100B0000B8F1000F03A802D005F0ACF901E005F040
:100B1000BEF9C9E90001C9F808200AB0BDE8F087AC
:100B2000BC66000010B5002000F040F8FFF73FFB66
:100B3000BDE81040012000F001B800000149182074
:100B4000ABBEFEE72600020000487047F800002018
:100B50007546FFF7F9FFAE4605006946534620F09B
:100B60000700854618B020B5FFF740FBBDE82040E0
:100B70004FF000064FF000074FF000084FF0000B59
:100B8000AC46ACE8C009ACE8C009ACE8C009ACE8C8
:100B9000C00921F007018D46704710B50446AFF338
:100BA00000802046BDE81040FFF70CBB10B500F0F8
:100BB0004BF8BDE8104000F042B800004FF0013C97
:100BC00050F8042B51F8043B9A4221D1A2EB0C03BC
:100BD000934313EACC1317D150F8042B51F8043B7C
:100BE0009A4215D1A2EB0C03934313EACC130BD119
:100BF00050F8042B51F8043B9A4209D1A2EB0C03A4
:100C0000934313EACC13DBD04FF00000704700BFD2
:100C1000D01A01BAB1FA81F101F0180122FA01F0FB
:100C2000CB40DBB2C0B2C01AC1F120012CFA01F3F3
:100C3000D11A914311EAC311E6D1704770470028D9
:100C400001D0FFF77BBF704710B5002102A000F074
:100C500013F8012010BD0000534947414252543A55
:100C60002041626E6F726D616C207465726D696E89
:100C70006174696F6E00000070B505460C460A206D
:100C800000E06D1C00F011F835B128780028F8D18B
:100C900002E0641C00F009F814B120780028F8D1B3
:100CA000BDE870400A20AFF3008008B569468DF8B2
:100CB00000000320ABBE08BDFEE7000070B540F2A7
:100CC000E816C2F20006B16841F204050446CEF20D
:100CD0000005E9B94EF6FC50CEF20000016841F083
:100CE000807101600020286055F8040C40F001007C
:100CF00045F8040C00F03AFE306030684DF6836130
:100D0000C4F21B31A0FB0101880C70600120B060AF
:100D100070682A68604300210AE000BFD643194486
:100D2000934288BF5642314481421A4628BF70BD63
:100D30002B689342F2D12B689342EFD12B689342F8
:100D4000ECD12B689342F3D0E8E7000070B541F294
:100D5000000040F2E814CEF20000C2F2000446683F
:100D60006568A16821B1E068B04220D1606970BDBA
:100D70004EF6FC51CEF200010A6842F080720A6021
:100D800000214160016841F00101016000F0EEFDC9
:100D9000206020684DF68361C4F21B31A0FB010185
:100DA000880C60600120A060E068B042DED0C143E2
:100DB000864288BF41422069314408448542C4E9E3
:100DC0000360D3D8B0FBF5F1626901FB15000A445A
:100DD00062612061606970BD80B54EF6FC50CEF254
:100DE0000000016841F08071016041F20000CEF224
:100DF000000000214160016841F00101016000F044
:100E0000B5FD40F2E811C2F20001086008684DF635
:100E10008362C4F21B32A0FB0202900C48600122E4
:100E200000208A6080BD000070470000EFF3108052
:100E300072B600BFFEE70000B0B5044600F026F928
:100E4000054640F20000C2F200000078611C18BFA5
:100E5000044400BF00F01AF9401BA042FAD3B0BD11
:100E60002DE9F04F82B00E68002E00F0FD8041F2B7
:100E70000042C4F20102042340F2004E904208BF37
:100E800003234FF6FF7CC4F2010E009300240123DC
:100E9000C1F2100C4FF0000A4FF0000944E000BF0F
:100EA000012704F00C030F229A402BEA020207FAF2
:100EB00003F34FEA9A051A4346F825204E6840F29C
:100EC0000C45F202DEF8082054BF22EA080242EA8A
:100ED0000802C4F20105CEF808202A68B30254BF04
:100EE00022EA080242EA08022A60B303DEF804207C
:100EF00054BF22EA080242EA0802F303CEF80420B3
:100F0000DEF800204FF0010354BF22EA080242EA53
:100F10000802CEF800200E680AF1010A36FA0AF239
:100F200004F1040400F0A08003FA0AFB16EA0B089F
:100F3000F1D04E68664511DC122E55D8DFE806F078
:100F4000340A4448545454545454545454545454E7
:100F5000544C5000D1F80C9046E000BF4FF6FF72A1
:100F6000C1F2210296420FDC0022C1F21102964228
:100F70001AD00022C1F21202964215D00022C1F20C
:100F80002102964210D02FE00022C1F222029642A6
:100F90000AD00022C1F23102964205D00022C1F2ED
:100FA0003202964220D100BF8A684AB1012A14BF9A
:100FB000C0F814B0C0F810B04FF0080914E000BF3A
:100FC0004FF0040910E000BFCA6802F108090BE005
:100FD0004FF0000908E000BFCA6802F1040903E00D
:100FE000CA6802F10C0900BF22460646B8F5807FA8
:100FF00024BF203A043637680F25954027EA0505B7
:1010000009FA02F22A433260CA79D2067FF583AF29
:1010100041F21803C4F202031A68AEF57E7642F07C
:1010200001021A601A6802F001020192019A2AF084
:10103000030256F802B040F60002C4F201029042E8
:1010400010D040F60042C4F2010290423FF428AFB3
:1010500041F20002C4F20102009F904208BF022741
:101060001FE700BF00271CE702B0BDE8F08F0000BB
:10107000C26802EA0103914341EA034101617047FA
:10108000002A08BF090401617047000040F65010B3
:10109000C2F2000000687047002804BF01207047BA
:1010A000F0B581B0044690F83D0028B9002084F8DE
:1010B0003C00204600F050FA242084F83D002068CF
:1010C000016821F001010160016841F40041016003
:1010D000016821F40041016000F034FC636848F2CB
:1010E000A16CC0F2010C40F60011C0F23D01634555
:1010F0003CBF48F28041C0F21E01884202D201206A
:1011000001B0F0BD4DF68361C4F21B31A0FB0112AA
:101110002168970CD1F804E04FF496762EF03F0545
:1011200045EA92454D60774348F638160D6AC0F29D
:101130004106A7FB067625F03F07634538BF960CAE
:10114000721C3A430A62CA6948F2A0664CF6FF77FD
:10115000C0F20106B34222EA07020BD801385B0055
:10116000B0FBF3F001306FF31F30042898BF042068
:101170001BE000BFA768013857B119277B43B0FBBC
:10118000F3F001306FF31F3070B100F5804007E0DD
:1011900003EB4303B0FBF3F001306FF31F3018B1E2
:1011A00000F5004001E000BF01201043C86108685D
:1011B000D4E9072320F0C000104318430860886872
:1011C00048F2FF3204F10C0790438CCF18431043D0
:1011D000A6698860C86820F0FF0038433043C860C3
:1011E000086840F00100086000202021206484F895
:1011F0003D10206384F83E0001B0F0BD2DE9F04FB2
:1012000085B004460020994616460F460490FFF725
:101210003DFF94F83D10202927D10546206800BFE6
:10122000816989071CD5FFF731FF411B20681A2906
:10123000F6D381698907F3D500202021206384F843
:101240003D1084F83E00206C04F13C0A40F0200080
:101250002064022000218AF8001005B0BDE8F08F5C
:10126000A2461AF83C1F012904D1022005B0BDE8AE
:10127000F08F00BF01228AF800200368DDE90F1813
:101280000E9ADB0703D1036843F001030360036890
:1012900023F400630360222084F83D00402084F89A
:1012A0003E000020206462626185608D39462085A1
:1012B0000020CFF6FF70E062204632464B46CDE973
:1012C000008501F047FA18B1012005B0BDE8F08FA4
:1012D000208D022810D0012824D0002838D10020E9
:1012E0000390206841690391816903910399016822
:1012F00041F40071016037E02068016841F4006149
:101300000160EFF3108072B60020039020684169FD
:101310000391816903910399016821F4806101605F
:1013200062B621E02068016821F480610160EFF37A
:10133000108072B600200390206841690391816992
:1013400003910399016841F40071016062B60BE0FA
:101350002068016841F480610160002103914169C6
:101360000391806903900398208D002800F0D480B9
:10137000042740F218094BF2895BC0F20107C2F260
:101380000009C1F2F84B232617E000BF2046414672
:101390002A4601F0BBFB002896D12068616A0069EB
:1013A0000870606A218D01306062481E2085618D61
:1013B00001396185010400F0AF8080B2032867D84D
:1013C000022800F089800128E0D02046394600221A
:1013D0004346009501F048FA00287FF475AF206875
:1013E000016821F480610160EFF3108072B620681B
:1013F000616A00690870606A218D0130013960629C
:101400002185618D01396185D9F80010C908A1FBDA
:101410000B12110A71430491049901390491049942
:10142000002900F0858021684A6952071ED404997A
:10143000013904910499002900F07A8021684A69F1
:10144000520713D4049901390491049900296FD0EB
:1014500021684A69520709D4049901390491049911
:10146000002965D021684A695207D5D50A6842F437
:1014700000720A6009690170606A218D0130606242
:10148000481E2085608D0138608562B685E700BF03
:10149000204641462A4601F039FB00287FF414AF6C
:1014A0002068616A00690870606A2268411C208DAA
:1014B000616201382085638D013B638553695B0759
:1014C0007FF578AF80B2032803D1106820F48060E4
:1014D0001060106964E700BF204639460022434689
:1014E000009501F0C1F900287FF4EEAEEFF3108013
:1014F00072B62068616A026842F400720260006994
:101500000870606A218D01306062481E2085608D00
:101510000138608562B640E7202084F83D00002055
:1015200084F83E0000218AF8001005B0BDE8F08F75
:1015300000202021206384F83D1084F83E00206CB8
:1015400040F02000206462B6012000218AF80010DB
:1015500005B0BDE8F08F000010B586B0006845F614
:101560000001C4F2000188424FF00001CDE90411EE
:10157000CDE9021128D045F20041C4F200018842B1
:1015800046D141F21804C4F20204206802A940F0D6
:1015900008002060206800F0080001900198C02039
:1015A0000290122003900320059040F60040C4F200
:1015B0000100FFF755FC606840F40010606060684F
:1015C00000F4001022E000BF41F21804C4F202044B
:1015D000206802A940F008002060206800F00800A0
:1015E000019001984FF44060029012200390032074
:1015F000059040F60040C4F20100FFF731FC60683E
:1016000040F480006060606800F480000190019800
:1016100006B010BD40F2000040F65011C2F20000CA
:10162000C2F2000100780A681044086070470000A8
:1016300080B542F20000C4F20200016841F01001DE
:101640000160032000F08CF80F2000F005F800F096
:1016500027F8002080BD000070B540F20006C2F2FD
:10166000000640F218013278C2F200014FF47A739A
:101670000968B3FBF2F20446B1FBF2F1084600F050
:10168000A1FB0F2C4FF0010508D838B94FF0FF30FF
:1016900021460022002500F037F87460284670BD0E
:1016A00082B041F21800C4F202000168022241F047
:1016B00001010160016801F0010101910199416896
:1016C00041F080514160406800F0805000900098E7
:1016D0000420C4F20100016862F31A61016002B0E3
:1016E00070470000002848BF704700F01F0101222A
:1016F00002FA01F11C2202EAD0004EF20012CEF2F0
:10170000000281507047000010B54EF60C5CCEF21E
:10171000000CDCF80030C3F3022E8EF00704042C1A
:1017200028BF0424BEF103034FF0FF3E0EFA04F479
:1017300038BF0023A14399400EFA03F39A431143A3
:1017400000F00F0200F160430901043A03F564431D
:101750006244002848BF02F10C03197010BD00005C
:101760004EF60C51CEF200010A684FF6FF031A4004
:1017700060F30A2242F0806040F0FD70086070471C
:10178000002804BF012070472DE9F04381B042F2E8
:101790000008C4F202080446D8F800000D4600F024
:1017A000070088420CD2D8F8000020F00700284338
:1017B000C8F80000D8F8000000F00700A8426CD17B
:1017C000206841F204098107C4F2020917D54107D4
:1017D00005D5D9F8001041F4E061C9F800100107FF
:1017E00005D5D9F8001041F46051C9F80010D9F8B6
:1017F0000010A26821F0F0011143C9F80010C007E1
:1018000042D1D8F8000000F00700A8420CD9D8F85F
:10181000000020F007002843C8F80000D8F80000B6
:1018200000F00700A84238D12068410707D5D9F851
:101830000010E26821F4E0611143C9F800100007CC
:1018400008D5D9F80000216920F4605040EAC100B1
:10185000C9F80000D9F8002002F00C00082841F275
:101860000020C0F27A0051D147F25623C2F38341DF
:10187000C0F60003595CD2033CD440F60010C0F21D
:101880003D00484342E000BF606802280AD00128BA
:101890002AD159F8041C890308D4012001B0BDE8FD
:1018A000F08300BF59F8041C8901F6D5D9F800105F
:1018B00021F003010843C9F80000FFF7E7FB0646E3
:1018C00041F28837D9F80000616800F00C00B0EBF5
:1018D000810F96D0FFF7DAFB801BB842F2D90320C4
:1018E00001B0BDE8F08300BF59F8041C8907D4D5C6
:1018F000DCE700BFD9F8002047F23C13C2F34042B6
:10190000C0F600039A5C4843B0FBF2F0D9F800102F
:1019100047F22412C1F30311C0F60002515C40F2F9
:10192000180220FA01F140F20400C2F2000000683F
:10193000C2F200021160FFF78FFE002001B0BDE887
:10194000F083000040F2180041F20401C2F20000EE
:10195000C4F202010068096847F23412C1F302219F
:10196000C0F60002515CC8407047000041F2040C10
:10197000C4F2020CDCF8003003F00C00082841F23D
:101980000020C0F27A0018BF704747F25621C3F317
:101990008342C0F600018A5CD90305D440F60010EA
:1019A000C0F23D0050437047DCF8001047F23C1392
:1019B000C1F34041C0F60003595C5043B0FBF1F065
:1019C00070470000002804BF012070472DE9F04156
:1019D00082B00446007841F20006C007C4F2020655
:1019E0000CD0706800F00C00042840F08180306852
:1019F000800303D56068002800F04E8120788007BE
:101A00001BD5706810F00C0F09D0706800F00C0046
:101A1000082840F08B807068C00300F18780306830
:101A2000800703D52069012840F03681306861695C
:101A300020F0F80040EAC10030602078000713D49D
:101A4000207840072CD4E569002D00F020817068D3
:101A500000F00C00082840F0AF80012D40F00C8110
:101A6000012002B0BDE8F081A069002800F08C8060
:101A70000020C4F242200121C0F88014FFF706FBC9
:101A8000054600BF706A800700F1BA80FFF7FEFAD2
:101A9000401B0228F6D9032002B0BDE8F08100BF48
:101AA000F0695FEAC00808D4F06940F08050F06146
:101AB000F06900F080500090009847F20007C4F2EF
:101AC00000073868C0054DD4386840F4807038602D
:101AD000FFF7DCFA054600BF3868C00542D4FFF7BF
:101AE000D5FA401B6428F7D9032002B0BDE8F08185
:101AF000706800F00C00082803D17068C0033FF53F
:101B000076AF6068002800F00981B0F5A02F00F0E2
:101B10001D81B0F5803F00F01D81306820F48030D9
:101B20003060306820F4802017E100BF2069002871
:101B300040F20000C4F2422000F08C8001210160DC
:101B4000FFF7A4FA054600BF306880073FF56EAF87
:101B5000FFF79CFA401B0228F6D9032002B0BDE82B
:101B6000F08100BFE068002800F09A80052800F0AE
:101B7000B180012800F0B280306A20F001003062AC
:101B8000306A20F00400ACE00020C4F242200021C2
:101B9000C0F88014FFF77AFA054600BF706A800724
:101BA0007FF54EAFFFF772FA401B0228F6D90320EB
:101BB00002B0BDE8F08100BF0027C4F24227002038
:101BC0003866FFF763FA022D05460DD130688001B3
:101BD00040F1D680FFF75AFA401B02284FF003006D
:101BE000F4D902B0BDE8F081306880014FD5FFF72D
:101BF0004DFA401B02284FF00300F5D9F1E700BF72
:101C000040F21800C2F20000006844F6D351C1F25D
:101C10006201A0FB0101480A019000BF00BF0198CA
:101C2000411E002801913FF40BAF00BF0198411EF7
:101C3000002801913FF404AF00BF0198411E002825
:101C400001913FF4FDAE00BF0198411E00280191B3
:101C5000E4D1F5E600210160FFF718FA054600BF60
:101C6000306880077FF5E9AEFFF710FA401B0228C5
:101C70004FF00300F4D9B4E77068216A00F48032B1
:101C80008A4209D1616A00F47010884204D10020B0
:101C900002B0BDE8F08100BF012002B0BDE8F081D4
:101CA000306A20F001003062306A20F004003062B7
:101CB000FFF7ECF9054641F2883700BF306A80072C
:101CC00022D5FFF7E3F9401BB8424FF00300F5D9E6
:101CD00087E700BF306A40F004003062306A40F0AD
:101CE00001003062FFF7D2F9054641F2883700BFA4
:101CF000306A800708D4FFF7C9F9401BB842F7D90A
:101D0000032002B0BDE8F081B8F1000F3FF59BAEB3
:101D1000F06920F08050F06195E600BF306820F453
:101D200080303060306820F480203060FFF7AEF9FA
:101D3000054600BF306880037FF560AEFFF7A6F967
:101D4000401B64284FF00300F4D94AE7306840F4A0
:101D500080203060306840F480303060FFF796F9C2
:101D6000054600BF306880033FF548AEFFF78EF9A7
:101D7000401B6428F6D9032002B0BDE8F08100BF03
:101D8000206AB0F5803F05D17168A26821F4003166
:101D9000114371607168626A21F474111143084340
:101DA000706001203866FFF771F9044630688001E1
:101DB0003FF56DAFFFF76AF9001B02284FF00300F3
:101DC000F4D90EE7411E0020B0EB116F1CBF0120BB
:101DD00070474EF21002CEF2000251604EF62351CF
:101DE000CEF20001F0230B70072190601160704764
:101DF000704700007047000090F83C20012A4FF027
:101E0000020236D010B580F83D200268D2F804E016
:101E1000D2F808C00C682EF07003234340F2FF7420
:101E2000C4F20004A24253600ADCB2F1804F13D026
:101E300040F20043C4F200039A420DD011E000BF0B
:101E400042F60043C4F201039A4205D040F6000373
:101E5000C4F200039A4204D149682CF0800319436C
:101E600091600121002280F83D1080F83C20BDE8FF
:101E70001040104670470000002804BF0120704742
:101E800010B5044690F83D0028B9002084F83C00C5
:101E9000204600F06FF8022084F83D00206840F2F0
:101EA000FF730268C4F2000342F6004C9842C4F289
:101EB000010C15DCB0F1804F1AD040F20041C4F2A1
:101EC0000001884214D0984218DCB0F1804F1DD038
:101ED00040F20041C4F20001884217D01AE000BF6E
:101EE000604505D040F60001C4F200018842EAD105
:101EF000A16822F070020A439842E6DD604505D0F1
:101F000040F60001C4F20001884203D1216922F4A5
:101F100040720A43A36922F08001D4F804E0E26829
:101F2000194360450160C262C0F828E002D16169CE
:101F3000CCF83010012141610269D20703D0026957
:101F400022F001020261002084F8461084F83E105D
:101F500084F83F1084F8401084F8411084F842104F
:101F600084F8431084F8441084F8451084F83D1038
:101F700010BD000010B582B0006840F60001C4F248
:101F80000001884212D0B0F1804F29D141F21C00EB
:101F9000C4F2020001681C2441F0010101600068E4
:101FA00000F00100019001980EE000BF41F21C001A
:101FB000C4F2020001681E2441F0040101600068BF
:101FC00000F0040000900098204600210022FFF756
:101FD0009BFB204602B0BDE81040FFF783BB00BF6B
:101FE00002B010BD90F83D1001291CBF01207047C0
:101FF000022180F83D10006840F2FF72C168C4F20F
:102000000002904241F00101C16009DCB0F1804F53
:1020100012D040F20041C4F2000188420CD012E01C
:1020200042F60041C4F20101884205D040F60001A9
:10203000C4F20001884206D1816801F00701062937
:1020400004BF00207047016841F0010101600020D9
:102050007047000090F83C20012A4FF0020200F087
:10206000C58080B580F83D20D0F800C04FF677726B
:10207000DCF8083023EA0202CCF808200B684F2B6A
:1020800028DC1F2B44DD202B45D0302B43D0402BA8
:1020900040F0AE80D1F804E0C968DCF82030DCF80C
:1020A000202022F00102CCF82020DCF8182022F0B9
:1020B000F00242EA011123F00A0242EA0E02CCF8D1
:1020C0001810CCF82020DCF8081041F0470121F06E
:1020D000300180E06F2B27DDB3F5005F48D0B3F50A
:1020E000805F7AD0702B40F08380D1E901E3C9682A
:1020F000DCF8082043EA0E0322F47F4243EA012180
:102100001143CCF80810DCF8081041F0770162E0C8
:102110000BB1102B6CD1DCF8081021F070011943C1
:1021200041F0070157E000BF502B35D0602B5FD145
:10213000D1F804E0C968DCF82030DCF8202022F077
:102140001002CCF82020DCF8182022F4704242EA79
:10215000013123F0A00242EA0E12CCF81810CCF89C
:102160002020DCF8081041F0670121F0100132E076
:10217000D1E901E3C968DCF8082043EA0E0322F440
:102180007F4243EA01211143CCF80810DCF8081023
:1021900041F480411FE000BFD1F804E0C968DCF8D9
:1021A0002030DCF8202022F00102CCF82020DCF8DE
:1021B000182022F0F00242EA011123F00A0242EA5A
:1021C0000E02CCF81810CCF82020DCF8081041F0F2
:1021D000570121F02001CCF808100022012180F8DD
:1021E0003D10002180F83C10BDE88040104670474B
:1021F0000122F3E77047000070B504460068C56827
:102200000669B10716D515F0020113D06FF002016F
:102210000161012121778069800703D02046FFF703
:10222000E9FF05E0204600F08FF8204600F00EFAA6
:1022300000202077700719D515F0040016D020680B
:102240006FF00401016102212177806910F4407F61
:1022500004D02046FFF7CEFF06E000BF204600F086
:1022600073F8204600F0F2F900202077300717D5E8
:1022700015F0080014D020686FF0080101610421F6
:102280002177C069800703D02046FFF7B3FF05E040
:10229000204600F059F8204600F0D8F900202077B9
:1022A000F00619D515F0100016D020686FF0100157
:1022B000016108212177C06910F4407F04D02046D5
:1022C000FFF798FF06E000BF204600F03DF82046EB
:1022D00000F0BCF900202077F00718BF15F00100CE
:1022E00002D1300609D412E020686FF001010161CB
:1022F000204600F01BFA300609D515F0800006D004
:1023000020686FF0800101612046FFF771FD7006C3
:1023100009D515F0400006D020686FF0400101613A
:10232000204600F013FAB00658BF70BD15F020002B
:1023300008D021686FF0200220460A61BDE8704095
:10234000FFF758BD70BD00007047000090F83C30AA
:10235000012B04BF022070474FEAB202032A3DD886
:102360002DE9F043DFE802F002407CB6036842F654
:1023700000461D6A1A6AC4F2010622F001021A62BE
:102380001A465C6852F818CFB3428E68D1F800E064
:1023900025F0020545EA06050CD1CE68D1E905789D
:1023A00024F4407425F00C0526F004063C43354324
:1023B00044EA08042CF0730747EA0E075C609F614B
:1023C0004F6809695F631D629F6947F008079F6155
:1023D0009F6927F004079F61ACE000BF0121002244
:1023E00080F83C2008467047036842F600461D6AA4
:1023F0001A6AC4F2010622F010021A621A46D3F8D1
:1024000004C052F8184FB3428E68D1F800E025F0AE
:10241000200545EA06150FD1CE68D1E905986FF081
:10242000400725F0C00507EA061635432CF440673F
:1024300048EA090647EA860C24F4E64444EA0E27F3
:10244000C3F804C09F614F6809699F631D629F695B
:1024500047F400679F619F6927F480679F6168E088
:10246000036842F600461D6A1A6AC4F2010622F4A5
:1024700080721A621A46D3F804C052F81CEFB342B5
:102480008E680C6825F4007545EA06250FD1CE68E4
:10249000D1E90598360240F2FF4725F44065BE4376
:1024A00035432CF4405748EA090647EA061C2EF04B
:1024B00073072743C3F804C0DF614F680969DF630E
:1024C0001D62DF6947F00807DF61DF6927F0040755
:1024D000DF612FE0036842F60047D3F820C01A6A94
:1024E000C4F2010722F480521A621A465C6852F85C
:1024F0001C5FD1F800E08E68BB4204D14F6924F420
:10250000804444EA87142CF4005747EA063725F440
:10251000E64646EA0E265C60DE614E6809691E6486
:102520001F62DF6947F40067DF61DF6927F48067B6
:10253000DF6109021368194311600021BDE8F0430F
:10254000002280F83C20084670470000002804BFA5
:102550000120704710B5044690F83D0028B90020CE
:1025600084F83C00204600F06FF8022084F83D001B
:10257000206840F2FF730268C4F2000342F6004C88
:102580009842C4F2010C15DCB0F1804F1AD040F231
:102590000041C4F20001884214D0984218DCB0F126
:1025A000804F1DD040F20041C4F20001884217D094
:1025B0001AE000BF604505D040F60001C4F20001FA
:1025C0008842EAD1A16822F070020A439842E6DD0F
:1025D000604505D040F60001C4F20001884203D1F5
:1025E000216922F440720A43A36922F08001D4F8E1
:1025F00004E0E268194360450160C262C0F828E067
:1026000002D16169CCF83010012141610269D20721
:1026100003D0026922F001020261002084F8461012
:1026200084F83E1084F83F1084F8401084F841107C
:1026300084F8421084F8431084F8441084F845105C
:1026400084F83D1010BD0000704700007047000086
:1026500041B1082910D0042914BF00F1410200F152
:102660003F020BE090F83E20012A1CBF012070477A
:10267000022280F83E2013E000F140021278012A85
:102680001CBF012070470222082907D0042914BF6B
:1026900080F8412080F83F2002E000BF80F8402011
:1026A000006801F01F010122036A8A4023EA020147
:1026B0000162036A42F64441C4F201011A43A1F1E6
:1026C0004403984202620FD040F2FF71C4F200014D
:1026D000884213DCB0F1804F1CD040F20041C4F2BC
:1026E0000001884216D01AE00A6842F400420A60EB
:1026F00040F2FF71C4F200018842EBDD42F6004176
:10270000C4F20101884205D040F60001C4F2000184
:10271000884204D1816801F00701062903D00168CD
:1027200041F001010160002070470000006840F6A0
:102730000001C4F20001884218BF704740F2E07007
:10274000C2F200004FF0814102F0EABC7047000085
:10275000FEE700002DE9F04782B0044600689A4683
:102760000B9D0A9E0368914643F4806202600268F2
:102770000F4642F48071016020464FF001110022A3
:102780003346009500F070F850B120680068C0052D
:1027900044BF4FF400702064032002B0BDE8F0870E
:1027A00040F202082068C0F2010807F0FE07076146
:1027B0002046414632462B4600F03CF920B101202C
:1027C00002B0BDE8F08700BF0020019020682A46D3
:1027D000416901918069314601900198204600F0DD
:1027E000DDF9B0B92068BAF1010F09D04FEA19211B
:1027F0000161204631462A4600F0D0F948B92068E8
:102800005FFA89F10161204631462A4600F0C6F997
:1028100060B1206C0428D2D12068016841F40071B5
:102820000160012002B0BDE8F08700BF20680022EF
:102830000168334641F48071016020464FF0011178
:10284000009500F011F800289FD147F0010C27688F
:102850002046414632462B46C7F810C002B0BDE8BC
:10286000F04700F0E7B800002DE9F04105460068A8
:102870001E46144601F47F0201338FB242D0DDF8C8
:102880001880B2F5803F40F0878040693840C01B17
:10289000B0FA80F04009A04240F0C8804EB924E070
:1028A00040693840C01BB0FA80F04009A04240F0B7
:1028B000BD80FEF7EBFBA0EB08012868B142EFD921
:1028C00041693940C91BB1FA81F14909A142E7D1F7
:1028D0009BE000BF40693840C01BB0FA80F040095F
:1028E000A0424FF0000040F0A280FEF7CFFB286826
:1028F00041693940C91BB1FA81F14909A142E9D1C5
:1029000083E000BFB2F5803F24D100BF4169394068
:10291000C91BB1FA81F14909A14240F087804169A0
:102920003940C91BB1FA81F14909A14240F07E80CA
:1029300041693940C91BB1FA81F14909A14275D1F8
:1029400041693940C91BB1FA81F14909A142DDD081
:102950006CE000BF81693940C91BB1FA81F14909B6
:10296000A14263D181693940C91BB1FA81F149099A
:10297000A1425BD181693940C91BB1FA81F1490992
:10298000A14253D181693940C91BB1FA81F149098A
:10299000A142DFD04AE000BF80693840C01BB0FAD6
:1029A00080F04009A04241D146B923E08069384017
:1029B000C01BB0FA80F04009A04237D1FEF766FB99
:1029C000A0EB08012868B142F0D981693940C91BE0
:1029D000B1FA81F14909A142E8D116E08069384095
:1029E000C01BB0FA80F04009A0424FF0000018BFB1
:1029F000BDE8F081FEF74AFB286881693940C91BB0
:102A0000B1FA81F14909A142E8D1002020212863CF
:102A100085F83D1085F83E00296C41F020012964BD
:102A200085F83C000120BDE8F08100BF0020BDE832
:102A3000F0810000F0B581B0044600681D4643698E
:102A40008FB203EA0701B94202D1002001B0F0BD04
:102A50004169164601323FD049053FD4CEB100BF8F
:102A6000FEF714FB411B2068B14203D9416939408C
:102A7000B94215D141693940B942E6D041694905A9
:102A8000EED52BE041693940B942DED041694905B4
:102A900024D4FEF7FBFA206841693940B942F1D0ED
:102AA000202023E041693940B942CED0416949052F
:102AB00014D441693940B942C7D0416949050DD4A0
:102AC00041693940B942C0D04169490506D44169DC
:102AD0003940B942B9D041694905E3D5016841F4AB
:102AE000007101606FF480614161042000212022A7
:102AF000216384F83D2084F83E10226C104320644A
:102B000084F83C10012001B0F0BD000070B504460F
:102B10000068154650F8143F5A063DD40E4629B9B0
:102B200026E000BF50F8141F490635D40168C906D5
:102B300021D4FEF7ABFA411B2068B142F2D94169BA
:102B40004906EFD400202021206384F83D1084F84A
:102B50003E00206C40F0200018E000BFFEF796FA1F
:102B6000206850F8141F4906ECD50168490613D4B3
:102B70000168C906F2D56FF0100101600020202124
:102B8000206384F83D1084F83E00206C206400200F
:102B900084F83C00012070BD002070BD70B5036852
:102BA000044653F8140F000611D40E46481C29D0D1
:102BB00086BB00BF1868400527D4FEF767FA236874
:102BC00053F8140F000637D518680006F2D5002018
:102BD00070BD00BF18680006F9D41868400514D409
:102BE00018680006F3D4186840050ED4186800066B
:102BF000EDD41868400508D4186800064FF00000AE
:102C000048BF70BD18684005E4D56FF48060186057
:102C1000042012E0154603E053F8140F0006D6D442
:102C200018684005F1D4FEF731FA401B2368B04222
:102C3000F2D958690006EFD4202000212022216318
:102C400084F83D2084F83E10226C1043206401205B
:102C500084F83C1070BD00002DE9F04385B041F2CE
:102C60001800C4F20200016840F6004941F010016A
:102C700001600168C4F2010901F01001019101999C
:102C8000016809F5806541F02001016001680022BA
:102C900001F020010191019901684FF4005641F0C3
:102CA00004010160016801F00401019101990168CA
:102CB00041F00801016000684FF4005100F0080085
:102CC000019001982846FEF7DBF948464FF4007161
:102CD00000224FF40078FEF7D3F9019601AE0127E8
:102CE0000224284631460297CDE90344FEF7B8F89E
:102CF00048463146CDE90187CDE90347FEF7B0F8F4
:102D000005B0BDE8F083000080B540F2A86045F250
:102D10000041C2F20000C4F2000148F2A0620023A8
:102D20004FF4804CC0F2010280E80E00C0E9033C81
:102D3000C0E90533C0E90733FEF7AEF9002808BF44
:102D400080BDBDE88040FEF771B8000080B540F25C
:102D5000FC6045F60001C2F20000C4F2000148F236
:102D6000A06200234FF4804CC0F2010280E80E0004
:102D7000C0E9033CC0E90533C0E90733FEF78CF92D
:102D8000002808BF80BDBDE88040FEF74FB80000B6
:102D900010B594B040F250700021C2F200004FF024
:102DA00080420E91CDE90C110991CDE90711CDE9D1
:102DB0000511CDE90311CDE9011120234FF4E164A0
:102DC000C0E9002101618021C0E902348161FFF77F
:102DD00053F8002818BFFEF729F84FF480500B90E5
:102DE00040F25070C2F200000BA9FFF733F900283F
:102DF00018BFFEF71BF840F25070C2F20000FFF758
:102E0000A5FB002818BFFEF711F82020089040F21B
:102E100050700024C2F2000008A90994FEF7ECFFEC
:102E2000002818BFFEF702F8702001904FF4E1600F
:102E3000CDE9020440F25070C2F2000001A9002264
:102E40000594FFF783FA002818BFFDF7EFFF40F263
:102E50005070C2F2000001A90422FFF777FA00289F
:102E600018BFFDF7E3FF40F25074C2F2000401A95D
:102E700020460822FFF76AFA002818BFFDF7D6FFA0
:102E800020680021B0F1804F129101D014B010BD24
:102E900041F21800C4F20200016841F0040101602F
:102EA000006810A900F004000F900F980720109000
:102EB000022011900320139040F60000C4F201009C
:102EC000FDF7CEFF14B010BD80B586B040F298700B
:102ED0000021C2F2000040F6000240F2F31C05910E
:102EE000CDE90311CDE90011C4F200024723C0E986
:102EF000021C01618021C0E900238161FEF7BCFF53
:102F0000002818BFFDF792FF4FF48050029040F266
:102F10009870C2F2000002A9FFF79CF8002818BFC1
:102F2000FDF784FF40F29870C2F200006946FEF798
:102F300063FF002818BFFDF779FF06B080BD0000D1
:102F4000FEE70000FEE7000070470000B0B58EB05D
:102F500001AD044628463221FDF73AFA204603F037
:102F600043FC02460B4605A12846FDF751F905A191
:102F700000202A4600F016F90EB0B0BD252E3466AA
:102F80000A00000025730000F0B581B040F2002770
:102F9000C2F2000714463A780D46532A06463AD044
:102FA00007F130007821FDF713FA032038617861CA
:102FB00047F2662140F2A820C0F60001C2F20000EC
:102FC000B961F8614FF4806038620020B8627862BD
:102FD000F862396640F25811C2F200010131796697
:102FE0001021B96653213867F86678673970452132
:102FF00047227970BA70FA703971522120227971A2
:10300000BA71F971542139727972B872F8723873E1
:103010007873B873F873EFF311874FF0200181F3E1
:10302000118830462946224600F004F887F31188BB
:1030300001B0F0BD2DE9F04F81B040F2002300EB6C
:103040004000C2F2000303EBC006F06A14460228F7
:10305000894611D0012841D048B9354655F8247F1A
:103060006868B84272D9F9430844A04274D2002675
:10307000304601B0BDE8F08F56F8245F301DA6F150
:10308000040BB246A6F10808002600900098EA4317
:103090000068DBF80010A842104498BF08444F1B9A
:1030A000B84238BF0746D8F80000A74228BF2746D5
:1030B000284449463A46FDF746F9DBF800007919FD
:1030C000E41B0D1A3E44B94418BF0D46002CCAF843
:1030D0000050DBD1304601B0BDE8F08FB04658F863
:1030E000247FD8F80410B94204D9FA43306A114455
:1030F00004E000BF306AFA4311440144A14238BFE2
:103100000C46C51B56F81C0FAC4238440CD249463D
:103110002246FDF718F9E019C8F8000026463046A7
:1031200001B0BDE8F08F00BF49462A46FDF70BF914
:10313000671B306809EB05013A46FDF704F9C8F84A
:1031400000702646304601B0BDE8F08F316AFA4380
:1031500010440844A0428AD356F81C0F71683844C2
:10316000A1EB070844450BD249462246FDF7EBF890
:10317000381928602646304601B0BDE8F08F00BF00
:1031800049464246FDF7DFF8A4EB0807306809EB33
:1031900008013A46FDF7D7F82F602646304601B0C1
:1031A000BDE8F08F82B080B582B0CDE9042304AAD7
:1031B000019201AA00F006F802B0BDE8804002B01A
:1031C000704700002DE9F04F9BB0904606AA16927A
:1031D0004022002504901A900DF1580900208A46DB
:1031E0001792CDE9185507E000F054FB19985146A5
:1031F000B0F1FF3F40F304831AF8013B252B1BD0AD
:10320000002B00F0ED82DDE91720411C914207D828
:10321000169A13541998179A013019900846189164
:103220009042E3D116991A98FFF7AEFE189988429A
:1032300040F0D0821895D9E701F1040A4FF0000B55
:103240001AF8031CA1F123030D2B00F25F80022268
:10325000DFE803F0085C5C5C5C5C5C5C0A5C0C5C5A
:103260005C0D00BF082202E0042200E001221AF8EF
:10327000021C4BEA020BA1F123030D2B00F28C8000
:103280000222DFE803F00789898989898989098908
:103290000B89890C082202E0042200E001221AF8BE
:1032A000011C4BEA020BA1F123030D2B00F28080DD
:1032B0000222DFE803F0077D7D7D7D7D7D7D097D38
:1032C0000B7D7D0C082202E0042200E001229AF826
:1032D00000104BEA020BA1F123030D2B5ED8022252
:1032E000DFE803F0105C5C5C5C5C5C5C125C0E5CB8
:1032F0005C0800BF4BEA020B0AF1040AA0E700BF1A
:103300000122F7E70822F5E70422F3E7AAF1030A0E
:10331000A1F13A0212F10A0F45D30AF1020A00267E
:1033200006EB860201EB42021AF8011CA2F13006FC
:10333000A1F13A0313F10A0F42D306EB860201EB27
:1033400042029AF80010A2F13006A1F13A0313F1FB
:103350000A0F37D306EB860201EB42029AF80110FE
:10336000A2F13006A1F13A0313F10A0F76D306EB6E
:10337000860201EB42029AF80210A2F13006A1F196
:103380003A0212F10A0F0AF1040AC9D2AAF1020A9A
:103390002E2919D00AE000BFAAF1020AA1F13A02CF
:1033A00012F10A0FB9D200262E290DD0002761E0B4
:1033B000AAF1010AA1F13A0212F10A0FF3D3ACE724
:1033C000AAF1010A2E29F1D1524612F8011FA1F1EA
:1033D0003A0313F10A0F03D2002792464AE000BFD6
:1033E0000AF1020A002700BF9AF8002007EB8703C2
:1033F00001EB4301A2F13A0313F10A0FA1F13007E7
:1034000038D39AF8011007EB870302EB4302A1F1CE
:103410003A0313F10A0FA2F1300725D39AF80220DC
:1034200007EB870301EB4301A2F13A0313F10A0F03
:10343000A1F130071CD307EB870102EB41029AF898
:103440000310A2F13007A1F13A0212F10B0F0AF1B9
:10345000040AC9D8AAF1010A0CE000BF0AF1010A66
:103460002E29B1D0A2E700BF0AF1010A02E000BF95
:103470000AF1020A9AF8001001F0FB02682A41D111
:103480009AF8011001F0FB02682A40F04D809AF88A
:10349000021001F0FB02682A40F04E809AF80310F7
:1034A0000AF1040A01F0FB02682AE3D0A1F15802F4
:1034B000202A2DD8DFE802F0222020202020202002
:1034C000202020485820202020202020202020209C
:1034D0001220208820B82020220000BFD8F8000049
:1034E0001022011DC8F8001001684846082308276B
:1034F000CDE9007578E600BF78E600BFD8F8000097
:10350000102294E00AF1010AA1F15802202AD1D92F
:1035100025297FF46BAEDDE91720411C91423FF66F
:103520007FAE169A252374E60AF1020AA1F1580229
:10353000202ABFD9ECE700BF0AF1030AA1F1580223
:10354000202A7FF6B7AFE3E7DDE91720D8F800308F
:10355000411C1F1D9142C8F800703FF661AE1A6809
:10356000169B1A5456E600BFD8F8001041F2597C59
:103570000A1DC8F80020096848F29F640029C1F1BB
:1035800000028E4648BF11460A2942F21075CDF25C
:10359000B71CC0F201040392CDF8148050D34FF051
:1035A000020800BF642955D3B1F57A7F4CD3A942F4
:1035B0004ED3A1FB0C23A1424FEA533108F104087A
:1035C000F0D8A8F1010845E0D8F800100A1DC8F8A5
:1035D00000200C688CA1002C08BF0C4606E000BF40
:1035E000B0F1FF3F04F101047FF700AE2778002F10
:1035F0003FF4FCADDDE917214B1C934207D8169828
:1036000047541998179A0130194618931990914206
:10361000E6D116991A98FFF7B7FC1899884240F03E
:10362000D98019981895DBE7D8F800000A22011D07
:10363000C8F80010016848463B46CDE9006BD3E569
:103640004FF0010806E000BF08F1010802E000BFEA
:1036500008F10208B845744698BFB84676B1002113
:10366000002C48BF01210BF0040241EA9201A6EBB5
:1036700001095FEA8B7506D406E000BF4FF0000930
:103680005FEA8B7500D55FB35FEACB7128D1B9F1E2
:10369000000F25D0A9F101064E4538BFC8451FD2FD
:1036A000DDE917214B1C934208D81698202242547A
:1036B0001998179A013019461893199091420AD116
:1036C00016991A98FFF760FC1899884240F082809A
:1036D0001998002118910028B146DBD572E000BF8F
:1036E00000286FD4B4F1FF3F20DD5FEA4B7130D585
:1036F000DDE917214B1C934208D816982B2242541F
:103700001998179A013018931990194691421ED1B1
:1037100016991A98FFF738FC189988425AD1002058
:1037200018901998002814D54CE000BFDDE9172146
:103730004B1C934208D816982D2242541998179A78
:103740000130194618931990039C9142E0D000284B
:1037500038D4002D0CD416A821460A223B46CDE9C8
:10376000009B814600F096F8DDF8148000253DE5C9
:103770000BF001013943EED1B9F1000FEBD0A9F103
:1037800001064E4538BFC845E5D2DDE917214B1C7F
:10379000934208D81698302242541998179A01304B
:1037A000194618931990914209D116991A98FFF762
:1037B000EBFB189988420DD1199800211891002827
:1037C000B146DCD5DDF8148000250DF15809FFF76E
:1037D0000DBD00BF4FF0FF301BB0BDE8F08F00BF44
:1037E00040B1189A52B1049806A9FFF7CDFBDDE964
:1037F000181004E000201BB0BDE8F08F0021084441
:103800001BB0BDE8F08F00BF284E554C4C2900007E
:1038100070470000FDF7FEBE7047000040F2507098
:10382000C2F20000FEF7E8BC40F29870C2F200005D
:10383000FEF7E2BCFEE70000B0B584B040F208003D
:10384000C2F2000040F26C1590E80E10C2F20005C2
:10385000281DCDF800C000F0EFF94CF6C774CFF684
:10386000FF7405F13C00012102220423CDE900444C
:10387000029400F0D9FC4EF20042CCF2406240F2D9
:10388000E070C2F2000007211346009201F05EFFD3
:1038900004B0B0BD2DE9F04F81B0DDF828901F468F
:1038A00015468B469142044602D24FF001081FE0B4
:1038B0004FF00408584600BFB0FBF5F0A84211D302
:1038C000B0FBF5F0A84211D3B0FBF5F0A8420FD33E
:1038D000B0FBF5F008F10408A842EDD2A8F1030806
:1038E00006E000BFA8F1020802E000BFA8F101084D
:1038F0000B99B84598BFB846B9F1000F34D011F014
:10390000010031D12026880748BF30264FF0000A39
:103910002020002F18BF064606E000BFC4F808A00C
:10392000E068B0F1FF3F1FDDB9F1000F1CD0C845C2
:103930001AD2D4E90120411C914207D822681654BA
:10394000E06862680130E0600846A1609042A9F139
:103950000109E5D121682069FFF716FBA1688842BB
:10396000DCD04FF0FF30E060E068002859D4012639
:1039700002E000BF013F6E43022F01D3013F03E08D
:10398000BBFBF6F1A9421BD3012F05FB06F601D9BB
:10399000013F03E0BBFBF6F1A94211D3012F05FB68
:1039A00006F601D9013F03E0BBFBF6F1A94207D3BC
:1039B000012F05FB06F6DDD8BBFBF6F1A942DAD2F2
:1039C000A2682EA76168BBFBF6FA531C8B4209D88C
:1039D00017F80A0021688854E068616801301A46C7
:1039E000A360E0608A4209D121682069FFF7CCFA20
:1039F000A26890420CD1E0680022A26000280AD49C
:103A0000B6FBF5F10AFB16BBAE420E46DAD202E077
:103A10004FF0FF30E0600B99C90718BFB9F1000FF4
:103A200002D101B0BDE8F08F2025A9F101064E4575
:103A300038BFC845F5D26168531C8B4207D820684F
:103A40008554E068616801301A46A360E0608A42EC
:103A500009D121682069FFF797FAA168884207D148
:103A6000E0680022A260B0F1FF3FB146DDDCD8E79C
:103A70004FF0FF30E06001B0BDE8F08F30313233FD
:103A800034353637383941424344454670B540F6FF
:103A9000DB74C4F2C904214602F04FFB0021054645
:103AA00002F045FF06462846214602F0C9FE002ED8
:103AB00018BF284670BD000010B50446084603F044
:103AC00089F8214603F01AF910BD0000B0B540F6A0
:103AD000DB71C3F6C97102F0B3FE40F6DB71C4F2CC
:103AE000C901044602F01CFF40F6DB710546CCF22A
:103AF000C901204602F0A4FE002D08BF2046BDE803
:103B0000B04000F001B8000080B502F06DFE4FF645
:103B1000B41245F63073C6F24642C4F2C40302F052
:103B200077FC02F031FCC0F307223F2A0AD847F2A3
:103B3000D411C0F6000101EB420331F812105A888B
:103B40002EE000BF7F2A0DD847F2D413C2F18001C6
:103B5000C0F60003C2F17F0233F8111033F81220CF
:103B60001EE000BFBF2A0DD847F2D411C0F60001F5
:103B700001EB42016FF0FF028A5A31F8FE3C5142DC
:103B80005A420DE047F2D413C2F58071C0F600032B
:103B900082F0FF0233F8111033F8122049425242EA
:103BA000C0B2521A504301EB202003F013F84FF03B
:103BB000605103F0A3F880BDFDF73EB9FDF7C6B82C
:103BC00070B514460D460646FFF79EFF2860304646
:103BD000FFF77CFF206070BDB0B584B0044694F858
:103BE000311090F83020406B02230DF10E054FF09C
:103BF000320CCDE9005349000123CDF808C0FDF790
:103C0000FDFABDF80E10054648BA02F0E3FFA16ABE
:103C10000022CBF68072002D18BF104602F0A8FEDD
:103C200040F6DB71C4F2C90103F068F804B0B0BD1E
:103C3000416300F09BBB0000F0B581B047F2401635
:103C400004464BF21770C0F60006C3F6D1000836E2
:103C50001546C4E900600120069F0022A8402262A8
:103C6000C4E90222C4E90422C4E9062284F824201B
:103C700084F8311084F8303002F0ACFFA062F81FF5
:103C8000291AA18589B2022202FA01F1013902FA48
:103C900000F084F82E10411E204684F82F1001B049
:103CA000F0BD00002DE9F04786B00B6890469A6899
:103CB000814603A89047059EDDF80CA03046002100
:103CC00002F020FE20BB5046002102F01BFE049FA4
:103CD00020BB3846002102F015FEC8BB50463946CD
:103CE00002F0AEFD0146304602F0AAFD4AF6AB21D5
:103CF000C3F6AA6103F002F806465046314603F0C7
:103D00004FF982463846314603F04AF901E000BFD8
:103D100004984CF63A51C3F6937121E03046394687
:103D200002F08EFD4CF63A51064680F0004AC3F68A
:103D30009371384602F0E2FF4CF63A510746CBF653
:103D40001371304602F0DAFF0146384613E000BF37
:103D50003046514602F074FD4CF63A51CBF6937161
:103D600002F0CCFF4CF63A510646C3F613715046AA
:103D700002F0C4FF314602F063FD074601A902AA22
:103D80004046FFF71DFFDDE901463846214602F0B7
:103D9000B5FF05465046314602F0B0FF294602F015
:103DA0004FFDC9F800002046514602F0A7FF044627
:103DB0003846314602F0A2FF214603F0F1F8C9F877
:103DC000040006B0BDE8F08710B50446016000208D
:103DD000A060FFF7F3FE01462046616010BD0000C1
:103DE0002DE9F04381B00E460446FFF7E7FE616817
:103DF0008046401A02F006FF43F2BD71C3F28651BD
:103E000002F07CFF0021074602F09FFD20B141F245
:103E10006F27C3F683270FE049F69A11C3F699611D
:103E2000384602F08BFD38B9A6603046C4F80480ED
:103E300001B0BDE8F08300BF2568D4F8089038468B
:103E4000294602F0FDFC0146284602F091FD054698
:103E50004FF07E50294603F0A3F8314602F04EFFA2
:103E600006462846494602F049FF314602F0E8FC82
:103E70000646A0603046C4F8048001B0BDE8F08377
:103E800010B5DDE902EC0446002084E80E40C4E9E8
:103E900004C0C4E90600FFF791FE014620462162F6
:103EA00010BD00002DE9F04F85B00F460446FFF726
:103EB00085FE216A0090401A02F0A4FE43F2BD7113
:103EC000C3F2865102F01AFF0021834602F036FD4C
:103ED000054658464FF07C5102F022FD00281CBFD9
:103EE00041F26F2BC3F6832B002D1CBF41F26F2BC9
:103EF000C3F6832BA168D4E900060291E16804911E
:103F0000394602F0FBFEE56903903046594602F05F
:103F1000F5FE4FF07C5102F0F1FED4F814A00646F5
:103F20005046394602F08CFC0146304602F0E6FE6F
:103F3000294602F085FCD4F81090064689F0004826
:103F4000414602F002FD05463046494602F0E8FCD3
:103F5000002818BF4E4638465146002D18BF464629
:103F6000019703F01DF8029902F0C8FE594602F0CD
:103F7000FFFC05460398314602F062FC01462846E4
:103F800002F05EFC4146054602F0DFFC074628468B
:103F9000494602F0C5FC002818BF4D46002F049F7B
:103FA0004FF00001384618BF454602F0C7FCA8B9DB
:103FB000D4F818802846414602F0F2FF594602F034
:103FC000D7FC3946824602F0B9FC98B938465946C2
:103FD00002F094FE414602F033FC0546DDE900A7FD
:103FE000C4E90575E6612846C4F820A005B0BDE81F
:103FF000F08F00BF87F000495046494602F097FC19
:10400000DDE900A70028EBD14846594602F076FECC
:10401000414602F015FC0546E2E70000704700004B
:10402000B0B540F25075C2F2000529680446C96A6D
:1040300041600020C4F24010E06028460021FEF7F5
:1040400007FB28460421FEF703FB28460821FEF75C
:10405000FFFA626807A10020FFF7A4F8E068FEF706
:1040600075FF0CA10020FFF79DF8012101202177A9
:10407000B0BD00BF70776D5F6672657175656E6308
:10408000793A25752C766F6C746167655F6C696D24
:1040900069743A000A00000010B5044640F600407A
:1040A000C4F201004FF400710122FCF7E9FF20681F
:1040B0000021D0F80CC0204600220023E04703A1D5
:1040C0000020BDE81040FFF76DB800BF656E61626B
:1040D0006C65206D6F746F722E0A00002DE9F04F31
:1040E00081B00C468146084600219B4615464FF09C
:1040F000000802F02AFCD9E902A706463846214604
:1041000002F023FC002818BF3C4628460021002E60
:1041100018BF002402F019FC06463846294602F072
:1041200014FC002818BF3D4658460021002E18BF39
:10413000002502F00AFC06463846594602F005FC06
:10414000002818BFBB4620465146002E18BF4FF02E
:10415000000B02F00DFC0021044602F0F6FB48B90A
:1041600020464FF07E514FF07E5802F0D9FB0028D8
:1041700008BFA04628465146C9F8108002F0F8FB57
:1041800000210446002502F0E0FB48B920464FF02C
:104190007E514FF07E5502F0C3FB002808BF254634
:1041A00058465146C9F8145002F0E2FB002104467B
:1041B000002602F0CAFB48B920464FF07E514FF06E
:1041C0007E5602F0ADFB002808BF264640F2507034
:1041D000C2F2000041462A463346C9F8186001B0D1
:1041E000BDE8F04F01F0F4BA80B501680022D1F8C3
:1041F0000CC000210023E04740F60040C4F201005B
:104200004FF400710022FCF73BFF03A10020BDE842
:104210008040FEF7C7BF00BF64697361626C6520B0
:104220006D6F746F722E0A00F0B5002547F26C16A0
:10423000C0E9085100F12801DDF81CC0DDE9054E98
:10424000C0F6000681E81C4000214EF200424CF608
:10425000C77308360127C4F24011CCF24062CFF692
:10426000FF73057780F83C70C0F838C0C0E9006380
:10427000C0E90212F0BD00002DE9F04704460669CE
:104280008069301A02F0ADF84EF68D524CF2F763A9
:10429000CAF2B502C3F6B06302F0BAF801F09AFFB1
:1042A0000021054602F043FB50B9E069E168206255
:1042B000C4E9051604F108010868BDE8F08700BFED
:1042C0006068294602F03AFB20B904F10801086849
:1042D000BDE8F087D4E907A0D4F80C806769AAEBA1
:1042E000000002F077FC81464046394602F058FE55
:1042F00040F6DB710746C4F2C901484602F0FEFCF5
:10430000394602F09DFA294602F032FB214641F877
:10431000080F0868C4F81480C4F820A00E61BDE836
:10432000F087000000207047F0B581B0C468C06914
:1043300002F057F8054620460E4602F055FA42F2C2
:10434000FB1304460F46C4F21903284631464FF0CA
:10435000C04202F05DF822463B4601F06DFF01B01D
:10436000F0BD0000C0697047C068704710B50446D2
:104370000068C169204688470120FCF79FFC20683F
:10438000C169204688476061FFF718FCA0610120E1
:10439000FFF712FC2068C169204688470120FCF71E
:1043A0008DFC2068C16920468847E060FFF706FC65
:1043B000206110BD70B504460068C1692046884779
:1043C0000021054602F0C1FA002818BF70BDFFF7B2
:1043D000F5FBE1682061284602F0E2FD4DF67C1114
:1043E000064620F00040C4F2A00102F0A7FA60B92E
:1043F0003046002102F094FA0028E0694FF00101F4
:1044000018BF4FF0FF310844E061E56070BD000067
:1044100010B5C468C06902F0DDFB40F6DB71C4F280
:10442000C90102F06BFC214602F00AFA10BD00003F
:10443000F0B581B0D0F848510446CDB194F93401BB
:1044400002F0C8FB296806464968284604F58C77BF
:10445000884701463846FFF7C3FCD4F82C41014693
:10446000304602F04BFC214602F09AFD01B0F0BD4F
:10447000E06801B0F0BD000070B5D0F848510446C6
:1044800095B194F9340102F0A5FB29680646C96884
:10449000284604F58674884701462046FFF7A0FCAD
:1044A000314602F02BFC70BD606970BD70B5D0F86C
:1044B00048510446C5B194F93401616C484302F097
:1044C00089FB29680646096828468847D4F83041A0
:1044D0000146304602F012FC214602F061FDBDE8C3
:1044E0007040FFF7D3BA00BF206970BD2DE9F043DB
:1044F00083B0044647F28810C0F60000083040F24E
:10450000000800262060012040F20009C4F24008A3
:10451000C4F29636002584F85F0004F16400C4F20A
:104520004019414632460023A560A4F85C50CDE90D
:104530000059FFF7A5FC04F18800414632460023EC
:10454000CDE90059FFF79CFC4DF20A76C3F6A3367D
:1045500004F1AC003146FFF737FC04F1B8003146F6
:10456000FFF732FC0027002204F1C400C4F27A47AE
:10457000C4F220124FF07C510023CDE90079FFF7FF
:104580007FFC0027C4F2A01704F1E800394600229E
:104590000023CDE90057FFF773FC04F58670314620
:1045A000FFF712FC04F58C700021FFF70DFC4EF2B2
:1045B0000040CCF24060C4F830016420C4F83801F7
:1045C000092084F83E010420C4F84001632084F8E7
:1045D00044014FF080404FF07E51C4E9495584F8C2
:1045E0003451A4F83C51C4F85051C4E91490A76563
:1045F00084F85E506560A561C4F82C51C4E9525539
:10460000C4E90955C4E90B55C4E90D582046E163D6
:1046100003B0BDE8F0830000C0F8541170470000FB
:104620002DE9F0470446A1A10020FEF7BBFDD4F818
:10463000480101688969884728B1204600F05EFC7E
:10464000002800F0E98094F83401C8B19CA1002052
:10465000FEF7A8FDD4F830014EF20041CCF24061E3
:1046600002F050F9002840F0DB8047F2E021C0F66C
:1046700000010020FEF796FD0120BDE8F08700BF95
:1046800040F6DB7840F200094CF6E43A0025C4F22B
:10469000C908C4F2FA39C4F2960A40F2F51700BF0D
:1046A000284602F097FA414602F028FB494602F0FC
:1046B0005FF9514602F0C4F82268A16B966903467F
:1046C00020460022B047D4F848010168496988476C
:1046D0000220FFF771FA0135BD42E1D1D4F848015B
:1046E000016849698847D4F84801016849688847E2
:1046F00040F6DB7940F2000A4CF6E43780464FF48E
:10470000FA76C4F2C909C4F2FA3AC4F2960700BFB5
:10471000304602F05FFA494602F0F0FA514602F0E4
:1047200027F9394602F08CF82268A16B9569034697
:1047300020460022A847D4F8480101684969884703
:104740000220FFF739FA013E701CE1D1D4F848018C
:10475000016849698847D4F8480101684968884771
:10476000216805468F692046002100220023B847B2
:10477000C820FFF721FA4046294602F011FC20F03C
:1047800000464CF6A971C3F67E51304602F0CFF8D0
:1047900000287DD04046294602F0D7F8074640461B
:1047A000294602F0D2F85BA100284FF001054FF036
:1047B000000051A218BF1146002F18BF4FF0FF355F
:1047C000FEF7F0FC606C84F8345102F003FA014605
:1047D000304602F093FA40F6DB71CCF2C90102F0E8
:1047E0002FF820F000404FF07C5102F0A7F800288D
:1047F00056D140F6DB70C4F2C900314602F0B8F879
:1048000001F0F2FF0B4647F287210246C0F6000195
:104810000020FEF7C7FC1DE70020BDE8F08700BFC1
:104820002068A16B87694CF6E433C4F296032046F6
:1048300000220025B8474FF42F70FFF7BDF9D4F8D8
:1048400048010168496988472046C4F83051FFF79C
:104850002DFEC4F830011420FFF7AEF9D4F8300172
:1048600001F0C2FF0B4647F26F210246C0F600017D
:104870000020FEF797FC206800218769204600226F
:104880000023B847C820FFF797F90120BDE8F0875B
:1048900011A100200024FEF785FC2046BDE8F0872A
:1048A00047F2BB21C0F60001D1E600BF4D4F543A9C
:1048B00020416C69676E2073656E736F722E000005
:1048C0004D4F543A20536B697020646972206361C4
:1048D0006C69622E000000004D4F543A2046616919
:1048E0006C656420746F206E6F74696365206D6FF2
:1048F00076656D656E7400004D4F543A2073656E99
:10490000736F725F646972656374696F6E3D3D4376
:10491000435700004D4F543A2073656E736F725FBA
:10492000646972656374696F6E3D3D4357000000B2
:104930002DE9F04F81B08A460446FFF73FF98046E3
:10494000D4F86C01D4F80C90D4F858B0A8EB00005F
:1049500002F058F943F2BD71C3F2865102F0CEF96C
:104960000021054601F0EAFF064628464FF07C513B
:1049700001F0D6FF00281CBF41F26F25C3F6832546
:1049800050464946002E1CBF41F26F25C3F68325D1
:1049900002F006FB064620F000475846294602F082
:1049A000ADF920F00041384601F0C8FFF0B93046BB
:1049B000002101F0CAFF07463046002101F0B0FF98
:1049C0000146002818BF4FF07E512BF00040002F09
:1049D0001CBF0021CBF6807102F090F9294602F04D
:1049E0008DF9494601F02CFF824601E04FF0000BA3
:1049F000266C4EF20041276DCCF240613046C4F87F
:104A00000CA0C4F814B001F07DFF08BB616B606DB1
:104A100021F00049314602F071F9494601F010FFDA
:104A200087F000452946834601F08FFF38B9584684
:104A3000394601F075FF3D46002808BF5D4628460F
:104A4000494602F0ADFA314601F092FF2F4620634D
:104A50005046FFF71BF8616CFFF72EF821680346FC
:104A60008E69204639460022B0473846C4F86C812A
:104A700001B0BDE8F08F00002DE9F04F83B0834610
:104A800090F85E008946022854D3032800F0E280A3
:104A9000022840F0B18140F69221C3F60671184613
:104AA00001F0CEFEFEF7F2FF40F6DB71C4F2C90161
:104AB00001F05EFF0021C4F2C00102F01FF902F014
:104AC0004DF89BF85F1007464E4639B1DBF85401AC
:104AD0004FF07C51C06802F011F9064640F21C020A
:104AE00007EB4701C2F2000252F82100002800F053
:104AF000318102EB8104676802F06CF8494602F0EC
:104B0000FDF8314601F09CFE002FCBF8580100F073
:104B10004581384602F05EF8494602F0EFF831462A
:104B200001F08EFEDBF85411CBE957060A680846FF
:104B300017695DE1174601A902AA1846FFF740F878
:104B4000DDE901654946304602F0D8F804462846BA
:104B5000394602F0D3F8214602F022FA8246CBF819
:104B600064012846494602F0C9F8044630463946F1
:104B700002F0C4F8214601F063FE4BF2D731C3F6D0
:104B80005D710446CBF8680102F0B8F8054650465E
:104B90004FF03F4102F0B2F82946064601F050FEC0
:104BA0004BF2D7318046CBF65D71204602F0A6F875
:104BB0000146304601F044FEDBF854118146C968D5
:104BC00008464FF07C5102F099F89BF85E100546BC
:104BD00001292AD14046494601F0B7FE4F46002838
:104BE00018BF47465046394601F0AFFE0028404600
:104BF000494618BF574601F093FE4C46002818BF9F
:104C000044465046214601F08BFE002818BF54460A
:104C10002046394601F014FE4FF03F4102F06EF895
:104C20000146284601F00CFE05469BF85F0000286F
:104C30006ED05046294601F003FECBF8580140469D
:104C4000294601F0FDFDCBF85C014846294601F0FC
:104C5000F7FD7CE040F69221C3F60671184601F09C
:104C6000EFFDFEF713FF40F6DB71C4F2C90101F05E
:104C70007FFE0021C4F2401102F040F801F06EFF07
:104C80009BF85F1007464E4639B1DBF854014FF0F0
:104C90007C51C06802F032F8064640F2640207EB2D
:104CA0004701C2F2000252F82100002852D002EB64
:104CB00081046768002F75D0D4F8088001F08AFF5E
:104CC000494602F01BF8314601F0BAFDCBF8580115
:104CD000384601F07FFF494602F010F8314601F0F6
:104CE000AFFDB8F1000FCBF85C017BD0404601F07E
:104CF00071FF494602F002F8314601F0A1FDDBF8F0
:104D00005411CBF860010A6808461769012142E096
:104D10004046494601F019FE4C46002818BF44465B
:104D20005046214601F011FE002818BF5446504657
:104D3000214602F035F9CBF858014046214602F0F1
:104D40002FF9CBF85C014846214602F029F9CBF84F
:104D5000600151E002EB810087684068CBF8586140
:104D600001F038FF494601F0C9FF314601F068FD06
:104D7000CBF85C01384601F02DFF494601F0BEFF3B
:104D8000314601F05DFDDBF85411CBF860010A6893
:104D9000084617690021012221E000BFA068CBF876
:104DA0005C610BE001F016FF494601F0A7FF3146B8
:104DB00001F046FDA168CBE95606084601F00AFF5E
:104DC000494601F09BFF314601F03AFDDBF85411F2
:104DD000CBF860010A680846176901210022012307
:104DE00009E000BFDBF85401CBF8606101680F698E
:104DF000012101220023B8470BF5AA7207CADBF88C
:104E000060310768FF68B84703B0BDE8F08F000065
:104E10002DE9F04F81B00F460446FEF7CFFE8046E5
:104E2000D4F86C01D4F80C90A8EB000001F0EAFE75
:104E300043F2BD71C3F2865101F060FF00210646C6
:104E400001F07CFD054630464FF07C5101F068FDD5
:104E500000281CBF41F26F26C3F68326002D1CBF1D
:104E600041F26F26C3F683263846314601F046FFED
:104E7000494601F0E5FCFEF709FE256C4EF20041C3
:104E80008146E060266DCCF240612846676101F002
:104E900039FD08BB616B606D21F0004A294601F0C5
:104EA0002DFF514601F0CCFC86F000473946834681
:104EB00001F04BFD38B95846314601F031FD374617
:104EC000002808BF5F463846514602F069F8294677
:104ED00001F04EFD3E462063616C4846FEF7ECFD56
:104EE000216803468F69204631460022B847304684
:104EF000C4F86C8101B0BDE8F08F00002DE9F041ED
:104F000004462DA100200025FEF74CF9D4E90E102F
:104F1000A76DA065D4F84801D4F8508021650168D8
:104F2000E5608969884720B3E06840F6DB71C4F228
:104F3000C90101F0FCFCE0B94CF6E43540F6DB7643
:104F4000C4F21615C4F2C90620462946FFF7F0FC44
:104F5000D4F84801016849698847D4F848010168D4
:104F60008969884728B1E068314601F0EEFC0028E5
:104F7000EAD1206800218669204600220023B0473C
:104F8000D4F84801A7650168C4F85080896988474A
:104F900013A100284FF000000DA208BF1146FEF734
:104FA00001F9D4F84801016889698847B0FA80F0AE
:104FB0004009BDE8F08100BF4D4F543A20496E646E
:104FC0006578207365617263682E2E2E00000000E4
:104FD0004D4F543A2053756363657373210000008D
:104FE0004D4F543A204572726F723A204E6F7420C2
:104FF000666F756E64210000F0B581B00446D0F88C
:10500000540100285AD0007F002857D0012084F88E
:105010005D002FA10020FEF7C5F8D4F85401256DDE
:10502000C6682846314601F089FC002804BF266581
:105030003546A06B294601F081FC002808BFA56316
:10504000D4F84C014EF2004100281CBF6567C4F83B
:105050009850206CD4E91567CCF2406101F052FC05
:1050600094F86010002918BF3546002808BF35465F
:1050700094F86100C4F8D45003380128C4F8F870DB
:1050800006D894F83401002804BF012084F83401C4
:105090004FF4FA70FEF790FD10A10020FEF782F8A1
:1050A00020688168204688474FF4FA70FEF784FD37
:1050B000022084F85D0001B0F0BD00BF0F220CA1FA
:1050C000002084F85D2001B0BDE8F040FEF76AB82A
:1050D0004D4F543A20496E69740000004D4F543AC8
:1050E00020456E61626C65206472697665722E007F
:1050F0004D4F543A20496E6974206E6F7420706F62
:10510000737369626C652C20647269766572206EB7
:105110006F7420696E697469616C697A65640000F6
:105120002DE9F04F81B00446D0F82821D0F82401B1
:105130000E46511C8242C4F82811C0F0938094F8A6
:105140006100002103380228C4F8281103D3204647
:10515000FFF76EF9E0602046FFF78EF994F85C10D7
:105160006061002900F07E804EF200410546CCF2DD
:105170004061304601F0C6FB002808BF6660A66C9F
:105180004EF20041CCF24061304601F0BBFB50B919
:105190002846314601F0ECFB47F25071C3F6D65178
:1051A00001F0E6FB6063D4F84C0180B9266C4EF246
:1051B0000041CCF24061304601F0A4FB38B9A06A4E
:1051C000616B01F0EDFE314601F0D2FB206394F8F3
:1051D0006100042846D8DFE800F0030D11495500AE
:1051E00094F86000002800F07F806068A06101B042
:1051F000BDE8F08F60682946E06127E0D4E9010549
:10520000E168206204F1E80601F0CAFE014630467A
:10521000FEF748FE0146284601F012FBA66DD4F8C1
:10522000148086F000473946054601F08EFB814622
:105230002846314601F074FB002818BF3546B9F105
:10524000000F18BF3D4628464146E56104F1C406FB
:1052500001F0A6FE01463046FEF724FE94F86010E9
:10526000A061D9B101B0BDE8F08F00BF61682046F0
:10527000E161FFF7CDFD0021C4E9091001B0BDE8EF
:10528000F08F00BF616820462162FFF751FB0021CB
:10529000C4E9091001B0BDE8F08F00BF266C4EF2E2
:1052A00000410546CCF24061304601F02BFB00285E
:1052B00076D12846314601F021FD616B266D01F063
:1052C000BFFA86F000484146074601F03EFB8146A2
:1052D0003846314601F024FB002818BF3746B9F1A3
:1052E000000F18BF47465CE0276C4EF20041D4F82F
:1052F00004B0D4F83490D4F84C80CCF240613846F5
:1053000001F000FB06465846394601F0F7FC4946D5
:1053100001F096FA002E266D074686F0004918BF68
:105320005F463846494601F010FB82463846314612
:1053300001F0F6FA4EF20041002818BF3746404609
:10534000CCF24061BAF1000F18BF4F46A76201F0DE
:10535000D9FA00285AD18BF00041284601F0CEFC42
:10536000616C0546084601F035FC0146284601F00F
:10537000C5FC0146404601F0C1FC4946054601F026
:10538000E4FA07462846314601F0CAFA002818BF59
:105390003546002F18BF4D46656201B0BDE8F08F5D
:1053A0002F46E66C4EF20041CCF240613046A762D7
:1053B00001F0A8FA50BB606985F00041D4F8448040
:1053C000256D01F09BFC0746404601F003FC0146B9
:1053D000384601F093FC0146304601F08FFC85F021
:1053E00000473946064601F0B0FA80463046294665
:1053F00001F096FA002818BF2E46B8F1000F18BF2A
:105400003E46666201B0BDE8F08F00BF00206062DA
:1054100001B0BDE8F08F000010B50446D0F854018B
:10542000016849688847D4F85401002201680023C4
:10543000D1F80CC00021E047012084F85C0010BDC9
:10544000B0B50446D0F85401002201680023D1F819
:105450000CC000210025E047D4F854010168896898
:10546000884784F85C50B0BDB0B50446032084F88A
:105470005D004FF4FA70FEF79FFBD4F8480198B333
:105480002046FFF7CDF8D4F8481105460A680846CB
:10549000526990472046FEF7CBFFE0604FF4FA7068
:1054A000FEF78AFB002D44D0D4F84C0130B3007BCA
:1054B00090B347F2F821C0F600010020FDF772FE1C
:1054C000D4F84C01A16B02685268904750B305466E
:1054D00047F2AC21C0F6000100202A46FDF762FE2B
:1054E000012D0FDA25E000BF2FA10020FDF75AFEA5
:1054F0004FF4FA70FEF760FB1BE000BF21A1002013
:10550000FDF750FE25A10020FDF74CFE042084F895
:105510005D000120B0BD00BF0E2084F85D000CA12D
:1055200004E000BF47F2CE21C0F600010020FDF7E5
:1055300039FE21A100200025FDF734FE0E20216850
:1055400084F85D004968204688472846B0BD00BF02
:105550004D4F543A20496E697420464F432065727E
:10556000726F722C2063757272656E742073656E33
:105570007365206E6F7420696E697469616C697AF5
:10558000656400004D4F543A204E6F20637572726F
:10559000656E742073656E73652E00004D4F543A2E
:1055A0002052656164792E004D4F543A204E6F2091
:1055B00073656E736F722E004D4F543A20496E69B9
:1055C0007420464F43206661696C65642E000000BC
:1055D0002DE9F04182B00446D0F8480110B10168CD
:1055E0004969884794F8610003380228C0F099801F
:1055F00094F85C00002800F094802046FEF756FFE7
:1056000094F860102061002900F08480024602298D
:1056100050D0012976D1D4F84C01002800F08180C7
:105620000168CB68114698470146206304F1AC003D
:10563000FEF7D6FB01462063A06904F1640501F082
:10564000AFFC01462846FEF72DFCE66C4EF2004109
:10565000A062CCF24061304601F054F9002857D1E5
:10566000D4E90501D4F84480256D81F0004101F0B2
:1056700045FB0746404601F0ADFA0146384601F0C9
:105680003DFB0146304601F039FB85F000473946C5
:10569000064601F05AF980463046294601F040F9A5
:1056A000002818BF2E46B8F1000F18BF3E466662AC
:1056B00030E000BFD4F84C1199B36846FEF7F2FA17
:1056C000DDE90001C4E90B0104F1AC00FEF788FB41
:1056D000E16A206304F1B800FEF782FBE062A06992
:1056E000216B04F1640501F05BFC01462846FEF7DE
:1056F000D9FBE16AA06204F1880081F00041FEF765
:10570000D1FB06E008A10020FDF74CFD02E000BF40
:105710000020606220682369D4E909218769204656
:10572000B84702B0BDE8F0814D4F543A206E6F206B
:10573000746F7271756520636F6E74726F6C207315
:10574000656C656374656421000000002DE9F0411B
:10575000DDF818801D4616460F460446FEF7C6FEC5
:1057600047F2AC10C0F60000C4E910674EF20046E4
:105770000830CCF2406620602846314601F0C2F87D
:1057800040F2F3410746C3F6B571284601F0B6FA78
:10579000002F18BF3046C4E912080021204684F8C3
:1057A0006010BDE8F081000001A000F038F800BFF3
:1057B00050757265207669727475616C2066756EBD
:1057C0006374696F6E2063616C6C65642100000016
:1057D000F0B581B007681C46F86A16460D4601F020
:1057E00011FA294601F08AFA01F0D4F9F96A05465E
:1057F000084601F007FA314601F080FA01F0CAF9D3
:10580000F96A0646084601F0FDF9214601F076FAEC
:1058100001F0C0F97D63BE63F86301B0F0BDFBF732
:1058200081F9000090B0FBF703FF00240120CDE9CF
:105830000B44CDE9094406900A904FF4E0104FF470
:10584000803102250F9006A8CDE90714CDE90D514E
:10585000FCF7B8F820B1EFF3108072B6FEE700BF96
:105860000F20CDE901054FF48060CDE9040401A8C3
:1058700002210394FBF784FF20B1EFF3108072B68E
:10588000FEE700BFFDF7E8F9FDF73EFAFDF75EFA27
:10589000FDF77EFAFDF718FBFBF79EFA00F002F821
:1058A000FEE7000040F26C15C2F200052C1D40F22C
:1058B000A861C2F200012046FEF7BAF900200021DB
:1058C000C4F2401005F13C07C4F2C001C5E9110162
:1058D0003846FEF7A5FB40F2E076C2F200063046FD
:1058E0003946FEF799FE0020C4F2400030650320DF
:1058F00086F861003046FFF77FFB4FF47A70FBF7C4
:105900009BFA40F29870C2F20000FCF76BFB41F288
:10591000000848F2A067C4F201080FA6C0F2010710
:1059200040464FF40051FBF7A3FB2046FEF742FD33
:105930002046FEF7A1FC286000F056FF02460B4609
:1059400000203146FDF72EFC2868FDF7FFFA3846A7
:10595000FBF7B4F9E4E700BF6D6F746F725F5665D3
:105960006C6F636974793A25660A00005FEA400C3F
:1059700008BF91F0000F4FEA8C234FEAC12243EA9F
:1059800051514FEA1C5018BF00F5F0404FEA30006B
:1059900018BF41F000415FEA6C5C00F02980BCF167
:1059A000FF3F08BF40F080407047130C06BF120451
:1059B0004FF0100C4FF0000C130E04BF12020CF14C
:1059C000080C130F04BF12010CF1040C930F04BF59
:1059D00092000CF1020CD30F04BF52000CF1010C29
:1059E00011464FF00002A0F11F00A0EB0C00704721
:1059F00011F0004F08BF704731F000413FF4D5AFC0
:105A00000B0C06BF09044FF0100C4FF0000C0B0EEE
:105A100004BF09020CF1080C0B0F04BF09010CF1C3
:105A2000040C8B0F04BF89000CF1020CCB0F04BFD8
:105A300049000CF1010CCCF1200322FA03F341EAF6
:105A4000030102FA0CF2A0EB0C0000F10100704718
:105A500023F07F4720F07F4C80EA030000F00040F5
:105A6000ACEB070303F57C5303F1FF032DE98049F9
:105A700009B44FEA144324EA03484FEA154B25EAD8
:105A80000B4E0FF2042606EB13273E7803FB066746
:105A9000C7F5000707FB06F64FEAD64606F10206F1
:105AA0004FEA543707FB066CCCF1005C4FEA1C4709
:105AB0002CEA074C0CFB06F507FB06F404EB154635
:105AC0004FEA961649085FEA320234BF00204FF0D1
:105AD00000404FEAD13706FB07FC4FEA1C4C0CFB99
