:020000040800F2
:100000008834002049010008A9240008C122000802
:10001000A524000825040008DD30000800000000C9
:100020000000000000000000000000001929000886
:10003000E504000800000000AD2400081D290008A8
:100040006301000863010008630100086301000800
:1000500063010008630100086301000863010008F0
:1000600063010008630100086301000863010008E0
:1000700063010008630100082904000881040008E6
:1000800063010008630100086301000863010008C0
:1000900063010008630100086301000863010008B0
:1000A00063010008630100086301000863010008A0
:1000B0006301000863010008630100086301000890
:1000C0006301000863010008630100086301000880
:1000D00063010008DD2D00086301000863010008CA
:1000E0006301000863010008630100086301000860
:1000F0006301000863010008630100086301000850
:10010000630100086301000863010008630100083F
:10011000630100086301000863010008630100082F
:10012000630100086301000863010008630100081F
:10013000DFF810D000F0DCF800F05CF80048004771
:10014000BD43000888340020064880470648004721
:10015000FEE7FEE7FEE7FEE7FEE7FEE7FEE7FEE777
:10016000FEE7FEE7212900083101000840EA01030B
:100170009B0703D009E008C9121F08C0042AFAD25D
:1001800003E011F8013B00F8013B521EF9D2704721
:10019000D2B201E000F8012B491EFBD270470022C9
:1001A000F6E710B513460A4604461946FFF7F0FF76
:1001B000204610BD10B5044604E00B7800F8013B62
:1001C00003B1491C521EF8D2204610BD421C10F843
:1001D000011B0029FBD1801A704770B5064604F058
:1001E0000FFA046805460A220021304600F047F85D
:1001F0002C6070BD7CB5074800900748019005460B
:10020000009C04E02046016808448047241DAC425D
:10021000F8D17CBD04530008085300082DE9F05FB5
:100220000546002092469B46884606468146402465
:100230001BE0284641464746224600F080F85346D8
:100240005A46C01A914110D311461846224600F072
:1002500067F82D1A67EB01084F462246012000215E
:1002600000F05EF817EB00094E41201EA4F10104D6
:10027000DFDC484631462A464346BDE8F09F2DE97B
:10028000F04791460F4680460446002614F8015B6D
:100290002DB100F065F80068405DC007F6D12B2D48
:1002A00002D02D2D18D0641E4A463946204600F053
:1002B0005BF827B13968A14201D1C7F80080710508
:1002C0004FF002040BD54042002803DD04F098F9FA
:1002D0000460A007BDE8F08746F48066E4E70028E4
:1002E000F8DA04F08DF904606FF00040F2E70000E6
:1002F0001CB509480090094801900546009C06E09D
:10030000E06840F0010394E8070098471034AC42DD
:10031000F6D3FFF711FF0000E45200080453000871
:10032000202A04DB203A00FA02F1002070479140B5
:10033000C2F1200320FA03F3194390407047202AAA
:1003400004DB203A21FA02F00021704721FA02F37F
:10035000D040C2F120029140084319467047000086
:10036000004870470C4B00082DE9F05F824600788A
:10037000002715468B460AF10104B946302801D002
:100380009DB113E014F8010B0127782803D05828F9
:1003900001D045B10AE00DB1102D07D1002710257D
:1003A00014F8010B02E0082500E00A250026B046FB
:1003B0000EE005FB080005FB06F1012701EB1046E6
:1003C0001FFA80F8B6F5803F00D3B94614F8010B48
:1003D000294600F018F80028EBDABBF1000F05D031
:1003E0000FB1641E00E05446CBF80040B9F1000F95
:1003F00006D004F005F902210160C81EBDE8F09F97
:1004000048EA0640FAE73A2800D2303820F02002C5
:10041000412A01D3A2F13700884201D34FF0FF30C7
:1004200070470000FEE70000B0B542F6D474C2F297
:10043000000400252046C4F2020500F097FA206867
:1004400005F18001884209D9D5F80004000458BF9D
:10045000B0BD40F20445C4F2020505E055F8040BB6
:10046000000401D4B0BD00BF4FF4004240F22000B0
:10047000C2F2000001212A60BDE8B04002F0F6BCE3
:10048000B0B542F69074C2F2000400252046C4F2D2
:10049000020500F06BFA206805F18001884209D955
:1004A000D5F80004000309D540F20445C4F2020562
:1004B0000CE000BF55F8040B000307D440F2200005
:1004C000C2F20000BDE8B04002F0ECBC4FF40022E4
:1004D00040F22000C2F2000000212A60BDE8B040D6
:1004E00002F0C4BC70470000002808BF704781B00C
:1004F00040F21801C2F20001096844F6D352C1F279
:100500006202A1FB0212910910F0030C02466FD0A7
:1005100000220092009A8A42A0F101021CD200BF80
:1005200000BF009B01330093009B8B4214D200BF9D
:10053000009B01330093009B8B420DD200BF009BB8
:1005400001330093009B8B4206D200BF009B013316
:100550000093009B8B42E3D3BCF1010F48D00022F3
:100560000092009A8A42A0F102021BD200BF009BB7
:1005700001330093009B8B4214D200BF009B0133D8
:100580000093009B8B420DD200BF009B0133009370
:10059000009B8B4206D200BF009B01330093009B5F
:1005A0008B42E3D3BCF1020F22D000220092009ACA
:1005B0008A42A0F103021BD200BF009B01330093CB
:1005C000009B8B4214D200BF009B01330093009B21
:1005D0008B420DD200BF009B01330093009B8B42E6
:1005E00006D200BF009B01330093009B8B42E3D3F4
:1005F000042801D201B07047002001E0043AF9D08C
:100600000090009B8B421BD200BF009B01330093E4
:10061000009B8B4214D200BF009B01330093009BD0
:100620008B420DD200BF009B01330093009B8B4295
:1006300006D200BF009B01330093009B8B42E3D3A3
:100640000090009B8B421BD200BF009B01330093A4
:10065000009B8B4214D200BF009B01330093009B90
:100660008B420DD200BF009B01330093009B8B4255
:1006700006D200BF009B01330093009B8B42E3D363
:100680000090009B8B421BD200BF009B0133009364
:10069000009B8B4214D200BF009B01330093009B50
:1006A0008B420DD200BF009B01330093009B8B4215
:1006B00006D200BF009B01330093009B8B42E3D323
:1006C0000090009B8B4299D200BF009B01330093A6
:1006D000009B8B4292D200BF009B01330093009B92
:1006E0008B42BFF48BAF00BF009B01330093009B94
:1006F0008B42BFF483AF00BF009B01330093009B8C
:100700008B42E1D37AE70000EFF3108072B600BFAE
:10071000FEE7000070B542F20C060446C4F2020681
:1007200000F018FD3168C90718D13068800644BF51
:10073000202030603068C00607D43069C00704D17B
:10074000306840075CBF002070BD3068C00623D40D
:100750000020316849072BD434E000BF002C47D07B
:100760000546601C0ED13068C007DED03068C00777
:100770001CBF30685FEAC070D7D03068C007F2D1C4
:10078000D3E700BF00F0E6FC401BA04230D8306841
:10079000C007F7D1C9E700BF43F26000C2F2000012
:1007A000C16941F00201C16110203168490709D5D2
:1007B00043F26001C2F20001CA6940F0040042F055
:1007C0000102CA613169C90702D13060012070BDE0
:1007D00043F26001C2F20001CA6942F00402CA6138
:1007E000316921F0010131613060012070BD00BF2D
:1007F000032070BD014690F82100022816D1086838
:10080000D1E90FC3026822F00E020260026822F0F2
:1008100001020260012000FA03F2CCF8042081F802
:1008200021000020002281F82020704704208863E6
:100830000120002281F820207047000090F821104C
:10084000022927D1026840F2040C1368C4F2020C9A
:1008500023F00E03136013680CF17C018A4223F02D
:10086000010111601AD940F20841C4F202018A4222
:1008700048D040F21C41C4F202018A4246D040F204
:100880003041C4F202018A4244D14FF48073CCF863
:1008900000345CE004218163012070474321C4F2ED
:1008A00002018A420EDD6B21C4F202018A421BDC86
:1008B0004421C4F202018A423CD05821C4F2020110
:1008C0008A4233E00821C4F202018A4236D01C2158
:1008D000C4F202018A4237D03021C4F202018A42B6
:1008E00024D14FF4807230E06C21C4F202018A42BC
:1008F00026D08021C4F202018A4217D14FF08072C3
:1009000023E000BF0123CCF8003420E01023CCF812
:1009100000341CE00CF588614FF480338A4208BF34
:100920004FF48053CCF8003411E000BF4FF4803214
:100930000BE000BF4FF4805207E000BF012204E04B
:100940004FF4801201E000BF1022CCF800200121FA
:1009500080F82110426B002180F8201022B180B570
:1009600090470021BDE880400846704710B5D0E9A7
:100970000FE3D0F800C0DEF80020DCF80010DA4009
:1009800054072DD511F004042AD0DCF80010890694
:1009900005D4DCF8001021F00401CCF8001004228A
:1009A000C4F2020202F17C018C454BD940F20841AD
:1009B000C4F202018C4500F0AF8040F21C41C4F249
:1009C00002018C4500F0AC8040F23041C4F20201DB
:1009D0008C4540F0A9804FF48061C2F80014F3E028
:1009E000940745D511F0020442D0DCF800108906C6
:1009F00008D4DCF8001021F00A01CCF80010012125
:100A000080F821100422C4F2020202F17C018C451C
:100A10004CD940F20841C4F202018C4500F0B48088
:100A200040F21C41C4F202018C4500F0AF8040F25C
:100A30003041C4F202018C4540F0AA804FF40071AD
:100A4000AEE000BF4321C4F202018C4544DD6B21BE
:100A5000C4F202018C4551DC4421C4F202018C45F0
:100A600000F0A2805821C4F202018C4568E000BF6A
:100A7000120740F1C18011F0080108BF10BDDCF879
:100A8000001021F00E01CCF80010012101FA03F250
:100A9000CEF80420816380F82110016B0022002928
:100AA00080F8202040F09280A6E000BF4321C4F2ED
:100AB00002018C4548DD6B21C4F202018C4555DCF6
:100AC0004421C4F202018C4500F084805821C4F214
:100AD00002018C4572E000BF0821C4F202018C457E
:100AE00066D01C21C4F202018C456BD03021C4F2C7
:100AF00002018C4524D14FF4806164E06C21C4F282
:100B000002018C4556D08021C4F202018C4517D1D8
:100B10004FF0806157E000BF0421C2F8001453E099
:100B20004021C2F800144FE002F588634FF48021A1
:100B30009C4508BF4FF48041C2F8001444E000BF58
:100B40004FF480213FE000BF0821C4F202018C4530
:100B500044D01C21C4F202018C4545D03021C4F29E
:100B600002018C452AD14FF400713EE06C21C4F2A1
:100B700002018C4534D08021C4F202018C451DD184
:100B80004FF0007131E000BF022109E0202107E0B1
:100B900002F588634FF400319C4508BF4FF40051C3
:100BA000C2F8001422E000BF4FF480410BE000BF08
:100BB000042108E04FF4800105E000BF4FF400314C
:100BC00013E000BF40211160C16AA9B1BDE8104027
:100BD000084700BF4FF4005107E000BF022104E0C6
:100BE0004FF4001101E000BF20211160816A002252
:100BF000002980F82020E9D110BD0000014600281E
:100C00004FF0010008BF70472DE9F04740F2000C9B
:100C1000C4F2020C0A684FF6F8330CF5816ECBF67D
:100C2000FD73724538BF03F5806303EB020E4CF68B
:100C3000CD43CCF6CC43AEFB033E6FF003060CF580
:100C4000806506EA9E06D1E901A9D1F80C803CBF77
:100C50000025C4F20205C1E90F56022681F8216081
:100C6000166843F6F075AE4346EA0A06D1E9045722
:100C700046EA090646EA0806D1E906432E43374309
:100C800027433B43136000228A6381F8210081F8E7
:100C900020200020BDE8F0477047000090F820C0F9
:100CA000BCF1010F04BF02207047F0B54FF0010EF8
:100CB00080F820E090F821C0BCF1010F26D14FF060
:100CC000020C80F821C04FF0000CC0F838C0D0E909
:100CD00000C4C56AC66BDCF80070102C27F0010751
:100CE000CCF80070006C0EFA00F070600846CCF88A
:100CF000043004BF10460A46CCF80800CCF80C209B
:100D0000DCF8000045B140F00E000DE0002180F855
:100D100020100220F0BD00BF20F00400CCF800003D
:100D2000DCF8000040F00A00CCF80000DCF800001D
:100D300040F00100CCF800000020F0BDB0B5044642
:100D400000F008FA054640F21000C2F200000078F8
:100D5000611C18BF044400BF00F0FCF9401BA04216
:100D6000FAD3B0BD2DE9F04381B043F26006C2F280
:100D70000006327E012A03D1022001B0BDE8F083D3
:100D8000054601202C6830764CF250308846FFF73B
:100D9000C1FC022C1CD100284ED1002042F21004CC
:100DA000F061C4F20204206840F004002060206872
:100DB00040F0400020604CF25030FFF7ABFC21685F
:100DC00021F0040121600021317601B0BDE8F083FB
:100DD00090BB4FF0FF30C8F80000D5E9027007EB78
:100DE000C020874228D242F21004C4F202044FF01D
:100DF000000900BFC6F81C90206840F00200206087
:100E00006760206840F0400020604CF25030FFF7EF
:100E100081FC216821F00201216098B9D5E9020125
:100E200007F5006700EBC1208742E3D300200021D3
:100E3000317601B0BDE8F08301200021317601B0A8
:100E4000BDE8F083C8F800700021317601B0BDE83C
:100E5000F083000042F21001C4F20201086840F081
:100E6000800200200A6070472DE9F04F81B043F204
:100E70006009C2F20009924699F81820012A03D1AC
:100E8000022001B0BDE8F08F8046012089F81800EB
:100E90004CF250309B460E46FFF73CFCA0BB404650
:100EA00042F21007B8F1020F18BF0420C4F2020783
:100EB000B8F1010F08BF404645424FF0000800243A
:100EC000C4F12001C9F81C802AFA04F00BFA01F1E0
:100ED0003A680843B4F1200158BF2BFA01F042F000
:100EE0000101396026F8020B4CF25030FFF712FC7A
:100EF0003968013521F0010248F100013A6018B962
:100F0000002904F11004DBD0002189F8181001B089
:100F1000BDE8F08F42F20400C4F20200C168090685
:100F20005CBF0020704740F22311C4F2675101609A
:100F300048F6AB11CCF6EF510160C068C0B2C009F1
:100F4000704700002DE9F04F82B00E68002E00F0CF
:100F5000EF80A0F18042A2F58432870547EA922211
:100F600041F6004740F2004EC4F201070625C4F2E4
:100F7000010EB84208BF052500244FF001080F23D9
:100F80004FF0000A4FF0000B052A38BF15460095B8
:100F900009E000BF0E680AF1010A36FA0AF204F10C
:100FA000040400F0C58008FA0AFC16EA0C09F1D026
:100FB0004E684FF6FF72C1F21002964212DC122EFA
:100FC00056D8DFE806F0350B45495555555555556A
:100FD000555555555555554D510000BFD1F80CB0DC
:100FE00046E000BF4FF6FF72C1F2210296420FDCCD
:100FF0000022C1F2110296421AD00022C1F212025E
:10100000964215D00022C1F22102964210D02FE064
:101010000022C1F2220296420AD00022C1F231021D
:10102000964205D00022C1F23202964220D100BF82
:101030008A684AB1012A14BFC0F814C0C0F810C0B1
:101040004FF0080B14E000BF4FF0040B10E000BF9E
:10105000CA6802F1080B0BE04FF0000B08E000BF7C
:10106000CA6802F1040B03E0CA6802F10C0B00BF6E
:1010700022460646B9F5807F24BF203A04363768F9
:1010800003FA02F5AF430BFA02F23A433260CA792F
:10109000D2067FF57FAF41F21807C4F202073A6823
:1010A0004FF6084342F001023A603A68CFF6FF7308
:1010B00002F001020192019A2AF0030272440F2504
:1010C000D75804F00C06B540AF43009D05FA06F66C
:1010D0003743D7504E6840F20C45F202DEF8082044
:1010E00054BF22EA090242EA0902C4F20105CEF81D
:1010F00008202A68B70254BF22EA090242EA09021C
:101100002A60DEF80420B70354BF22EA090242EA4B
:101110000902CEF804200F23DEF80020F70354BFA5
:1011200022EA090242EA0902CEF8002032E700BFB3
:1011300002B0BDE8F08F0000C26802EA01039143EB
:1011400041EA034101617047002A08BF09040161B7
:101150007047000043F28000C2F200000068704750
:1011600040F2100043F28001C2F20000C2F200011E
:1011700000780A68104408607047000080B542F2A9
:101180000000C4F20200016841F010010160032078
:1011900000F08CF80F2000F005F800F027F8002090
:1011A00080BD000070B540F21006C2F2000640F2A9
:1011B00018013278C2F200014FF47A730968B3FB68
:1011C000F2F20446B1FBF2F1084600F08BFB0F2C63
:1011D0004FF0010508D838B94FF0FF302146002202
:1011E000002500F037F87460284670BD82B041F2E7
:1011F0001800C4F202000168022241F001010160FE
:10120000016801F0010101910199416841F08051AB
:101210004160406800F08050009000980420C4F2C3
:101220000100016862F31A61016002B070470000BA
:10123000002848BF704700F01F01012202FA01F1A7
:101240001C2202EAD0004EF20012CEF200028150BF
:101250007047000010B54EF60C5CCEF2000CDCF8C6
:101260000030C3F3022E8EF00704042C28BF0424A0
:10127000BEF103034FF0FF3E0EFA04F438BF002323
:10128000A14399400EFA03F39A43114300F00F0271
:1012900000F160430901043A03F564436244002805
:1012A00048BF02F10C03197010BD00004EF60C513E
:1012B000CEF200010A684FF6FF031A4060F30A22DB
:1012C00042F0806040F0FD700860704702F03EFF21
:1012D000002804BF012070472DE9F04381B042F29D
:1012E0000008C4F202080446D8F800000D4600F0D9
:1012F000070088420CD2D8F8000020F007002843ED
:10130000C8F80000D8F8000000F00700A8426CD12F
:10131000206841F204098107C4F2020917D5410788
:1013200005D5D9F8001041F4E061C9F800100107B3
:1013300005D5D9F8001041F46051C9F80010D9F86A
:101340000010A26821F0F0011143C9F80010C00795
:1013500042D1D8F8000000F00700A8420CD9D8F814
:10136000000020F007002843C8F80000D8F800006B
:1013700000F00700A84238D12068410707D5D9F806
:101380000010E26821F4E0611143C9F80010000781
:1013900008D5D9F80000216920F4605040EAC10066
:1013A000C9F80000D9F8002002F00C00082841F22A
:1013B0000020C0F27A0051D144F62A33C2F38341AF
:1013C000C0F60003595CD2033CD440F60010C0F2D2
:1013D0003D00484342E000BF606802280AD001286F
:1013E0002AD159F8041C890308D4012001B0BDE8B2
:1013F000F08300BF59F8041C8901F6D5D9F8001014
:1014000021F003010843C9F80000FFF7A3FE0646D8
:1014100041F28837D9F80000616800F00C00B0EBA9
:10142000810F96D0FFF796FE801BB842F2D90320B9
:1014300001B0BDE8F08300BF59F8041C8907D4D57A
:10144000DCE700BFD9F8002044F62833C2F340425D
:10145000C0F600039A5C4843B0FBF2F0D9F80010E4
:1014600044F61032C1F30311C0F60002515C40F2A1
:10147000180220FA01F140F21400C2F200000068E4
:10148000C2F200021160FFF78DFE002001B0BDE83E
:10149000F083000040F2180041F20401C2F20000A3
:1014A000C4F202010068096844F62032C1F3022147
:1014B000C0F60002515CC8407047000040F21800BE
:1014C00041F20401C2F20000C4F20201006809689E
:1014D00044F62032C1F3C221C0F60002515CC8407C
:1014E00070470000002804BF012070472DE9F0413B
:1014F00082B00446007841F20006C007C4F202063A
:101500000CD0706800F00C00042840F08180306836
:10151000800303D56068002800F04E8120788007A2
:101520001BD5706810F00C0F09D0706800F00C002B
:10153000082840F08B807068C00300F18780306815
:10154000800703D52069012840F036813068616941
:1015500020F0F80040EAC10030602078000713D482
:10156000207840072CD4E569002D00F020817068B8
:1015700000F00C00082840F0AF80012D40F00C81F5
:10158000012002B0BDE8F081A069002800F08C8045
:101590000020C4F242200121C0F88014FFF7DAFDD8
:1015A000054600BF706A800700F1BA80FFF7D2FDE0
:1015B000401B0228F6D9032002B0BDE8F08100BF2D
:1015C000F0695FEAC00808D4F06940F08050F0612B
:1015D000F06900F080500090009847F20007C4F2D4
:1015E00000073868C0054DD4386840F48070386012
:1015F000FFF7B0FD054600BF3868C00542D4FFF7CD
:10160000A9FD401B6428F7D9032002B0BDE8F08192
:10161000706800F00C00082803D17068C0033FF523
:1016200076AF6068002800F00981B0F5A02F00F0C7
:101630001D81B0F5803F00F01D81306820F48030BE
:101640003060306820F4802017E100BF2069002856
:1016500040F20000C4F2422000F08C8001210160C1
:10166000FFF778FD054600BF306880073FF56EAF95
:10167000FFF770FD401B0228F6D9032002B0BDE839
:10168000F08100BFE068002800F09A80052800F093
:10169000B180012800F0B280306A20F00100306291
:1016A000306A20F00400ACE00020C4F242200021A7
:1016B000C0F88014FFF74EFD054600BF706A800732
:1016C0007FF54EAFFFF746FD401B0228F6D90320F9
:1016D00002B0BDE8F08100BF0027C4F2422700201D
:1016E0003866FFF737FD022D05460DD130688001C1
:1016F00040F1D680FFF72EFD401B02284FF003007B
:10170000F4D902B0BDE8F081306880014FD5FFF711
:1017100021FD401B02284FF00300F5D9F1E700BF7F
:1017200040F21800C2F20000006844F6D351C1F242
:101730006201A0FB0101480A019000BF00BF0198AF
:10174000411E002801913FF40BAF00BF0198411EDC
:10175000002801913FF404AF00BF0198411E00280A
:1017600001913FF4FDAE00BF0198411E0028019198
:10177000E4D1F5E600210160FFF7ECFC054600BF6F
:10178000306880077FF5E9AEFFF7E4FC401B0228D4
:101790004FF00300F4D9B4E77068216A00F4803296
:1017A0008A4209D1616A00F47010884204D1002095
:1017B00002B0BDE8F08100BF012002B0BDE8F081B9
:1017C000306A20F001003062306A20F0040030629C
:1017D000FFF7C0FC054641F2883700BF306A80073A
:1017E00022D5FFF7B7FC401BB8424FF00300F5D9F4
:1017F00087E700BF306A40F004003062306A40F092
:1018000001003062FFF7A6FC054641F2883700BFB1
:10181000306A800708D4FFF79DFC401BB842F7D917
:10182000032002B0BDE8F081B8F1000F3FF59BAE98
:10183000F06920F08050F06195E600BF306820F438
:1018400080303060306820F480203060FFF782FC08
:10185000054600BF306880037FF560AEFFF77AFC75
:10186000401B64284FF00300F4D94AE7306840F485
:1018700080203060306840F480303060FFF76AFCD0
:10188000054600BF306880033FF548AEFFF762FCB5
:10189000401B6428F6D9032002B0BDE8F08100BFE8
:1018A000206AB0F5803F05D17168A26821F400314B
:1018B000114371607168626A21F474111143084325
:1018C000706001203866FFF745FC044630688001EF
:1018D0003FF56DAFFFF73EFC001B02284FF0030001
:1018E000F4D90EE7411E0020B0EB116F1CBF0120A0
:1018F00070474EF21002CEF2000251604EF62351B4
:10190000CEF20001F0230B70072190601160704748
:101910007047000040F22001C2F200010A6B8242CF
:1019200018BF7047486A013048627047B0B582B04E
:10193000044600680168C368426901F02F05202D44
:1019400003F0200506D12DB1204602B0BDE8B0401D
:1019500001F0C4B95FEA017C1EBF02F0010E03F47E
:10196000907212EB0E0243D1226BCD0618D5012ADC
:1019700016D113F0100213D00021019101680191DA
:10198000416801910199406940063BD4A08DE18DE9
:10199000E28D002A18BF884240F0F28102B0B0BD4B
:1019A0000A0640F1E78013F0800200F0E38094F82B
:1019B00041102129F2D1A168B1F5805F03D12169DD
:1019C000002900F06382216A4A1C22620978416082
:1019D000E18C01390A04E184E0D1C16821F0800181
:1019E000C160C16841F04001C16002B0B0BD00BF3C
:1019F000CA0718BF13F4807240F0D0804A0700F184
:101A0000D380D8E0E06B016849688AB2002AC5D06B
:101A1000A38D9A42C2D2E1858069202800F09E8081
:101A2000206850E8030F216820F4807041E8030229
:101A3000DAB1206850E8030F216820F4807041E893
:101A4000030292B1206850E8030F216820F48070EF
:101A500041E803024AB1206850E8030F216820F4EE
:101A6000807041E80302002ADAD1206850E8050FAF
:101A7000216820F0010041E80502C2B3206850E867
:101A8000050F216820F0010041E805027AB32068C3
:101A900050E8050F216820F0010041E8050232B34B
:101AA000206850E8050F216820F0010041E8050298
:101AB000002ADAD11BE000BF206850E8050F21683A
:101AC00020F0400041E80502DAB1206850E8050F37
:101AD000216820F0400041E8050292B1206850E8FA
:101AE000050F216820F0400041E805024AB1206856
:101AF00050E8050F216820F0400041E80502002A67
:101B0000DAD1202084F8420000202063206850E8C9
:101B1000030F216820F0100041E80302DAB12068C9
:101B200050E8030F216820F0100041E8030292B151
:101B3000206850E8030F216820F0100041E80302FC
:101B40004AB1206850E8030F216820F0100041E8F6
:101B50000302002ADAD1E06BFEF74CFE022060633C
:101B6000A08DE18D401A81B2204602B0BDE8B040A0
:101B7000FFF7CEBE49067FF511AF13F040013FF4E9
:101B80000DAFC16821F04001C1602021204684F8DA
:101B9000411002B0BDE8B04000F082BB626C42F080
:101BA000010262644A0706D5BEF1000F03D0626CE1
:101BB00042F0020262648A0706D5BEF1000F03D02C
:101BC000626C42F004026264BCF1000F06D55EEA6A
:101BD000050203D0626C42F008026264626C002A63
:101BE0003FF4DCAE890604D51DB1204601F076F83D
:101BF00020684069616C00F0400001F00801401865
:101C000000F0B680206850E8030F216820F490703F
:101C100041E80302BAB3206850E8030F216820F4BA
:101C2000907041E8030272B3206850E8030F216806
:101C300020F4907041E803022AB3206850E8030FB3
:101C4000216820F4907041E80302002ADAD11AE0FA
:101C5000206850E8050F216820F0010041E80502E6
:101C6000DAB1206850E8050F216820F0010041E852
:101C7000050292B1206850E8050F216820F00100AC
:101C800041E805024AB1206850E8050F216820F0BC
:101C9000010041E80502002ADAD1206B012824D195
:101CA000206850E8030F216820F0100041E803028B
:101CB000DAB1206850E8030F216820F0100041E8F5
:101CC000030292B1206850E8030F216820F0100051
:101CD00041E803024AB1206850E8030F216820F070
:101CE000100041E80302002ADAD1202084F84200E3
:101CF0000020206320684069400640F1C1802068D0
:101D000050E8050F216820F0400041E80502DAB1F3
:101D1000206850E8050F216820F0400041E80502E6
:101D200092B1206850E8050F216820F0400041E89A
:101D300005024AB1206850E8050F216820F04000F4
:101D400041E80502002ADAD1E06B002800F0988013
:101D500042F62511C0F600014163FEF76FFD002831
:101D60003FF41CAEE06B416B02B0BDE8B0400847E9
:101D70002046FFF7CFFD0020606402B0B0BD00BF79
:101D8000401A00BF216851E8031F226821F49071B6
:101D900042E80313BBB3216851E8031F226821F412
:101DA000907142E8031373B3216851E8031F22685E
:101DB00021F4907142E803132BB3216851E8031F0B
:101DC000226821F4907142E80313002BDAD11AE063
:101DD000216851E8051F226821F0010142E805133E
:101DE000DBB1216851E8051F226821F0010142E8BA
:101DF000051393B1216851E8051F226821F0010104
:101E000042E805134BB1216851E8051F226821F013
:101E1000010142E80513002BDAD1202184F8421099
:101E200000212163216851E8031F226821F010017D
:101E300042E80313DBB1216851E8031F226821F057
:101E4000100142E8031393B1216851E8031F22688F
:101E500021F0100142E803134BB1216851E8031F40
:101E6000226821F0100142E80313002BDAD102228C
:101E700081B22046626302B0BDE8B040FFF748BDC2
:101E8000204602B0BDE8B040FFF744BD216A31F8FA
:101E9000022B6FF35F224260216299E5002804BFA4
:101EA0000120704710B5044690F8410028B9002081
:101EB00084F84000204600F063F8242084F84100B4
:101EC0002068D4E90212C36823F40053C360036995
:101ED00023F440531A430261D4E904231143C26836
:101EE000194341F20C639A431143C1604169A269ED
:101EF00021F44071114343F60002C4F20102904202
:101F0000416103D0FFF7C6FA02E000BFFFF7D6FA3F
:101F1000D4E90023192148439900B0FBF1F048F2BD
:101F20001F5CC5F2EB1CA0FB0C314FF69C734909FA
:101F3000C0F6FF7301FB0300322303EB0010A0FB8C
:101F40000C03F02000EA531000EB0110C3F343111F
:101F5000084490601069202120F49040106150697D
:101F600020F02A005061D06840F40050D06000207A
:101F7000606484F8411084F84210606310BD000072
:101F80002DE9F04186B040F600050446C4F2010593
:101F9000006805F5405100278842049702D006B03A
:101FA000BDE8F08141F21800C4F20200016802AEFF
:101FB00041F480410160016840F2440801F480412D
:101FC000019101990168C4F2020841F00401016025
:101FD0000068314600F00400019001984FF4007051
:101FE000029002200390032005902846FEF7AAFFE6
:101FF0004FF48060CDE90207284631460497FEF78A
:10200000A1FF42F6907508F11400C2F20005802687
:1020100020214FF40052C5E900072846C5E90276A1
:10202000C5E90477C5E90612FEF7E8FD002818BFE8
:10203000FEF76AFBE5636C6242F6D475C2F20005F6
:10204000102000214FF48052C5E900802846C5E9E0
:102050000216C5E90411C5E90612FEF7CFFD0028F6
:1020600018BFFEF751FB252001210022A5636C62F9
:10207000FFF7F0F82520FFF7DBF806B0BDE8F081A8
:1020800070B582B0044690F8420020280AD1134669
:102090000A4600294FF0010018BF002B06D102B0FC
:1020A00070BD00BF022002B070BD00BF002522201D
:1020B0002563A262A385656484F842002168E06B11
:1020C00042F6AD2C42F60D4E42F63116C0F6000C2B
:1020D000C0F6000EC0F600060431C0E90ACEC0E921
:1020E0000C65FEF7DBFD01952068016801914068F1
:1020F00001900198206928B3206850E8030F2168F7
:1021000040F4807041E80302E2B1206850E8030F18
:10211000216840F4807041E803029AB1206850E8D9
:10212000030F216840F4807041E8030252B1206837
:1021300050E8030F216840F4807041E80302002A50
:10214000DAD100BF206850E8050F216840F0010097
:1021500041E80502BAB3206850E8050F216840F055
:10216000010041E8050272B3206850E8050F2168BC
:1021700040F0010041E805022AB3206850E8050F4D
:10218000216840F0010041E80502002ADAD11AE096
:10219000206850E8050F216840F0400041E8050242
:1021A000DAB1206850E8050F216840F0400041E8AE
:1021B000050292B1206850E8050F216840F0400008
:1021C00041E805024AB1206850E8050F216840F057
:1021D000400041E80502002ADAD1002002B070BDBB
:1021E000704700007047000070B5044690F8410049
:1021F00020281CBF022070BD00294FF001004DD0E7
:10220000002A134608BF70BD4FF0000C2120216248
:10221000A384E384C4F844C084F841002268A06B1E
:1022200042F6254E42F6D54542F63116C0F6000E6E
:10223000C0F60005C0F600060432C0E90AE5C0E9B0
:102240000C6CFEF72BFD20686FF04001016000BFB1
:10225000206850E8050F216840F0800041E8050241
:10226000DAB1206850E8050F216840F0800041E8AD
:10227000050292B1206850E8050F216840F0800007
:1022800041E805024AB1206850E8050F216840F096
:10229000800041E80502002ADAD1002070BD00006C
:1022A00040F22001C2F20001096B814218BF704761
:1022B00040F22000C2F2000000F026BE704700008D
:1022C000FEE7000040F20000C2F2000003C87047C1
:1022D00010B582B040F20004C2F20004D4E900015B
:1022E00080F0AA3008432DD144F6014044F6AB41BA
:1022F00044F6BD42C0F60000C0F60001C0F6000280
:10230000662302F06DF90120FEF7EEF800210020AF
:10231000C0F60101C4E900000191EFF3108172B62B
:1023200001994968019A126882F3088880F3148839
:1023300001984EF60852CEF200021060884700BFA6
:10234000FEE700BF44F65E4044F6AB4144F6BD42B2
:10235000C0F60000C0F60001C0F60002712302F0D2
:102360003FF90120FEF7C0F800204FF0AA31C4E980
:10237000001002B0BDE81040FEF7A8BF40F2000216
:10238000C2F20002C2E900017047000080B582B0CD
:1023900041F21400C4F202000168002241F0010180
:1023A00001600068002100F00100019001980E20FA
:1023B000FEF750FF0E20FEF73BFF0F20002100220A
:1023C000FEF748FF0F2002B0BDE88040FEF730BFA7
:1023D0002DE9F04385B041F21800C4F20200016813
:1023E00040F6004941F0400101600168C4F2010972
:1023F00001F0400101910199016809F5406541F042
:10240000040101600168002201F0040101910199B9
:1024100001684FF0200841F00801016000682021A8
:1024200000F00800019001982846FEF78DFE48460E
:1024300020210022FEF788FE01AE01270224284653
:102440003146CDF804800297CDE90347FEF77AFDC7
:1024500048463146CDE90187CDE90347FEF772FDD5
:1024600005B0BDE8F083000080B543F2180043F6E4
:102470000001C2F20000C4F2010100234FF00C0C75
:102480004FF4E13280E80E00C0E90333C0E905C330
:10249000C361FFF703FD002808BF80BDBDE8804091
:1024A000FEF732B9FEE70000FEE7000070470000CB
:1024B0002DE9F041002908BFBDE8F08100F1400698
:1024C000878F304614460D4601F05EFEA7428046D7
:1024D0000ED9444512D9304601F066FEA4EB08013E
:1024E000814228BF0146304601F0ECFE06E000BF05
:1024F0000CD1B84502D2304601F0CEFE3046294616
:102500002246BDE8F04101F003BF00BFE01B2C18DC
:10251000304601F0C1FE304621463A46BDE8F04162
:1025200001F0F6BE80B582B040F2B1024FF0000C6F
:1025300007A1C2F2000200204FF48073CDF800C062
:1025400000F00CF8002002B0BDE8804000F0ECB8CC
:102550004275666665723055700000002DE9F041E5
:1025600040F2B414C2F200041646227898460F4690
:10257000532A05463AD004F130007821FDF70FFECA
:1025800003202061606144F6F83140F25C20C0F61F
:102590000001C2F20000A161E0614FF4806020629E
:1025A0000020A0626062E062216640F2A001C2F2F7
:1025B0000001013161661021A16653212067E066A8
:1025C00060672170452147226170A270E27021711D
:1025D000522120226171A271E17154212172617234
:1025E000A072E07220736073A073E073022D84BF49
:1025F0004FF0FF30BDE8F081069AEFF311804FF005
:10260000200181F3118855B105EB450104EBC101AF
:1026100000238F61CE61C1F820808B624B6205EB95
:10262000450104EBC101CA6280F311880020BDE8B6
:10263000F0810000F0B581B040F2B416C2F200069D
:1026400032780F46532A05463AD006F130007821F9
:10265000FDF7A5FD03203061706144F6F83140F2CA
:102660005C20C0F60001C2F20000B161F0614FF4DD
:10267000806030620020B0627062F062316640F2C9
:10268000A001C2F20001013171661021B16653212F
:102690003067F06670673170452147227170B27003
:1026A000F2703171522120227171B271F171542195
:1026B00031727172B072F07230737073B073F07304
:1026C000EFF311824FF0200181F3118805EB4500F3
:1026D00006EBC001084650F8243F50F8046C5D1C1E
:1026E0008468AE1B18BF2E46022C0DD101F12805BF
:1026F0002C68A64208D12C68A64205D12C68A642B7
:1027000002D12C68A642F3D08D6AAE4204D10020DB
:1027100082F3118801B0F0BDC969CF540660012071
:1027200082F3118801B0F0BD2DE9F04782B040F28C
:10273000B41AC2F2000A9AF800100446532958D07D
:102740000AF130007821FDF72AFD0320CAF81000B5
:10275000CAF8140044F6F83140F25C20C0F60001DB
:10276000C2F20000CAF81810CAF81C004FF48060CA
:10277000CAF820000020CAF82800CAF82400CAF8C5
:102780002C00CAF8601040F2A001C2F20001013131
:10279000CAF864101021CAF868105321CAF87000F2
:1027A000CAF86C00CAF874008AF800104521472264
:1027B0008AF801108AF802208AF803208AF80410A7
:1027C000522120228AF805108AF806208AF807107C
:1027D00054218AF808108AF809108AF80A008AF841
:1027E0000B008AF80C008AF80D008AF80E008AF8AF
:1027F0000F00FF200F2C8DF8060045D844F63A3024
:10280000C0F60000005D8DF80700EFF311894FF06E
:10281000200181F31188DAF82C0000F0030002286F
:1028200038D140F2A000C2F20000DAF8246004704F
:102830000DF1060402271EE0DAF82000F2431144ED
:102840000144851BA94238BF0D46DAF81C00BD4281
:1028500028BF3D46304421462A46FDF787FCDAF87A
:102860002000A9197F1B0E1A2C4418BF0E46002FFA
:10287000CAF8246049D0DAF82810B142DCD9F24312
:10288000DAF820001144DCE74FF0FF3002B0BDE879
:10289000F08700BFDAF82410DAF8280088420BD954
:1028A000CA43104402280ED24FF0FF3089F311883A
:1028B00002B0BDE8F08700BFDAF82020CB4318440F
:1028C00010440228F0D340F2A000DAE90723C2F254
:1028D000000004705C1A032C02EB010004D3BDF865
:1028E00006208D1C02800EE00DF1060841462246AE
:1028F000FDF73CFCC4F10205DAF81C0008EB04010A
:102900002A46FDF733FCCAF82450002089F31188C9
:1029100002B0BDE8F087000070470000FEF720BC61
:1029200070470000406A0021C185C184FEF7F2BFF4
:10293000406A01684A6990F84130212B2DD112F08C
:1029400080022AD00021C184016851E8031F026877
:1029500021F0C00142E80313DBB1016851E8031F15
:10296000026821F0C00142E8031393B1016851E805
:10297000031F026821F0C00142E803134BB1016854
:1029800051E8031F026821F0C00142E80313002B45
:10299000DAD1202180F841100168496990F842207D
:1029A000222A40F07D8011F0400179D00021C185BC
:1029B000016851E8031F026821F4907142E8031393
:1029C000BBB3016851E8031F026821F4907142E82B
:1029D000031373B3016851E8031F026821F4907177
:1029E00042E803132BB3016851E8031F026821F486
:1029F000907142E80313002BDAD11AE0016851E824
:102A0000051F026821F0010142E80513DBB10168EE
:102A100051E8051F026821F0010142E8051393B156
:102A2000016851E8051F026821F0010142E8051321
:102A30004BB1016851E8051F026821F0010142E82D
:102A40000513002BDAD1016B012924D1016851E86B
:102A5000031F026821F0100142E80313DBB1016893
:102A600051E8031F026821F0100142E8031393B1FB
:102A7000016851E8031F026821F0100142E80313C6
:102A80004BB1016851E8031F026821F0100142E8D0
:102A90000313002BDAD1202180F8421000210163BA
:102AA000416C41F010014164FEF734BF0168406A97
:102AB0000968890600F19F800021C185016851E8FD
:102AC000031F026821F4807142E80313E3B1016837
:102AD00051E8031F026821F4807142E803139BB19F
:102AE000016851E8031F026821F4807142E8031372
:102AF00053B1016851E8031F026821F4807142E874
:102B00000313002BDAD100BF016851E8051F0268EA
:102B100021F0010142E80513BBB3016851E8051F2C
:102B2000026821F0010142E8051373B3016851E81E
:102B3000051F026821F0010142E805132BB301686B
:102B400051E8051F026821F0010142E80513002B3E
:102B5000DAD11AE0016851E8051F026821F040014E
:102B600042E80513DBB1016851E8051F026821F056
:102B7000400142E8051393B1016851E8051F02685E
:102B800021F0400142E805134BB1016851E8051FEF
:102B9000026821F0400142E80513002BDAD1202120
:102BA00080F84210016B012925D100BF016851E86E
:102BB000031F026821F0100142E80313DBB1016832
:102BC00051E8031F026821F0100142E8031393B19A
:102BD000016851E8031F026821F0100142E8031365
:102BE0004BB1016851E8031F026821F0100142E86F
:102BF0000313002BDAD100214163016B012918BFB7
:102C0000FFF7EEBA818DFEF783BE0000406A012116
:102C10004163016B012918BFFFF7E4BA818D4908B0
:102C2000FEF776BE0168406A0968890648BFFFF76B
:102C300037BB0021C18400BF016851E8051F02684D
:102C400021F0800142E8051383B3016851E8051FB4
:102C5000026821F0800142E805133BB3016851E8A6
:102C6000051F026821F0800142E80513F3B10168F5
:102C700051E8051F026821F0800142E80513002B8E
:102C8000DAD113E0016851E8031F026841F0400106
:102C900042E80313002B08BF7047016851E8031F87
:102CA000026841F0400142E8031393B1016851E822
:102CB000031F026841F0400142E803134BB1016871
:102CC00051E8031F026841F0400142E80313002B62
:102CD000D8D17047406AFFF7F1BA000081B090F890
:102CE0004210222921D183680246B3F5805F09D1C1
:102CF00052F8281F52F8183C002B63D003685B6819
:102D00000AE000BF52F8281F13B90369002BF5D061
:102D100003685B6803F07F030B7011680131116079
:102D2000C18D01390A04C18502D001B0704700BFCE
:102D30000168CA6822F02002CA60CA6822F4807260
:102D4000CA604A6922F001024A61202180F84210DB
:102D500000214163026B012A3CD10163016851E803
:102D6000031F026821F0100142E80313DBB1016880
:102D700051E8031F026821F0100142E8031393B1E8
:102D8000016851E8031F026821F0100142E80313B3
:102D90004BB1016851E8031F026821F0100142E8BD
:102DA0000313002BDAD101680A68D20606D5002287
:102DB00000920A680092496800910099818D01B0E3
:102DC000FEF7A6BD026852686FF35F2221F8022B5E
:102DD0008162A5E701B0FFF703BA000080B543F2B6
:102DE0001800C2F20000FEF7A1FD40F22000C2F27E
:102DF0000000BDE8804000F01FB90000002808BFB7
:102E00007047F0B581B00446089DDDE90676C4E957
:102E10000D128387403011461A4601F0D5F904F1AE
:102E2000640031462A46C4E91676A4F8605001F0E1
:102E3000CBF9A06AFDF7DEFCD4E90C01A28FFFF705
:102E40001FF9206B0068C16841F01001C1600020CB
:102E5000208320702083C4E90200C4E90400E061FB
:102E60002062606201B0BDE8F040704710B50028F4
:102E700008BF10BD044639B1E169E06A0131E16182
:102E8000BDE81040FDF7B6BC216AA06A013121629D
:102E9000FDF7B0FCD4E90C01A28FBDE81040FFF7AC
:102EA000EFB80000002808BF7047F0B581B00446B5
:102EB000806A0168A08F4968228B461AB5B2954294
:102EC0001DD0616B9542114406D9AD1AAAB22046B5
:102ED000FFF7EEFA0BE000BF871ABAB22046FFF701
:102EE000E7FA616B20462A46FFF7E2FA3D44D4E94F
:102EF0000201401941EBE571C4E90201268301B0EA
:102F0000BDE8F0407047000000281CBF00210170A0
:102F100070470000002804BF00207047403001F0D7
:102F200043B9000070B548B100F16406044630466C
:102F300001F03AF981B209B122780AB170BD00BF3F
:102F4000B4F86020914288BF1046A16D85B230462A
:102F50002A4601F04BF9D4E90401401941F100017E
:102F6000002DC4E90401E9D0A16D0029E6D0B4F830
:102F70006000A84238BF70BD207830B1207820B101
:102F8000207810B120780028F6D101202070206B25
:102F90002A46BDE87040FFF727B900002DE9F0414F
:102FA0004FF00307D8B30D46C9B300F16408B0F879
:102FB00060704046144601F0E7F8A742064613D970
:102FC000B44219D9404601F0EFF8A11B814228BF55
:102FD0000146404601F076F940462946224601F076
:102FE00097F90120BDE8F0810ED1BE421AD24046C9
:102FF00001F052F9012716E040462946224601F029
:1030000087F90020BDE8F081E01B2C18404601F054
:1030100043F9404621463A4601F07AF902273846FC
:10302000BDE8F081002740462946224601F070F9AC
:103030003846BDE8F0810000002808BF7047F0B5B1
:1030400081B00446006B00680168C9062DD50021D7
:10305000009101680091406800900098A06A0168A2
:10306000A08F4968228B461AB5B295421DD0616B7C
:103070009542114406D9AD1AAAB22046FFF718FAB4
:103080000BE000BF871ABAB22046FFF711FA616B56
:1030900020462A46FFF70CFA3D44D4E902014019C4
:1030A00041EBE571C4E90201268301B0BDE8F040BF
:1030B00070470000024600284FF0000018BF0029AA
:1030C00002D1C0B2704700BF80B502F140000122BA
:1030D00001F08CF8BDE88040C0B27047FEE7000008
:1030E00070B582B000284FF0000518BF002903D149
:1030F000284602B070BD00BF1446002AF8D006462C
:1031000090F833090028F3D096F832090028EFD060
:1031100006F62212A04238BF04460846114622464F
:10312000FDF724F844F6536045F24221C0F6000052
:10313000C0F6000109A240F27D23C6F82259C6F864
:103140002659C6F82A59C6F82E59A6F832590094BD
:1031500001F046FA2546284602B070BD594D6F640D
:10316000656D5F4765745F526573706F6E73650060
:10317000002814BF90F8330900207047B0B500282C
:1031800048D00546022028700020C0F60400C5F88B
:103190001C094FF440700024A5F82009681C40F277
:1031A0000541C5F80644A5F81048C5F81449C5F806
:1031B0001849FCF7F4FF05F612004FF48071FCF794
:1031C000EEFF05F20A4040F20641FCF7E8FFA5F8E1
:1031D0003249C5F82E49C5F82A49C5F82649C5F827
:1031E000224945F2422545F2BE10C0F6000545F2DF
:1031F000D522C0F60000C0F6000229465A2301F08D
:10320000EFF905A010A229463A2301F0E9F920467A
:10321000B0BD00BF0320B0BD25732D2573282564E4
:10322000293A594D6F64656D3A20696E6974696118
:103230006C697A6564207375636365737366756C16
:103240006C792E0D0A000000594D6F64656D5F4961
:103250006E6974002DE9F04F89B00446407894F807
:103260000280E17884F80A0401EB0800FF2884F862
:103270000B8484F80C141DD1B4F808B404F20D4981
:103280000BF1030080B22618211D48465A46FCF770
:103290006DFFB6F80100BBF1000F00BA4FEA104C09
:1032A000A4F80EC85ED0BBF1010F5DD10020002351
:1032B000CDE000BF45F2422145F2A3220FF6E01017
:1032C000C0F60001C0F60002E12301F089F994F88C
:1032D00032090F2818D8411C2044152784F83219C8
:1032E00080F82279012084F8330944F6925045F29F
:1032F000422145F25222C0F60000C0F60001C0F69D
:1033000000024FF40E730EE044F6425045F24221A3
:1033100045F252221527C0F60000C0F60001C0F6A3
:10332000000240F23A23009701F05AF90020A4F875
:10333000060494F8200994F821190130C2B28A4297
:1033400084F82009C0F0C08345F2081045F24221FC
:1033500045F2A322C0F60000C0F60001C0F600024C
:10336000E823ADE30023ABE02BF00101002041F2A4
:1033700021020023261896F80D7496F80E6483EA4D
:1033800007231FB25D00002F48BF82EA43052BB21E
:103390006F00002B48BF82EA45073BB27D00002B3F
:1033A00048BF82EA47052BB26F00002B48BF82EA74
:1033B00045073BB27D00002B48BF82EA47052BB290
:1033C0006F00002B48BF82EA45073BB27D00002B0F
:1033D00048BF82EA47052BB26F00002B48BF82EA44
:1033E000450787EA06231FB25E00002F48BF82EA26
:1033F000430633B27700002B48BF82EA46073BB250
:103400007E00002B48BF82EA470633B27700002BCC
:1034100048BF82EA46073BB27E00002B48BF82EAE3
:10342000470633B27700002B48BF82EA46073BB21B
:103430007E00002B48BF82EA470637B27300002F98
:1034400000F1020048BF82EA4603814292D15FEA5E
:10345000CB7135D019F8000083EA00210AB24B0085
:1034600041F22100002A48BF80EA410319B25A0004
:10347000002948BF80EA430211B25300002948BF27
:1034800080EA420319B25A00002948BF80EA430289
:1034900011B25300002948BF80EA420319B25A0012
:1034A000002948BF80EA430211B25700002948BFF3
:1034B00080EA420739B27B00002948BF80EA47030F
:1034C0009EB2664530D10020B8F1000FA4F8060482
:1034D00084F8200900F08680B4F81078B84540F0F0
:1034E000B380D4F81409D4F81819D4F81C59401A28
:1034F000584538BF83461FFA8BF70021E819C0F6FC
:1035000007018842C0F0D08044F6AB7045F24221FA
:1035100045F26822C0F60000C0F60001C0F60002C5
:103520004FF4EC73D2E000BF45F2E61045F24221C1
:1035300045F2A322C0F60000C0F60001C0F600026A
:10354000FF23CDE9006C01F04BF894F832090F2805
:1035500018D8411C2044152784F8321980F82279A4
:10356000012084F8330944F6925045F2422145F295
:103570005222C0F60000C0F60001C0F600024FF46F
:103580000E730EE044F6425045F2422145F25222BB
:103590001527C0F60000C0F60001C0F6000240F298
:1035A0003A23009701F01CF80020A4F8060494F8D0
:1035B000200994F821190130C2B28A4284F8200906
:1035C000C0F0828245F2081045F2422145F2A32262
:1035D000C0F60000C0F60001C0F600024FF483738D
:1035E0006EE200BF99F80000002800F0CB80BBF12C
:1035F000000F00F0E181CBF10000ABF101010027E9
:10360000B94200F00581E21992F80E34002B00F067
:10361000BB81C3199E1C00F0FB8092F80F64002E42
:1036200000F0B481DE1C00F0F38092F81064002EEC
:1036300000F0AE81043300F0EB8092F811240437DF
:10364000002ADDD1A5E100BF45F23C1045F2422140
:1036500045F28922C0F60000C0F60001C0F6000263
:1036600040F29113CDE9007800F0BAFF94F83209E6
:103670000F285BD8411C2044152784F8321980F8A4
:103680002279012084F8330944F6925045F2422110
:1036900045F25222C0F60000C0F60001C0F600025A
:1036A0004FF40E7351E000BFA80700F0C98044F644
:1036B000CC5045F2422145F26822C0F60000C0F627
:1036C0000001C0F600024FF4EF73009500F088FF90
:1036D00044F64F7045F2422145F28922C0F60000BF
:1036E000C0F60001C0F600024FF4D67300F078FF78
:1036F00094F832090F2873D8411C2044182784F805
:10370000321980F82279012084F8330944F6925066
:1037100045F2422145F25222C0F60000C0F60001F7
:10372000C0F600024FF40E7369E000BF44F6425049
:1037300045F2422145F252221527C0F60000C0F69C
:103740000001C0F6000240F23A23009700F048FF63
:1037500094F8200994F821190130C2B28A4284F801
:103760002009C0F0B18145F2081045F2422145F22E
:103770008922C0F60000C0F60001C0F6000240F247
:1037800097133DE045F2DF0045F2422145F2B722B2
:10379000C0F60000C0F60001C0F600024FF4A173AD
:1037A00000F01EFF94F8320906270F28277031D841
:1037B000411C204484F8321980F82279012084F8D1
:1037C000330944F6925045F2422145F25222C0F6A6
:1037D0000000C0F60001C0F600024FF40E7327E0AF
:1037E00044F6425045F2422145F252221827C0F6D3
:1037F0000000C0F60001C0F6000240F23A23009734
:1038000000F0EEFE03200721217009B0BDE8F08F23
:103810005F46BEE044F6425045F2422145F2522254
:10382000C0F60000C0F60001C0F6000240F23A23E4
:10383000009700F0D5FE042009B0BDE8F08F00BF6E
:10384000680571D00397FDF765FB5FEA0B4025D053
:10385000D4F81C794FF00008DA464FF0FF3005909D
:103860001FFA8AF01FFA88F104264944042838BF59
:103870005FFA8AF605A83246FCF778FC059A022022
:1038800039460023FDF7F0FA002840F09181AAEBB9
:10389000060A04375FEA0A40B044DED1FDF7DAFADF
:1038A000D4F81C7944F60E6045F2422145F26822B4
:1038B000039DC0F60000C0F60001C0F6000240F211
:1038C0001E23CDE9005700F08BFE0BF103004FF6ED
:1038D000FC710840D4F81C19D4F818290144501977
:1038E000B4F81028C4F81C19511C4CF6CD42CFF680
:1038F000FF724A4393B25B0843EAC23292B241F686
:1039000099139A42C4F81809A4F8101800F27881A3
:10391000D4F81479002F00F05F8164214143B1FB9A
:10392000F7F1C9B259E100BF45F2422145F26822E0
:10393000E9A0C0F60001C0F600024FF4F373009551
:1039400000F04EFEFDF7E6FA0020CDE9040001206C
:10395000089005A804A90795FDF704FA0646FDF7A7
:1039600079FA002E3FF46EAF44F6DF6045F2422153
:1039700045F26822C0F60000C0F60001C0F6000261
:1039800040F2F7130096A1E6013702E0023700E0AB
:103990000337B7F5807F0FD345F2970045F24221F8
:1039A00045F2B722FF26C0F60000C0F60001C0F6BF
:1039B00000024FF4AB733EE004F612073846494666
:1039C000FF22FCF7F7FB002084F811094846FCF7BA
:1039D000FDFB4844013009EB0B0188424CD2FCF757
:1039E000FCFB0646C4F8140945F2110045F24221D9
:1039F00045F2B722C0F60000C0F60001C0F6000292
:103A000040F26D13CDE9007600F0EAFDD4F81479A8
:103A1000B7F5403F5CD945F27F1045F2422145F2AF
:103A2000B7224FF44036C0F60000C0F60001C0F6E1
:103A300000024FF4B973CDE9007600F0D1FD94F89F
:103A400032090F282CD8411C2044182784F8321939
:103A500080F82279012084F8330944F6925045F227
:103A6000422145F25222C0F60000C0F60001C0F625
:103A700000024FF40E7322E044F6DB7045F242215F
:103A800045F2B722C0F60000C0F60001C0F6000201
:103A90004FF4B27300F0A4FD94F832090F28D2D984
:103AA00044F6425045F2422145F252221827C0F610
:103AB0000000C0F60001C0F6000240F23A23009771
:103AC00000F08EFD07202070032009B0BDE8F08FC4
:103AD00000210022C4F8181994F83219C0F6040223
:103AE0000120C4F81C2903220F29A4F81008227011
:103AF00018D84A1C2144062784F8322981F82279F3
:103B000084F8330944F6925045F2422145F252229C
:103B1000C0F60000C0F60001C0F600024FF40E73BC
:103B20000FE000BF44F6425045F2422145F25222D6
:103B30000627C0F60000C0F60001C0F6000240F201
:103B40003A23009700F04CFD94F832090F2819D859
:103B5000411C2044432784F8321980F8227901203F
:103B600084F8330944F6925045F2422145F252223C
:103B7000C0F60000C0F60001C0F600024FF40E735C
:103B80000FE000BF44F6425045F2422145F2522276
:103B90004327C0F60000C0F60001C0F6000240F264
:103BA0003A23009700F01CFD002009B0BDE8F08F1B
:103BB0000546FDF74FF944F6986045F2422145F27B
:103BC0006822C0F60000C0F60001C0F6000240F214
:103BD0001223CDE9007579E50021CDE9001044F606
:103BE000D34045F2422145F28922C0F60000C0F6DA
:103BF0000001C0F600024FF4DD73029700F0F0FC04
:103C000094F832090F2819D8411C2044062784F85B
:103C1000321980F82279012084F8330944F6925051
:103C200045F2422145F25222C0F60000C0F60001E2
:103C3000C0F600024FF40E730FE000BF44F642508E
:103C400045F2422145F252220627C0F60000C0F696
:103C50000001C0F6000240F23A23009700F0C0FCD9
:103C6000D4F81409D4F81819814203D2002009B0FD
:103C7000BDE8F08F44F6045045F2422145F2892216
:103C8000C0F60000C0F60001C0F600024FF4E17378
:103C900000F0A6FC00200521217009B0BDE8F08FDE
:103CA00025732D2573282564293A594D6F64656D58
:103CB0003A207061636B6574206E756D6265722069
:103CC000766572696669636174696F6E20666169A1
:103CD0006C65642E0D0A000025732D25732825645C
:103CE000293A594D6F64656D3A206572617365209C
:103CF000466C6173682070616765203078253038C4
:103D0000582E0D0A0000000080B582B090F83229CC
:103D10008C460F2A1CD8511C80F83219811881F862
:103D200022C9012180F8331944F6925045F242210C
:103D300045F25222C0F60000C0F60001C0F60002B3
:103D40004FF40E73CDF800C000F04AFC02B080BD05
:103D500044F6425045F2422145F25222C0F600009C
:103D6000C0F60001C0F6000240F23A23CDF800C0D0
:103D700000F036FC02B080BD002808BF7047B0B527
:103D80000446022020700020C0F604000025C4F87C
:103D90001C09601C40F20541C4F80654A4F81058F0
:103DA000C4F81459C4F8185984F82059FCF7F7F9E5
:103DB00004F612004FF48071FCF7F1F904F20A40A6
:103DC00040F20641FCF7EBF945F2BE1045F2422104
:103DD00045F2D522A4F83259C4F82E59C4F82A590C
:103DE000C4F82659C0F60000C0F60001C0F6000273
:103DF0005A23C4F82259BDE8B04000F0F1BB0000DE
:103E000010B582B088B304460078821E022A11D20F
:103E1000B4F8062462B340F20540824246D345F22C
:103E2000422145F27E22A0A0C0F60001C0F60002A9
:103E30008B2315E0052840F0E780B4F8060400283D
:103E400048D040F205429042C0F0648045F24221E1
:103E500045F27E2285A0C0F60001C0F60002B22322
:103E600000F0BEFB0020A4F80604032002B010BD41
:103E7000013917294FF0010000F27880DFE801F0E6
:103E80000C78768076767676767676767676767630
:103E900076767676767676AE0120C0F28000C4F82B
:103EA0000604A1180120487002B010BD501CA4F8EF
:103EB0000604A0184170B4F80804B4F806140530DC
:103EC00080B28142C0F0A080204602B0BDE8104020
:103ED000FFF7C0B9022900F08F80182900F0988000
:103EE000042940F0918044F6777045F2422145F272
:103EF0007E22C0F60000C0F60001C0F60002A12339
:103F000000F06EFB20460621FFF7FEFE002002B007
:103F100010BD00BF421C2044A4F806244170B4F830
:103F20000804B4F80614053080B281426CD32046F0
:103F3000FFF790F9002867D1D4F818C945F252006C
:103F400045F2422145F27E22C0F60000C0F6000193
:103F5000C0F60002C123CDF800C000F041FB0620EE
:103F6000207020460621FFF7CFFE042002B010BDCE
:103F70000120C0F20040C4F80604A01842E000BFCF
:103F800044F6777045F2422145F27E22C0F60000E9
:103F9000C0F60001C0F600027B2300F021FB94F87C
:103FA00032090F2848D8411C20444FF0060C84F8F1
:103FB000321980F822C9012084F8330944F692505E
:103FC00045F2422145F25222C0F60000C0F600013F
:103FD000C0F600024FF40E733EE000BF44F61670C8
:103FE00045F2422145F27E22C0F60000C0F60001F3
:103FF000C0F60002812318E00121C0F20041C4F89C
:104000000614204402214170012002B010BD00BFFF
:1040100044F6167045F2422145F27E22C0F60000B9
:10402000C0F60001C0F60002A82300F0D9FA07206C
:104030002070032002B010BD44F6425045F24221E8
:1040400045F252224FF0060CC0F60000C0F6000107
:10405000C0F6000240F23A23CDF800C000F0C0FAEA
:1040600005202070002002B010BD00BF25732D2553
:1040700073282564293A594D6F64656D3A2072782A
:1040800020627566666572206F766572666C6F7702
:1040900020696E20656E642073746174652C2072D3
:1040A000657365742E0D0A0025732D25732825640C
:1040B000293A594D6F64656D3A20727820627566B1
:1040C000666572206F766572666C6F772C207265FC
:1040D0007365742E0D0A0000B0B5FEF7F3F80446C0
:1040E0000D46FEF71FFA09A00FA114A2182300F035
:1040F00077FA84F0AA30284308BFFEF7E9F80020D9
:104100000021BDE8B040FEF739B900BF25732D2569
:1041100073282564293A53797374656D205374614B
:104120007274210A000000002E2E2F4941502F6288
:104130006F6F745F656E7472792E63005F5379736D
:1041400074656D5374617274000000004EF60C507B
:10415000BFF34F8FCEF200000168042201F4E0614A
:10416000C0F2FA5211430160BFF34F8F00BF00BF8E
:1041700000BF00BFFAE7000010B50446C1B200203E
:10418000FEF758FA204610BD60B1016851B1416890
:1041900041B1C2688068824238BF0021891A084450
:1041A000013870470020704760B1016851B1416823
:1041B00041B1C268806882422EBF101A1144081AA9
:1041C000704700BF00207047034600284FF00000F2
:1041D00018BF002900D17047002A08BF7047C3E903
:1041E000020018610120C3E900127047002804BFD3
:1041F000002070472DE9F04381B00546006898B172
:1042000014464FF000005AB10E4649B1696839B101
:10421000E868AA68904238BF0844904208D100205C
:1042200001B0BDE8F08300BF002001B0BDE8F0831D
:10423000D5F80890BFF35F8F801AD5E90012A0422D
:10424000A2EB090738BF0446A74228BF27464944C6
:1042500030463A46FBF78AFFB4EB070806D02968D8
:10426000F0194246FBF782FF02E000BF07EB0908A6
:104270006868804528BF4FF00008BFF35F8FC5F81E
:1042800008802B691BB1284600212246984720460A
:1042900001B0BDE8F083000090B1016881B14168D0
:1042A000002908BF70470021BFF35F8FC160BFF3D3
:1042B0005F8F816003691BB102210022184700BF94
:1042C0007047000010B508B30268FAB14FF000045F
:1042D000C9B14268BAB1C36884681C1B38BF1444B2
:1042E0008C4228BF0C468168BFF35F8F426821442F
:1042F0008A1A38BF0A46BFF35F8F8260036913B121
:10430000002122469847204610BD00BF002010BD66
:10431000002804BF002070472DE9F04381B0054616
:10432000006868B314464FF0000052B30E4641B324
:10433000696831B3EA68AB68D04318449A4228BF31
:10434000084408B3D5F80C90BFF35F8FD5E900128D
:10435000A042A2EB090738BF0446A74228BF274660
:1043600001EB090031463A46FBF700FFB4EB0708C2
:104370000ED02868F1194246FBF7F8FE0AE000BFAC
:10438000002001B0BDE8F083002001B0BDE8F0835B
:1043900007EB09086868804528BF4FF00008BFF3A5
:1043A0005F8FC5F80C802B691BB12846012122467E
:1043B0009847204601B0BDE8F083000092B044F673
:1043C000E03144F6F3326BA0C0F60001C0F6000203
:1043D0005E2300F005F9FCF7D1FE00240120CDE9B1
:1043E0000D44CDE90B4408900C904FF4E0104FF4CD
:1043F00080310225119008A8CDE90914CDE90F51AB
:10440000FDF770F820B1EFF3108072B6FEE700BF41
:104410000F20CDE903054FF48060CDE9060403A821
:1044200002210594FCF754FF20B1EFF3108072B61F
:10443000FEE700BFFDF7CCFFFDF7A8FFFEF714F87D
:1044400041F65C6041F25C61C2F20000C2F2000120
:1044500040F22004CDE90010C2F2000440F25C6199
:1044600040F65C624FF40067C2F20001C2F2000243
:1044700020464FF400630297FEF7C0FC42F25C65F1
:10448000C2F200052846FEF779FE44F6E03944F60C
:10449000F337C0F60009C0F6000746A049463A4681
:1044A000802300F09DF844F69E3A44F64A3B4FF0D4
:1044B000000808AEC0F6000AC0F6000B08E000BF16
:1044C0002046FEF72FFD012008F10108FCF736FC1D
:1044D0004EF6EF60CEF6EE6008FB00F048F688017D
:1044E0004FEA7000C0F68801884203D95FEAC870BD
:1044F00015D0E8E740F60040C4F201002021FCF7A7
:104500001BFE5FEAC8700AD0DDE700BF504649468F
:104510003A46B22300F064F82846FFF72DFC204607
:10452000FEF7F8FCA0B120463146FEF7C3FD002897
:10453000F5D09DF820102846FFF762FC0328E5D04F
:104540000428ECD1584649463A46AD23E2E700BF7D
:104550002846FEF70DFE0028B2D02846314610222C
:10456000FEF7BEFD0028ABD0024620463146FEF7DE
:1045700015FDA5E725732D2573282564293A456E79
:10458000746572696E6720746865206D61696E205C
:10459000696E697469616C697A6174696F6E206FA4
:1045A000662074686520626F6F746C6F61646572F9
:1045B0002E0A000025732D2573282564293A426FA1
:1045C0006F746C6F6164657220696E6974207375B5
:1045D000636365737366756C6C792E0A0000000066
:1045E0000FB4054B10B503A9044A029800F01CF85B
:1045F00010BC5DF814FB00007941000808000020A1
:10460000004870470C00002002E008C8121F08C1D3
:10461000002AFAD170477047002001E001C1121F43
:10462000002AFBD1704700002DE9FF4F8DB00F46E7
:104630000546002606E025280BD0DDE90F1290473D
:104640006D1C761C28780028F5D111B03046BDE8E5
:10465000F08F0024A246A1460122EC4900E0044369
:1046600015F8013F203B02FA03F00842F7D1287801
:104670002A2810D06FF02F022878A0F130010929E4
:1046800014D80AEB8A0102EB410144F0020400EB6A
:10469000010A6D1CF0E701CF5FEA000A03D544F47C
:1046A0000054CAF1000A44F002046D1C28782E2838
:1046B00017D115F8010F44F004042A280ED06FF02A
:1046C0002F022878A0F1300109290AD809EB8901C5
:1046D00002EB410100EB01096D1CF2E757F8049B66
:1046E0006D1C28786C280FD006DC4C2817D0682861
:1046F0000DD06A2814D104E0742810D07A280FD184
:104700000DE044F400140AE044F4801401E044F4A1
:1047100040146978814202D104F580146D1C6D1C2F
:104720002A786E2A1FD00CDC632A31D004DC002AE0
:104730008BD0582A11D1A3E0642A68D0692A0CD101
:1047400065E0732A2ED004DC6F2A73D0702A04D15E
:104750009BE0752A6FD0782A6ED01046DDE90F12E3
:104760009047761C50E1C4F30250022806D003287B
:1047700009D0042801CF09D0066045E101CFF11727
:10478000C0E9006140E101CF06803DE106703BE1F8
:1047900017F8040B8DF8000000208DF80100EB469F
:1047A000012003E057F804BB4FF0FF3061074FF0E2
:1047B000000102D40DE008F10101884649450FDAF5
:1047C0008045F8DB1BF808100029F4D108E008F157
:1047D000010188468142FADB1BF808100029F6D156
:1047E000DDE90F23AAEB08008146214600F036F9E7
:1047F000304400EB080604E0DDE90F121BF8010B62
:104800009047B8F10108F7D221464846F7E00A215F
:10481000C4F302534FF0000B0891022B04D001CFD8
:10482000C117032B09D00AE0FF1D27F00707F7E89F
:10483000020108E032E01FE020E000B2C117042BC3
:1048400001D140B2C117031E71F1000307DA4FF026
:10485000000CD0EB0C006CEB01012D2302E02305D2
:1048600004D52B238DF82430012303E0E30701D086
:104870002023F7E7984658E00A2110E010210EE0C7
:1048800010204FF0000B08900CE010214FF0000BAF
:1048900044F004044FF00809089103E008214FF0A8
:1048A000000B0891C4F30253022B04D001CF002166
:1048B000032B06D006E0FF1D27F00707F7E80201EB
:1048C00003E080B2042B00D1C0B24FF000082307F0
:1048D0002BD5702A07D0DDF820C08CF0100C5CEAD4
:1048E0000B0C05D00EE040238DF82430012308E0A6
:1048F00050EA010306D030238DF824308DF82520AE
:1049000002239846DDF820C08CF0080C5CEA0B0C02
:104910000BD150EA010301D1630706D530238DF88E
:1049200024304FF00108A9F10109582A04D038A217
:104930000B9208AA0A920BE03AA2F9E75B46089AA2
:10494000FBF76CFC0B9B9B5C0A9A521E0A9213703D
:1049500050EA0102F2D10A98ADEB000000F1200B01
:10496000600702D524F4803401E04FF00109D945F5
:1049700002DDA9EB0B0000E0002000EB0B0141443D
:104980000890AAEB010AE00306D4DDE90F232146D3
:10499000504600F063F806444FF0000908E009A90A
:1049A00011F80900DDE90F12904709F10109761CA1
:1049B000C145F4DBE0030CD5DDE90F232146504669
:1049C00000F04CF8064404E0DDE90F123020904777
:1049D000761C0899481E08900029F5DC08E00A9822
:1049E0000A990078491C0A91DDE90F129047761C5C
:1049F000BBF10001ABF1010BF1DC21465046DDE9D2
:104A00000F2300F019F806446D1C1BE6092801006D
:104A10003031323334353637383961626364656634
:104A200000000000303132333435363738394142F6
:104A300043444546000000002DE9F04104460025AE
:104A40001E461746880404D405E039462020B047A6
:104A50006D1C641EF9D52846BDE8F0812DE9F041B2
:104A6000044600251E469046C80301D5302700E0C5
:104A70002027880404D505E041463846B0476D1C20
:104A8000641EF9D52846BDE8F08100404040404012
:104A90004040404041414141414040404040404011
:104AA0004040404040404040404040050202020239
:104AB0000202020202020202020202202020202040
:104AC00020202020200202020202020290909090F8
:104AD00090901010101010101010101010101010D6
:104AE000101010101010020202020202888888883A
:104AF0008888080808080808080808080808080836
:104B00000808080808080202020240008B4A000850
:104B1000000000000000000001020304060708096D
:104B2000000000000102030401020203040506075D
:104B300008090A0B0C0D0E0F1010303132333435CA
:104B40003637383941424344454625732D2573286D
:104B50002564293A594D6F64656D3A2049415020CA
:104B60007570677261646520636F6D706C657465E4
:104B7000642E205072657061726520746F207665B6
:104B80007269667920616E6420636F707920746841
:104B900065206669726D776172652E0D0A00257356
:104BA0002D2573282564293A594D6F64656D3A2087
:104BB0007472616E736D697373696F6E2065727262
:104BC0006F722C2072657365742070726F746F63DE
:104BD0006F6C2070726F636573736F722E0D0A00B5
:104BE0002E2E2F436F72652F5372632F6D61696E86
:104BF0002E63006D61696E005465726D696E616C43
:104C00000025732D2573282564293A54686520737F
:104C100065636F6E642074696D6520656E7465727E
:104C200020746869732066756E6374696F6E2C20DA
:104C3000636C65616E2074686520666C61672061D5
:104C40006E64207468656E204A756D7020746F20E4
:104C50004170706C69636174696F6E2E0A00257310
:104C60002D2573282564293A546865206669727376
:104C7000742074696D6520656E746572207468694E
:104C8000732066756E6374696F6E2C20636C65614A
:104C90006E20757020746865204D435520656E76D2
:104CA00069726F6E6D656E742E0A002E2E2F49414B
:104CB000502F6170705F6A756D702E6300494150AE
:104CC0005F52656164795F546F5F4A756D705F41D3
:104CD00070700025732D2573282564293A594D6F6E
:104CE00064656D3A2070726F677265737320256416
:104CF0002525202825752F2575206279746573294F
:104D00002E0D0A0025732D2573282564293A594D47
:104D10006F64656D3A2064617461207265636569D2
:104D200076656420636F6D706C657465642C2077A4
:104D3000616974696E6720666F7220454F542E0D4D
:104D40000A0025732D2573282564293A594D6F646F
:104D5000656D3A207761726E696E672120726573A6
:104D6000706F6E7365206275666665722069732068
:104D700066756C6C2C206469736361726420726563
:104D800073706F6E73653A203078253032582E0D6F
:104D90000A0025732D2573282564293A594D6F641F
:104DA000656D3A20726573706F6E7365206461740F
:104DB0006120616464656420746F20717565756538
:104DC0003A203078253032582E0D0A0025732D25D3
:104DD00073282564293A594D6F64656D3A20466CF5
:104DE0006173682061646472657373206E6F7420F0
:104DF000616C69676E656420746F20342062797419
:104E000065733A203078253038582E0D0A00257306
:104E10002D2573282564293A594D6F64656D3A2014
:104E20007375636365737366756C6C7920777269EB
:104E30007474656E20256420627974657320746FC4
:104E40002061646472657373203078253038582E81
:104E50000D0A0025732D2573282564293A594D6FB5
:104E600064656D3A207375636365737366756C6C06
:104E700079206F627461696E6564202564206279AF
:104E8000746573206F6620726573706F6E73652032
:104E9000646174612E0D0A0025732D257328256425
:104EA000293A594D6F64656D3A20466C61736820EC
:104EB0007772697465206661696C65642C20616431
:104EC00064726573733D3078253038582C206572D4
:104ED000726F7220636F64653D25642E0D0A002594
:104EE000732D2573282564293A594D6F64656D3AF1
:104EF00020466C6173682065726173652066616924
:104F00006C65642C206572726F7220636F64653DFE
:104F100025642E0D0A0025732D2573282564293A52
:104F2000594D6F64656D3A20726563656976656495
:104F30002043414E2C207472616E736D69737369E6
:104F40006F6E2063616E63656C65642E0D0A0025CB
:104F5000732D2573282564293A594D6F64656D3A80
:104F600020466C6173682077726974652066616998
:104F70006C65642E0D0A0025732D25732825642980
:104F80003A594D6F64656D3A20726563656976655F
:104F90006420454F542C207472616E736D69737375
:104FA000696F6E20656E642E0D0A0025732D2573C2
:104FB000282564293A594D6F64656D3A20466C6125
:104FC00073682061646472657373206F7574206FF9
:104FD000662072616E67652E0D0A0025732D25739C
:104FE000282564293A594D6F64656D3A20696E76BB
:104FF000616C69642066696C652073697A652066F6
:1050000069656C6420706F736974696F6E2E0D0A28
:105010000025732D2573282564293A594D6F646541
:105020006D3A2066696C6520696E666F726D617499
:10503000696F6E202D206E616D653A2025732C20DE
:1050400073697A653A2025752062797465732E0D2F
:105050000A0025732D2573282564293A594D6F645C
:10506000656D3A207472616E736D697373696F6EEA
:1050700020636F6D706C657465642120746F74615A
:105080006C20726563656976656420257520627998
:105090007465732E0D0A0025732D25732825642948
:1050A0003A594D6F64656D3A2066696C656E616D45
:1050B0006520746F6F206C6F6E67202825752062E5
:1050C00079746573292C206D617820616C6C6F7721
:1050D00065642025752062797465732E0D0A00259C
:1050E000732D2573282564293A594D6F64656D3AEF
:1050F00020726563656976656420656E6420706101
:10510000636B65742E0D0A0025732D2573282564A5
:10511000293A594D6F64656D3A206D61782072654A
:1051200074727920636F756E74207265616368654F
:10513000642C2061626F72742E0D0A0025732D2578
:1051400073282564293A594D6F64656D3A20706162
:10515000636B6574206E756D626572206572726F27
:10516000722C2065787065637465642025752C2029
:1051700072656365697665642025752E0D0A0025C4
:10518000732D2573282564293A594D6F64656D3A4E
:10519000206572726F72212066696C652073697A6E
:1051A0006520257520657863656564732063616398
:1051B00068652073697A652025752E0D0A002573B0
:1051C0002D2573282564293A594D6F64656D3A2061
:1051D0007265736574207375636365737366756C4C
:1051E0006C792E0D0A0025732D2573282564293A24
:1051F000594D6F64656D3A2043524320766572695C
:105200006669636174696F6E206661696C65642CA0
:105210002063616C63756C617465642076616C7584
:10522000653D3078253034582C2072656365697689
:1052300065642076616C75653D3078253034580D95
:105240000A002E2E2F4941502F796D6F64656D2E07
:105250006300594D6F64656D5F51756575655F528B
:105260006573706F6E736500594D6F64656D5F5740
:10527000726974655F546F5F466C61736800594D65
:105280006F64656D5F52756E00594D6F64656D5F3B
:1052900048616E646C655F446174615F5061636B0B
:1052A000657400594D6F64656D5F50617273655F21
:1052B0005061636B657400594D6F64656D5F486143
:1052C0006E646C655F46696C65496E666F5F5061C0
:1052D000636B657400594D6F64656D5F52657365EE
:1052E0007400000008530008080000209800000027
:1052F00008460008A0530008A0000020E833000082
:1053000018460008D5EDFFFF000000000000000077
:10531000010000001000000000127A0000000000F0
:10532000000000000000000000000000000000007D
:10533000000000000000000000000000000000006D
:105340000000000000000000902F0020D42F00205B
:1053500018300020000000000000000000000000E5
:10536000000000000000000000000000000000003D
:10537000000000000000000000000000000000002D
:10538000000000000000000000000000000000001D
:10539000000000000000000000000000000000000D
:0400000508000131BD
:00000001FF
