:020000040800F2
:100000001004002001010008750300089101000898
:100010007103000855010008810400080000000079
:10002000000000000000000000000000E9030008DC
:100030005901000800000000E5030008ED03000876
:100040001B0100081B0100081B0100081B01000820
:100050001B0100081B0100081B0100081B01000810
:100060001B0100081B0100081B0100081B01000800
:100070001B0100081B0100081B0100081B010008F0
:100080001B0100081B0100081B0100081B010008E0
:100090001B0100081B0100081B0100081B010008D0
:1000A0001B0100081B0100081B0100081B010008C0
:1000B0001B0100081B0100081B0100081B010008B0
:1000C0001B0100081B0100081B0100081B010008A0
:1000D0001B0100081B0100081B0100081B01000890
:1000E0001B0100081B0100081B010008DFF80CD0F1
:1000F00000F018F80048004715050008100400201B
:100100000648804706480047FEE7FEE7FEE7FEE7B1
:10011000FEE7FEE7FEE7FEE7FEE7FEE77D040008F8
:10012000ED0000081CB509480090094801900546FB
:10013000009C06E0E06840F0010394E8070098475F
:100140001034AC42F6D3FFF7D5FF0000800500085D
:10015000A0050008FFE7FEE77047000041F2180124
:10016000C4F20201086840F00100086041F21C027C
:10017000C4F20202106840F080501060086840F03D
:1001800020000860086840F00400086000BF704765
:10019000FFE7FEE742F20000C4F20200006800F050
:1001A0000700704781B0009042F20001C4F20201E2
:1001B000086820F00700009A1043086001B07047FB
:1001C0000421C4F201010868022262F31A60086087
:1001D0007047000080B582B0019001984FF47A71A9
:1001E00000F002F802B080BD82B001900091019849
:1001F0000099B0FBF1F001384EF21401CEF200018B
:1002000008604EF21801CEF20001002008604EF2A4
:100210001001CEF200010520086002B07047000016
:1002200041F20400C4F20200006800F00C007047C4
:1002300041F20001C4F20201086840F48030086015
:100240007047000041F20000C4F202000068C0F3F1
:100250004040704782B00190009141F20401C4F225
:100260000201086820F47C10019A02F44032009BDD
:100270001A431043086002B07047000041F20001C9
:10028000C4F20201086840F0807008607047000006
:1002900041F20000C4F202000068C0F34060704701
:1002A00081B0009041F20401C4F20201086820F01C
:1002B000F000009A1043086001B0704781B00090D0
:1002C00041F20401C4F20201086820F4E060009ADF
:1002D0001043086001B0704781B0009041F2040102
:1002E000C4F20201086820F46050009A10430860CC
:1002F00001B0704781B0009041F20401C4F20201E4
:10030000086820F00300009A1043086001B07047AD
:1003100081B00090009840F20001C2F20001086034
:1003200001B0704782B001904EF21000CEF2000092
:100330000068009000980198013020B1FFE7019813
:1003400001300190FFE7FFE7019870B1FFE74EF23F
:100350001000CEF200000068C003002804D5FFE7BB
:10036000019801380190FFE7EEE702B07047000006
:10037000FFE7FEE7FFE7FEE788B0079006910592EA
:10038000079800F0070004900498C0F107000528C2
:1003900003D3FFE70420019004E00498C0F10700B4
:1003A0000190FFE70198039004980430062803D8D1
:1003B000FFE70020009003E0049803380090FFE777
:1003C0000098029006980399012202FA01F101397E
:1003D0000840029B984005999A40013A1140084311
:1003E00008B0704770470000704700007047000079
:1003F00080B582B00220FFF7D5FEFFE7FFF7CAFE07
:10040000022801D0FFE7F9E7FFF712FFFFE7FFF748
:1004100019FF012801D0FFE7F9E74FF480304FF4CE
:10042000E011FFF717FFFFF729FFFFE7FFF730FFA6
:10043000012801D0FFE7F9E700200190FFF730FF26
:100440004FF48060FFF73AFF0198FFF745FF022065
:10045000FFF750FFFFE7FFF7E3FE082801D0FFE7B3
:10046000F9E74AF20020C0F24A400090FFF7B2FEDE
:100470000098FFF74DFF02B080BD000070470000FC
:10048000FFE7FEE74EF60C50CEF200000068C0F326
:100490000220704782B08DF8070000919DF9070097
:1004A00000280AD4FFE7009800019DF907104EF2DA
:1004B0000042CEF2000288540BE0009800019DF843
:1004C000071001F00F014EF61452CEF200028854CC
:1004D000FFE702B07047000083B00290029800F07E
:1004E000070000904EF60C51CEF200010868019012
:1004F00001984FF6FF02104001900198009A40EADF
:1005000002200022C0F2FA521043019001980860C4
:1005100003B0704780B582B0002000900190FFF7D3
:100520001DFE0320FFF7D8FFFFF7ACFF009A0F2155
:10053000FFF722FF01464FF0FF30FFF7ABFFFFF759
:100540003FFEFFF755FFFFE740F20801C2F200014E
:100550000868013008604FF47A70FFF7E3FEF3E7B4
:1005600002E008C8121F08C1002AFAD1704770477C
:10057000002001E001C1121F002AFBD170470000DA
:10058000A005000800000020080000006005000829
:10059000A8050008080000200804000070050008F5
:0805A00000127A0000000000C7
:04000005080000ED02
:00000001FF
