:020000040800F2
:10000000101200209D010008011C00084D1A000874
:10001000FD1B0008E9020008512E00080000000046
:10002000000000000000000000000000552A000849
:10003000F902000800000000051C0008592A000809
:10004000B7010008B7010008B7010008B7010008B0
:10005000B7010008B7010008B7010008B7010008A0
:10006000B7010008B7010008B7010008B701000890
:10007000B7010008B7010008B7010008B701000880
:10008000B7010008B7010008B7010008B701000870
:10009000B7010008B7010008B7010008B701000860
:1000A000B7010008B7010008B7010008B701000850
:1000B000B7010008B7010008B7010008B701000840
:1000C000B7010008B7010008B7010008B701000830
:1000D000B7010008452E0008B7010008B701000865
:1000E000B7010008B7010008B7010008B701000810
:1000F000B7010008252B0008B7010008B701000868
:10010000B7010008B7010008B7010008B7010008EF
:10011000B7010008B7010008B7010008B7010008DF
:10012000B7010008B7010008ED020008B701000898
:10013000B70100080000000000000000B70100083F
:10014000B7010008B7010008B7010008B7010008AF
:10015000B7010008B7010008B7010008B70100089F
:10016000B7010008B7010008B7010008B70100088F
:10017000B7010008B70100080000000000000000FF
:10018000B7010008B7010008DFF80CD000F094F8C0
:1001900000480047493000081012002006488047F8
:1001A00006480047FEE7FEE7FEE7FEE7FEE7FEE75C
:1001B000FEE7FEE7FEE7FEE7112B000889010008D5
:1001C0002DE9F05F0546002092469B46884606468C
:1001D000814640241BE0284641464746224600F01F
:1001E0005AF853465A46C01A914110D31146184640
:1001F000224600F041F82D1A67EB01084F462246CF
:100200000120002100F038F817EB00094E41201EB4
:10021000A4F10104DFDC484631462A464346BDE8E6
:10022000F09F40EA01039B0703D009E008C9121FB1
:1002300008C0042AFAD203E011F8013B00F8013BA0
:10024000521EF9D27047D2B201E000F8012B491ECC
:10025000FBD270470022F6E710B513460A46044663
:100260001946FFF7F0FF204610BD421C10F8011B95
:100270000029FBD1801A7047202A04DB203A00FABB
:1002800002F1002070479140C2F1200320FA03F3ED
:10029000194390407047202A04DB203A21FA02F0EB
:1002A0000021704721FA02F3D040C2F120029140B0
:1002B00008431946704700001CB5094800900948DA
:1002C00001900546009C06E0E06840F0010394E8D8
:1002D000070098471034AC42F6D3FFF759FF0000EF
:1002E0007431000894310008FEE7000040F6CC406D
:1002F000C2F2000000F05AB870470000EFF310801F
:1003000072B600BFFEE7000070B5866D044600F0CF
:10031000C1FA94F83510022925D105462068216CD0
:10032000026822F016020260426922F080024261F5
:1003300009B9A16C19B1016821F0080101600168D7
:1003400021F00101016000BF20680068C0070ED0E5
:1003500000F0A0FA401B0628F6D320206065032099
:1003600084F835000CE080206065012008E0E06D35
:100370003F2101FA00F0B060012084F83500002030
:10038000002184F8341070BD90F83510022909D18D
:10039000052180F835100068016821F00101016035
:1003A000002070478021416501207047F0B581B081
:1003B00004460020009040F20000C2F200000268F3
:1003C000D4E9166048F2B51337680821C1F64E33F8
:1003D00081403942A2FB03250CD0226813685B07D9
:1003E00008D5136823F004031360B160616D41F018
:1003F0000101616501218140394208D022685269BA
:10040000120604D5B160616D41F0020161650421FD
:100410008140394208D022681268920704D5B16041
:10042000616D41F00401616510218140394215D0B0
:1004300020680268120711D5B16002680168520392
:1004400006D4C90506D4016821F00801016001E065
:1004500008033FD4216C09B120468847E16D202074
:1004600000FA01F23A4241D020680368DB063DD52C
:10047000B26094F835300268052B1BD122F01602C9
:100480000260426922F080024261226C0AB9A26CC9
:100490001AB1026822F0080202603F208840B06072
:1004A000012084F83500216D0020002984F83400F3
:1004B00052D156E00168520310D4C90512D4016824
:1004C00021F010010160012084F83500002084F83B
:1004D000340007E0A16C0029BED1BFE7080301D4B6
:1004E000616C00E0E16B09B120468847606DC0B3E4
:1004F000606DC0072ED0052084F835002068A90A59
:10050000026822F001020260009A01328A420092DF
:100510001AD80268D20717D0009A01328A42009294
:1005200012D80268D2070FD0009A01328A42009294
:100530000AD80268D20707D0009A01328A42009294
:1005400002D80268D207DFD1012084F835000020EC
:1005500084F83400E16C21B1204601B0BDE8F040E0
:10056000084701B0F0BD00002DE9F041044600F05D
:1005700091F9C4B10546022084F8350000202168B5
:1005800084F83400086820F00100086021680868D9
:10059000C0070BD000F07EF9401B0528F6D90325D3
:1005A0002023032064E00120BDE8F081086848F2C0
:1005B0003F02CFF21002D4E9013500EA020C04F147
:1005C0000C0898E8C10143EA0C032B431843D4E913
:1005D000072E304338431043626A40EA0E00042A73
:1005E00040EA08031CD1206BD4E90A2E40EA0E0031
:1005F000184308604869BEF1000F20F0030040EA8C
:10060000020040F0040C11D0B8F5005F35D0B8F10D
:10061000000F42D1022A43D0012A38D032B93FE03C
:100620000B60486920F0070040EA020C01F0F80076
:100630004AF6AB221038CAF6AA22A0FB02231A09F6
:1006400043F26213C1F814C0C0F600039A5C40F292
:10065000FF335F284FF03F0021EA030100FA02F068
:1006600088BF0431C4E916128860002301250020E8
:10067000636584F83550BDE8F081032AD6D801259A
:1006800040230120DFE802F0020C0203F0E7AEF1A4
:10069000C070B0FA80F0400904E0032A04D3C5D149
:1006A000CEF300600028C1D0012540230120DFE700
:1006B000B0B5044600F0EEF8054640F20400C2F280
:1006C00000000078611C18BF044400BF00F0E2F88D
:1006D000401BA042FAD3B0BD2DE9F04F82B000F12B
:1006E0003E4707F1FF77860546EA972741F6004621
:1006F000C4F20206082243F6004EB04208BF0722A9
:10070000C4F2010E072F38BF3A46002600274FF0EB
:100710000008009209E000BF08F101080237B8F1B3
:10072000100F06F1040600F0A3800D68012202FA02
:1007300008F415EA0409EFD0D1F804B003220BF055
:10074000030CACF10105BA40012D6FEA020A0FD883
:100750008268CD6802EA0A02BD402A43826042688C
:10076000A243CBF3001404FA08F42243426005E0EC
:10077000BCF1030F02D14FF0030C1EE0C2688C687D
:1007800002EA0A02BC402243BCF1020FC26014D14B
:100790006FF0030202EA58020244D2F820C006F0C9
:1007A0001C040F230D69A3402CEA0303A5402B432F
:1007B0001362D1F804B00BF0030C02680CFA07F3D3
:1007C00002EA0A021A431BF4403F0260A4D000224E
:1007D00043F644030192C4F202031A684FF6084C30
:1007E00042F480421A601A68CFF6FF7C02F480421D
:1007F0000192019A28F00302724452F80C3006F07C
:100800000C050F24AC40A343009C04FA05F52B43D0
:1008100042F80C30DEF808204B6842EA090543F63E
:100820000C4CDC0258BF22EA0905CEF80850C4F28D
:10083000010CDCF800209C0242EA090558BF22EABC
:100840000905CCF80050DEF804209C0342EA0905B3
:1008500058BF22EA0905CEF80450DEF80020DB0379
:1008600042EA090558BF22EA0905CEF8005053E7CD
:1008700002B0BDE8F08F0000426902EA0103914333
:1008800041EA034181617047002A08BF0904816180
:100890007047000040F60C60C2F20000006870472C
:1008A000002804BF01207047F0B581B0044690F8DD
:1008B0003D0028B9002084F83C00204600F0A0F854
:1008C000242084F83D002068016821F001010160C6
:1008D000016841F400410160016821F400410160B8
:1008E00000F030FA636848F2A16CC0F2010C40F6E7
:1008F0000011C0F23D0163453CBF48F28041C0F2A7
:100900001E01884202D2012001B0F0BD4DF6836184
:10091000C4F21B31A0FB01122168970CD1F804E04E
:100920004FF496762EF03F0545EA92454D607743A9
:1009300048F638160D6AC0F24106A7FB067625F088
:100940003F07634538BF960C721C3A430A62CA6976
:1009500048F2A0664CF6FF77C0F20106B34222EAE5
:1009600007020AD801385B00B0FBF3F001306FF3E7
:100970001F30042898BF042019E0A768013857B138
:1009800019277B43B0FBF3F001306FF31F3068B1E0
:1009900000F5804007E003EB4303B0FBF3F00130C8
:1009A0006FF31F3010B100F5004000E0012010434C
:1009B000C8610868D4E9072320F0C0001043184339
:1009C0000860886848F2FF3204F10C0790438CCF2E
:1009D00018431043A6698860C86820F0FF003843B8
:1009E0003043C860086840F0010008600020202102
:1009F000206484F83D10206384F83E0001B0F0BD0F
:100A0000016845F20040C4F20000814218BF7047FF
:100A1000B0B586B0002443F630050194C4F2020557
:100A2000296800F5D83041F002012960296801F0F9
:100A30000201019101994FF4407101911221CDE918
:100A40000214032104910421059101A9FFF744FE3A
:100A50000094286940F400102861286900F400100F
:100A60000090009806B0BDE8B040704740F2040026
:100A700040F60C61C2F20000C2F2000100780A6880
:100A8000104408607047000080B543F60040C4F28F
:100A90000200016841F400710160016841F4806165
:100AA0000160016841F480710160032000F08AF860
:100AB000002000F005F800F02BF8002080BD0000B9
:100AC000B0B540F20402C2F2000240F20001127816
:100AD000C2F200014FF47A730968B3FBF2F20446E4
:100AE000B1FBF2F1084600F045FB0F2C4FF0010579
:100AF0000CD858B94FF0FF3021460022002500F0F5
:100B000035F840F20800C2F2000004602846B0BD8B
:100B100082B0002043F640010190C4F202014A680D
:100B200042F480424A604A6802F480420192019A8B
:100B30000090086840F080500860086800F080501D
:100B40000090009802B07047002848BF704700F03E
:100B50001F01012202FA01F11C2202EAD0004EF22A
:100B60000012CEF2000281507047000010B54EF620
:100B70000C5CCEF2000CDCF80030C3F3022E8EF0D9
:100B80000704042C28BF0424BEF103034FF0FF3EEA
:100B90000EFA04F438BF0023A14399400EFA03F380
:100BA0009A43114300F00F0200F160430901043A37
:100BB00003F564436244002848BF02F10C03197036
:100BC00010BD00004EF60C51CEF200010A684FF63F
:100BD000FF031A4060F30A2242F0806040F0FD708B
:100BE00008607047002804BF012070472DE9F041DC
:100BF00043F60808C4F202080446D8F8F8030D4684
:100C000000F00700884207D288F8F853D8F8F803B4
:100C100000F00700A84276D12068810717D5410768
:100C200005D5D8F8001041F4E051C8F800100107CC
:100C300005D5D8F8001041F46041C8F80010D8F884
:100C40000010A26821F0F0011143C8F80010C0079D
:100C50003FD1D8F8F80300F00700A84207D988F878
:100C6000F853D8F8F80300F00700A8424BD12068E9
:100C7000410707D5D8F80010E26821F4E05111438C
:100C8000C8F80010000708D5D8F80000216920F442
:100C9000604040EAC100C8F8000000F07BF8D8F8D6
:100CA000001043F23A12C1F30311C0F60002515C86
:100CB00040F2000220FA01F140F20800C2F2000006
:100CC0000068C2F200021160FFF7FAFE0020BDE8E2
:100CD000F0816068811E022907D258F8081C89013A
:100CE0005CBF0120BDE8F08110E0012807D158F871
:100CF000081C89035CBF0120BDE8F08106E058F8BC
:100D0000081C890702D40120BDE8F081D8F8001042
:100D100021F003010843C8F80000FFF7BBFD0646B9
:100D200041F28837D8F80000616800F00C00B0EBA1
:100D3000810F8ED0FFF7AEFD801BB842F2D90320A1
:100D4000BDE8F08140F2000043F60801C2F2000065
:100D5000C4F202010068096843F24A12C1F3822119
:100D6000C0F60002515CC8407047000040F200002D
:100D700043F60801C2F20000C4F2020100680968EB
:100D800043F24A12C1F34231C0F60002515CC8403E
:100D90007047000010B543F60404C4F20204606812
:100DA00000F00C0142F200400829C0F2F40007D024
:100DB000042918BF10BD41F20020C0F27A0010BD16
:100DC000216801F03F02216823684902C3F38811BA
:100DD00005D4A1FB00010023FFF7F2F906E041F280
:100DE0000020C0F27A004843B0FBF2F021680222F2
:100DF000C1F3014102EB4101B0FBF1F010BD000075
:100E0000002804BF012070472DE9F04182B004465C
:100E1000007843F60006C007C4F202060BD0B068A3
:100E200000F00C00042878D13068800303D5606896
:100E3000002800F05181207880071AD5B06810F0A2
:100E40000C0F08D0B06800F00C00082840F07F803C
:100E5000706840027BD43068800703D5E0680128C1
:100E600040F03A813068216920F0F80040EAC10082
:100E700030602078000713D42078400727D4A56974
:100E8000002D00F02581B06800F00C00082840F02B
:100E90009180012D40F0F980012002B0BDE8F08181
:100EA0006069002840F20000C4F2472072D001219E
:100EB000C0F8801EFFF7EEFC054600BF706F80078C
:100EC000DAD4FFF7E7FC401B0228F7D9D9E0306CF1
:100ED0005FEAC0080AD400200190306C40F08050D6
:100EE0003064306C00F080500190019847F20007A8
:100EF000C4F200073868C0053ED4386840F48070FA
:100F00003860FFF7C7FC05463868C00534D4FFF7E2
:100F1000C1FC401B0228F7D9B3E0B06800F00C0018
:100F2000082803D1706840023FF57EAF6068B0F5D5
:100F3000803F07D0B0F5A02F40F08D80306840F49E
:100F400080203060306840F4803030608DE0E068B0
:100F5000002852D00020C4F2472001210160FFF791
:100F600099FC0546306880073FF57CAFFFF792FC9F
:100F7000401B0228F6D984E0A068012805D0052886
:100F800050D1306F40F004003067306F40F0010006
:100F9000306751E00021C0F8801EFFF77BFC05465A
:100FA000706F80077FF568AFFFF774FC401B022865
:100FB000F6D966E00027C4F2472700203866FFF71D
:100FC00069FC022D05460DD13068800140F1888012
:100FD000FFF760FC401B02284FF00300F4D902B079
:100FE000BDE8F0813068800172D5FFF753FC401BEB
:100FF00002284FF00300F5D9F1E70020C4F24720A2
:1010000000210160FFF746FC054600BF30688007FD
:101010007FF52FAFFFF73EFC401B02284FF0030087
:10102000F4D9DCE7316F002821F001013167316F1D
:1010300021F00401316774D0FFF72CFC054641F222
:10104000883700BF306F80077BD4FFF723FC401B3D
:10105000B842F7D915E03168002821F480313160B9
:10106000316821F48021316074D0FFF713FC05460C
:10107000306880033FF5DFAEFFF70CFC401B6428AF
:10108000F6D9032002B0BDE8F0817068E16900F490
:1010900080028A4220D1216A00F03F028A421BD19D
:1010A00047F6C071626A0140B1EB821F14D1A16A98
:1010B0004FF6FF73C903994300F44032A1F5803124
:1010C0008A4209D1E16A00F07060B0EB016F03D190
:1010D000002002B0BDE8F081012002B0BDE8F0813F
:1010E00004F11C052FCD084340EA8210D9034FF6C6
:1010F000FF729143A1F5803140EA056008437060BA
:1011000001203866FFF7C6FB044600BF3068800147
:10111000DED4FFF7BFFB001B02284FF00300F5D918
:101120005DE7FFF7B7FB054641F28837306F800770
:1011300007D5FFF7AFFB401BB8424FF00300F5D9CE
:101140004DE7B8F1000F3FF59AAE306C20F08050BB
:10115000306494E6FFF79EFB054600BF30688003CD
:101160007FF569AEFFF796FB401B64284FF0030044
:10117000F4D934E7411E0020B0EB116F1CBF0120F1
:1011800070474EF21002CEF2000251604EF623512B
:10119000CEF20001F0230B700721906011607047C0
:1011A0007047000070470000002804BF012070470E
:1011B00010B5044690F83D0028B9002084F83C00A2
:1011C000204600F01FF8022084F83D002068211D11
:1011D00001F0AEFC012084F8460084F83E0084F85B
:1011E0003F0084F8400084F8410084F8420084F80D
:1011F000430084F8440084F8450084F83D00002052
:1012000010BD0000006842F20001C4F200018842F3
:1012100018BF704780B582B00020019043F64000AF
:10122000C4F202000168002241F48071016000688C
:10123000002100F48070019001982D20FFF796FCAA
:101240002D2002B0BDE88040FFF77EBC7047000053
:1012500010B5016804460869800744BFC8685FEAA2
:10126000807038D40869400744BFC8685FEA40709E
:101270003DD40869000744BFC8685FEA007043D4E2
:101280000869C00644BFC8685FEAC06048D40869FE
:10129000C0071CBFC8685FEAC0704ED1086900066D
:1012A00044BFC8685FEA00604FD40869400644BF85
:1012B000C8685FEA406050D40869800646BFC868C5
:1012C0005FEA806010BD6FF0200220460A61BDE831
:1012D0001040FFF767BF6FF0020008610120207720
:1012E0008869800741D02046FFF7B0FF43E06FF0E8
:1012F0000400086102202077886910F4407F3ED006
:101300002046FFF7A3FF40E06FF0080008610420CB
:101310002077C86980073CD02046FFF797FF3EE062
:101320006FF01000086108202077C86910F4407F32
:1013300039D02046FFF78AFF3BE06FF001000861DB
:10134000204600F03FF82168A8E76FF080000861B0
:101350002046FFF725FF2168A7E76FF040000861EE
:10136000204600F031F82168A6E7204600F026F874
:10137000204600F025F821680020207772E72046FB
:1013800000F01CF8204600F01BF8216800202077B0
:101390006FE7204600F012F8204600F011F82168AF
:1013A000002020776CE7204600F008F8204600F087
:1013B00007F821680020207769E7000070470000E7
:1013C0007047000070470000704700007047000041
:1013D00070470000B0B582B0044600680168C36879
:1013E000426901F02F05202D03F0200506D12DB113
:1013F000204602B0BDE8B04001F032BC5FEA017C9B
:101400001EBF02F0010E03F4907212EB0E0242D1E5
:10141000226BCD0618D5012A16D113F0100213D075
:101420000021019101680191416801910199406990
:1014300040063AD4A08DE18DE28D002A18BF884283
:1014400040F0E98102B0B0BD0A0640F1DE8013F041
:10145000800200F0DA8094F83D102129F2D1A168D1
:10146000B1F5805F03D12169002900F05782216A1C
:101470004A1C226209784160E18C01390A04E18446
:10148000E0D1C16821F08001C160C16841F0400134
:10149000C16002B0B0BDCA0718BF13F4807240F03B
:1014A000C8804A0700F1CB80D0E0A16B0868426891
:1014B00093B2002BC6D0A08D8342C3D2E285C96906
:1014C000B1F5807F00F09E80206850E8030F21680E
:1014D00020F4807041E80302DAB1206850E8030F7D
:1014E000216820F4807041E8030292B1206850E83E
:1014F000030F216820F4807041E803024AB120689C
:1015000050E8030F216820F4807041E80302002AAC
:10151000DAD1206850E8050F216820F0010041E889
:101520000502BAB3206850E8050F216820F00100D9
:1015300041E8050272B3206850E8050F216820F0E9
:10154000010041E805022AB3206850E8050F216830
:1015500020F0010041E80502002ADAD11AE02068F3
:1015600050E8050F216820F0400041E80502DAB19B
:10157000206850E8050F216820F0400041E805028E
:1015800092B1206850E8050F216820F0400041E842
:1015900005024AB1206850E8050F216820F040009C
:1015A00041E80502002ADAD1202084F83E0000201C
:1015B0002063206850E8030F216820F0100041E804
:1015C0000302DAB1206850E8030F216820F0100010
:1015D00041E8030292B1206850E8030F216820F02F
:1015E000100041E803024AB1206850E8030F216867
:1015F00020F0100041E80302002ADAD1A06BFEF7C8
:1016000083FEA08DE18D401A7BE149067FF51AAF7C
:1016100013F040013FF416AFC16821F04001C160F2
:101620002021204684F83D1002B0BDE8B04000F013
:101630000BBA226C42F0010222644A0706D5BEF1C1
:10164000000F03D0226C42F0020222648A0706D502
:10165000BEF1000F03D0226C42F004022264BCF100
:10166000000F06D55EEA050203D0226C42F00802A4
:101670002264226C002A3FF4E5AE890604D51DB130
:10168000204601F0EDFA20684069216C00F040002E
:1016900001F00801401800F0B78000BF206850E852
:1016A000030F216820F4907041E80302BAB3206868
:1016B00050E8030F216820F4907041E8030272B3F0
:1016C000206850E8030F216820F4907041E803027D
:1016D0002AB3206850E8030F216820F4907041E895
:1016E0000302002ADAD11AE0206850E8050F2168C9
:1016F00020F0010041E80502DAB1206850E8050F4A
:10170000216820F0010041E8050292B1206850E80C
:10171000050F216820F0010041E805024AB1206868
:1017200050E8050F216820F0010041E80502002A79
:10173000DAD1206B012824D1206850E8030F2168FA
:1017400020F0100041E80302DAB1206850E8030FEE
:10175000216820F0100041E8030292B1206850E8AF
:10176000030F216820F0100041E803024AB120680D
:1017700050E8030F216820F0100041E80302002A1E
:10178000DAD1202084F83E000020206320684069E0
:10179000400640F1BD80206850E8050F216820F028
:1017A000400041E80502DAB1206850E8050F2168E1
:1017B00020F0400041E8050292B1206850E8050F92
:1017C000216820F0400041E805024AB1206850E855
:1017D000050F216820F0400041E80502002ADAD117
:1017E000A06B002800F0948042F65541C0F600013D
:1017F0000165FEF7C9FD00283FF424AEA06B016D22
:1018000002B0BDE8B04008472046FFF7E1FD0020E8
:10181000206402B0B0BD401A216851E8031F22685D
:1018200021F4907142E80313BBB3216851E8031F10
:10183000226821F4907142E8031373B3216851E8E0
:10184000031F226821F4907142E803132BB321682F
:1018500051E8031F226821F4907142E80313002B22
:10186000DAD11AE0216851E8051F226821F0010150
:1018700042E80513DBB1216851E8051F226821F019
:10188000010142E8051393B1216851E8051F226860
:1018900021F0010142E805134BB1216851E8051F11
:1018A000226821F0010142E80513002BDAD1202142
:1018B00084F83E1000212163216851E8031F22684B
:1018C00021F0100142E80313DBB1216851E8031F46
:1018D000226821F0100142E8031393B1216851E816
:1018E000031F226821F0100142E803134BB1216865
:1018F00051E8031F226821F0100142E80313002B76
:10190000DAD181B2204602B0BDE8B040FFF75EBD3B
:10191000204602B0BDE8B040FFF75ABD216A31F859
:10192000022B6FF35F2242602162A5E5002804BF0D
:101930000120704710B5044690F83D0028B90020FA
:1019400084F83C00204600F021F8242084F83D0073
:101950002068C16821F40051C160204601F0FEF901
:101960002068016921F490410161416921F02A0157
:101970004161C16841F40051C16000202021206410
:1019800084F83D1084F83E1010BD000070B586B09C
:101990000446016841F20000C4F20100814201D016
:1019A00006B070BD002643F630010196C4F2020174
:1019B0004A6900F5744042F010024A614A6902F037
:1019C00010020192019A01960A6842F002020A602E
:1019D000096801F0020101910199C02101910221E0
:1019E000CDE9021604910721059101A9FEF774FEC5
:1019F00040F6CC4546F24040C2F20005C4F2020077
:101A00004FF0006185E843004FF400304FF48062EE
:101A1000C5E908062846C5E90362C5E90566EE6121
:101A2000FEF7A2FD002818BFFEF768FC2520012163
:101A30000022A563AC63FFF799F82520FFF784F82F
:101A400006B070BD7047000070470000FEE7000060
:101A500080B582B00020019043F63000C4F202004D
:101A60000168002241F4800101600068002100F457
:101A70008000019001983A20FFF778F83A2002B0F0
:101A8000BDE88040FFF760B82DE9F04387B0002043
:101A900043F6300106900190C4F202010A68002466
:101AA00042F080020A600A68C4F2020402F0800276
:101AB0000192019A01900A68082642F001020A6028
:101AC0000A6802F001020192019A01900A6842F04C
:101AD00008020A600A6802F008020192019A019065
:101AE0000868002240F0020008600868082100F041
:101AF0000200019001982046FEF7C6FE04F54065FD
:101B00002846042100224FF00408FEF7BDFE02968D
:101B1000032002AE01274FF002090590204631460E
:101B20000397CDF81090FEF7D7FD28463146CDE952
:101B30000287CDE90497FEF7CFFD07B0BDE8F0833B
:101B400080B540F62C5045F20041C2F20000C4F2CC
:101B5000000148F2A06200234FF4804CC0F2010261
:101B600080E80E00C0E9033CC0E90533C0E9073353
:101B7000FEF796FE002808BF80BDBDE88040FEF756
:101B8000BDBB000080B540F6805042F20001C2F2B9
:101B90000000C4F200015322002342F20F7C80E8CF
:101BA0000E10802103618161FFF7FEFA002808BF53
:101BB00080BDBDE88040FEF7A1BB000080B540F6C7
:101BC000C85041F20001C2F20000C4F2010149F61E
:101BD000007200234FF00C0CC0F2240280E80E00CB
:101BE000C0E90333C0E905C3C361FFF79FFE0028C6
:101BF00008BF80BDBDE88040FEF780BBFEE7000067
:101C0000FEE70000704700002DE9F04140F61404A3
:101C1000C2F200041746227898460D46532A06461B
:101C20003CD02046A821FEF715FB0320206160610F
:101C300043F26A1140F6CC00C0F60001C2F2000087
:101C4000A161E0614FF4806020620020A0626062C8
:101C5000E062216640F6BC01C2F20001616610211B
:101C6000A16653212067E0666067BFF35F8F217034
:101C7000452147226170A270E27021715221202219
:101C80006171A271E171542121726172A072E072DE
:101C900020736073A073E073BFF35F8F022E84BF65
:101CA0004FF0FF30BDE8F081069AEFF311804FF05E
:101CB000200181F3118856B106EB460104EBC10106
:101CC00000230D664F66C1F868800B67CB6606EB94
:101CD000460104EBC1014A67BFF35F8F80F31188AF
:101CE0000020BDE8F08100002DE9F04140F6140429
:101CF000C2F200041746227898460D46532A06463B
:101D00003CD02046A821FEF7A5FA0320206160619F
:101D100043F26A1140F6CC00C0F60001C2F20000A6
:101D2000A161E0614FF4806020620020A0626062E7
:101D3000E062216640F6BC01C2F20001616610213A
:101D4000A16653212067E0666067BFF35F8F217053
:101D5000452147226170A270E27021715221202238
:101D60006171A271E171542121726172A072E072FD
:101D700020736073A073E073BFF35F8F022E84BF84
:101D80004FF0FF30BDE8F081069AEFF311804FF07D
:101D9000200181F3118856B106EB460104EBC10125
:101DA00000238D61CF61C1F820808B624B6206EB0E
:101DB000460104EBC101CA6280F311880020BDE82E
:101DC000F081000010B582B0EFF311844FF02001D4
:101DD00081F311880DF107010020012200F058F86D
:101DE00084F311889DF80710012818BF4FF0FF31C8
:101DF000084602B010BD000010B540F61404C2F24F
:101E00000004207853283CD02046A821FEF722FA6F
:101E100003202061606143F26A1140F6CC00C0F6F5
:101E20000001C2F20000A161E0614FF48060206215
:101E30000020A0626062E062216640F6BC01C2F24E
:101E4000000161661021A16653212067E06660678A
:101E5000BFF35F8F2170452147226170A270E2704D
:101E60002171522120226171A271E17154212172EC
:101E70006172A072E07220736073A073E073BFF3AD
:101E80005F8FE06E216F081A18BF012010BD00009F
:101E90002DE9F04740F61406C2F2000614463278E7
:101EA0008846532A07463CD03046A821FEF7D2F98F
:101EB00003203061706143F26A1140F6CC00C0F635
:101EC0000001C2F20000B161F0614FF48060306245
:101ED0000020B0627062F062316640F6BC01C2F26E
:101EE000000171661021B16653213067F06670679A
:101EF000BFF35F8F3170452147227170B270F2706D
:101F00003171522120227171B271F17154213172FB
:101F10007172B072F07230737073B073F073BFF39C
:101F20005F8F07EB470006EBC007B94659F8705FB3
:101F300059F804AC554512D9D7E919014E1BA642F0
:101F400028BF2646411940463246FEF76AF9B86E68
:101F50007119B044A41B0D1A18BF0D4600E00026ED
:101F6000AAEB0500A04238BF04463CB1786E224679
:101F700041194046FEF755F9264425443046002EC7
:101F800018BFC9F80050BDE8F08700002DE9F04700
:101F900082B040F6140AC2F2000A9AF80010054610
:101FA00053295AD05046A821FEF754F90320CAF805
:101FB0001000CAF8140043F26A1140F6CC00C0F6D3
:101FC0000001C2F20000CAF81810CAF81C004FF451
:101FD0008060CAF820000020CAF82800CAF824004F
:101FE000CAF82C00CAF8601040F6BC01C2F2000129
:101FF000CAF864101021CAF868105321CAF870009A
:10200000CAF86C00CAF87400BFF35F8F8AF800103A
:10201000452147228AF801108AF802208AF8032015
:102020008AF80410522120228AF805108AF8062026
:102030008AF8071054218AF808108AF809108AF8DB
:102040000A008AF80B008AF80C008AF80D008AF85A
:102050000E008AF80F00BFF35F8FFF200F2D8DF861
:10206000060047D843F25210C0F60000405D8DF8DC
:102070000700EFF311894FF0200181F31188DAF89E
:102080002C0000F00300022839D140F61000C2F203
:102090000000DAF8247005700DF10605022420E036
:1020A000DAF82000FA4311440144C61BB14238BF9C
:1020B0000E46DAF81C00A64228BF264638442946B8
:1020C0003246FEF7AEF8DAF82000F119A41B0F1A19
:1020D000354418BF0F46002CBFF35F8FCAF8247039
:1020E00045D0DAF82810B942DAD9FA43DAF82000F4
:1020F0001144DAE74FF0FF3002B0BDE8F087DAF8BC
:102100002410DAF82800884201D9CA4303E0DAF83B
:102110002020CB4318441044022812D340F610006C
:10212000DAE90723C2F2000005705D1A032D02EB05
:10213000010009D3BDF806208E1C0280BFF35F8F1B
:1021400013E04FF0FF3013E00DF1060841462A4638
:10215000FEF767F8C5F10206DAF81C0008EB050186
:102160003246FEF75EF8BFF35F8FCAF824600020A6
:1021700089F3118802B0BDE8F0870000F0B581B0A6
:1021800040F61407C2F2000714463A780D46532A67
:1021900006463CD03846A821FEF75CF8032038619B
:1021A000786143F26A1140F6CC00C0F60001C2F239
:1021B0000000B961F8614FF4806038620020B862B5
:1021C0007862F862396640F6BC01C2F200017966B5
:1021D0001021B96653213867F8667867BFF35F8FBF
:1021E0003970452147227970BA70FA7039715221DD
:1021F00020227971BA71F971542139727972B872E9
:10220000F87238737873B873F873BFF35F8FEFF3B6
:1022100011874FF0200181F311883046294622466C
:1022200000F004F887F3118801B0F0BD2DE9F04FFC
:1022300081B040F6140300EB4000C2F2000303EB50
:10224000C007F86A1446022889460BD001283AD004
:10225000002871D13D4655F8246F6868B04265D9B1
:10226000F14366E057F8245F0026381DA7F1040B00
:10227000BA46A7F1080800900098EA430068DBF826
:102280000010A842104498BF08444F1BB84238BF02
:102290000746D8F80000A74228BF274628444946E9
:1022A0003A46FDF7BEFFDBF800007919E41B0D1A72
:1022B0003E44B94418BF0D46002CBFF35F8FCAF8E7
:1022C0000050D9D15CE0BA465AF8245FDAF804101D
:1022D000A94203D9EA43386A114403E0386AEA4361
:1022E00011440144A14238BF0C46461B57F81C0F4D
:1022F000B442284409D249462246FDF792FF6019AC
:10230000BFF35F8FCAF8000039E049463246FDF757
:1023100088FFA4EB0608386809EB06014246FDF782
:1023200080FFBFF35F8FCAF8008028E0396AF2436C
:1023300010440844A04201D2002621E057F81C0FA7
:1023400079683044A1EB060A544508D24946224632
:10235000FDF767FF3019BFF35F8F28600FE0494634
:102360005246FDF75EFFA4EB0A08386809EB0A0144
:102370004246FDF756FFBFF35F8FC5F80080264643
:10238000304601B0BDE8F08FF0B581B00546084693
:102390000C46FDF76AFF40F61407C2F200073978D1
:1023A000064653293CD03846A821FDF753FF0320A9
:1023B0003861786143F26A1140F6CC00C0F6000142
:1023C000C2F20000B961F8614FF480603862002009
:1023D000B8627862F862396640F6BC01C2F2000168
:1023E00079661021B96653213867F8667867BFF3BC
:1023F0005F8F3970452147227970BA70FA70397150
:10240000522120227971BA71F9715421397279728D
:10241000B872F87238737873B873F873BFF35F8F5C
:10242000EFF311874FF0200181F3118828462146F0
:102430003246FFF7FBFE87F3118801B0F0BD0000C4
:1024400082B080B582B0CDE9042304AA019201AA2A
:1024500000F006F802B0BDE8804002B0704700000E
:102460002DE9F04F9BB0904606AA16924022002517
:1024700004901A900DF1580900208A461792CDE970
:10248000185507E000F0E6FC19985146B0F1FF3FFF
:1024900040F3D9821AF8013B252B1BD0002B00F00A
:1024A000C282DDE91720411C914207D8169A1354C5
:1024B0001998179A01301990084618919042E3D163
:1024C00016991A98FFF75AFE1899884240F0A6828A
:1024D0001895D9E701F1020A4FF0000B1AF8011C18
:1024E000A1F123030D2B00F25D800222DFE803F04F
:1024F000075A5A5A5A5A5A5A0A5A0C5A5A0D082204
:1025000003E000BF042200E001229AF800104BEA29
:10251000020BA1F123030D2B00F24C800222DFE815
:1025200003F0074949494949494909490B49490CB7
:10253000082202E0042200E001229AF801104BEA8E
:10254000020BA1F123030D2B2FD80222DFE803F0A9
:10255000072D2D2D2D2D2D2D0A2D0C2D2D0D082265
:1025600003E000BF042200E001229AF802104BEAC7
:10257000020BA1F123030D2B1AD80222DFE803F08E
:102580000E1818181818181810180C1818074BEAF5
:10259000020B0AF1040AA1E70122F8E70822F6E794
:1025A0000422F4E7AAF1010A04E00AF1010A01E0B9
:1025B0000AF1020AA1F13A0212F10A0F04D200262E
:1025C0002E2945D0002795E00AF1020A002600BF17
:1025D00006EB860201EB42021AF8011CA2F130065A
:1025E000A1F13A0313F10A0F2DD306EB860201EB9A
:1025F00042029AF80010A2F13006A1F13A0313F159
:102600000A0F23D306EB860201EB42029AF801106F
:10261000A2F13006A1F13A0313F10A0F5FD306EBE2
:10262000860201EB42029AF80210A2F13006A1F1F3
:102630003A0212F10A0F0AF1040AC9D2AAF1020AF7
:102640002E2905D0BEE7AAF1010A00BF2E29B9D173
:10265000524612F8011FA1F13A0313F10A0F02D2F8
:102660000027924646E00AF1020A00279AF8002065
:1026700007EB870301EB4301A2F13A0313F10A0FC1
:10268000A1F1300736D39AF8011007EB870302EB6C
:102690004302A1F13A0313F10A0FA2F1300723D349
:1026A0009AF8022007EB870301EB4301A2F13A03FA
:1026B00013F10A0FA1F1300719D307EB870102EBE1
:1026C00041029AF80310A2F13007A1F13A0212F187
:1026D0000B0F0AF1040AC9D8AAF1010A0AE00AF1AB
:1026E000010A2E29B4D06DE70AF1010A02E00AF1CD
:1026F000020A00BF9AF8001001F0FB02682A14D108
:102700009AF8011001F0FB02682A11D19AF8021020
:1027100001F0FB02682A0ED19AF803100AF1040AAC
:1027200001F0FB02682AE5D007E00AF1010A04E0A3
:102730000AF1020A01E00AF1030AA1F15802202A73
:1027400024D8DFE802F01F1E1E1E1E1E1E1E1E1EA7
:102750001E2F3E1E1E1E1E1E1E1E1E1E1E1E111E75
:102760001E6D1E9D1E1E1F00D8F800001022011DA8
:10277000C8F800100168484608230827CDE900750D
:1027800080E681E6D8F8000010227CE025297FF45D
:102790007BAEDDE91720411C91423FF68FAE169AC1
:1027A000252384E6DDE91720D8F80030411C1F1DE1
:1027B0009142C8F800703FF681AE1A68169B1A5411
:1027C00076E6D8F8001041F2597C0A1DC8F80020BE
:1027D000096848F29F640029C1F100028E4648BF93
:1027E00011460A2942F21075CDF2B71CC0F201045D
:1027F0000392CDF814804FD34FF00208642953D3CD
:10280000B1F57A7F4BD3A9424CD3A1FB0C23A14253
:102810004FEA533108F10408F0D8A8F1010843E069
:10282000D8F800100A1DC8F800200C6887A1002CF9
:1028300008BF0C4606E000BFB0F1FF3F04F1010401
:102840007FF722AE2778002F3FF41EAEDDE9172177
:102850004B1C934207D8169847541998179A013081
:102860001946189319909142E6D116991A98FFF7D4
:1028700085FC1899884240F0D18019981895DBE7BB
:10288000D8F800000A22011DC8F800100168484667
:102890003B46CDE9006BF5E54FF0010804E008F197
:1028A000010801E008F10208B845744698BFB8462F
:1028B0006EB10021002C48BF01210BF0040241EA57
:1028C0009201A6EB01095FEA8B7505D405E04FF094
:1028D00000095FEA8B7500D54FB35FEACB7126D153
:1028E000B9F1000F23D0A9F101064E4538BFC84504
:1028F0001DD2DDE917214B1C934208D816982022DF
:1029000042541998179A0130194618931990914218
:1029100009D116991A98FFF731FC189988427DD190
:102920001998002118910028B146DCD570E00028E4
:102930006ED4B4F1FF3F1FDD5FEA4B712FD5DDE9A7
:1029400017214B1C934208D816982B2242541998F1
:10295000179A013018931990194691421DD1169972
:102960001A98FFF70BFC1899884257D1002018904D
:102970001998002813D54BE0DDE917214B1C934231
:1029800008D816982D2242541998179A01301946E2
:1029900018931990039C9142E1D0002838D4002D5F
:1029A0000CD416A821460A223B46CDE9009B81465D
:1029B00000F050FADDF81480002565E50BF0010108
:1029C0003943EED1B9F1000FEBD0A9F101064E4524
:1029D00038BFC845E5D2DDE917214B1C934208D822
:1029E0001698302242541998179A013019461893B4
:1029F0001990914209D116991A98FFF7BFFB1899BF
:102A000088420BD11998002118910028B146DCD5D5
:102A1000DDF8148000250DF1580935E54FF0FF3041
:102A20001BB0BDE8F08F40B1189A52B1049806A9C6
:102A3000FFF7A4FBDDE9181004E000201BB0BDE89F
:102A4000F08F002108441BB0BDE8F08F284E554C94
:102A50004C29000070470000FEF708B8B0B592B0EE
:102A6000002443F64000CDE90A44CDE9084405942A
:102A7000CDE90344CDE901440094C4F202000168A9
:102A8000022541F080510160006800F08050009004
:102A9000009847F200000094C4F20000016841F47D
:102AA00080410160006800F480400090009801209F
:102AB00006904FF4803007904FF480000D9008206E
:102AC0000E904FF4A870CDE90F050420119006A8D0
:102AD0000C95FEF795F920B1EFF3108072B600BFA8
:102AE000FEE70F20CDE901054FF4A05004904FF40C
:102AF0008050059001A805210394FEF773F820B1DA
:102B0000EFF3108072B600BFFEE712B0B0BD000058
:102B10004EF68850CEF20000016841F47001016069
:102B20007047000040F68050C2F20000FEF790BBF4
:102B300010B540F6FF3E0368C4F2000E40F2004CB0
:102B40007045C4F2010C0FDCB0F1804F19D040F297
:102B50000042C4F20002904213D040F60002C4F2D8
:102B6000000290420DD010E040F60042C4F2000294
:102B7000904206D0604504D00022C4F20102904287
:102B800003D14A6823F07003134341F6FF72C4F285
:102B9000000290420DDC70451FDCB0F1804F41D047
:102BA00040F20042C4F2000290423BD040F60002E4
:102BB00021E043F6FF72C4F20102904220DC42F2AF
:102BC0000002C4F2000290422CD00022C4F20102A2
:102BD000904227D0604525D028E040F60042C4F25C
:102BE000000290421ED041F60002C4F20002904260
:102BF00018D041F60042C4F20002904212D015E013
:102C000044F20002C4F2010290420BD044F60002EA
:102C1000C4F20102904205D044F20042C4F2010223
:102C2000904203D1CA6823F44073134323F0800217
:102C30004B69D1F800E08C681A430260C46240F42A
:102C40008062C0F828E0624504BF09690163012180
:102C5000416110BD806B0021C185C184FEF7B8BB06
:102C600081B090F83E10222920D183680246B3F546
:102C7000805F08D152F8281F52F8183C002B61D011
:102C800003685B6809E052F8281F13B90369002B39
:102C9000F6D003685B6803F07F030B7011680131A5
:102CA0001160C18D01390A04C18501D001B070479E
:102CB0000168CA6822F02002CA60CA6822F48072E1
:102CC000CA604A6922F001024A61202180F83E1060
:102CD000016B01293ED10021016300BF016851E869
:102CE000031F026821F0100142E80313DBB1016801
:102CF00051E8031F026821F0100142E8031393B169
:102D0000016851E8031F026821F0100142E8031333
:102D10004BB1016851E8031F026821F0100142E83D
:102D20000313002BDAD101680A68D20606D5002207
:102D300000920A680092496800910099818D01B063
:102D4000FEF744BB026852686FF35F2221F8022B42
:102D50008162A6E701B0FEF775BE000010B504461B
:102D60000068D4E902C22369016921F4405111438A
:102D70000161626943EA0C01E3691143C2681943C6
:102D800049F20C639A431143C1604169A26921F47D
:102D9000407141F20043114340F48062C4F20103E8
:102DA0009A42416102D1FDF7E1FF01E0FDF7CAFF60
:102DB000E16963681922B1F5004FA0FB020120D13F
:102DC0005A00DB0FFDF7FCF948F21F51C5F2EB1179
:102DD000A0FB01235A094FF69C73C0F6FF7303F161
:102DE000805302FB0300322303EBC000A0FB010170
:102DF0004FF4F87000EA111000EB0210C1F3421119
:102E00001CE09A009B0FFDF7DBF948F21F51C5F259
:102E1000EB11A0FB01235A094FF69C73C0F6FF7318
:102E200002FB0300322303EB0010A0FB0101F020A2
:102E300000EA511000EB0210C1F34311084421686D
:102E4000886010BD40F6C850C2F20000FEF7C2BA5A
:102E5000FEE700002DE9F04F81B0DDF828901F4615
:102E600015468B469142044602D24FF001081DE000
:102E70004FF00208584600BFB0FBF5F0A84215D34A
:102E8000B0FBF5F0A8420CD3B0FBF5F0A8420BD391
:102E9000B0FBF5F008F10408A842EDD2A8F1010852
:102EA00004E008F1010801E008F102080B99B845B7
:102EB00098BFB846B9F1000F34D011F0010031D1FC
:102EC0002026880748BF30264FF0000A2020002F18
:102ED00018BF064606E000BFC4F808A0E068B0F1DD
:102EE000FF3F1FDDB9F1000F1CD0C8451AD2D4E94D
:102EF0000120411C914207D822681654E06862689C
:102F00000130E0600846A1609042A9F10109E5D1D5
:102F100021682069FFF732F9A1688842DCD04FF0C0
:102F2000FF30E060E068002859D4012602E000BFCD
:102F3000013F6E43022F01D3013F03E0BBFBF6F1DB
:102F4000A9421BD3012F05FB06F601D9013F03E07F
:102F5000BBFBF6F1A94211D3012F05FB06F601D9FF
:102F6000013F03E0BBFBF6F1A94207D3012F05FBAC
:102F700006F6DDD8BBFBF6F1A942DAD2A2682EA78D
:102F80006168BBFBF6FA531C8B4209D817F80A009C
:102F900021688854E068616801301A46A360E060E7
:102FA0008A4209D121682069FFF7E8F8A2689042B7
:102FB0000CD1E0680022A26000280AD4B6FBF5F12B
:102FC0000AFB16BBAE420E46DAD202E04FF0FF30EB
:102FD000E0600B99C90718BFB9F1000F02D101B029
:102FE000BDE8F08F2025A9F101064E4538BFC84540
:102FF000F5D26168531C8B4207D820688554E0687D
:10300000616801301A46A360E0608A4209D12168F4
:103010002069FFF7B3F8A168884207D1E068002271
:10302000A260B0F1FF3FB146DDDCD8E74FF0FF30E2
:10303000E06001B0BDE8F08F3031323334353637DF
:10304000383941424344454682B0FDF71DFDFFF744
:1030500005FDFEF719FDFEF7FBFCFEF7AFFDFEF7E1
:103060006FFDFEF78FFD40F2104200241CA1C2F25A
:10307000000200204FF480630094FEF735FE40F21A
:1030800010021AA1C2F2000200204FF480630094E3
:10309000FEF7BAFD40F60044C4F2020416A519A6D4
:1030A00003E000BF6420FDF703FB20460421FDF789
:1030B000E3FBFEF7A1FE0028F4D0FEF783FE0746EF
:1030C0000220FEF763FFFFB2002029463A46FFF7D1
:1030D000B7F90A2FE6D100203146FFF755F9E1E7AD
:1030E000427566666572305570000000427566660E
:1030F000657230446F776E00476574204B65793A8E
:1031000025630A006765742074686520656E642015
:103110006F6620636861720A0000000002E008C860
:10312000121F08C1002AFAD170477047002001E041
:1031300001C1121F002AFBD17047000000000000EF
:103140000000010203040607080900000000010254
:103150000304303132333435363738394142434451
:10316000454600061016000610165465726D696E0D
:10317000616C000098310008000000201000000081
:103180001C310008A83100081000002000120000C7
:103190002C310008000000000024F40001000000B1
:0831A000100000000000000017
:040000050800018965
:00000001FF
