:020000040800F2
:1000000068220020710200087D270008B92400083A
:1000100079270008490E0008793300080000000025
:10002000000000000000000000000000593100083E
:10003000B90F000800000000812700085D310008AA
:100040008B0200088B0200088B0200088B0200085C
:100050008B0200088B0200088B0200088B0200084C
:100060008B0200088B0200088B0200088B0200083C
:100070008B0200088B0200088B0200088B0200082C
:100080008B0200088B0200088B0200088B0200081C
:100090008B0200088B0200088B0200088B0200080C
:1000A0008B0200081D3200088B0200088B0200083A
:1000B0008B0200088B020008293200088B0200081E
:1000C0008B0200088B0200088B0200088B020008DC
:1000D0008B0200088B0200088B0200088B020008CC
:1000E0008B0200088B0200088B0200088B020008BC
:1000F0008B0200088B0200088B0200088B020008AC
:100100008B0200088B0200088B0200088B0200089B
:100110008B0200088B0200088B0200088B0200088B
:100120008B0200088B0200088B0200088B0200087B
:100130008B02000800000000000000008B02000895
:100140008B0200088B0200088B0200088B0200085B
:100150008B0200088B0200088B0200088B0200084B
:100160008B0200088B0200088B0200088B0200083B
:100170008B0200088B020008000000000000000055
:100180008B0200088B02000800F002F800F061F812
:1001900014A696E8000CB244B344DA4501D100F04D
:1001A00058F8BAE80F000FA696E83000A5EB040552
:1001B00004EB0607AAEB0704A7F101074FEA1515A0
:1001C0004FEA3414A4F10104AC4201D300F041F829
:1001D00013F0010F18BFFB1A43F0010300F001F800
:1001E000DBE718476C5E00008C5E0000103A24BF0D
:1001F00078C878C1FAD8520724BF30C830C144BF8C
:1002000004680C6070470000704700000023002461
:1002100000250026103A28BF78C1FBD8520728BF16
:1002200030C148BF0B607047662905F0ED8500209E
:1002300070471FB505F061FD00F03CFC0400002094
:10024000002105F0A7FBE06000F0B4F91FBD10B578
:1002500010BD00F045FD1146FFF7EBFF04F002FF73
:1002600000F063FD03B4FFF7F2FF03BC00F02EFDC6
:100270000948804709480047FEE7FEE7FEE7FEE73A
:10028000FEE7FEE7FEE7FEE7FEE7FEE70448054976
:10029000054A064B70470000093200088901000832
:1002A00068100020682200206812002068120020D8
:1002B00053EA020C00F069802DE9F04B4FF0000684
:1002C000002B1FBFB3FA83F503FA05F424FA05F6F1
:1002D0005E4012BF1643B2FA82F502FA05F4C5F188
:1002E00020051EBF22FA05FC44EA0C04203556EA1C
:1002F000044C4FEA144418BF641C4FF000084FF040
:100300000009904271EB030C39D3002919BFB1FAEF
:1003100081F701FA07F6B0FA80F700FA07F6C7F19D
:1003200020071EBF20FA07FC46EA0C062037B6FB62
:10033000F4FCA7EB0507103F07F01F0BCBF12006DD
:100340002CFA06F60CFA0BFB44BFB3460026202F0E
:10035000A4BF5E464FF0000B5BEA060C08BF4FF0EF
:10036000010B19EB0B0948EB0608ABFB027C06FB03
:1003700002CC0BFB03CCC01B71EB0C01C1E70B469D
:10038000024641464846BDE8F08B13B5084318BF06
:100390004FF0FF300146AFF30080BDE81C407047CE
:1003A0000FB41CB5074B06AA7B446946009005981C
:1003B00000F035FB0020694600F044FB1CBC5DF8F2
:1003C00014FB0000990600002DE9F0474FF0000AE9
:1003D00089460446C0F820A02046E16888470028E6
:1003E00076D0252806D0D4E901219047206A401C08
:1003F0002062F1E7E168204600258847C4F81CA088
:1004000006460027C4F818A02A2E09D0304605F069
:10041000B9FA38B304EB8708303EC8F8186019E021
:1004200059F8041B204604EB87029161E168884774
:10043000012F064618D1E069002820DA25F02005B2
:100440001DE0D8F8180000EB800006EB40003038C3
:10045000C8F818002046E1688847064605F092FA79
:100460000028EED1012F0AD02E2E08D12046E168B7
:1004700088477F1C0646022F45F02005C4DBA06993
:10048000002803DA404245F00105A061E80701D0E9
:1004900025F01005B6B1A6F14100192802D8203682
:1004A00045F400654A463146204625604D46FFF733
:1004B000BBFE58B1012806D0ED1D25F0070000F164
:1004C000080989E704E005F1040985E730468AE771
:1004D000206ABDE8F087032A40F2308010F0030C58
:1004E00000F0158011F8013BBCF1020F624498BF87
:1004F00011F801CB00F8013B38BF11F8013BA2F124
:10050000040298BF00F801CB38BF00F8013B11F09E
:10051000030300F09C82083AC0F0088051F8043BC5
:10052000083A51F804CBA0E80810F5E7121D5CBFAB
:1005300051F8043B40F8043BAFF30080D20724BFDE
:1005400011F8013B11F801CB48BF11F8012B24BF72
:1005500000F8013B00F801CB48BF00F8012B7047C1
:100560004FF0000200B5134694469646203922BF4C
:10057000A0E80C50A0E80C50B1F12001BFF4F7AF97
:10058000090728BFA0E80C5048BF0CC05DF804EB79
:10059000890028BF40F8042B08BF704748BF20F8E7
:1005A000022B11F0804F18BF00F8012B70477047E5
:1005B0007047704708487CB57844009007487844F5
:1005C000009C0546019004E02046016808448047ED
:1005D000241DAC42F8D17CBDD05A0000CE5A000098
:1005E00010B500F06BFA006810BD10B5044600F0BD
:1005F00065FA046010BD2DE9FF4F0C461E464FF012
:10060000FF378BB0D2E90001DDF860800A908A469E
:10061000C1F30A5505B93D46002108464FF00000D8
:10062000BAF1000F00F4400005DA00EB80004FF44F
:10063000400101EA50004FEA9059B9F1010F00DD85
:10064000B9460A9850EA4A000ED044F61050A5F276
:10065000FF3545432F14B8F1000F1ED07542291EF7
:100660001EDDC9F100021CE0B8F1010F4FF00000DF
:1006700001D0302103E0F24305E02154401CB04298
:10068000FBDB30460022002121540B99C1F8088081
:10069000C1E900200FB0BDE8F08FBD1B6D1CDEE787
:1006A0004A4600DA694206A800F092FA06AB93E8DF
:1006B000070003AB83E8070050460A9904F022FDC7
:1006C0008DE80700A0F500501F3800900398002D1A
:1006D0000ADD42F21F014A460844002303A90390A1
:1006E000684604F08BFF09E0A0F500504A461F3829
:1006F000002303A90390684604F095FF8DE80700E6
:100700000004000C03D04FF0FF30410800E0104619
:10071000B8F1000F03D00022009215461EE0751EAE
:1007200005D400F0CFF9303262556D1EF9D5B346CD
:100730000122084302D000227F1C04E020783028E8
:1007400001D100227F1E002A099784D01DE0112DBF
:1007500007DA00F0B7F9303262556D1C50EA010239
:10076000F5D1084302D00098C8B10EE00021681E00
:1007700005E0235C625C63542254401E491C8142A4
:10078000F7DBAB46A81B401E0990002004F80B00C5
:100790000B98099AC0F80880C0E9002B7AE7112667
:1007A0004FF0000857E72DE9F04F88460446D21D68
:1007B00022F0070191B0D1E90001CDE90A0105F06D
:1007C00069F802460B98C00F01D02D2007E0206881
:1007D000810701D52B2002E0202101EAC000032A75
:1007E000099001D0072A05DB03464146204600F068
:1007F000AFF90BE12078800601D5E06900E0062022
:10080000B8F1650F814606D0B8F1660F18D0B8F17F
:10081000670F70D131E00020B9F1110F009001DBBA
:10082000112301E009F101030AAA01A90CA8FFF7AD
:10083000E2FEDDE90C70002609F10105834647E080
:1008400001204B4600904FF000470AAA01A90CA8CE
:10085000FFF7D1FEDDE90DB00C995D46002610B919
:1008600009F101000D18B9EB050003D4C0F1FF3602
:1008700009F10105A5EB09002BE0B9F1010F01DA3F
:100880004FF001090020B9F1110F0090484601DD39
:10089000112300E003460AAA01A90CA8FFF7ABFE4A
:1008A000DDE90C704D4600268346207800070AD407
:1008B000AB4500DA5D4601A8012D04DD411911F8B0
:1008C000011C302907D04F4502DA17F1040F04DA72
:1008D000012082460FE06D1EEEE7002F02DCED1BCB
:1008E0003E4403E0781CA84200DD7D1CB81B00F1EB
:1008F000010A4FF000472078000703D4AA4501DB26
:100900004FF0FF3A0021B7F1004F0DF143088DF889
:10091000431024D002202B23002F01DA7F422D2305
:100920000A21021EA0F1010000DC5FB197FBF1FC7F
:1009300097FBF1F201FB1C7C17460CF1300C08F818
:1009400001CDEEE7A8F1010003702188090501D56A
:10095000452100E06521A0F1010800F8011C09987B
:100960000FA9A1EB0807FF1D00B10120411901EB00
:10097000EA70A1693844081A401EA0612078C006B8
:1009800002D42046AFF30080099828B1D4E90121B0
:100990009047206A401C20622078C00622D520465D
:1009A000AFF300801EE0002E04DBB34502DD01A89A
:1009B000805D00E03020D4E901219047206A401C8E
:1009C0002062761CAAF101005FEA000A0AD100F059
:1009D00071F8C0680168405CD4E901219047206A41
:1009E000401C2062281EA5F10105DCDC07E0D4E9EB
:1009F000012118F8010B9047206A401C2062381E24
:100A0000A7F10107F3DC2046AFF30080032011B00B
:100A100041E6000001694A1C02610878704700B590
:100A20008FB0CDE901310021059105497944CDE927
:100A3000031011466846FFF7C7FC0FB000BD000069
:100A4000E5FFFFFF0A6802F8010B0A60704710B566
:100A5000203AC0F00B80B1E81850A0E81850B1E877
:100A60001850A0E81850203ABFF4F5AF5FEA027CB6
:100A700024BFB1E81850A0E8185044BF18C918C0E6
:100A8000BDE810405FEA827C24BF51F8043B40F887
:100A9000043B08BF7047D20728BF31F8023B48BF6C
:100AA00011F8012B28BF20F8023B48BF00F8012BAA
:100AB0007047000000487047080100200048704758
:100AC000E800002030B5B0F10A0271F100034FEAEE
:100AD000900E4EEA817EB0EB0E0061EB91014FEA81
:100AE000101E4EEA017E10EB0E0041EB11114FEA91
:100AF000102E4EEA016E10EB0E0041EB11214FEA71
:100B0000104E4EEA014E10EB0E0041EB1141401821
:100B100041F100014FEAD00040EA41704FEAD101B3
:100B20004FEA810444EA907410EB800544EB010421
:100B30006D1944EB0404521BA3414FF0000348BF5E
:100B40000A3200D530BD401C41F1000130BD00002B
:100B50002DE9F0411F46044603260168072A01F4E7
:100B6000006004DB08B116A505E016A503E008B196
:100B700015A500E015A521F010002060A069C01E99
:100B8000A0610FB1401EA0612046AFF300804FB1BD
:100B9000D4E9012138469047206A401C2062C01CDD
:100BA000206206E0206AFAE7D4E9012115F8010B7A
:100BB0009047761EF8D22046AFF30080BDE8F08162
:100BC0004E414E006E616E00494E4600696E6600F1
:100BD0002DE9F047814616468AB0354878440DC85D
:100BE0008DE80D0032487844801C03AC0DC884E8C1
:100BF0000D0041F69B300844372190FBF1F290FB49
:100C0000F1F5A5F1800501FB12041B3C02D56442FD
:100C1000012000E00020DFF898A080460027FA4479
:100C2000AAF1BE0A0EE0E0070AD03246684607EB9A
:100C3000470101230AEB810104F0F5FC8DE8070070
:100C400064107F1C002CEED1194F7F44AE3F19E099
:100C5000E80715D007EB04100DF1180A90E80E0014
:100C60008AE80E00C068F04201D198190890324617
:100C7000012306A903A804F0D6FC03AB83E8070010
:100C80006D10641C002DE3D14FF00103324669461C
:100C9000B8F1000F03A802D004F0B0FC01E004F0AA
:100CA000C2FCC9E90001C9F808200AB0BDE8F08714
:100CB000A852000010B5002000F040F8FFF7C7FA76
:100CC000BDE81040012000F001B8000001491820E3
:100CD000ABBEFEE72600020000487047E800002097
:100CE0007546FFF7F9FFAE4605006946534620F00A
:100CF0000700854618B020B5FFF7C8FABDE82040C8
:100D00004FF000064FF000074FF000084FF0000BC7
:100D1000AC46ACE8C009ACE8C009ACE8C009ACE836
:100D2000C00921F007018D46704710B50446AFF3A6
:100D300000802046BDE81040FFF794BA10B500F0DF
:100D40004BF8BDE8104000F042B800000000000081
:100D500030B44FF0013C50F8042B51F8043BCCFA6E
:100D600052F4D51A20D1FCB950F8042B51F8043BA9
:100D7000CCFA52F4D51A17D1B4B950F8042B51F863
:100D8000043BCCFA52F4D51A0ED16CB950F8042BAE
:100D900051F8043BCCFA52F4D51A05D1002CDAD024
:100DA00030BC4FF00000704729BAB1FA81F111F060
:100DB0001801D1F120008440F2D1CA40CB4012F09A
:100DC000FF0213F0FF0330BCD01A704770470028B1
:100DD00001D0FFF77BBF704710B5002102A000F0E3
:100DE00013F8012010BD0000534947414252543AC4
:100DF0002041626E6F726D616C207465726D696EF8
:100E00006174696F6E00000070B505460C460A20DB
:100E100000E06D1C00F011F835B128780028F8D1F9
:100E200002E0641C00F009F814B120780028F8D121
:100E3000BDE870400A20AFF3008008B569468DF820
:100E400000000320ABBE08BDFEE7000070B540F215
:100E50005C16C2F20006B16841F204050446CEF207
:100E60000005E9B94EF6FC50CEF20000016841F0F1
:100E7000807101600020286055F8040C40F00100EA
:100E800045F8040C00F000FB306030684DF68361DB
:100E9000C4F21B31A0FB0101880C70600120B0601E
:100EA00070682A68604300210AE000BFD6431944F5
:100EB000934288BF5642314481421A4628BF70BDD2
:100EC0002B689342F2D12B689342EFD12B68934267
:100ED000ECD12B689342F3D0E8E7000070B541F203
:100EE000000040F25C14CEF20000C2F2000446683A
:100EF0006568A16821B1E068B04220D1606970BD29
:100F00004EF6FC51CEF200010A6842F080720A608F
:100F100000214160016841F00101016000F0B4FA74
:100F2000206020684DF68361C4F21B31A0FB0101F3
:100F3000880C60600120A060E068B042DED0C14350
:100F4000864288BF41422069314408448542C4E951
:100F50000360D3D8B0FBF5F1626901FB15000A44C8
:100F600062612061606970BD80B54EF6FC50CEF2C2
:100F70000000016841F08071016041F20000CEF292
:100F8000000000214160016841F00101016000F0B2
:100F90007BFA40F25C11C2F20001086008684DF66D
:100FA0008362C4F21B32A0FB0202900C4860012253
:100FB00000208A6080BD00007047000072B600BF4C
:100FC000FEE70000B0B5044600F0EEF8054640F23A
:100FD0000000C2F200000078611C18BF044400BF8A
:100FE00000F0E2F8401BA042FAD3B0BD2DE9F04F6B
:100FF00082B000F13E4707F1FF77860546EA972762
:1010000041F60046C4F20206082243F6004EB04202
:1010100008BF0722C4F2010E072F38BF3A46002648
:1010200000274FF00008009209E000BF08F1010816
:101030000237B8F1100F06F1040600F0A3800D6826
:10104000012202FA08F415EA0409EFD0D1F804B03D
:1010500003220BF0030CACF10105BA40012D6FEA3D
:10106000020A0FD88268CD6802EA0A02BD402A430C
:1010700082604268A243CBF3001404FA08F42243CE
:10108000426005E0BCF1030F02D14FF0030C1EE0FB
:10109000C2688C6802EA0A02BC402243BCF1020F1B
:1010A000C26014D16FF0030202EA58020244D2F87F
:1010B00020C006F01C040F230D69A3402CEA030393
:1010C000A5402B431362D1F804B00BF0030C026867
:1010D0000CFA07F302EA0A021A431BF4403F0260CB
:1010E000A4D0002243F644030192C4F202031A681A
:1010F0004FF6084C42F480421A601A68CFF6FF7C23
:1011000002F480420192019A28F00302724452F8DC
:101110000C3006F00C050F24AC40A343009C04FAED
:1011200005F52B4342F80C30DEF808204B6842EA04
:10113000090543F60C4CDC0258BF22EA0905CEF83B
:101140000850C4F2010CDCF800209C0242EA0905B8
:1011500058BF22EA0905CCF80050DEF804209C03B1
:1011600042EA090558BF22EA0905CEF80450DEF824
:101170000020DB0342EA090558BF22EA0905CEF840
:10118000005053E702B0BDE8F08F0000426902EA68
:101190000103914341EA034181617047002A08BF7E
:1011A000090481617047000041F26000C2F2000052
:1011B0000068704740F2000041F26001C2F2000096
:1011C000C2F2000100780A6810440860704700000D
:1011D00080B543F60040C4F20200016841F400719A
:1011E0000160016841F480610160016841F480712F
:1011F0000160032000F086F80F2000F005F800F0F1
:1012000027F8002080BD000070B540F20006C2F251
:10121000000640F208013278C2F200014FF47A73FE
:101220000968B3FBF2F20446B1FBF2F1084600F0A4
:1012300039FB0F2C4FF0010508D838B94FF0FF30BB
:1012400021460022002500F031F87460284670BD68
:1012500082B0002043F640010190C4F202014A68C6
:1012600042F480424A604A6802F480420192019A44
:101270000090086840F080500860086800F08050D6
:101280000090009802B07047002848BF704700F0F7
:101290001F01012202FA01F11C2202EAD0004EF2E3
:1012A0000012CEF2000281507047000010B54EF6D9
:1012B0000C5CCEF2000CDCF80030C3F3022E8EF092
:1012C0000704042C28BF0424BEF103034FF0FF3EA3
:1012D0000EFA04F438BF0023A14399400EFA03F339
:1012E0009A43114300F00F0200F160430901043AF0
:1012F00003F564436244002848BF02F10C031970EF
:1013000010BD00004EF60C51CEF200010A684FF6F7
:10131000FF031A4060F30A2242F0806040F0FD7043
:1013200008607047002804BF012070472DE9F04194
:1013300043F60808C4F202080446D8F8F8030D463C
:1013400000F00700884207D288F8F853D8F8F8036D
:1013500000F00700A84277D12068810717D5410720
:1013600005D5D8F8001041F4E051C8F80010010785
:1013700005D5D8F8001041F46041C8F80010D8F83D
:101380000010A26821F0F0011143C8F80010C00756
:1013900040D1D8F8F80300F00700A84207D988F830
:1013A000F853D8F8F80300F00700A8424CD12068A1
:1013B000410707D5D8F80010E26821F4E051114345
:1013C000C8F80010000708D5D8F80000216920F4FB
:1013D000604040EAC100C8F8000000F055F8D8F8B5
:1013E000001045F6A062C1F30311C0F60002515C83
:1013F00040F2080220FA01F140F20400C2F20000BB
:101400000068C2F200021160FFF7FEFE0020BDE896
:10141000F08100BF6068811E022907D258F8081CBD
:1014200089015CBF0120BDE8F08111E0012807D1EE
:1014300058F8081C89035CBF0120BDE8F08107E073
:1014400058F8081C890703D40120BDE8F08100BFCB
:10145000D8F8001021F003010843C8F80000FFF796
:10146000A3FE064641F28837D8F80000616800F014
:101470000C00B0EB810F8CD0FFF796FE801BB842BA
:10148000F2D90320BDE8F08110B543F60404C4F29C
:101490000204606800F00C0142F200400829C0F22A
:1014A000F40007D0042918BF10BD41F20020C0F29B
:1014B0007A0010BD216801F03F02216823684902CB
:1014C000C3F3881106D4A1FB00010023FEF7F0FE50
:1014D00007E000BF41F20020C0F27A004843B0FBB1
:1014E000F2F021680222C1F3014102EB4101B0FB9D
:1014F000F1F010BD002804BF012070472DE9F04134
:1015000082B00446007843F60006C007C4F2020623
:101510000CD0B06800F00C00042840F081803068E6
:10152000800303D56068002800F06A812078800776
:101530001BD5B06810F00C0F09D0B06800F00C009B
:10154000082840F087807068400200F1838030688E
:10155000800703D5E068012840F052813068216996
:1015600020F0F80040EAC10030602078000713D472
:10157000207840072AD4A569002D00F03C81B0688E
:1015800000F00C00082840F0A180012D40F01081EF
:10159000012002B0BDE8F0816069002840F200003F
:1015A000C4F2472000F07E800121C0F8801EFFF7C2
:1015B000FBFD0546706F8007DAD4FFF7F5FD401B91
:1015C0000228F7D9032002B0BDE8F081306C5FEA51
:1015D000C0080AD400200190306C40F08050306484
:1015E000306C00F080500190019847F20007C4F27F
:1015F00000073868C00547D4386840F48070386008
:10160000FFF7D2FD054600BF3868C0053CD4FFF7A0
:10161000CBFD401B0228F7D9032002B0BDE8F081C2
:10162000B06800F00C00082803D1706840023FF554
:1016300076AF6068B0F5803F07D0B0F5A02F40F0DE
:101640009B80306840F480203060306840F4803007
:1016500030609BE0E06800285CD00020C4F24720A6
:1016600001210160FFF7A0FD054600BF306880073B
:101670003FF574AFFFF798FD401B0228F6D9032011
:1016800002B0BDE8F08100BFA068012805D00528A0
:1016900054D1306F40F004003067306F40F00100EB
:1016A000306755E00021C0F8801EFFF77DFD05463C
:1016B000706F80077FF55CAFFFF776FD401B022857
:1016C000F6D9032002B0BDE8F08100BF0027C4F2C4
:1016D000472700203866FFF767FD022D05460DD12C
:1016E0003068800140F19080FFF75EFD401B0228CA
:1016F0004FF00300F4D902B0BDE8F08130688001FA
:1017000079D5FFF751FD401B02284FF00300F5D9B2
:10171000F1E700BF0020C4F2472000210160FFF77D
:1017200043FD0546306880077FF51FAFFFF73CFD9E
:10173000401B02284FF00300F4D9DCE7316F00288A
:1017400021F001013167316F21F0040131677DD053
:10175000FFF72AFD054641F2883700BF306F80074A
:1017600000F18680FFF720FD401BB842F6D9032028
:1017700002B0BDE8F08100BF3168002821F480315B
:101780003160316821F4802131607BD0FFF70CFD9E
:10179000054600BF306880033FF5C8AEFFF704FD83
:1017A000401B6428F6D9032002B0BDE8F08100BFD9
:1017B0007068E16900F480028A4221D1216A00F058
:1017C0003F028A421CD147F6C071626A0140B1EB08
:1017D000821F15D1A16A4FF6FF73C903994300F424
:1017E0004032A1F580318A420AD1E16A00F070608E
:1017F000B0EB016F04D1002002B0BDE8F08100BF62
:10180000012002B0BDE8F08104F11C052FCD084392
:1018100040EA8210D9034FF6FF729143A1F580315F
:1018200040EA05600843706001203866FFF7BCFCA1
:10183000044600BF30688001DDD4FFF7B5FC001B13
:1018400002284FF00300F5D955E700BFFFF7ACFCC5
:10185000054641F2883700BF306F800708D5FFF793
:10186000A3FC401BB8424FF00300F5D943E700BF8B
:10187000B8F1000F3FF57FAE306C20F0805030643F
:1018800079E600BFFFF790FC054600BF3068800393
:101890007FF54CAEFFF788FC401B64284FF0030037
:1018A000F4D928E7411E0020B0EB116F1CBF0120C6
:1018B00070474EF21002CEF2000251604EF62351F4
:1018C000CEF20001F0230B70072190601160704789
:1018D000704700007047000090F83C20012A04BFC8
:1018E00002207047B0B501F108053CCDD1E900CE2A
:1018F00023F47C5322F470521A432EF4F0431A431B
:101900002CF4E0431A4324F4C0431A432A43C96920
:1019100022F48042036811435964002180F83C108E
:10192000BDE8B0400846704790F83C20012A4FF0CF
:10193000020254D010B580F83D200268D2F804E0CD
:10194000D2F808C00C682EF07003234341F2FF74F4
:10195000C4F20004A24253600EDC40F2FF73C4F2F2
:1019600000039A4216DCB2F1804F2BD040F20043C4
:10197000C4F2000324E000BF40F2FF33C4F20103CD
:101980009A4213DC41F60003C4F200039A4219D0D4
:10199000002313E040F60003C4F200039A4211D082
:1019A00040F60043C4F200030AE000BF44F2000323
:1019B000C4F201039A4205D040F20043C4F201038D
:1019C0009A4204D149682CF08003194391600121A7
:1019D000002280F83D1080F83C20BDE81040104601
:1019E0007047000041B1082910D0042914BF00F14C
:1019F000450200F143020BE090F84220012A1CBF8F
:101A000001207047022280F8422013E000F14402D6
:101A10001278012A1CBF012070470222082907D032
:101A2000042914BF80F8452080F8432002E000BF5D
:101A300080F84420006801F00F010422036A02FAD2
:101A400001F123EA01020262026A11430162416C60
:101A500041F2FF72C4F2000241F40041904241643D
:101A60000EDC40F2FF71C4F20001884216DCB0F1D6
:101A7000804F2BD040F20041C4F2000124E000BFAF
:101A800040F2FF31C4F20101884213DC41F600014B
:101A9000C4F20001884219D0002113E040F6000191
:101AA000C4F20001884211D040F60041C4F20001A6
:101AB0000AE000BF44F20001C4F20101884205D0EF
:101AC00040F20041C4F20101884204D1816801F072
:101AD0000701062903D0016841F0010101600020DF
:101AE0007047000010B5026801F00F0E4FF0040CB3
:101AF000146A0CFA0EF324EA03031362136A1362E6
:101B0000146A41F211131C4206D1D2F820C040F2EF
:101B100044441CEA040F0DD0146A1C4211D1136A0C
:101B200040F2444423420CD1136823F001031360B4
:101B300007E000BF546C24F400445464146A1C424F
:101B4000EDD008290CD0042910D000294FF0010154
:101B500014BF80F8451080F84210002010BD00BF6F
:101B6000012180F84410002010BD00BF012180F841
:101B70004310002010BD0000002804BF0120704762
:101B800010B5044690F83D0028B9002084F83C00C8
:101B9000204600F01FF8022084F83D002068211D37
:101BA00001F048FB012084F8460084F83E0084F8E8
:101BB0003F0084F8400084F8410084F8420084F833
:101BC000430084F8440084F8450084F83D00002078
:101BD00010BD000010B582B0006840F60001C4F2EC
:101BE0000001884216D00021C4F2010188422DD1A3
:101BF0000020019043F64000C4F20200416819241D
:101C000041F001014160406800F00100019001983D
:101C100010E000BF0020009043F64000C4F2020034
:101C200001681E2441F004010160006800F0040016
:101C300000900098204600210022FFF737FB204645
:101C400002B0BDE81040FFF71FBB00BF02B010BDDF
:101C500090F83D1001291CBF01207047022180F837
:101C60003D10006841F2FF71C4F2000188420DDCB2
:101C700040F2FF71C4F20001884215DCB0F1804FE0
:101C80002AD040F20041C4F2000123E040F2FF31CB
:101C9000C4F20101884213DC41F60001C4F20001E4
:101CA000884219D0002113E040F60001C4F200017F
:101CB000884211D040F60041C4F200010AE000BFA2
:101CC00044F20001C4F20101884205D040F2004113
:101CD000C4F20101884206D1816801F0070106299A
:101CE00004BF00207047016841F00101016000203D
:101CF0007047000090F83C20012A4FF0020200F0EB
:101D0000C58080B580F83D20D0F800C04FF67772CE
:101D1000DCF8083023EA0202CCF808200B684F2BCD
:101D200028DC1F2B44DD202B45D0302B43D0402B0B
:101D300040F0AE80D1F804E0C968DCF82030DCF86F
:101D4000202022F00102CCF82020DCF8182022F01C
:101D5000F00242EA011123F00A0242EA0E02CCF834
:101D60001810CCF82020DCF8081041F0470121F0D1
:101D7000300180E06F2B27DDB3F5005F48D0B3F56D
:101D8000805F7AD0702B40F08380D1E901E3C9688D
:101D9000DCF8082043EA0E0322F47F4243EA0121E3
:101DA0001143CCF80810DCF8081041F0770162E02C
:101DB0000BB1102B6CD1DCF8081021F07001194325
:101DC00041F0070157E000BF502B35D0602B5FD1A9
:101DD000D1F804E0C968DCF82030DCF8202022F0DB
:101DE0001002CCF82020DCF8182022F4704242EADD
:101DF000013123F0A00242EA0E12CCF81810CCF800
:101E00002020DCF8081041F0670121F0100132E0D9
:101E1000D1E901E3C968DCF8082043EA0E0322F4A3
:101E20007F4243EA01211143CCF80810DCF8081086
:101E300041F480411FE000BFD1F804E0C968DCF83C
:101E40002030DCF8202022F00102CCF82020DCF841
:101E5000182022F0F00242EA011123F00A0242EABD
:101E60000E02CCF81810CCF82020DCF8081041F055
:101E7000570121F02001CCF808100022012180F840
:101E80003D10002180F83C10BDE8804010467047AE
:101E90000122F3E77047000070B504460068C5688A
:101EA0000669B10716D515F0020113D06FF00201D3
:101EB0000161012121778069800703D02046FFF767
:101EC000E9FF05E0204600F08FF8204600F0D0F949
:101ED00000202077700719D515F0040016D020686F
:101EE0006FF00401016102212177806910F4407FC5
:101EF00004D02046FFF7CEFF06E000BF204600F0EA
:101F000073F8204600F0B4F900202077300717D589
:101F100015F0080014D020686FF008010161042159
:101F20002177C069800703D02046FFF7B3FF05E0A3
:101F3000204600F059F8204600F09AF9002020775A
:101F4000F00619D515F0100016D020686FF01001BA
:101F5000016108212177C06910F4407F04D0204638
:101F6000FFF798FF06E000BF204600F03DF820464E
:101F700000F07EF900202077F00718BF15F001006F
:101F800002D1300609D412E020686FF0010101612E
:101F9000204600F055FA300609D515F0800006D02D
:101FA00020686FF0800101612046FFF791FC700608
:101FB00009D515F0400006D020686FF0400101619E
:101FC000204600F077FAB00658BF70BD15F020002B
:101FD00008D021686FF0200220460A61BDE87040F9
:101FE000FFF778BC70BD00007047000090F83C30EF
:101FF000012B04BF022070474FEAB202032A00F20D
:1020000001812DE9F043DFE802F0033F7FBF00BF0D
:10201000036840F200461C6A1A6A24F0020422F0A7
:1020200001021A621A46D3F804C052F818EF8F68FA
:1020300043F48065C4F20106B54244EA070405D1C1
:10204000CF6824F00C0427F004073C430F68B54226
:1020500006D1D1E905582CF440762E4346EA080C07
:102060002EF073063743C3F804C09F614F680969B7
:102070005F631C629F6947F008079F619F6927F0B3
:1020800004079F61B2E000BF036840F200481C6A89
:102090001A6A24F0200422F010021A621A46D3F8B9
:1020A00004C052F818EF8F6843F48065C4F2010849
:1020B000454544EA071407D1CF686FF0400624F085
:1020C000C00406EA07163443D1F80090454506D10E
:1020D000D1E905562CF440672E4347EA860C2EF4CE
:1020E000E64747EA0927C3F804C09F614F680969BA
:1020F0009F631C629F6947F400679F619F6927F493
:1021000080679F6171E000BF036840F200481C6A6D
:102110001A6A24F4007422F480721A621A46D3F800
:1021200004C052F81CEF8F6843F48065C4F20108C4
:10213000454544EA072408D1CF6840F2FF463F02F4
:1021400024F4406427EA06063443D1F8009045455C
:1021500006D1D1E905562CF440572E4347EA061C18
:102160002EF0730747EA0907C3F804C0DF614F6820
:102170000969DF631C62DF6947F00807DF61DF6917
:1021800027F00407DF6131E0036840F20045D3F82F
:1021900020C01A6A43F4806722F480521A621A46F9
:1021A0005C6852F81CEFD1F800808E68C4F201051B
:1021B000AF4204D14D6924F4804444EA85142CF4E0
:1021C000005747EA06372EF4E64646EA08265C60E2
:1021D000DE614E6809691E641F62DF6947F40067AB
:1021E000DF61DF6927F48067DF6109021368194343
:1021F00011600021BDE8F043002280F83C20084631
:10220000704700BF0121002280F83C20084670473B
:10221000002804BF0120704710B5044690F83D0027
:1022200028B9002084F83C00204600F01FF8022066
:1022300084F83D002068211D00F0FCFF012084F897
:10224000460084F83E0084F83F0084F8400084F89B
:10225000410084F8420084F8430084F8440084F884
:10226000450084F83D00002010BD000070470000CC
:102270007047000041B1082910D0042914BF00F1B3
:10228000410200F13F020BE090F83E20012A1CBF02
:1022900001207047022280F83E2013E000F1400246
:1022A0001278012A1CBF012070470222082907D09A
:1022B000042914BF80F8412080F83F2002E000BFCD
:1022C00080F84020006801F01F010122036A02FA31
:1022D00001F123EA01020262026A114341F2FF7234
:1022E000C4F200029042016210DC40F2FF71C4F2BD
:1022F000000188421CDCB0F1804F3FD040F2004129
:10230000C4F20001884239D03DE000BF40F2FF3105
:10231000C4F20101884219DC41F60001C4F2000157
:1023200088422BD00021C4F2010188421AD02AE051
:1023300040F60001C4F2000188421FD040F600417F
:10234000C4F20001884219D01DE000BF44F2000130
:10235000C4F20101884211D040F20041C4F20101EF
:10236000884210D1416C40F2004340F48062C4F2D4
:10237000010341F400419A42416404D1816801F0B3
:102380000701062903D0016841F001010160002026
:102390007047000010B5026801F01F0E4FF0010CED
:1023A000146A0CFA0EF324EA0303136240F20043AA
:1023B000D2F820C042F48064C4F201039C42C2F807
:1023C00020C009D1136A41F21114234204D1136AC7
:1023D00040F2444423420FD0136A41F211142342C5
:1023E00013D1136A40F2444423420ED1136823F000
:1023F0000103136009E000BF536C23F400435364EE
:10240000136A41F211142342EBD008290CD004299D
:1024100010D000294FF0010114BF80F8411080F85E
:102420003E10002010BD00BF012180F840100020A8
:1024300010BD00BF012180F83F10002010BD00003A
:10244000006840F60001C4F20001884218BF7047DE
:10245000B0B540F6C064C2F20004204602F0DCFCD5
:1024600040F27415C2F2000595ED000A204602F014
:1024700083FA01F039F9D4F85411B2EE043A91ED2F
:10248000040A91ED051A91ED062A45F8040F20EE95
:10249000030A21EE031A22EE032A85ED010A85EDD7
:1024A000021A01202946102285ED032ABDE8B0401A
:1024B00000F0FAB970470000FEE70000B0B586B042
:1024C000002043F6300105900090C4F202010A6832
:1024D00040F6004442F080020A600A68C4F2020436
:1024E00002F080020092009A00900A68042542F0EF
:1024F00002020A600A6802F002020092009A00904A
:102500000A6842F001020A600A6802F001020092C1
:10251000009A00900868002240F0080008600868EF
:10252000042100F00800009000982046FEF736FED7
:10253000012002210290CDE9031001A92046019556
:10254000FEF754FD06B0B0BD2DE9F0419CB040F25D
:10255000000840F63060C4F201080021C2F2000019
:10256000202242F2D003012680241691CDE91411D5
:102570001191CDE90F11CDE90D11CDE90B11CDE987
:102580000911CDE90711CDE90511CDE90311CDE917
:102590000111C0E90081C0E90223C0E90416846189
:1025A000FFF7EAFA002818BFFEF708FD4FF4805045
:1025B000139040F63060C2F2000013A9FFF79AFBB7
:1025C000002818BFFEF7FAFC40F63060C2F20000A7
:1025D000FFF71EFE002818BFFEF7F0FC2020109029
:1025E00040F630600024C2F2000010A91194FFF7F9
:1025F0009BF9002818BFFEF7E1FC7020099041F21A
:102600006800CDE90A0440F63060C2F2000009A972
:102610000022CDE90C44CDE90E44FFF7E7FC002889
:1026200018BFFEF7CBFC40F63060C2F2000009A9EB
:102630000422FFF7DBFC002818BFFEF7BFFC40F6C2
:102640003060C2F2000009A90822FFF7CFFC002881
:1026500018BFFEF7B3FC0020642140F63064CDE9DA
:1026600004104FF40051C2F20004CDE901000390C0
:102670000691089001A92046FFF72EF9002818BFFF
:10268000FEF79CFC2068404502D01CB0BDE8F081FC
:10269000002643F630001796C4F20200016817AC1A
:1026A00041F0020101600168022701F00201179167
:1026B000179917960168012541F001010160006832
:1026C000214600F00100179017984FF460401790D2
:1026D00008F58230CDE918761A971B95FEF786FC2F
:1026E0004FF4E060CDE9170708F580302146CDE9C9
:1026F00019671B95FEF77AFC1CB0BDE8F08100005D
:1027000080B586B040F678600021C2F2000040F645
:10271000000240F2F31C0591CDE90311CDE900114F
:10272000C4F200025323C0E9021C01618021C0E908
:1027300000238161FFF720FA002818BFFEF73EFC56
:102740004FF48050029040F67860C2F2000002A977
:10275000FFF7D0FA002818BFFEF730FC40F678608B
:10276000C2F200006946FFF7DFF8002818BFFEF745
:1027700025FC06B080BD0000FEE70000FEE700007B
:102780007047000010B52DED028B8EB001AC2046D5
:102790003221B0EE408AFDF7E3FE18EE100A03F096
:1027A0003BFA02460B4606A12046FDF7F9FD06A1BD
:1027B0000020224600F09AF90EB0BDEC028B10BD4D
:1027C000252E34660A000000257300002DE9F04133
:1027D00040F68814C2F200041746227898460D4647
:1027E000532A06463DD02046A821FDF7B9FE032016
:1027F0002061606146F2440140F63020C0F60001DD
:10280000C2F20000A161E0614FF48060206200200C
:10281000A0626062E062216640F24811C2F20001EB
:10282000013161661021A16653212067E06660676F
:10283000BFF35F8F2170452147226170A270E27063
:102840002171522120226171A271E1715421217202
:102850006172A072E07220736073A073E073BFF3C3
:102860005F8F022E84BF4FF0FF30BDE8F081069AE3
:10287000EFF311804FF0200181F3118856B106EB80
:10288000460104EBC10100238D61CF61C1F82080B6
:102890008B624B6206EB460104EBC101CA6280F316
:1028A00011880020BDE8F081F0B581B040F68817AE
:1028B000C2F2000714463A780D46532A06463DD028
:1028C0003846A821FDF74CFE03203861786146F2B6
:1028D000440140F63020C0F60001C2F20000B961A8
:1028E000F8614FF4806038620020B8627862F86264
:1028F000396640F24811C2F20001013179661021B7
:10290000B96653213867F8667867BFF35F8F39700F
:10291000452147227970BA70FA703971522120220C
:102920007971BA71F971542139727972B872F87289
:1029300038737873B873F873BFF35F8FEFF3118751
:102940004FF0200181F3118830462946224600F0DD
:1029500005F887F3118801B0F0BD00002DE9F04FB4
:1029600081B040F6881300EB4000C2F2000303EB95
:10297000C007F86A14460228894613D0012845D0BA
:1029800058B93D4655F8246F6868B04240F27C80E3
:10299000F1430844A04280F07E800026304601B01A
:1029A000BDE8F08F57F8245F0026381DA7F1040B0F
:1029B000BA46A7F1080800900098EA430068DBF8DF
:1029C0000010A842104498BF08444F1BB84238BFBB
:1029D0000746D8F80000A74228BF274628444946A2
:1029E0003A46FDF778FDDBF800007919E41B0D1A73
:1029F0003E44B94418BF0D46002CBFF35F8FCAF8A0
:102A00000050D9D1304601B0BDE8F08FBA465AF82F
:102A1000245FDAF80410A94204D9EA43386A114461
:102A200004E000BF386AEA4311440144A14238BFC0
:102A30000C46461B57F81C0FB44228440ED2494698
:102A40002246FDF748FD6019BFF35F8FCAF800000A
:102A50002646304601B0BDE8F08F00BF49463246F9
:102A6000FDF739FDA4EB0608386809EB060142467C
:102A7000FDF731FDBFF35F8FCAF800802646304670
:102A800001B0BDE8F08F00BF396AF243104408443A
:102A9000A042FFF482AF57F81C0F79683044A1EBD5
:102AA000060A54450CD249462246FDF714FD30195A
:102AB000BFF35F8F28602646304601B0BDE8F08F37
:102AC00049465246FDF707FDA4EB0A08386809EBB2
:102AD0000A014246FDF7FFFCBFF35F8FC5F8008097
:102AE0002646304601B0BDE8F08F000082B080B5C8
:102AF00082B0CDE9042304AA019201AA00F006F8ED
:102B000002B0BDE8804002B0704700002DE9F04FF0
:102B10009BB0904606AA16924022002504901A9077
:102B20000DF1580900208A461792CDE9185507E0A3
:102B300000F040FC19985146B0F1FF3F40F3048388
:102B40001AF8013B252B1BD0002B00F0ED82DDE9AC
:102B50001720411C914207D8169A13541998179AB6
:102B600001301990084618919042E3D116991A98AD
:102B7000FFF79AFE1899884240F0D0821895D9E75D
:102B800001F1040A4FF0000B1AF8031CA1F1230312
:102B90000D2B00F25F800222DFE803F0085C5C5C32
:102BA0005C5C5C5C0A5C0C5C5C0D00BF082202E0B3
:102BB000042200E001221AF8021C4BEA020BA1F1E8
:102BC00023030D2B00F28C800222DFE803F007893B
:102BD00089898989898909890B89890C082202E0F8
:102BE000042200E001221AF8011C4BEA020BA1F1B9
:102BF00023030D2B00F280800222DFE803F0077D23
:102C00007D7D7D7D7D7D097D0B7D7D0C082202E033
:102C1000042200E001229AF800104BEA020BA1F115
:102C200023030D2B5ED80222DFE803F0105C5C5C0E
:102C30005C5C5C5C125C0E5C5C0800BF4BEA020BE7
:102C40000AF1040AA0E700BF0122F7E70822F5E72E
:102C50000422F3E7AAF1030AA1F13A0212F10A0FE2
:102C600045D30AF1020A002606EB860201EB420276
:102C70001AF8011CA2F13006A1F13A0313F10A0F70
:102C800042D306EB860201EB42029AF80010A2F151
:102C90003006A1F13A0313F10A0F37D306EB86028F
:102CA00001EB42029AF80110A2F13006A1F13A03B9
:102CB00013F10A0F76D306EB860201EB42029AF873
:102CC0000210A2F13006A1F13A0212F10A0F0AF144
:102CD000040AC9D2AAF1020A2E2919D00AE000BFBB
:102CE000AAF1020AA1F13A0212F10A0FB9D20026A2
:102CF0002E290DD0002761E0AAF1010AA1F13A02C4
:102D000012F10A0FF3D3ACE7AAF1010A2E29F1D18F
:102D1000524612F8011FA1F13A0313F10A0F03D230
:102D2000002792464AE000BF0AF1020A002700BFCE
:102D30009AF8002007EB870301EB4301A2F13A0365
:102D400013F10A0FA1F1300738D39AF8011007EBFD
:102D5000870302EB4302A1F13A0313F10A0FA2F138
:102D6000300725D39AF8022007EB870301EB4301D4
:102D7000A2F13A0313F10A0FA1F130071CD307EBBC
:102D8000870102EB41029AF80310A2F13007A1F18A
:102D90003A0212F10B0F0AF1040AC9D8AAF1010A8A
:102DA0000CE000BF0AF1010A2E29B1D0A2E700BF52
:102DB0000AF1010A02E000BF0AF1020A9AF80010C3
:102DC00001F0FB02682A41D19AF8011001F0FB02E0
:102DD000682A40F04D809AF8021001F0FB02682A40
:102DE00040F04E809AF803100AF1040A01F0FB0249
:102DF000682AE3D0A1F15802202A2DD8DFE802F09A
:102E00002220202020202020202020485820202060
:102E100020202020202020201220208820B82020C0
:102E2000220000BFD8F800001022011DC8F80010D1
:102E30000168484608230827CDE9007578E600BFF9
:102E400078E600BFD8F80000102294E00AF1010AE9
:102E5000A1F15802202AD1D925297FF46BAEDDE9F2
:102E60001720411C91423FF67FAE169A252374E647
:102E70000AF1020AA1F15802202ABFD9ECE700BFEB
:102E80000AF1030AA1F15802202A7FF6B7AFE3E75F
:102E9000DDE91720D8F80030411C1F1D9142C8F809
:102EA00000703FF661AE1A68169B1A5456E600BFD2
:102EB000D8F8001041F2597C0A1DC8F800200968B2
:102EC00048F29F640029C1F100028E4648BF1146B6
:102ED0000A2942F21075CDF2B71CC0F20104039228
:102EE000CDF8148050D34FF0020800BF642955D3A9
:102EF000B1F57A7F4CD3A9424ED3A1FB0C23A1425A
:102F00004FEA533108F10408F0D8A8F1010845E070
:102F1000D8F800100A1DC8F800200C688CA1002CFD
:102F200008BF0C4606E000BFB0F1FF3F04F101040A
:102F30007FF700AE2778002F3FF4FCADDDE91721C5
:102F40004B1C934207D8169847541998179A01308A
:102F50001946189319909142E6D116991A98FFF7DD
:102F6000A3FC1899884240F0D98019981895DBE79E
:102F7000D8F800000A22011DC8F800100168484670
:102F80003B46CDE9006BD3E54FF0010806E000BFFA
:102F900008F1010802E000BF08F10208B8457446D4
:102FA00098BFB84676B10021002C48BF01210BF034
:102FB000040241EA9201A6EB01095FEA8B7506D48F
:102FC00006E000BF4FF000095FEA8B7500D55FB3E4
:102FD0005FEACB7128D1B9F1000F25D0A9F1010624
:102FE0004E4538BFC8451FD2DDE917214B1C93421F
:102FF00008D81698202242541998179A0130194679
:103000001893199091420AD116991A98FFF74CFC1F
:103010001899884240F08280199800211891002860
:10302000B146DBD572E000BF00286FD4B4F1FF3F9A
:1030300020DD5FEA4B7130D5DDE917214B1C93424F
:1030400008D816982B2242541998179A01301893D1
:103050001990194691421ED116991A98FFF724FC2F
:10306000189988425AD1002018901998002814D530
:103070004CE000BFDDE917214B1C934208D816989D
:103080002D2242541998179A013019461893199015
:10309000039C9142E0D0002838D4002D0CD416A80F
:1030A00021460A223B46CDE9009B814600F082F989
:1030B000DDF8148000253DE50BF001013943EED128
:1030C000B9F1000FEBD0A9F101064E4538BFC84554
:1030D000E5D2DDE917214B1C934208D8169830221F
:1030E00042541998179A0130194618931990914231
:1030F00009D116991A98FFF7D7FB189988420DD174
:103100001998002118910028B146DCD5DDF814800B
:1031100000250DF15809FFF70DBD00BF4FF0FF303E
:103120001BB0BDE8F08F00BF40B1189A52B10498AF
:1031300006A9FFF7B9FBDDE9181004E000201BB079
:10314000BDE8F08F002108441BB0BDE8F08F00BF40
:10315000284E554C4C29000070470000FEF72AB855
:10316000B0B592B0002443F64000CDE90A44CDE961
:1031700008440594CDE90344CDE901440094C4F228
:1031800002000168022541F080510160006800F0F2
:1031900080500090009847F200000094C4F20000B4
:1031A000016841F4804101600068A82100F480407A
:1031B00000900098012006904FF4803007904FF463
:1031C00080000D9004200E90119006A80C95CDE97A
:1031D0000F15FEF78FF918B172B600BFFEE700BFFA
:1031E0000F20CDE901054FF4A05004904FF480501A
:1031F000059001A805210394FEF794F810B172B66A
:10320000FEE700BF12B0B0BD4EF68850CEF200000F
:10321000016841F4700101607047000040F63060C1
:10322000C2F20000FEF738BE40F67860C2F200003D
:10323000FEF732BEB0B540F6FF3E0568C4F2000EA0
:1032400040F2004C7045C4F2010C27DCB0F1804F15
:1032500031D040F20043C4F2000398422BD040F634
:103260000003C4F20003984225D041F6FF73C4F274
:10327000000398422ADC70453CDCB0F1804F5FD0FF
:1032800040F20043C4F20003984259D040F60003D4
:10329000C4F20003984253D057E000BF40F6004309
:1032A000C4F20003984206D0604504D00023C4F263
:1032B00001039842D9D14B6825F0700243EA020518
:1032C00041F6FF73C4F200039842D4DD43F6FF7366
:1032D000C4F20103984221DC42F20003C4F200036D
:1032E00098422DD00023C4F20103984228D06045B3
:1032F00026D02AE040F60043C4F2000398421FD0D3
:1033000041F60003C4F20003984219D041F600438D
:10331000C4F20003984213D017E000BF44F2000348
:10332000C4F2010398420BD044F60003C4F2010337
:10333000984205D044F20043C4F20103984204D1FC
:10334000CB6825F4407243EA02050A688C684B6931
:10335000C46240F480648262644504BF0969016309
:10336000026825F0800142F0040219430260012244
:1033700042610160B0BD0000FEE7000080B541F28F
:10338000300040F63061C2F20000C2F2000100F0ED
:1033900037FC9FED070A40F6C060C2F2000015211D
:1033A000F0EE400AB0EE401ABDE8804001F0F4BDF6
:1033B00000E440C62DE9F04F81B0DDF828901F46AB
:1033C00015468B469142044602D24FF001081FE099
:1033D0004FF00408584600BFB0FBF5F0A84211D3E7
:1033E000B0FBF5F0A84211D3B0FBF5F0A8420FD323
:1033F000B0FBF5F008F10408A842EDD2A8F10308EB
:1034000006E000BFA8F1020802E000BFA8F1010831
:103410000B99B84598BFB846B9F1000F34D011F0F8
:10342000010031D12026880748BF30264FF0000A1E
:103430002020002F18BF064606E000BFC4F808A0F1
:10344000E068B0F1FF3F1FDDB9F1000F1CD0C845A7
:103450001AD2D4E90120411C914207D8226816549F
:10346000E06862680130E0600846A1609042A9F11E
:103470000109E5D121682069FFF716FAA1688842A1
:10348000DCD04FF0FF30E060E068002859D401261E
:1034900002E000BF013F6E43022F01D3013F03E072
:1034A000BBFBF6F1A9421BD3012F05FB06F601D9A0
:1034B000013F03E0BBFBF6F1A94211D3012F05FB4D
:1034C00006F601D9013F03E0BBFBF6F1A94207D3A1
:1034D000012F05FB06F6DDD8BBFBF6F1A942DAD2D7
:1034E000A2682EA76168BBFBF6FA531C8B4209D871
:1034F00017F80A0021688854E068616801301A46AC
:10350000A360E0608A4209D121682069FFF7CCF905
:10351000A26890420CD1E0680022A26000280AD480
:10352000B6FBF5F10AFB16BBAE420E46DAD202E05C
:103530004FF0FF30E0600B99C90718BFB9F1000FD9
:1035400002D101B0BDE8F08F2025A9F101064E455A
:1035500038BFC845F5D26168531C8B4207D8206834
:103560008554E068616801301A46A360E0608A42D1
:1035700009D121682069FFF797F9A168884207D12E
:10358000E0680022A260B0F1FF3FB146DDDCD8E781
:103590004FF0FF30E06001B0BDE8F08F30313233E2
:1035A00034353637383941424344454680B52DEDF0
:1035B000028B9FED0A8AF0EE480A02F083F930EEA2
:1035C000081AB5EE400AF1EE10FAA8BFB0EE401AA4
:1035D000B0EE410ABDEC028B80BD00BFDB0FC940DD
:1035E00001EE100AB8EEC11A21EE000A7047000081
:1035F0009FED091A9FED0A2A30EE010A9FED071A86
:10360000B4EE420A30EE011AF1EE10FAC8BFB0EE85
:10361000410A00F009B800BFDB0FC93FDB0FC9C08A
:10362000DB0FC9400000000080B510EE100A02F068
:10363000F3FA9FED290B53EC102B02F0EFF902F097
:10364000BFF9C0F307223F2A0AD845F61871C0F621
:10365000000101EB420331F812105A882EE000BF3E
:103660007F2A0DD845F61873C2F18001C0F6000319
:10367000C2F17F0233F8111033F812201EE000BFB0
:10368000BF2A0DD845F61871C0F6000101EB4201C2
:103690006FF0FF028A5A31F8FE3C51425A420DE067
:1036A00045F61873C2F58071C0F6000382F0FF0280
:1036B00033F8111033F8122049425242C0B2521A64
:1036C000504301EB202000EE100A9FED051AB8EEE2
:1036D000C00A20EE010A80BDB4F94664305FC440E0
:1036E00000000038FDF76EBCFDF7F8BBB0B52DED5E
:1036F000028B0C460546B0EE408AFFF795FF85ED3C
:10370000000AB0EE480AFFF773FF84ED000ABDEC33
:10371000028BB0BD80B52DED068B82B00168B0EE96
:10372000409A89688847B5EE401AB0EE408AF1EEBB
:1037300010FA19D0B5EE408AF1EE10FA1ED0F5EE6F
:10374000400AF1EE10FA27D038EE200A9FED292A20
:1037500031EE000A20EE020A9FED221A38EE408A6E
:1037600030EEC00A1CE000BF9FED1E0A9FED1E1A3E
:1037700020EE800A28EE011A18E000BF31EE200A80
:103780009FED181A9FED192AB1EE408A20EE811A9A
:1037900020EE020A0AE000BF38EE010A9FED141A7B
:1037A0009FED112A20EE010A28EE021A31EE00AA3E
:1037B000684601A9B0EE490AFFF798FF9DED001A8F
:1037C0009DED012A2AEE010A28EE023A21EE081A9E
:1037D0002AEE022A33EE000A72EE410A02B0BDEC74
:1037E000068B80BD3ACD933F3ACD133F3ACD13BF00
:1037F0003ACD93BFABAAAA3E10B5044680ED000AAD
:103800000020A060FFF770FF01462046616010BDF8
:1038100010B52DED028BB0EE408A0446FFF764FF31
:1038200061689FED191A411A00EE101AB8EE400AAD
:1038300020EE010AB5EE400AF1EE10FA02DA9FED31
:10384000130A06E09FED121AB4EE410AF1EE10FAE7
:1038500011DC94ED001AB7EE002A30EE010A81EE79
:10386000000A94ED021A32EE402A22EE082A20EED7
:10387000010A30EE028A84ED028AB0EE480A6060E6
:10388000BDEC028B10BD00BFBD3786356F12833A89
:103890009A99993E10B5044680EC050A0020C4E9C7
:1038A0000500E061FFF720FF01462046216210BDC0
:1038B00010B52DED028BB0EE408A0446FFF714FFE1
:1038C000216A9FED411A411A00EE101AB8EE400A23
:1038D00020EE011AB6EE000AB4EE401A9FED3B2A24
:1038E000F1EE10FAB5EE401AC8BFB0EE421AF1EE92
:1038F00010FAD8BFB0EE421A94ED003A94ED057A72
:1039000094ED025A63EE080A38EE473A23EE053A80
:10391000C3EE011A94ED014A94ED075A24EE013AE0
:1039200023EE000A37EE083A94ED046A20EE030A0B
:1039300030EE053AB1EE464AB4EE463A94ED032A2B
:10394000F1EE10FAB4EE443AC8BFB0EE463AF1EEEA
:1039500010FAB8BFB0EE443A30EE830A31EE800A76
:10396000B4EE460AF1EE10FAB4EE440AC8BFB0EE67
:10397000460AF1EE10FAB5EE402AB8BFB0EE440A9E
:10398000F1EE10FA15DD94ED064A30EE445A85EE5C
:10399000015AB4EE425AF1EE10FA06DCB1EE422AB8
:1039A000B4EE425AF1EE10FA03DA22EE010A30EEDA
:1039B000040A84ED058A84ED060A84ED073A206244
:1039C000BDEC028B10BD00BFBD3786356F12833A48
:1039D00070470000B0B50446406A0168C96A61607A
:1039E0000021C4F24011E160FEF732F9606A002163
:1039F0000025FEF7CFFC606A0021FEF773F8606ACD
:103A00000421FEF7C7FC606A0421FEF76BF8606AC8
:103A10000821FEF7BFFC606A0821FEF763F86268C0
:103A200007A10020C4E90455A561FFF75FF894EDF4
:103A3000030AFEF7A7FE012101202177B0BD00BFD8
:103A4000424C44434472697665723650574D206942
:103A50006E697420737563636573732C2066726579
:103A60007175656E63793A2025642C20766F6C74CD
:103A70006167655F6C696D69743A200010B5044632
:103A800000689FED110AC1682046F0EE400AB0EED2
:103A9000401A8847606A0021FEF7ECFB606A00214B
:103AA000FDF7A0FF606A0421FEF7E4FB606A0421D1
:103AB000FDF798FF606A0821FEF7DCFB606A0821C9
:103AC000BDE81040FDF78EBF0000000090ED035AE6
:103AD00090ED023AB4EE405AF1EE10FAB5EE400A1B
:103AE000B8BFB0EE450AB0EE412A9FED301AF1EEB4
:103AF00010FAB8BFB0EE410A80EE034AB4EE605A45
:103B0000F1EE10FAF5EE400AB8BFF0EE450AF1EE1C
:103B100010FAB4EE425AB8BFF0EE410AF1EE10FAD4
:103B2000B5EE402AB8BFB0EE452AF1EE10FA0146D4
:103B3000B8BFB0EE412AB5EE404AF1EE10FAB0EE51
:103B4000410A08DBB7EE000AB4EE404AF1EE10FA83
:103B5000D8BFB0EE440A80EE834AF0EE410A81ED10
:103B6000040AB5EE404AF1EE10FA08DBF7EE000A5F
:103B7000B4EE604AF1EE10FAD8BFF0EE440A82EEDD
:103B8000032AC1ED050AB5EE402AF1EE10FA08DB72
:103B9000B7EE001AB4EE412AF1EE10FAD8BFB0EE3B
:103BA000421A486A81ED061A01F03ABA0000000094
:103BB00010B5044600689FED110AC1682046F0EE7A
:103BC000400AB0EE401A8847606A0021FEF7E2FB27
:103BD000606A0021FDF786FF606A0421FEF7DAFBC8
:103BE000606A0421FDF77EFF606A0821FEF7D2FBC0
:103BF000606A0821BDE81040FDF774BF00000000B6
:103C00004FF0000C45F6B063C0F60003C0E908C1F0
:103C10004CF6C77108330122CFF6FF7180F81CC043
:103C200080F8282040F2000C4EF20042C0E900313A
:103C30004DF20A71C4F2401CCCF24062C3F6A341BB
:103C4000C0E902C2C1627047B0B52DED028B0446D7
:103C5000D0F84801B0B194F9341104F58C7500EE38
:103C6000101A0168B8EEC08A496888472846FFF7ED
:103C7000CFFD94ED4B1A28EE000A30EE410ABDEC60
:103C8000028BB0BD94ED030ABDEC028BB0BD000009
:103C9000D0F84811B1B110B52DED028B90F9342157
:103CA00000F5867400EE102A0A680846D268B8EE5D
:103CB000C08A90472046FFF7ABFD20EE080ABDEC16
:103CC000028B10BD90ED050A7047000010B52DED78
:103CD000028B0446D0F84801B0B194F93411626CFB
:103CE0005143026800EE101A1168B8EEC08A884786
:103CF00094ED4C1A28EE000A30EE410ABDEC028B1E
:103D0000BDE81040FFF752BC94ED040ABDEC028BF5
:103D100010BD0000B0B52DED068B044645F6CC6015
:103D2000C0F6000008309FED4F8A9FED4FAA20603B
:103D30000120B6EE009A002584F85F0004F16400CB
:103D4000B0EE490AF0EE490AB0EE481AF0EE481A11
:103D5000B0EE4A2AA560A4F85C50FFF79BFD04F181
:103D60008800B0EE490AF0EE490AB0EE481AF0EECB
:103D7000481AB0EE4A2AFFF78DFD9FED3C9A04F1F8
:103D8000AC00B0EE490AFFF737FD04F1B800B0EE21
:103D9000490AFFF731FD9FED360A04F1C400F2EE47
:103DA000040AB0EE481AF0EE481AB0EE4A2AFFF7BD
:103DB00071FDB3EE040A04F1E800F0EE480AB0EE3B
:103DC000481AF0EE481AB0EE402AFFF763FD9FED67
:103DD000290A04F58670FFF70FFD04F58C70B0EE2C
:103DE000480AFFF709FD4EF20040CCF24060C4F8EB
:103DF00030016420C4F83801092084F83E01042011
:103E0000C4F84001632084F844010020C4F2A010EB
:103E100049F69A110022C4F24911C4F2A002A06529
:103E20000020C4E914124FF07E51C4F24000C4E9EE
:103E3000495584F83451A4F83C51C4F8505184F8E1
:103E40005E506560A561C4F82C51C4E95255C4E9BF
:103E50000955C4E90B55C4E90D502046E163BDEC9A
:103E6000068BB0BD000000009A9949410AD7233C57
:103E70009A99993E0AD7A33BC0F8541170470000A5
:103E800070B52DED0A8B04469AA10020FEF72EFE98
:103E9000D4F8480101688969884728B1204600F0B4
:103EA00041FC002800F0D08094F83401D0B196A1F4
:103EB0000020FEF71BFE94ED4C0A9FEDB51AB4EE00
:103EC000410AF1EE10FA00F0C58046F21001C0F68A
:103ED00000010020FEF70AFE01242046BDEC0A8BFB
:103EE00070BD00BF9FED8EAA9FED8EBA9FED8ECA6A
:103EF0009FED8E8A002540F2F51600BF00EE105AA5
:103F0000B8EEC00A20EE0A0A80EE0B1A206894ED83
:103F10000E0A81692046F0EE480A31EE0C1A8847F5
:103F2000D4F848010168496988470220FFF7DAFBA5
:103F30000135B542E2D1D4F84801016849698847A2
:103F4000D4F848010168496888479FED789AB0EE37
:103F5000408A4FF4FA7500BF00EE105AB8EEC00A5E
:103F600020EE0A0A80EE0B1A206894ED0E0A816991
:103F70002046F0EE490A31EE0C1A8847D4F8480181
:103F80000168496988470220FFF7ACFB013D681CC6
:103F9000E2D1D4F84801016849698847D4F848015A
:103FA0000168496888472068B0EE409A9FED5F0A33
:103FB00081692046F0EE400AB0EE401A8847C820DA
:103FC000FFF790FB38EE490A9FED591AB0EEC0BAE0
:103FD000B4EE41BAF1EE10FA7CDB5EA064A1B4EE5F
:103FE000498AF1EE10FAB8BF01464FF001054FF0D3
:103FF0000000B8BF4FF0FF35FEF778FD94ED110AD1
:104000009FED621AB8EEC00A2BEE000A30EE010AEC
:10401000B0EEC00AB6EE001AB4EE410AF1EE10FAA4
:1040200084F8345160DD8AEE0B0A10EE100A01F0BC
:10403000F3FD0B4645F6B3710246C0F600010020C1
:10404000FEF754FD37E700BF00242046BDEC0A8B85
:1040500070BD00BF20689FED358A94ED0E0A81691E
:104060009FED311A2046F0EE480A88474FF42F7032
:10407000FFF738FBD4F848010168496988470020F8
:10408000C4F830012046FFF721FE142084ED4C0ACD
:10409000FFF728FBD4F8300101F0BEFD0B4645F6D2
:1040A0009A710246C0F600010020FEF71FFD20684D
:1040B000B0EE480A81692046F0EE480AB0EE481A90
:1040C0008847C820FFF70EFB01242046BDEC0A8B71
:1040D00070BD00BF17A100200024FEF707FD204699
:1040E000BDEC0A8B70BD00BF45F6E971C0F600015A
:1040F000DEE600BF4D4F543A20416C69676E207375
:10410000656E736F722E0A004D4F543A20536B69DF
:1041100070206469722063616C69622E0A0000007D
:10412000DB0FC9400000FA43E4CB964000000000DA
:10413000A9CF7E3D4D4F543A204661696C6564209D
:10414000746F206E6F74696365206D6F76656D6541
:104150006E740A004D4F543A2073656E736F725F30
:10416000646972656374696F6E3D3D4343570A002D
:104170004D4F543A2073656E736F725F6469726558
:104180006374696F6E3D3D43570A0000DB0FC9C081
:1041900000E440C6B0B52DED048BB0EE408A044675
:1041A000FFF7A2FAD4F86C110546401A00EE100A87
:1041B0009FED461AB8EE400A20EE011AB6EE000A4C
:1041C000B4EE401A9FED422AF1EE10FAB5EE401A15
:1041D000C8BFB0EE421AF1EE10FAD8BFB0EE421AE4
:1041E00094ED032A94ED160A38EE423A20EE015A75
:1041F000B0EEC34AB0EEC55AB4EE454AF1EE10FA3D
:1042000018DD9FED345AB5EE403AB7EE004AF1EEB4
:1042100010FAC8BFB0EE445ABFEE003AB8BFB0EED5
:10422000435AB0EEC03A23EE053A23EE011A31EEBE
:10423000028A01E09FED270A94ED101A9FED262ACD
:1042400094ED149AB4EE421AF1EE10FA84ED038A5A
:1042500084ED050A21D094ED0D0A94ED152AB0EEF7
:10426000C00A22EE012A32EE003AB1EE492AB4EE3B
:10427000423AF1EE10FA08DBB4EE493AB0EE492AC0
:10428000F1EE10FAD8BFB0EE432A32EE400A80EECB
:10429000010AB0EE429A84ED0C0AB0EE480AFFF72C
:1042A00085F9606CFFF79CF92068DFED0A0A8169E7
:1042B000B0EE401A2046B0EE490A8847B0EE490AEF
:1042C000C4F86C51BDEC048BB0BD00BFBD37863562
:1042D0006F12833A0000000000E440C610B52DEDD7
:1042E000048B82B0044690F85E00B0EE408A02284B
:1042F0004CD3032800F0B480022840F080819FED69
:10430000C90A31EE000AFFF751F99FEDC71A94F878
:104310005F1080EE010AB1EE081A20EE010ABDEE30
:10432000C00A10EE100AB0EE480A39B1D4F85411A0
:10433000B6EE001A91ED030A20EE010A40F20C01DC
:1043400000EB4000C2F2000151F8202001EB800098
:10435000002A00F0FB8001EE102A4168B8EEC11A75
:1043600021EE081A31EE001A002984ED561A00F0E9
:104370000B8101EE101AB8EEC11A21EE081A31EEC7
:10438000001AD4F8540184ED571A2FE1684601A9A8
:10439000B0EE410AB0EE609AFFF7A8F99DED001A61
:1043A0009DED012A21EE080A22EE093A22EE082AA2
:1043B00021EE091A31EE022A9FED981A9FED985AC4
:1043C00033EE400ABEEE004AD4F8540184ED5A2A76
:1043D00022EE011A20EE043A22EE052A33EE011AEB
:1043E00033EE022A90ED033A94F85E00B6EE005ADE
:1043F000012823EE053A84ED590A25D1B4EE421A7C
:10440000B0EE425AF1EE10FAB8BFB0EE415AB4EE37
:10441000450AF1EE10FAB4EE421AB0EE426AB8BFA5
:10442000B0EE405AF1EE10FAC8BFB0EE416AB4EEF9
:10443000460AF1EE10FAC8BFB0EE406A36EE055AF1
:1044400025EE044A33EE043A94F85F0000285FD06A
:1044500030EE030A31EE031A32EE032A6EE000BF9B
:104460009FED700A31EE000AFFF7A0F89FED6E1A7B
:1044700094F85F1080EE010AB2EE081A20EE010AED
:10448000BDEEC00A10EE100AB0EE480A39B1D4F8F9
:104490005411B6EE001A91ED030A20EE010A40F223
:1044A000540200EB4000C2F2000252F8201002EB6E
:1044B000800000294AD04268002A75D001EE101A07
:1044C00002EE102A8068B8EEC11AB8EEC22A21EEB8
:1044D000081A22EE082A31EE001A32EE002A0028CD
:1044E00084ED561A84ED572A00F07E8001EE100A02
:1044F000B8EEC11AD4F8540121EE081A31EE000AC0
:10450000016884ED580AD1F810C001213AE000BFDB
:10451000B4EE421AB0EE423AF1EE10FAB8BFB0EE85
:10452000413AB4EE430AF1EE10FAB8BFB0EE403AA9
:1045300030EE430A31EE431A32EE432A84ED560A36
:1045400084ED571A84ED582A59E000BF90ED011A06
:1045500090ED022AB8EEC11AB8EEC22AD4F854017E
:1045600021EE081A22EE082A31EE001A32EE002A55
:10457000016884ED560A84ED571A84ED582AD1F863
:1045800010C0002101222CE090ED021AD4F8540151
:10459000B8EEC11A21EE081A016831EE001A84ED56
:1045A000570A84ED581A18E090ED022A01EE101A0D
:1045B000B8EEC11AB8EEC22AD4F8540121EE081A96
:1045C00022EE082A31EE001A32EE002A016884ED4C
:1045D000561A84ED570A84ED582AD1F810C00121EB
:1045E000002201230AE000BFD4F85401016884EDE1
:1045F000580AD1F810C0012101220023E047D4F865
:10460000540194ED560A0168D4ED570A94ED581AF6
:10461000C968884702B0BDEC048B10BDD7B35D3FBD
:10462000D7B35DBF920A063FDB0FC940B0B52DED91
:10463000048BB0EE409A0446FFF756F8D4F86C119C
:104640000546401A00EE100A9FED321AB8EE400AF5
:1046500020EE010AB6EE001AB4EE410A9FED2E2AB2
:10466000F1EE10FAB5EE400AC8BFB0EE420AF1EE24
:1046700010FAD8BFB0EE420A94ED031A29EE000AF0
:1046800030EE010AFEF792FF94ED101A9FED232AF7
:1046900094ED148AB4EE421AF1EE10FA84ED030A96
:1046A00084ED059A21D094ED0D2A94ED153AB0EEE3
:1046B000C22A23EE013A33EE024AB1EE483AB4EE92
:1046C000434AF1EE10FA08DBB4EE484AB0EE483A3D
:1046D000F1EE10FAD8BFB0EE443A33EE422A82EE41
:1046E000011AB0EE438A84ED0C1A606CFEF778FF75
:1046F0002068DFED0B0A8169B0EE401A2046B0EE6B
:10470000480A8847B0EE480AC4F86C51BDEC048BE7
:10471000B0BD00BFBD3786356F12833A00E440C696
:1047200000000000B0B52DED088B04462EA100203E
:104730000025FEF7DBF9D4E90E1094ED16AAA0656A
:10474000D4F8480194ED149A21650168E5608969FF
:10475000884710B394ED030A9FED29BAB4EE4B0AD3
:10476000F1EE10FA19DA9FED278A00BF2046B0EE6D
:10477000480AFFF70FFDD4F84801016849698847E6
:10478000D4F8480101688969884730B194ED030A7B
:10479000B4EE4B0AF1EE10FAE8DB20689FED1A0A3E
:1047A00081692046F0EE400AB0EE401A8847D4F8FE
:1047B000480184ED16AA016884ED149A8969884736
:1047C00016A100284FF0000010A208BF1146FEF706
:1047D0008DF9D4F84801016889698847B0FA80F0FA
:1047E0004009BDEC088BB0BD4D4F543A20496E6472
:1047F0006578207365617263682E2E2E0A000000B2
:10480000DB0FC940E4CB1641000000004D4F543A85
:104810002053756363657373210A00004D4F543A4A
:10482000204572726F723A204E6F7420666F756EFB
:1048300064210A0010B50446D0F85401002865D060
:10484000007F002862D0012084F85D0034A10020A0
:10485000FEF74CF9D4F8540194ED140A90ED031AC4
:104860009FED324AB4EE410AF1EE10FAC4BF84ED76
:10487000141AB0EE410A94ED0E1AB4EE401AF1EE9D
:1048800010FAC8BF84ED0E0AD4F84C0100281CBFF2
:1048900084ED1D0A84ED260A94ED152A94F8600033
:1048A00094ED101AB0EE423A002808BFB0EE403A3C
:1048B00094F86100B4EE441AF1EE10FAA0F103008E
:1048C00008BFB0EE432A0128A06D84ED352AC4F854
:1048D000F80006D894F83401002804BF012084F8B9
:1048E00034014FF4FA70FEF7FDFE11A10020FEF72F
:1048F000FDF820688168204688474FF4FA70FEF77B
:10490000F1FE022084F85D0010BD00BF0F220EA151
:10491000002084F85D20BDE81040FEF7E7B800BF36
:104920004D4F543A20496E69740A000000E440C6B5
:104930004D4F543A20456E61626C65206472697611
:1049400065722E0A000000004D4F543A20496E69EE
:1049500074206E6F7420706F737369626C652C20A5
:10496000647269766572206E6F7420696E6974690D
:10497000616C697A65640A0010B52DED048B0446FC
:10498000D0E949014A1C8142C4F82821C0F00781BE
:1049900094F86100B0EE408A033800210228C4F880
:1049A000281104D32046FFF74FF984ED030A20466F
:1049B000FFF76EF994F85C0084ED050A002800F01A
:1049C000EE809FED9E9AB4EE498AF1EE10FA18BF80
:1049D00084ED018A94ED121AB4EE491AF1EE10FA40
:1049E00007D080EE011A9FED962A81EE021A84ED1F
:1049F0000D1AD4F84C0180B994ED101AB4EE491A8E
:104A0000F1EE10FA09D094ED0A2A94ED0D3A32EE47
:104A1000432A82EE011A84ED0C1A94F861000428EE
:104A200000F2BD80DFE800F0040E2AA8B00000BF4D
:104A300094F86000002800F0B5806068A061BDECCB
:104A4000048B10BD94ED011A04F1C40031EE400A4C
:104A500084ED071AFEF72CFF94F8600084ED060A37
:104A6000002840F09C8094ED101AB4EE491AF1EE43
:104A700010FA3CD1B0EE401A51E000BF94ED010AAB
:104A800094ED031A94ED028A84ED080A04F1E8001B
:104A900030EE410AFEF70CFF94ED161A38EE000ACC
:104AA000B1EE413AB4EE410A94ED052AF1EE10FA66
:104AB000B4EE430AC8BFB0EE410AF1EE10FAB8BF37
:104AC000B0EE430A84ED070A04F1C40030EE420A56
:104AD000FEF7EEFE94F8600084ED060A00285ED131
:104AE00094ED101AB4EE491AF1EE10FAC2D094ED1A
:104AF0000D2A20EE011A94ED143A31EE021AB1EEAD
:104B0000432AB4EE431AF1EE10FAB4EE421AC8BFCB
:104B1000B0EE431AF1EE10FAB8BFB0EE421A94EDBF
:104B2000132A84ED0A1AB4EE492AF1EE10FA34D0B1
:104B300094ED051A94ED113A20EE410AB8EEC31A2D
:104B400094ED144A20EE010A22EE000AB1EE441A56
:104B5000B4EE440AF1EE10FAB4EE410AC8BFB0EE6A
:104B6000440AF1EE10FAB8BFB0EE410A84ED090A2A
:104B7000BDEC048B10BD00BF94ED010A204684ED0E
:104B8000070AFFF753FD06E094ED010A204684ED85
:104B9000080AFFF7FFFA84ED0A0A00206062BDEC04
:104BA000048B10BD94ED012A94ED105A94ED0D3A4A
:104BB00094ED141A22EE056A36EE033AB4EE495A21
:104BC000B0EE425A94ED134AF1EE10FA18BFB0EE6F
:104BD000435AB1EE413AB4EE415AF1EE10FAB4EE56
:104BE000435AC8BFB0EE415AF1EE10FAB4EE494A4A
:104BF000B8BFB0EE435AF1EE10FA84ED0A5ACCD0A9
:104C000094ED115A22EE400AB8EEC52A20EE020AAF
:104C100024EE000AB4EE410AF1EE10FAB4EE430AB3
:104C2000C8BFB0EE410AF1EE10FAB8BFB0EE430AC9
:104C300084ED090ABDEC048B10BD00BF00E440C642
:104C40005077D63D10B50446D0F854010168496844
:104C50008847D4F854019FED060A0168F0EE400A37
:104C6000C968B0EE401A8847012084F85C0010BD86
:104C70000000000010B50446D0F854019FED080A6A
:104C80000168F0EE400AC968B0EE401A8847D4F8CF
:104C90005401016889688847002084F85C0010BDD1
:104CA00000000000B0B50446032084F85D004FF416
:104CB000FA70FEF717FDD4F84801A8B32046FFF7B5
:104CC000DFF8D4F8481105460A680846526990474B
:104CD0002046FEF7B9FF4FF4FA7084ED030AFEF7A1
:104CE00001FD002D45D0D4F84C0138B3007B98B3BA
:104CF00046F22901C0F600010020FDF7F7FED4F8C6
:104D00004C0194ED0E0A01684968884750B3054686
:104D100045F6D971C0F6000100202A46FDF7E6FEEF
:104D2000012D0FDA25E000BF30A10020FDF7DEFEE7
:104D30004FF4FA70FEF7D6FC1BE000BF21A1002063
:104D4000FDF7D4FE25A10020FDF7D0FE042084F855
:104D50005D000120B0BD00BF0E2084F85D000CA1F5
:104D600004E000BF45F6FD71C0F600010020FDF72C
:104D7000BDFE23A100200025FDF7B8FE0E2021680E
:104D800084F85D004968204688472846B0BD00BFCA
:104D90004D4F543A20496E697420464F4320657246
:104DA000726F722C2063757272656E742073656EFB
:104DB0007365206E6F7420696E697469616C697ABD
:104DC00065640A004D4F543A204E6F20637572722D
:104DD000656E742073656E73652E0A004D4F543AEC
:104DE0002052656164792E0A000000004D4F543A4C
:104DF000204E6F2073656E736F722E0A00000000E4
:104E00004D4F543A20496E697420464F43206661E5
:104E1000696C65642E0A000010B50446D0F848019C
:104E200010B101684969884794F861000338022885
:104E300056D394F85C00002852D02046FEF746FF77
:104E400094F8600084ED040A002800F085800228B0
:104E500048D0012878D1D4F84C01002840D001680E
:104E6000C968884704F1AC0084ED0C0AFEF7D0FC59
:104E700094ED061A84ED0C0A04F1640031EE400A48
:104E8000FEF716FD94ED131A9FED392A84ED0A0AF8
:104E9000B4EE421AF1EE10FA5CD094ED050A94EDEE
:104EA000062A94ED113A22EE400AB8EEC32A94ED98
:104EB000144A20EE020A21EE000AB1EE441AB4EEC2
:104EC000440AF1EE10FAB4EE410AC8BFB0EE440A4B
:104ED000F1EE10FAB8BFB0EE410A84ED090A3BE0EA
:104EE00010BD00BFD4F84C01002808BF10BDFEF76C
:104EF00011FC84ED0B0A04F1AC00B0EE600AC4EDC5
:104F00000C0AFEF785FC84ED0C0A94ED0B0A04F103
:104F1000B800FEF77DFC84ED0B0A94ED060A94EDD3
:104F20000C1A04F1640030EE410AFEF7C1FC84ED76
:104F30000A0A94ED0B0A04F18800B1EE400AFEF76C
:104F4000B7FC84ED090A07E00AA10020FDF7CEFDB9
:104F500002E000BF002060622068D4ED090A94EDF1
:104F60000A0A94ED041A81692046BDE810400847FA
:104F700000E440C64D4F543A206E6F20746F72713A
:104F8000756520636F6E74726F6C2073656C6563FA
:104F9000746564210A00000010B52DED068BB0EE9B
:104FA000418AB0EE609AB0EE40AA0C46FEF7B2FE1F
:104FB00045F6F061C0F600019FED0E1A08319FED35
:104FC0000C0A0160B4EE419A0021446480ED10AAFD
:104FD00029EE000AF1EE10FA18BFB0EE401A80ED8B
:104FE000121A80F8601080ED138ABDEC068B10BD9C
:104FF000F304B53F00E440C601A000F031F800BF63
:1050000050757265207669727475616C2066756E74
:105010006374696F6E2063616C6C656421000000CD
:10502000006890ED0B2A90ED0B3AB8EE422A22EE82
:10503000000AB8EE432A90ED0B3A22EE202AB8EE91
:10504000433ABCEEC00A23EE011A80ED0D0ABCEE15
:10505000C20A80ED0E0ABCEEC10A80ED0F0A70474D
:10506000FBF728FEFCF7B4F8FEF77AF8FDF726FA0E
:10507000FDF76AFAFDF744FBFBF776FF00F002F854
:10508000FEE7000082B040F28812002519A1C2F2AA
:10509000000201204FF400630095FDF797FB41F2F9
:1050A00030040020C2F20004C4F24010A060204688
:1050B000FEF790FC4FF47A70FBF784FF2046FEF772
:1050C000DDFCB1EE080A2046F0EE400AB0EE401AD0
:1050D000FEF7FCFC40F6004440F64055C4F20204E2
:1050E000C0F2030520460421FCF750F82846FBF7E0
:1050F000ADFEF7E74A53636F70655F7434663466DC
:10510000346634005FEA400C08BF91F0000F4FEAAC
:105110008C234FEAC12243EA51514FEA1C5018BF79
:1051200000F5F0404FEA300018BF41F000415FEA5F
:105130006C5C00F02980BCF1FF3F08BF40F080406C
:105140007047130C06BF12044FF0100C4FF0000C08
:10515000130E04BF12020CF1080C130F04BF12014E
:105160000CF1040C930F04BF92000CF1020CD30F4E
:1051700004BF52000CF1010C11464FF00002A0F1E7
:105180001F00A0EB0C00704711F0004F08BF7047E4
:1051900031F000413FF4D5AF0B0C06BF09044FF0CE
:1051A000100C4FF0000C0B0E04BF09020CF1080CA0
:1051B0000B0F04BF09010CF1040C8B0F04BF890015
:1051C0000CF1020CCB0F04BF49000CF1010CCCF127
:1051D000200322FA03F341EA030102FA0CF2A0EBE6
:1051E0000C0000F10100704723F07F4720F07F4C56
:1051F00080EA030000F00040ACEB070303F57C53AA
:1052000003F1FF032DE9804909B44FEA144324EA6E
:1052100003484FEA154B25EA0B4E0FF2042606EB26
:1052200013273E7803FB0667C7F5000707FB06F662
:105230004FEAD64606F102064FEA543707FB066CE2
:10524000CCF1005C4FEA1C472CEA074C0CFB06F53E
:1052500007FB06F404EB15464FEA961649085FEA89
:10526000320234BF00204FF000404FEAD13706FB36
:1052700007FC4FEA1C4C0CFB0BF7D21B03FB0CF793
:1052800061EB07010CFB0EF7B0EB074072EB174226
:105290000CFB08F734BFA2EB0742B2EB074261EB0D
:1052A00017414FEA0C444FEA910706FB07FC4FEA0F
:1052B0001C4C0CFB0BF7B0EBC74072EB573203FBF7
:1052C0000CF734BFA2EBC742B2EBC74261EB5731D8
:1052D0000CFB0EF7B0EBC70072EB57720CFB08F734
:1052E00034BFA2EBC702B2EBC70261EB57714FEAC2
:1052F000816141EA92114FEA826242EA90124FEADA
:10530000806004EBCC04039F4FEAD13706FB07FC17
:105310004FEA1C4C0CFB0BF7D21B03FB0CF761EBA9
:1053200007010CFB0EF7B0EB074072EB17420CFBCA
:1053300008F734BFA2EB0742B2EB074261EB17411B
:105340004FEA8C5504EB9C244FEA910706FB07FCBF
:105350004FEA1C4C0CFB0BF7B0EBC74072EB57321B
:1053600003FB0CF734BFA2EBC742B2EBC74261EBC1
:1053700057310CFB0EF7B0EBC70072EB57720CFB0A
:1053800008F734BFA2EBC702B2EBC70261EB57715B
:105390004FEA816141EA92114FEA826242EA901239
:1053A0004FEA806015EB4C2544F100044FEAD137F9
:1053B00006FB07FC4FEA1C4C0CFB0BF7D21B03FB54
:1053C0000CF761EB07010CFB0EF7B0EB074072EB3B
:1053D00017420CFB08F734BFA2EB0742B2EB0742BF
:1053E00061EB17414FEA813141EA92414FEA823243
:1053F00042EA90424FEA80304FEA0C7615EB1C15DA
:1054000044F1000448EA03434EEA0B484FF0000E13
:10541000B2EB080C71EB030724BF624639464EEB32
:105420000E0E4FF0000B0018524149414BEB0B0B95
:10543000B2EB080C71EB03077BF1000B24BF624653
:1054400039464EEB0E0E4FF0000B00185241494109
:105450004BEB0B0BB2EB080C71EB03077BF1000B72
:1054600024BF624639464EEB0E0E51EA020718BFC2
:1054700046F0010616EB0E7655F1000254F10001DC
:1054800003D5BDE88901BDE80088BDE88901BDE814
:105490000048B619524141EB0101A3F101037047E5
:1054A00080807F7E7D7C7B7A797877767675747361
:1054B000727171706F6E6E6D6C6C6B6A6A69686820
:1054C000676666656464636362616160605F5F5EB6
:1054D0005E5D5D5C5C5B5B5A5A595958585757562C
:1054E0005655555554545353525252515150505091
:1054F0004F4F4F4E4E4D4D4D4C4C4C4B4B4B4A4AE3
:105500004A49494948484847474747464646454526
:10551000454444444443434343424242424141415F
:105520009C46002B30D477002BD04FEA37071CB5B0
:1055300003B44FF010004FF01001BAF1000F06D085
:10554000BCF1000FDCBF40F0080040F008014FF054
:1055500000000FBCBDE810400BF1010BBBF1010FC7
:1055600008BF5FEA170722BF12F1010211F1010122
:105570004FF0004143F1000300F0004043EA000017
:105580007047F9D35708D0E746EA06464FEA164671
:1055900013F1400F1FDD13F1200FDFBF16430A4642
:1055A000002120335B42BED0C3F1200746EA064605
:1055B0004FEA164602FA07F746EA070622FA03F20E
:1055C000C3F1200701FA07F742EA070221FA03F1C3
:1055D0004FF00003A7E746EA020646EA06464FEA0E
:1055E000164646EA0106BCBF46EA0646360C4FF0B0
:1055F00000034FF000024FF0000194E72DE9804CCA
:1056000070B49A46934691E8380007C831EA400CD6
:1056100048BF34EA430C03D5FFF7E6FDFFF780FFF0
:10562000F0BCBDE8008C2DE9804C70B49A469346DE
:1056300091E8380007C810F0804F08BF13F0804F82
:1056400003D100F005F8FFF76BFFF0BCBDE8008C5C
:1056500020F07F4723F07F4C80EA030000F00040F9
:1056600007EB0C03A3F57C53A3F1FE0392F0000FAC
:1056700000F0B38095F0000F00F077802DE901492C
:105680004FEA114021EA00484FEA144624EA06474F
:1056900000FB06FC08FB06F607FB08F818EB0648BB
:1056A0004CEB164C00FB07F718EB07484CEB174088
:1056B0004FEA124B22EA0B4E4FEA154625EA0647FF
:1056C0000BFB06FC0EFB06F607FB0EFE1EEB064E62
:1056D0004CEB164C0BFB07F71EEB074E4CEB174B36
:1056E00018EB0B0840F1000018EB0E0B58EB00080C
:1056F00040F100008F1A4FF000014FF000063CBF50
:10570000C943661B14BFB5EB040C00213CBFC94361
:10571000F61B4FEA174427EA04454FEA1C472CEAD8
:10572000074C04FB076205FB07F70CFB05F616EBBD
:10573000074642EB174204FB0CFC16EB0C4642EB0F
:105740001C421BEB060658EB020241414EEA8E0E4C
:1057500046EA9E0601D5BDE80189B619524141EBE2
:105760000101A3F10103BDE801894FEA144524EAD0
:1057700005464FEA114721EA074C05FB07F406FBF3
:1057800007F70CFB06F111EB074144EB174405FB4F
:105790000CFC11EB0C4144EB1C444FEA124722EA8B
:1057A000074C05FB07F206FB07F70CFB06F616EBAA
:1057B000074642EB174205FB0CFC16EB0C4642EB8E
:1057C0001C456A1854F1000148BF7047B619524190
:1057D00041EB0101A3F10103704795F0000F37D0B1
:1057E0004FEA114221EA02464FEA144724EA074CE5
:1057F00002FB07F106FB07F70CFB06F414EB07446A
:1058000041EB174102FB0CFC14EB0C4441EB1C4137
:105810004FEA154725EA074C02FB07F506FB07F799
:105820000CFB06F616EB074645EB174502FB0CFC96
:1058300016EB0C4645EB1C42121951F1000148BF12
:105840007047B619524141EB0101A3F101037047C2
:105850004FEA144524EA05464FEA114721EA074C6E
:1058600005FB07F106FB07F70CFB06F212EB0742FC
:1058700041EB174105FB0CFC12EB0C4251EB1C41B8
:105880004FF0000648BF7047921841EB0101A3F1A9
:105890000103704703B401984100009850EAC12009
:1058A00018BF04204A0D18BF40F0010040F2FF72FB
:1058B000B2EB515F08BF40F00200012808BF05208D
:1058C00002B0704710B52DED028BF0EE408A18EE55
:1058D000900AB0EE608A20F00040C0F1FF40C00F97
:1058E00007D118EE100A20F00040C0F1FF40C00FB1
:1058F0002BD018EE101A18EE900A00F00BFA00EEFA
:10590000100A10EE100A6FEAD05010F0FF0F04BF1B
:10591000BDEC028B10BD18EE900A00F0004110EEB5
:10592000100A00F00040814204BFBDEC028B10BDA4
:1059300018EE101A10EE100ABDEC028B61F31E0077
:1059400000EE900A30EE600A10BD18EE900A4FF09B
:105950007F41B1EB400F1CBF18EE100A5FEA400018
:10596000C7D10120FAF741FEBDEC028BBDE8104023
:10597000AFF30080DFED020A80EEA00A704700005E
:105980000000000030380A2801D2012070470020B2
:105990007047000010B500290AD00878002807D009
:1059A00005487844FBF7D4F9002801D0002010BD49
:1059B0000248784410BD0000CE060000C606000074
:1059C0004FEA1153A3F58063D3F11E03A8BFD3F1AF
:1059D000200C08DB4FF0004242EAC12252EA50524A
:1059E00032FA03F0704709420BD4102BC4BF0020D9
:1059F000704703F5787CBCF1FF3F05D04FF0FF30D6
:105A000070474FF00000704770B500F0B1F800BF6C
:105A10004992248000207047F0E7000070B5DFF85D
:105A200048C11CEA111E1EBF1CEA13159EEA0C0F8A
:105A300095EA0C0F00F06F8081EA03044EEAD47EF1
:105A4000AE4421EA4C1123EA4C1341F4801143F493
:105A50008013AEF17F7EA1FB024CA0FB03653619DB
:105A600055EB0C05A1FB034C4CF10003A0FB021C01
:105A700016EB0C06654153F10003094218BF46F0CE
:105A8000010613F4007F0BD14FEA03314FEA0530D2
:105A900041EA155140EA165034036FF003020AE060
:105AA0004FEAC3214FEAC52041EA555140EA56501A
:105AB000F4026FF0020202EB2E4201EB025585EA7E
:105AC000CE710AD05FEA440C18BF24F0004450F1B4
:105AD000000041F1000120EAD47040F2FE7C6245F2
