:020000040800F2
:100000001004002001010008BD080008E5010008F7
:10001000B908000855010008750B00080000000031
:10002000000000000000000000000000610A00085D
:1000300059010008000000002D090008650A0008A9
:100040001B0100081B0100081B0100081B01000820
:100050001B0100081B0100081B0100081B01000810
:100060001B0100081B0100085D0100081B010008BE
:100070001B0100081B0100081B0100081B010008F0
:100080001B0100081B0100081B0100081B010008E0
:100090001B0100081B0100081B0100081B010008D0
:1000A0001B0100081B0100081B0100081B010008C0
:1000B0001B0100081B0100081B0100081B010008B0
:1000C0001B0100081B0100081B0100081B010008A0
:1000D0001B0100081B0100081B0100081B01000890
:1000E0001B0100081B0100081B010008DFF80CD0F1
:1000F00000F018F800480047090C00081004002020
:100100000648804706480047FEE7FEE7FEE7FEE7B1
:10011000FEE7FEE7FEE7FEE7FEE7FEE7310B00083D
:10012000ED0000081CB509480090094801900546FB
:10013000009C06E0E06840F0010394E8070098475F
:100140001034AC42F6D3FFF7D5FF0000C00C000816
:10015000E00C0008FFE7FEE77047000040F21440A3
:10016000C4F201000068C006002809D5FFE740F28C
:100170001441C4F20101086840F010000860FFE774
:100180007047000041F21801C4F20201086840F013
:100190000100086041F21C02C4F20202106840F043
:1001A00080501060086840F020000860086840F047
:1001B00004000860086840F00800086000BF70474D
:1001C00040F60041C4F201010868082262F31340BE
:1001D000086040F60C41C4F20101086840F01000CC
:1001E00008607047FFE7FEE782B00190019A41F294
:1001F0001C00C4F20200016811430160006801990B
:1002000008400090009802B07047000082B0019052
:10021000019A41F21800C4F2020001681143016022
:100220000068019908400090009802B070470000F3
:1002300082B00190019A41F21800C4F202000168F4
:10024000114301600068019908400090009802B0D5
:100250007047000042F20000C4F20200006800F0A3
:100260000700704781B0009042F20001C4F2020121
:10027000086820F00700009A1043086001B070473A
:100280000421C4F201010868022262F31A600860C6
:100290007047000080B586B0059004910498B0F8CE
:1002A00001000390039890FAA0F0B0FA80F0029059
:1002B000FFE703980299C840002849D0FFE7039858
:1002C0000299C840C00700283ED0FFE702980728DF
:1002D00006D8FFE7029940F201108840019009E03A
:1002E0000298A0F108014FF00110884040F08060B2
:1002F0000190FFE704984068082807D1FFE70598B8
:100300000199049A126900F05BF8FFE705980199DA
:10031000049A526800F020F804984068012805D03B
:10032000FFE70498406809280DD1FFE70598019977
:10033000049A926800F05AF805980199049AD268D4
:1003400000F024F8FFE7FFE7029801300290B0E7E1
:10035000002006B080BD000084B00390029101929D
:1003600003989DF80B100844009000990868029AC1
:1003700092FAA2F2B2FA82F293000F229A409043CC
:10038000019A9A401043086004B0704784B003900B
:100390000291019203989DF80B1008440090009977
:1003A0000868029A92FAA2F2B2FA82F29300042248
:1003B0009A409043019A9A401043086004B07047F5
:1003C00083B00290019100920298C06801990A0AD4
:1003D00020EA1120009992FAA2F2B2FA82F2914038
:1003E00008430299C86003B07047000084B00390CE
:1003F0000291019203989DF80B1008440090009917
:100400000868029A92FAA2F2B2FA82F293000322E8
:100410009A409043019A9A401043086004B0704794
:1004200080B582B0019001984FF47A7100F002F823
:1004300002B080BD82B00190009101980099B0FB9C
:10044000F1F001384EF21401CEF2000108604EF2D4
:100450001801CEF20001002008604EF21001CEF229
:1004600000010520086002B07047000041F204005E
:10047000C4F20200006800F0F000704741F204008E
:10048000C4F20200006800F4E060704741F204002A
:10049000C4F20200006800F46050704741F20400AA
:1004A000C4F20200006800F00C00704741F2040042
:1004B000C4F20200006800F00C00704780B582B002
:1004C000019000F06DFA019908600198006800F051
:1004D0002FFA019948600198406800F03DFA0199AF
:1004E00088600198406800F049FA0199C86002B03C
:1004F00080BD000041F20001C4F20201086840F42E
:10050000803008607047000041F20000C4F2020031
:100510000068C0F34040704782B00190009141F202
:100520000401C4F20201086820F47C10019A02F46C
:100530004032009B1A431043086002B0704700002D
:1005400041F20001C4F20201086840F080700860C6
:100550007047000041F20400C4F20200006800F499
:100560008030704741F20400C4F20200006800F4D9
:100570007010704741F20400C4F202000068C0F33A
:100580004040704741F20000C4F202000068C0F32E
:100590004060704781B0009041F20401C4F2020152
:1005A000086820F0F000009A1043086001B070471E
:1005B00081B0009041F20401C4F20201086820F405
:1005C000E060009A1043086001B0704781B000906D
:1005D00041F20401C4F20201086820F46050009A5C
:1005E0001043086001B0704781B0009041F20401EF
:1005F000C4F20201086820F00300009A104308606A
:1006000001B0704781B00090009840F20001C2F242
:100610000001086001B0704781B00090009908693E
:1006200020F4904008610099486920F02A00486150
:1006300001B0704781B000900099C86840F4005044
:10064000C86001B07047000080B588B0079006917F
:1006500001208DF8170000200490079800F060F842
:10066000002851D1FFE70798C06841F20C61884328
:10067000069A5168D36812691943114308430799D0
:10068000C86007980699896800F088F80798069965
:10069000496900F075F86846FFF710FF079843F6C0
:1006A0000001C4F20101884203D1FFE703980490DE
:1006B00018E0079844F20041C4F20001884203D1D7
:1006C000FFE7029804900CE0079844F60001C4F29A
:1006D0000001884203D1FFE70298049000E0FFE7A1
:1006E000FFE7FFE7049870B1FFE70698006850B194
:1006F000FFE700208DF8170007980499069A126802
:1007000000F016F8FFE7FFE79DF8170008B080BD7E
:1007100081B0009000980068C0B2C00901B0704775
:1007200081B000900098C068C0F3403001B07047BD
:1007300083B00290019100920198192148430099D9
:100740008900B0FBF1F348F21F51C5F2EB11A3FB96
:1007500001204209642002FB1033322000EB031019
:10076000A0FB0101F02000EA511000EB0210C1F3E0
:100770004311084480B20299886003B070470000BA
:1007800082B0019000910198406920F44070009976
:1007900008430199486102B07047000082B001909F
:1007A00000910198006920F4405000990843019994
:1007B000086102B07047000082B001908DF803100C
:1007C0009DF803000199486002B0704782B0019023
:1007D0004EF21000CEF200000068009000980198E0
:1007E000013020B1FFE7019801300190FFE7FFE7FA
:1007F000019870B1FFE74EF21000CEF200000068E1
:10080000C003002804D5FFE7019801380190FFE7F5
:10081000EEE702B07047000080B592B0002004906F
:10082000119010900F900E900D900C900B900A90DC
:1008300009900890079006904FF48040FFF7F8FC6D
:1008400004200190FFF7F4FC04980221C0F2024159
:1008500006910921079103210891099040F60000B3
:10086000C4F20100039006A90291FFF713FD019A5B
:10087000029903980423C0F2044306930792FFF7FA
:1008800009FD04984FF4E1310B910C900D900E90FE
:100890000C210F911090119043F60000C4F201005A
:1008A00005900BA9FFF7D0FE0598FFF7B5FE059858
:1008B000FFF7C0FE12B080BDFFE7FEE7FFE7FEE7EF
:1008C00088B0079006910592079800F00700049001
:1008D0000498C0F10700052803D3FFE70420019026
:1008E00004E00498C0F107000190FFE7019803902D
:1008F00004980430062803D8FFE70020009003E0A6
:10090000049803380090FFE7009802900698039936
:10091000012202FA01F101390840029B9840059931
:100920009A40013A1140084308B0704770470000F0
:1009300080B582B0019001980090FFF797FD0146C5
:100940000098C9B20A0940F69641C0F60001895CD8
:10095000C84002B080BD000080B582B0019001980F
:100960000090FFF78BFD014600980A0A40F6A64169
:10097000C0F60001895CC84002B080BD80B582B07D
:10098000019001980090FFF781FD01460098CA0A86
:1009900040F6A641C0F60001895CC84002B080BDA7
:1009A00080B582B000200190FFF780FD01460091E4
:1009B00040B1FFE7009804280AD0FFE70098082814
:1009C0000CD00FE041F20020C0F27A0001900FE05D
:1009D00041F20020C0F27A00019009E000F00CF82A
:1009E000019005E041F20020C0F27A000190FFE79B
:1009F000019802B080BD000080B584B00020039053
:100A00000290FFF7A7FD02900298019028B1FFE73E
:100A10000198B0F5803F06D010E040F60010C0F21B
:100A20003D00039010E0FFF7A5FD411C41F20020BE
:100A3000C0F27A00B0FBF1F0039005E040F6001040
:100A4000C0F23D000390FFE703980090FFF78AFD96
:100A500002460098022101EB9241484304B080BD58
:100A60007047000040F20801C2F20001086801303E
:100A7000086040F60840C4F201000068C006002883
:100A800007D5FFE740F20C01C2F200010120087017
:100A900006E040F20C01C2F2000100200870FFE7FE
:100AA0007047000080B582B00220FFF7DBFBFFE754
:100AB000FFF7D0FB022801D0FFE7F9E7FFF71AFDA7
:100AC000FFE7FFF721FD012801D0FFE7F9E74FF429
:100AD00080304FF4E011FFF71FFDFFF731FDFFE716
:100AE000FFF750FD012801D0FFE7F9E70020019052
:100AF000FFF750FD4FF48060FFF75AFD0198FFF7B4
:100B000065FD0220FFF770FDFFE7FFF7C7FC08282F
:100B100001D0FFE7F9E74AF20020C0F24A40009016
:100B2000FFF77EFC0098FFF76DFD02B080BD00006E
:100B30007047000080B582B00190FFE7019800780F
:100B4000A8B1FFE7FFE743F60000C4F20100FFF79A
:100B5000DFFD08B9FFE7F6E70198411C0191017834
:100B600043F60000C4F20100FFF726FEE6E702B0FC
:100B700080BD0000FFE7FEE74EF60C50CEF200000D
:100B80000068C0F30220704782B08DF80700009122
:100B90009DF9070000280AD4FFE7009800019DF99D
:100BA00007104EF20042CEF2000288540BE000988B
:100BB00000019DF8071001F00F014EF61452CEF21D
:100BC00000028854FFE702B07047000083B0029033
:100BD000029800F0070000904EF60C51CEF2000192
:100BE0000868019001984FF6FF02104001900198AB
:100BF000009A40EA02200022C0F2FA52104301900B
:100C00000198086003B0704780B582B00020009062
:100C10000190FFF7B7FA0120FFF7F8FA4FF0805084
:100C2000FFF7E2FA0320FFF7D1FFFFF7A5FF009AD5
:100C30000F21FFF745FE01464FF0FF30FFF7A4FFFD
:100C4000FFF71EFBFFF72EFF4EF21001CEF2000160
:100C5000086840F002000860FFF7DEFDFFF7B0FA19
:100C6000FFE740F6AE40C0F60000FFF763FF4FF429
:100C70007A70FFF7ABFDF4E702E008C8121F08C165
:100C8000002AFAD170477047002001E001C1121F0D
:100C9000002AFBD1704700000000000000000102A4
:100CA0000304060708090000000001020304486568
:100CB0006C6C6F2C576F726C642E0D0A0000000074
:100CC000E00C00080000002008000000780C00087C
:100CD000E80C00080800002008040000880C000848
:080CE00000127A000000000080
:04000005080000ED02
:00000001FF
