:020000040800F2
:10000000100C002001010008010F0008AD020008DB
:10001000FD0E000879010008A91300080000000087
:100020000000000000000000000000007D1100083A
:10003000A902000800000000491000088111000812
:100040001B0100081B0100081B0100081B01000820
:100050001B0100081B0100081B0100081B01000810
:100060001B0100081B0100081B0100081B01000800
:100070001B0100081B0100087D01000805020008A3
:100080001B0100081B0100081B0100081B010008E0
:100090001B0100081B0100081B0100081B010008D0
:1000A0001B0100081B0100081B0100081B010008C0
:1000B0001B0100081B0100081B0100081B010008B0
:1000C0001B0100081B0100081B0100081B010008A0
:1000D0001B010008211200081B0100081B01000879
:1000E0001B0100081B0100081B010008DFF80CD0F1
:1000F00000F02AF80048004745150008100C0020C1
:100100000648804706480047FEE7FEE7FEE7FEE7B1
:10011000FEE7FEE7FEE7FEE7FEE7FEE71D1200084A
:10012000ED00000840EA01039B0703D009E008C97D
:10013000121F08C0042AFAD203E011F8013B00F8AC
:10014000013B521EF9D270471CB50948009009487E
:1001500001900546009C06E0E06840F0010394E849
:10016000070098471034AC42F6D3FFF7C3FF0000F6
:100170002416000844160008FFE7FEE780B582B0A9
:100180000020C4F2020000F08BF9B8B1FFE70020B4
:10019000C4F20200019000F0EDF80198042100F093
:1001A0000BF943F60000C4F2010000F0A3FC40F696
:1001B0000F01C2F2000100200870FFE702B080BD0D
:1001C00080B582B040F20E02C2F200020020C4F2FA
:1001D000020000900521019100F0F6F900980199C4
:1001E00043F60402C4F2010200F04EFA00980199AD
:1001F0004FF4806200F090F90098019900F0EEF859
:1002000002B080BD80B582B00020C4F2020000F0D0
:100210003FF9F8B1FFE70020C4F2020000F0A2F8B5
:1002200040F20F40C2F2000040F20E01C2F20001A3
:100230004FF400720192FFF775FF019840F20C0134
:10024000C2F20001088040F20E41C2F2000101201A
:100250000870FFE70020C4F2020000F029F908B39B
:10026000FFE70020C4F2020000F08CF840F20E001C
:10027000C2F2000000F5007140F20F40C2F200002F
:100280004FF400720092FFF74DFF009840F20C010E
:10029000C2F20001088040F20E41C2F200010120CA
:1002A0000870FFE702B080BD70470000FFE7FEE77F
:1002B00082B00190019A41F21400C4F20200016878
:1002C000114301600068019908400090009802B055
:1002D0007047000082B00190019A41F21C00C4F204
:1002E0000200016811430160006801990840009014
:1002F000009802B07047000082B00190019A41F26C
:100300001800C4F2020001681143016000680199FD
:1003100008400090009802B07047000082B0019041
:10032000019A41F21800C4F2020001681143016011
:100330000068019908400090009802B070470000E2
:1003400082B00190019A41F21800C4F202000168E3
:10035000114301600068019908400090009802B0C4
:100360007047000081B0009000994FF480204860F1
:1003700001B0704781B0009000994FF40050486080
:1003800001B0704781B0009000994FF40030486090
:1003900001B0704782B0019000910199009841F23C
:1003A0000C62C0F60002104410F8012C885820F0AE
:1003B0000100885002B0704782B00190009101990D
:1003C000009841F21A62C0F60002104410F8012CA5
:1003D000885820F00100885002B0704782B0019028
:1003E00000910199009841F20C62C0F6000210449D
:1003F00010F8012C885840F00100885002B0704776
:1004000082B0019000910199009841F21A62C0F601
:100410000002104410F8012C885840F00100885068
:1004200002B0704782B0019000910199009841F2AA
:100430001362C0F60002104410F8012C885840F0F6
:100440000400885002B0704782B001900091019979
:10045000009841F21362C0F60002104410F8012C1B
:10046000885840F00200885002B0704782B0019076
:1004700000910198009941F21A62C0F600021144FD
:1004800011F8011C0844406880B202B070470000B7
:1004900081B0009000980068C0F3804001B07047C0
:1004A00081B0009000980068C0F3403001B0704700
:1004B00081B0009000980068C0F3404001B07047E0
:1004C00082B0019000910198009941F20C62C0F64F
:1004D0000002114411F8011C405800F0010002B064
:1004E0007047000083B00290019100920298019938
:1004F00041F21363C0F60003194411F8011C40587F
:1005000020F44050009908430299019A1A4412F8C5
:10051000012C885003B0704783B002900191009283
:100520000298019941F20C63C0F60003194411F8D6
:10053000011C084440684FF6FF7188430099084346
:100540000299019A1A4412F8012C1144486003B030
:100550007047000083B002900191009202980199C7
:1005600041F21A63C0F60003194411F8011C084453
:1005700040684FF6FF718843009908430299019A39
:100580001A4412F8012C1144486003B0704700006F
:1005900083B00290019100920298019941F2136395
:1005A000C0F60003194411F8011C405844F2100130
:1005B0008843009908430299019A1A4412F8012CC1
:1005C000885003B07047000083B002900191009200
:1005D00000980299019A41F20C63C0F600031A4494
:1005E00012F8012C1144C86003B0704783B0029028
:1005F000019100920298019941F21363C0F6000341
:10060000194411F8011C405820F08000009908435B
:100610000299019A1A4412F8012C885003B07047CD
:1006200083B00290019100920298019941F2136304
:10063000C0F60003194411F8011C405820F4406032
:10064000009908430299019A1A4412F8012C885023
:1006500003B0704783B00290019100920298019913
:1006600041F21363C0F60003194411F8011C40580D
:1006700020F02000009908430299019A1A4412F8C8
:10068000012C885003B0704783B002900191009212
:1006900000980299019A41F20C63C0F600031A44D3
:1006A00012F8012C1144886003B0704783B00290A7
:1006B000019100920298019941F21363C0F6000380
:1006C000194411F8011C405820F0400000990843DB
:1006D0000299019A1A4412F8012C885003B070470D
:1006E00083B00290019100920298019941F2136344
:1006F000C0F60003194411F8011C405820F4407062
:10070000009908430299019A1A4412F8012C885062
:1007100003B0704742F20000C4F20200006800F02B
:100720000700704781B0009042F20001C4F202015C
:10073000086820F00700009A1043086001B0704775
:100740000421C4F201010868022262F31A60086001
:100750007047000080B586B0059004910498B0F809
:1007600001000390039890FAA0F0B0FA80F0029094
:10077000FFE703980299C840002849D0FFE7039893
:100780000299C840C00700283ED0FFE7029807281A
:1007900006D8FFE7029940F201108840019009E075
:1007A0000298A0F108014FF00110884040F08060ED
:1007B0000190FFE704984068082807D1FFE70598F3
:1007C0000199049A126900F05BF8FFE70598019916
:1007D000049A526800F020F804984068012805D077
:1007E000FFE70498406809280DD1FFE705980199B3
:1007F000049A926800F05AF805980199049AD26810
:1008000000F024F8FFE7FFE7029801300290B0E71C
:10081000002006B080BD000084B0039002910192D8
:1008200003989DF80B100844009000990868029AFC
:1008300092FAA2F2B2FA82F293000F229A40904307
:10084000019A9A401043086004B0704784B0039046
:100850000291019203989DF80B10084400900099B2
:100860000868029A92FAA2F2B2FA82F29300042283
:100870009A409043019A9A401043086004B0704730
:1008800083B00290019100920298C06801990A0A0F
:1008900020EA1120009992FAA2F2B2FA82F2914073
:1008A00008430299C86003B07047000084B0039009
:1008B0000291019203989DF80B1008440090009952
:1008C0000868029A92FAA2F2B2FA82F29300032224
:1008D0009A409043019A9A401043086004B07047D0
:1008E00080B582B0019001984FF47A7100F002F85F
:1008F00002B080BD82B00190009101980099B0FBD8
:10090000F1F001384EF21401CEF2000108604EF20F
:100910001801CEF20001002008604EF21001CEF264
:1009200000010520086002B07047000041F2040099
:10093000C4F20200006800F0F000704741F20400C9
:10094000C4F20200006800F4E060704741F2040065
:10095000C4F20200006800F46050704741F20400E5
:10096000C4F20200006800F00C00704741F204007D
:10097000C4F20200006800F00C00704780B582B03D
:10098000019000F09BFB019908600198006800F05D
:100990005DFB019948600198406800F06BFB01998C
:1009A00088600198406800F077FB0199C86002B048
:1009B00080BD000041F20001C4F20201086840F469
:1009C000803008607047000041F20000C4F202006D
:1009D0000068C0F34040704782B00190009141F23E
:1009E0000401C4F20201086820F47C10019A02F4A8
:1009F0004032009B1A431043086002B07047000069
:100A000041F20001C4F20201086840F08070086001
:100A10007047000041F20400C4F20200006800F4D4
:100A20008030704741F20400C4F20200006800F414
:100A30007010704741F20400C4F202000068C0F375
:100A40004040704741F20000C4F202000068C0F369
:100A50004060704781B0009041F20401C4F202018D
:100A6000086820F0F000009A1043086001B0704759
:100A700081B0009041F20401C4F20201086820F440
:100A8000E060009A1043086001B0704781B00090A8
:100A900041F20401C4F20201086820F46050009A97
:100AA0001043086001B0704781B0009041F204012A
:100AB000C4F20201086820F00300009A10430860A5
:100AC00001B0704781B00090009840F20001C2F27E
:100AD0000001086001B0704781B00090009908697A
:100AE00020F4904008610099486920F02A0048618C
:100AF00001B0704782B00190FFE7FFE7019850E82E
:100B0000050F20F080000090FFE70099019A42E86D
:100B100005100028F2D1FFE7FFE702B070470000A0
:100B200081B000900099C86840F40050C86001B0DE
:100B30007047000082B00190FFE7FFE7019850E89E
:100B4000050F40F040000090FFE70099019A42E84D
:100B500005100028F2D1FFE7FFE702B07047000060
:100B600082B00190FFE7FFE7019850E8050F40F0E1
:100B700080000090FFE70099019A42E805100028E4
:100B8000F2D1FFE7FFE702B07047000082B00190AA
:100B9000FFE7FFE7019850E8030F40F010000090D6
:100BA000FFE70099019A42E803100028F2D1FFE71D
:100BB000FFE702B07047000080B588B0079006914B
:100BC00001208DF8170000200490079800F060F8CD
:100BD000002851D1FFE70798C06841F20C618843B3
:100BE000069A5168D368126919431143084307995B
:100BF000C86007980699896800F088F807980699F0
:100C0000496900F075F86846FFF7B8FE079843F6A3
:100C10000001C4F20101884203D1FFE70398049068
:100C200018E0079844F20041C4F20001884203D161
:100C3000FFE7029804900CE0079844F60001C4F224
:100C40000001884203D1FFE70298049000E0FFE72B
:100C5000FFE7FFE7049870B1FFE70698006850B11E
:100C6000FFE700208DF8170007980499069A12688C
:100C700000F016F8FFE7FFE79DF8170008B080BD09
:100C800081B0009000980068C0F3001001B0704778
:100C900081B000900098C068C0F3403001B0704748
:100CA00083B0029001910092019819214843009964
:100CB0008900B0FBF1F348F21F51C5F2EB11A3FB21
:100CC00001204209642002FB1033322000EB0310A4
:100CD000A0FB0101F02000EA511000EB0210C1F36B
:100CE0004311084480B20299886003B07047000045
:100CF00082B0019000910198406920F44070009901
:100D000008430199486102B07047000082B0019029
:100D100000910198006920F440500099084301991E
:100D2000086102B07047000080B584B00120FFF771
:100D3000BFFA00F073FB00220292114600F018F98E
:100D400001460E20019000F09BFB019800F02EFB65
:100D500000F064FB029A114600F00AF901460F20E8
:100D6000039000F08DFB039800F020FB04B080BDE1
:100D700080B52020FFF7D2FA0420FFF7CFFA80BD1C
:100D800080B596B0002005901590149013901290A5
:100D9000119010900F900E900D900C900B900A9067
:100DA0004FF48040FFF7CCFA04200990FFF7C8FA0F
:100DB00005980221C0F202410A9109210B910321F9
:100DC0000C910D9040F60000C4F2010002900AA9B7
:100DD0000191FFF7BFFC0199099A02980423C0F220
:100DE00004430A930B92FFF7B5FC09990020C4F263
:100DF000020008901022FFF7CBFB089809994FF4E6
:100E00008052FFF76FFB059A08980999FFF722FCBB
:100E1000059A08980999FFF749FC089809998022D2
:100E20000392FFF7E3FB059A08980999FFF758FC2E
:100E3000059A08980999FFF7F3FB059A0898052188
:100E40000791FFF7A5FB079908984FF40052FFF7A9
:100E500049FB079908982022FFF7FCFB059A0799A0
:100E60000898FFF723FC039A07990898FFF7BEFB41
:100E7000059A07990898FFF733FC059A079908988F
:100E8000FFF7CEFB00F0D2FA059A012100F0A6F898
:100E900001462520049000F015FB049800F09EFA0E
:100EA00005984FF4E1310F911090119012900C21A0
:100EB00013911490159043F60000C4F201000690BF
:100EC0000FA9FFF779FE0698FFF706FE0698FFF7D1
:100ED00027FE0698FFF72EFE0698FFF757FE0799A4
:100EE0000898FFF79FFA07990898FFF7ADFA089856
:100EF0000999FFF7A9FA16B080BD0000FFE7FEE7E9
:100F0000FFE7FEE788B0079006910592079800F08A
:100F1000070004900498C0F10700052803D3FFE7F9
:100F20000420019004E00498C0F107000190FFE75D
:100F30000198039004980430062803D8FFE70020A6
:100F4000009003E0049803380090FFE700980290B7
:100F500006980399012202FA01F101390840029B27
:100F6000984005999A40013A1140084308B07047EB
:100F700088B0079006910592079800F0070004904A
:100F80000498C0F10700052803D3FFE7042001906F
:100F900004E00498C0F107000190FFE70198039076
:100FA00004980430062803D8FFE70020009003E0EF
:100FB000049803380090FFE7009802900698039980
:100FC000012202FA01F101390840029B984005997B
:100FD0009A40013A1140084308B0704788B0079022
:100FE00006910592079800F0070004900498C0F15C
:100FF0000700052803D3FFE70420019004E00498CC
:10100000C0F107000190FFE70198039004980430B5
:10101000062803D8FFE70020009003E00498033877
:101020000090FFE70098029006980399012202FAC7
:1010300001F101390840029B984005999A40013A14
:101040001140084308B070477047000080B582B077
:10105000019001980090FFF769FC01460098C9B221
:101060000A0941F2F451C0F60001895CC84002B09F
:1010700080BD000080B582B0019001980090FFF71C
:101080005DFC014600980A0A41F20461C0F60001C5
:10109000895CC84002B080BD80B582B001900198E3
:1010A0000090FFF753FC01460098CA0A41F2046120
:1010B000C0F60001895CC84002B080BD80B582B036
:1010C00000200190FFF752FC0146009140B1FFE77C
:1010D000009804280AD0FFE7009808280CD00FE0F9
:1010E00041F20020C0F27A0001900FE041F20020AE
:1010F000C0F27A00019009E000F00CF8019005E0E0
:1011000041F20020C0F27A000190FFE7019802B09E
:1011100080BD000080B584B0002003900290FFF7EE
:1011200079FC02900298019028B1FFE70198B0F590
:10113000803F06D010E040F60010C0F23D00039062
:1011400010E0FFF777FC411C41F20020C0F27A006A
:10115000B0FBF1F0039005E040F60010C0F23D0056
:101160000390FFE703980090FFF75CFC02460098AD
:10117000022101EB9241484304B080BD704700005A
:1011800040F20801C2F200010868013008607047AF
:1011900080B582B00220FFF7C5FAFFE7FFF7BAFA81
:1011A000022801D0FFE7F9E7FFF704FCFFE7FFF7AC
:1011B0000BFC012801D0FFE7F9E74FF480304FF432
:1011C000E011FFF709FCFFF71BFCFFE7FFF73AFC14
:1011D000012801D0FFE7F9E700200190FFF73AFC72
:1011E0004FF48060FFF744FC0198FFF74FFC0220AA
:1011F000FFF75AFCFFE7FFF7B1FB082801D0FFE734
:10120000F9E74AF20020C0F24A400090FFF768FB7D
:101210000098FFF757FC02B080BD00007047000047
:1012200080B586B043F60000C4F20100FFF728FD48
:10123000002867D0FFE743F60000C4F20100006811
:10124000059043F60400C4F20100006805900020F8
:10125000C4F20200029005210391FFF7ADF8029855
:101260000399FFF703F9ADF812000020ADF8100064
:10127000BDF81200B0F5007F13D9FFE7BDF81200EA
:10128000C0F58060ADF81000BDF8102040F20F40AE
:10129000C2F2000040F20E01C2F20001FEF742FF6E
:1012A00014E0BDF81200C0F50070ADF81000BDF8F4
:1012B000102040F20E00C2F2000000F5007140F272
:1012C0000F40C2F20000FEF72DFFFFE7BDF810004F
:1012D00040F20C01C2F20001088040F20E41C2F25D
:1012E0000001012008700020C4F2020000900521D6
:1012F00001914FF48062FFF72DF900980199FFF7F3
:101300007FF8FFE706B080BD80B584B00390ADF8EC
:101310000A10FFE740F60F00C2F20000007808B1A3
:10132000FFE7F7E740F60F01C2F200010120087065
:101330000020C4F202000421FFF7C2F888B1FFE7E1
:101340000020C4F202000421FFF724F8FFE7002088
:10135000C4F202000421FFF7B3F808B1FFE7F6E793
:10136000FFE7039A0020C4F20200009004210191DB
:10137000FFF72AF90098019943F60402C4F201022A
:10138000FFF782F900980199BDF80A20FFF7C4F829
:1013900043F60000C4F20100FFF7E2FB0098019958
:1013A000FFF71CF804B080BDFFE7FEE781B08DF8C1
:1013B00003009DF9030000280ED4FFE79DF90310F8
:1013C00001F01F02012090404A094EF20011CEF2B6
:1013D000000141F82200FFE701B0704781B08DF8AD
:1013E00003009DF9030000280ED4FFE79DF90310C8
:1013F00001F01F02012090404A094EF20011CEF286
:10140000000141F82200FFE701B070474EF60C5092
:10141000CEF200000068C0F3022070474EF60C5078
:10142000CEF200000068C0F3022070474EF60C5068
:10143000CEF200000068C0F30220704782B08DF841
:10144000070000919DF9070000280AD4FFE70098E3
:1014500000019DF907104EF20042CEF200028854BE
:101460000BE0009800019DF8071001F00F014EF607
:101470001452CEF200028854FFE702B07047000019
:1014800082B08DF8070000919DF9070000280AD46A
:10149000FFE7009800019DF907104EF20042CEF2DE
:1014A000000288540BE0009800019DF8071001F03D
:1014B0000F014EF61452CEF200028854FFE702B03C
:1014C0007047000082B08DF8070000919DF9070079
:1014D00000280AD4FFE7009800019DF907104EF29A
:1014E0000042CEF2000288540BE0009800019DF803
:1014F000071001F00F014EF61452CEF2000288548C
:10150000FFE702B07047000083B00290029800F03D
:10151000070000904EF60C51CEF2000108680190D1
:1015200001984FF6FF02104001900198009A40EA9E
:1015300002200022C0F2FA52104301900198086084
:1015400003B0704780B582B0002000900190012068
:10155000FEF7D2FE4FF08050FEF7BCFE0320FFF7EF
:10156000D3FFFFF753FF009A0F21FFF7CBFC014693
:101570004FF0FF30FFF762FFFFF7E2F8FFF708FEDA
:101580004EF21001CEF20001086840F0020008603F
:10159000FFF7EEFBFFF7C8FBFFF7F2FBFEF710FECD
:1015A000FFE740F20E40C2F20000007890B1FFE782
:1015B00040F20C00C2F20000018840F20F40C2F27B
:1015C0000000FFF7A1FE40F20E41C2F20001002030
:1015D0000870FFE7E5E702E008C8121F08C1002A0B
:1015E000FAD170477047002001E001C1121F002AA4
:1015F000FBD170470000000000000000010203045E
:10160000060708090000000001020304081C30441A
:10161000586C80081C3044586C80081C3044586C4E
:1016200080000000481600080000002008000000AC
:10163000D61500085016000808000020080C00000D
:10164000E61500080000000000127A00000000000B
:04000005080000ED02
:00000001FF
