:020000040800F2
:10000000E0170020D1010008BD3B0008493300087B
:10001000B93B0008250E00088545000800000000D7
:100020000000000000000000000000006145000822
:10003000950F000800000000C13B0008654500085E
:10004000EB010008EB010008EB010008EB010008E0
:10005000EB010008EB010008EB010008EB010008D0
:10006000EB010008EB010008EB010008EB010008C0
:10007000EB010008EB010008EB010008EB010008B0
:10008000EB010008EB010008EB010008EB010008A0
:10009000EB010008EB010008EB010008EB01000890
:1000A000EB010008EB010008EB010008EB01000880
:1000B0006D450008EB01000879450008EB010008D8
:1000C000EB010008EB010008EB010008EB01000860
:1000D000EB010008EB010008EB010008EB01000850
:1000E000EB010008EB010008EB01000800F002F84A
:1000F00000F05FF814A696E8000CB244B344DA4569
:1001000001D100F056F8BAE80F000FA696E83000CB
:10011000A5EB040504EB0607AAEB0704A7F101070A
:100120004FEA15154FEA3414A4F10104AC4201D38F
:1001300000F03FF813F0010F18BFFB1A43F0010362
:1001400000F001F8DBE71847B48B0000D48B000007
:10015000103A24BF78C878C1FAD8520724BF30C8F3
:1001600030C144BF04680C60704700007047000055
:100170000023002400250026103A28BF78C1FBD8B0
:10018000520728BF30C148BF0B607047662908F08E
:100190006084002070471FB500F0C4FB04000020FD
:1001A000002107F0E5FCE06000F03CF91FBD10B550
:1001B00010BD00F0CDFC1146FFF7EDFF06F084FF07
:1001C00000F0EBFC03B4FFF7F2FF03BC00F0B6FC59
:1001D0000948804709480047FEE7FEE7FEE7FEE7DB
:1001E000FEE7FEE7FEE7FEE7FEE7FEE70448054917
:1001F000054A064B7047000069450008ED000008FD
:10020000E0110020E0170020E0130020E0130020A0
:100210000FB41CB5074B06AA7B44694600900598AD
:1002200000F035FB0020694600F044FB1CBC5DF883
:1002300014FB0000990600002DE9F0474FF0000A7A
:1002400089460446C0F820A02046E1688847002877
:1002500076D0252806D0D4E901219047206A401C99
:100260002062F1E7E168204600258847C4F81CA019
:1002700006460027C4F818A02A2E09D0304607F0F9
:1002800039FC38B304EB8708303EC8F8186019E031
:1002900059F8041B204604EB87029161E168884706
:1002A000012F064618D1E069002820DA25F0200544
:1002B0001DE0D8F8180000EB800006EB4000303855
:1002C000C8F818002046E1688847064607F012FC87
:1002D0000028EED1012F0AD02E2E08D12046E16849
:1002E00088477F1C0646022F45F02005C4DBA06925
:1002F000002803DA404245F00105A061E80701D07B
:1003000025F01005B6B1A6F14100192802D8203613
:1003100045F400654A463146204625604D46FFF7C4
:1003200035FF58B1012806D0ED1D25F0070000F17A
:10033000080989E704E005F1040985E730468AE702
:10034000206ABDE8F087032A40F2308010F0030CE9
:1003500000F0158011F8013BBCF1020F624498BF18
:1003600011F801CB00F8013B38BF11F8013BA2F1B5
:10037000040298BF00F801CB38BF00F8013B11F030
:10038000030300F09C82083AC0F0088051F8043B57
:10039000083A51F804CBA0E80810F5E7121D5CBF3D
:1003A00051F8043B40F8043BAFF30080D20724BF70
:1003B00011F8013B11F801CB48BF11F8012B24BF04
:1003C00000F8013B00F801CB48BF00F8012B704753
:1003D0004FF0000200B5134694469646203922BFDE
:1003E000A0E80C50A0E80C50B1F12001BFF4F7AF29
:1003F000090728BFA0E80C5048BF0CC05DF804EB0B
:10040000890028BF40F8042B08BF704748BF20F878
:10041000022B11F0804F18BF00F8012B7047704776
:100420007047704708487CB5784400900748784486
:10043000009C0546019004E020460168084480477E
:10044000241DAC42F8D17CBD0C8900000A89000053
:1004500010B500F06BFA006810BD10B5044600F04E
:1004600065FA046010BD2DE9FF4F0C461E464FF0A3
:10047000FF378BB0D2E90001DDF860800A908A4630
:10048000C1F30A5505B93D46002108464FF000006A
:10049000BAF1000F00F4400005DA00EB80004FF4E1
:1004A000400101EA50004FEA9059B9F1010F00DD17
:1004B000B9460A9850EA4A000ED044F61050A5F208
:1004C000FF3545432F14B8F1000F1ED07542291E89
:1004D0001EDDC9F100021CE0B8F1010F4FF0000071
:1004E00001D0302103E0F24305E02154401CB0422A
:1004F000FBDB30460022002121540B99C1F8088013
:10050000C1E900200FB0BDE8F08FBD1B6D1CDEE718
:100510004A4600DA694206A800F092FA06AB93E870
:10052000070003AB83E8070050460A9906F002FF74
:100530008DE80700A0F500501F3800900398002DAB
:100540000ADD42F21F014A460844002303A9039032
:10055000684607F06BF909E0A0F500504A461F38DD
:10056000002303A90390684607F075F98DE807009A
:100570000004000C03D04FF0FF30410800E01046AB
:10058000B8F1000F03D00022009215461EE0751E40
:1005900005D400F0CFF9303262556D1EF9D5B3465F
:1005A0000122084302D000227F1C04E0207830287A
:1005B00001D100227F1E002A099784D01DE0112D51
:1005C00007DA00F0B7F9303262556D1C50EA0102CB
:1005D000F5D1084302D00098C8B10EE00021681E92
:1005E00005E0235C625C63542254401E491C814236
:1005F000F7DBAB46A81B401E0990002004F80B0057
:100600000B98099AC0F80880C0E9002B7AE71126F8
:100610004FF0000857E72DE9F04F88460446D21DF9
:1006200022F0070191B0D1E90001CDE90A0107F0FC
:1006300049FA02460B98C00F01D02D2007E0206830
:10064000810701D52B2002E0202101EAC000032A06
:10065000099001D0072A05DB03464146204600F0F9
:10066000AFF90BE12078800601D5E06900E00620B3
:10067000B8F1650F814606D0B8F1660F18D0B8F111
:10068000670F70D131E00020B9F1110F009001DB4C
:10069000112301E009F101030AAA01A90CA8FFF73F
:1006A000E2FEDDE90C70002609F10105834647E012
:1006B00001204B4600904FF000470AAA01A90CA860
:1006C000FFF7D1FEDDE90DB00C995D46002610B9AB
:1006D00009F101000D18B9EB050003D4C0F1FF3694
:1006E00009F10105A5EB09002BE0B9F1010F01DAD1
:1006F0004FF001090020B9F1110F0090484601DDCB
:10070000112300E003460AAA01A90CA8FFF7ABFEDB
:10071000DDE90C704D4600268346207800070AD498
:10072000AB4500DA5D4601A8012D04DD411911F841
:10073000011C302907D04F4502DA17F1040F04DA03
:10074000012082460FE06D1EEEE7002F02DCED1B5C
:100750003E4403E0781CA84200DD7D1CB81B00F17C
:10076000010A4FF000472078000703D4AA4501DBB7
:100770004FF0FF3A0021B7F1004F0DF143088DF81B
:10078000431024D002202B23002F01DA7F422D2397
:100790000A21021EA0F1010000DC5FB197FBF1FC11
:1007A00097FBF1F201FB1C7C17460CF1300C08F8AA
:1007B00001CDEEE7A8F1010003702188090501D5FC
:1007C000452100E06521A0F1010800F8011C09980D
:1007D0000FA9A1EB0807FF1D00B10120411901EB92
:1007E000EA70A1693844081A401EA0612078C0064A
:1007F00002D42046AFF30080099828B1D4E9012142
:100800009047206A401C20622078C00622D52046EE
:10081000AFF300801EE0002E04DBB34502DD01A82B
:10082000805D00E03020D4E901219047206A401C1F
:100830002062761CAAF101005FEA000A0AD100F0EA
:1008400071F8C0680168405CD4E901219047206AD2
:10085000401C2062281EA5F10105DCDC07E0D4E97C
:10086000012118F8010B9047206A401C2062381EB5
:10087000A7F10107F3DC2046AFF30080032011B09D
:1008800041E6000001694A1C02610878704700B522
:100890008FB0CDE901310021059105497944CDE9B9
:1008A000031011466846FFF7C7FC0FB000BD0000FB
:1008B000E5FFFFFF0A6802F8010B0A60704710B5F8
:1008C000203AC0F00B80B1E81850A0E81850B1E809
:1008D0001850A0E81850203ABFF4F5AF5FEA027C48
:1008E00024BFB1E81850A0E8185044BF18C918C078
:1008F000BDE810405FEA827C24BF51F8043B40F819
:10090000043B08BF7047D20728BF31F8023B48BFFD
:1009100011F8012B28BF20F8023B48BF00F8012B3B
:1009200070470000004870471801002000487047D9
:10093000F800002030B5B0F10A0271F100034FEA6F
:10094000900E4EEA817EB0EB0E0061EB91014FEA12
:10095000101E4EEA017E10EB0E0041EB11114FEA22
:10096000102E4EEA016E10EB0E0041EB11214FEA02
:10097000104E4EEA014E10EB0E0041EB11414018B3
:1009800041F100014FEAD00040EA41704FEAD10145
:100990004FEA810444EA907410EB800544EB0104B3
:1009A0006D1944EB0404521BA3414FF0000348BFF0
:1009B0000A3200D530BD401C41F1000130BD0000BD
:1009C0002DE9F0411F46044603260168072A01F479
:1009D000006004DB08B116A505E016A503E008B128
:1009E00015A500E015A521F010002060A069C01E2B
:1009F000A0610FB1401EA0612046AFF300804FB14F
:100A0000D4E9012138469047206A401C2062C01C6E
:100A1000206206E0206AFAE7D4E9012115F8010B0B
:100A20009047761EF8D22046AFF30080BDE8F081F3
:100A30004E414E006E616E00494E4600696E660082
:100A40002DE9F047814616468AB0354878440DC8EE
:100A50008DE80D0032487844801C03AC0DC884E852
:100A60000D0041F69B300844372190FBF1F290FBDA
:100A7000F1F5A5F1800501FB12041B3C02D564428F
:100A8000012000E00020DFF898A080460027FA440B
:100A9000AAF1BE0A0EE0E0070AD03246684607EB2C
:100AA000470101230AEB810106F0D5FE8DE807001E
:100AB00064107F1C002CEED1194F7F44AE3F19E02B
:100AC000E80715D007EB04100DF1180A90E80E00A6
:100AD0008AE80E00C068F04201D1981908903246A9
:100AE000012306A903A806F0B6FE03AB83E80700BE
:100AF0006D10641C002DE3D14FF0010332466946AE
:100B0000B8F1000F03A802D006F090FE01E006F055
:100B1000A2FEC9E90001C9F808200AB0BDE8F087C3
:100B20008480000010B5002000F040F8FFF73FFB84
:100B3000BDE81040012000F001B800000149182074
:100B4000ABBEFEE72600020000487047F800002018
:100B50007546FFF7F9FFAE4605006946534620F09B
:100B60000700854618B020B5FFF740FBBDE82040E0
:100B70004FF000064FF000074FF000084FF0000B59
:100B8000AC46ACE8C009ACE8C009ACE8C009ACE8C8
:100B9000C00921F007018D46704710B50446AFF338
:100BA00000802046BDE81040FFF70CBB10B500F0F8
:100BB0004BF8BDE8104000F042B800004FF0013C97
:100BC00050F8042B51F8043B9A4221D1A2EB0C03BC
:100BD000934313EACC1317D150F8042B51F8043B7C
:100BE0009A4215D1A2EB0C03934313EACC130BD119
:100BF00050F8042B51F8043B9A4209D1A2EB0C03A4
:100C0000934313EACC13DBD04FF00000704700BFD2
:100C1000D01A01BAB1FA81F101F0180122FA01F0FB
:100C2000CB40DBB2C0B2C01AC1F120012CFA01F3F3
:100C3000D11A914311EAC311E6D1704770470028D9
:100C400001D0FFF77BBF704710B5002102A000F074
:100C500013F8012010BD0000534947414252543A55
:100C60002041626E6F726D616C207465726D696E89
:100C70006174696F6E00000070B505460C460A206D
:100C800000E06D1C00F011F835B128780028F8D18B
:100C900002E0641C00F009F814B120780028F8D1B3
:100CA000BDE870400A20AFF3008008B569468DF8B2
:100CB00000000320ABBE08BDB0B5044600688168E3
:100CC000C90709D0816821F00101816000F098FE18
:100CD00021688968C90701D10020B0BD054602E03E
:100CE0008068C007F8D000F08BFE411B2068032904
:100CF000F6D38168C907F3D0A06A40F01000A06263
:100D0000E06A40F00100E0620120B0BDB0B582B001
:100D100004460020019021688A68D2074BD1886878
:100D200040F00100886040F21800C2F20000006844
:100D30004DF68361C4F21B31A0FB0101880C0190C8
:100D40000198A0B1019801380190019878B10198FB
:100D500001380190019850B1019801380190019833
:100D600028B101980138019001980028EAD100F0DB
:100D700047FE21688968C9071CD1054603E000BF0A
:100D80008068C00716D100F03BFE411B2068032994
:100D9000F6D38168C907F3D1A06A40F01000A062C1
:100DA000E06A40F00100E062002084F824000120A5
:100DB00002B0B0BD002002B0B0BD000070B540F27E
:100DC0005816C2F2000606F10804204600F048FC5E
:100DD000054608B1284670BD20460A2100F00CFBEC
:100DE00030B10546204600F0A1FC284670BD00BF8A
:100DF000204600F01BFA3060204600F031FC05462A
:100E00000028E7D120460A2100F0F6FA0028E8D1B0
:100E1000204600F00BFA014620467160BDE87040A4
:100E200000F084BCFEE7000070B540F22026C2F25C
:100E30000006B16841F204050446CEF20005E9B9A6
:100E40004EF6FC50CEF20000016841F08071016066
:100E50000020286055F8040C40F0010045F8040C0F
:100E600001F050FB306030684DF68361C4F21B31F5
:100E7000A0FB0101880C70600120B06070682A68D6
:100E8000604300210AE000BFD6431944934288BF63
:100E90005642314481421A4628BF70BD2B689342A6
:100EA000F2D12B689342EFD12B689342ECD12B689F
:100EB0009342F3D0E8E7000070B541F2000040F241
:100EC0002024CEF20000C2F2000446686568A168E2
:100ED00021B1E068B04220D1606970BD4EF6FC518E
:100EE000CEF200010A6842F080720A60002141607F
:100EF000016841F00101016001F004FB20602068FD
:100F00004DF68361C4F21B31A0FB0101880C6060C7
:100F10000120A060E068B042DED0C143864288BFB5
:100F200041422069314408448542C4E90360D3D872
:100F3000B0FBF5F1626901FB15000A4462612061B2
:100F4000606970BD80B54EF6FC50CEF200000168BD
:100F500041F08071016041F20000CEF200000021FA
:100F60004160016841F00101016001F0CBFA40F2FB
:100F70002021C2F20001086008684DF68362C4F2C5
:100F80001B32A0FB0202900C4860012200208A6004
:100F900080BD000070470000EFF3108072B600BF04
:100FA000FEE7000070B582B004460020019094F87E
:100FB0002400012804D10225284602B070BD00BFDC
:100FC000012084F824002046FFF776FE2046FFF734
:100FD0009DFE0546002867D1A06A41F202118843B0
:100FE0000230A06240F21800C2F20000066802203F
:100FF00001F080F8B6FBF0F0400001900198A0B13C
:10100000019801380190019878B101980138019058
:10101000019850B1019801380190019828B10198C8
:101020000138019001980028EAD12068816841F0D8
:101030000801816000F0E4FC21688A6812070DD481
:10104000886840F00400886000F0DAFC2168896854
:10105000490713D401206FF0030121E0064602E0A6
:1010600088680007ECD500F0CBFC801B21680B28BA
:10107000F6D388680007F3D50EE000BF064602E00D
:1010800080684007E6D500F0BBFC811B20680B2977
:10109000F6D381684907F3D5012510206FF01201BE
:1010A000A26A11400843A062002084F82400284668
:1010B00002B070BD10B581B00022009290F82420DB
:1010C000012A03D10221084601B010BD4B6801225C
:1010D000062B80F8242033D8D0F800C003EB83031C
:1010E0005A1F1F23DCF834E003FA02F40B682EEADF
:1010F000040403FA02F22243CCF83420092B03EB58
:10110000430249D9DCF80CE01E3A07248968944070
:101110002EEA0404914023F001022143102ACCF866
:101120000C1043D142F20841C4F20101A1F10802BE
:10113000944543D0816A41F020018162012136E06B
:10114000D0F800C00C2B03EB830213D8233A1F23E3
:10115000DCF830E003FA02F40B682EEA040403FA28
:1011600002F22243CCF83020092B03EB4302C9D80A
:1011700012E000BF413A1F23DCF82CE003FA02F42E
:101180000B682EEA040403FA02F22243CCF82C2066
:10119000092B03EB4302B5D8DCF81030072489682B
:1011A0009440A34391401943CCF810100021002231
:1011B00080F82420084601B010BD00BF0A68120262
:1011C000F4D40A68102B42F400020A60EED140F217
:1011D0001801C2F2000109684DF68362C4F21B32A5
:1011E000A1FB0212910C01EB8101490000910099D1
:1011F0000029DBD000990139009100990029D5D050
:1012000000990139009100990029CFD00099013946
:10121000009100990029C9D00099013900910099E5
:1012200000294FF00001E5D1C1E700000068C06C63
:1012300070470000002804BF01207047B0B5044685
:10124000806A28B121688868C0070CD115E000BF0A
:101250000020E06284F82400204600F09BF821681A
:101260008868C00709D0886820F00100886000F015
:10127000C7FB21688A68D20726D1A06AC0063AD483
:10128000A06A41F2021290430230A062E069D4E900
:10129000013240EA030C531EB3FA83F35D0913468F
:1012A000B2F5807F18BF2B02207D257B01284CEAF8
:1012B000450030D135B3A56A45F02005A562E56A41
:1012C00045F00105E56226E0054602E08868C007B2
:1012D000D3D000F095FB401B21680328F6D3886823
:1012E000C007F3D0A06A40F01000A062E06A40F0AE
:1012F0000100E062A06AA06A40F01000A062012034
:10130000B0BD00BFD4F818C04EF60005CFF6FF758B
:1013100005EB4C352B434D68B2F5807F25F46945CC
:1013200043EA05034B608B684FF2FD75CFF6E1751C
:1013300003EA050343EA00038B6001D0012A07D1C9
:1013400022690023CFF6F07303EB025201E000BFE5
:101350000022CB6A23F470031A43CA62896840F6FC
:10136000FE62CFF61F721140814207D10020E06279
:10137000A16A012262F30101A162B0BDA06A40F03E
:10138000100020F00200A062E06A40F00100E0627C
:101390000120B0BD80B586B0014640F60000C4F221
:1013A0000100096800F5E05291424FF00001CDE9DB
:1013B000041101D006B080BD41F21801C4F202014F
:1013C0000A6842F400720A600A6802F4007201922C
:1013D000019A0A6842F004020A60096801F00401F7
:1013E00001910199182102910321039102A900F0B2
:1013F000F1F906B080BD0000F0B581B000270D46C0
:101400000446009700F0FCFA21688A68D20543D4AC
:1014100006464868C00503D4C86A10F4700F45D06A
:1014200040F21800C2F200000768022000F062FEDD
:10143000216844F624130A69B7FBF0F0C2F2924324
:101440001A4206D1CA6844F62413C0F292031A4223
:101450005ED00A6942F29243C1F249231A4207D18F
:10146000CA6842F29243C0F249031A4200F0C080B7
:101470000A6949F24923C0F224031A424FF0FC02E0
:1014800057D1CF681F4208BF5422009B02FB00F7D0
:10149000BB4253D3C3E000BFA06A40F02000A0626B
:1014A00084F82470012001B0F0BD00BF08688007F7
:1014B00000F1B580681C00F0A880FDB908688007BD
:1014C00072D50868800700F1AA80086880076BD58C
:1014D0000868800700F1A3800868800764D5086861
:1014E000800700F19C80086880075DD50868800748
:1014F000E4D594E00868800700F1918000F080FA5C
:10150000801B2168A842F5D908688007F2D44BE017
:101510000A6942F29243C1F249231A424FF029026A
:1015200007D1CB6842F29247C0F249073B4208BF5D
:101530001422009B02FB00F7BB4270D2681C4FD004
:1015400055BB0098B8422FD3009801300090009806
:10155000B84264D20098B84226D300980130009077
:101560000098B8425BD20098B8421DD30098013071
:1015700000900098B84252D20098B84214D3009814
:10158000013000900098B842DBD348E00098013069
:1015900000900098B84233D200F032FA801BA84283
:1015A000F4D90098B842F1D2A06A40F00400A062D9
:1015B000002084F82400032001B0F0BD0098013021
:1015C00000900098B8422AD200980130009000980C
:1015D000B84224D20098013000900098B8421ED240
:1015E0000098013000900098B842E7D317E000BFA0
:1015F0005422009B02FB00F7BB429FD30FE000BFC9
:1016000021680CE00868800709D40868800706D4C0
:10161000086880075CBF08685FEA8070F2D56FF0E9
:1016200012000860A06A40F40070A062886800F4AC
:101630006020B0F5602F01D1207B18B1002001B0EF
:10164000F0BD00BFA06A20F48070A062A06AC00450
:10165000F4D4A06A40F00100A062002001B0F0BD07
:1016600010B5044690F82400012804BF022010BDE4
:10167000012084F824002046FFF748FB20B1002019
:1016800084F82400012010BD42F2044C2068A16AB5
:10169000C4F2010C40F2013291430CF57F7201F566
:1016A00080719042A16233D0A16A21F48011A162BD
:1016B0004168490504D5A16A012363F30D31A16294
:1016C000A16A0023C9044FF0000144BFE16A21F080
:1016D0000601E1626FF0020184F824300160816844
:1016E00001F46021B1F5602F06D190420AD1DCF8F7
:1016F000001011F4702F05D0816841F480118160D1
:10170000002010BD816841F4A0018160002010BD5F
:10171000DCF8001011F4702FC6D0A16A41F48011DA
:10172000A162DCF800104905C5D4C9E7B0B504468C
:1017300090F82400012804BF0220B0BD01212068D8
:1017400084F824108168C90709D0816821F001015B
:10175000816000F055F921688968C9070ED12146DA
:1017600051F8280F41F2011220EA0202002042F053
:1017700001020A60002184F82410B0BD054602E091
:101780008068C007EBD000F03BF9411B20680329BB
:10179000F6D38168C907F3D0A06A214640F0100053
:1017A000A06251F82C2F0120E1E70000B0B50446FB
:1017B00000F026F9054640F20000C2F20000007871
:1017C000611C18BF044400BF00F01AF9401BA0427E
:1017D000FAD3B0BD2DE9F04F82B00E68002E00F0B4
:1017E000FD8041F20042C4F20102042340F2004EA7
:1017F000904208BF03234FF6FF7CC4F2010E009312
:1018000000240123C1F2100C4FF0000A4FF0000930
:1018100044E000BF012704F00C030F229A402BEA9A
:10182000020207FA03F34FEA9A051A4346F8252005
:101830004E6840F20C45F202DEF8082054BF22EA5E
:10184000080242EA0802C4F20105CEF808202A681C
:10185000B30254BF22EA080242EA08022A60B30334
:10186000DEF8042054BF22EA080242EA0802F30329
:10187000CEF80420DEF800204FF0010354BF22EA26
:10188000080242EA0802CEF800200E680AF1010AB6
:1018900036FA0AF204F1040400F0A08003FA0AFB0D
:1018A00016EA0B08F1D04E68664511DC122E55D8A9
:1018B000DFE806F0340A4448545454545454545401
:1018C00054545454544C5000D1F80C9046E000BF8E
:1018D0004FF6FF72C1F2210296420FDC0022C1F2E4
:1018E000110296421AD00022C1F21202964215D07D
:1018F0000022C1F22102964210D02FE00022C1F254
:10190000220296420AD00022C1F23102964205D04C
:101910000022C1F23202964220D100BF8A684AB149
:10192000012A14BFC0F814B0C0F810B04FF0080975
:1019300014E000BF4FF0040910E000BFCA6802F1D4
:1019400008090BE04FF0000908E000BFCA6802F187
:10195000040903E0CA6802F10C0900BF22460646EA
:10196000B8F5807F24BF203A043637680F259540AC
:1019700027EA050509FA02F22A433260CA79D2063B
:101980007FF583AF41F21803C4F202031A68AEF583
:101990007E7642F001021A601A6802F0010201929A
:1019A000019A2AF0030256F802B040F60002C4F28F
:1019B0000102904210D040F60042C4F2010290426F
:1019C0003FF428AF41F20002C4F20102009F9042AE
:1019D00008BF02271FE700BF00271CE702B0BDE8D1
:1019E000F08F0000C26802EA0103914341EA03411B
:1019F00001617047002A08BF0904016170470000B7
:101A000041F2DC10C2F2000000687047002804BFF9
:101A100001207047F0B581B0044690F83D0028B928
:101A2000002084F83C00204600F050FA242084F87E
:101A30003D002068016821F001010160016841F466
:101A400000410160016821F40041016000F032FDB5
:101A5000636848F2A16CC0F2010C40F60011C0F2BC
:101A60003D0163453CBF48F28041C0F21E018842FF
:101A700002D2012001B0F0BD4DF68361C4F21B31EA
:101A8000A0FB01122168970CD1F804E04FF4967680
:101A90002EF03F0545EA92454D60774348F63816EB
:101AA0000D6AC0F24106A7FB067625F03F076345A5
:101AB00038BF960C721C3A430A62CA6948F2A066A3
:101AC0004CF6FF77C0F20106B34222EA07020BD8B8
:101AD00001385B00B0FBF3F001306FF31F300428D6
:101AE00098BF04201BE000BFA768013857B1192731
:101AF0007B43B0FBF3F001306FF31F3070B100F5A2
:101B0000804007E003EB4303B0FBF3F001306FF3D9
:101B10001F3018B100F5004001E000BF0120104364
:101B2000C8610868D4E9072320F0C00010431843B7
:101B30000860886848F2FF3204F10C0790438CCFAC
:101B400018431043A6698860C86820F0FF00384336
:101B50003043C860086840F0010008600020202180
:101B6000206484F83D10206384F83E0001B0F0BD8D
:101B70002DE9F04F85B004460020994616460F46E1
:101B80000490FFF73DFF94F83D10202927D105462A
:101B9000206800BF816989071CD5FFF731FF411B11
:101BA00020681A29F6D381698907F3D500202021FE
:101BB000206384F83D1084F83E00206C04F13C0A58
:101BC00040F020002064022000218AF8001005B0B7
:101BD000BDE8F08FA2461AF83C1F012904D102206B
:101BE00005B0BDE8F08F00BF01228AF8002003682D
:101BF000DDE90F180E9ADB0703D1036843F00103F8
:101C00000360036823F400630360222084F83D002E
:101C1000402084F83E000020206462626185608D6F
:101C2000394620850020CFF6FF70E062204632461C
:101C30004B46CDE9008501F089FB18B1012005B0C4
:101C4000BDE8F08F208D022810D0012824D0002874
:101C500038D1002003902068416903918169039184
:101C60000399016841F40071016037E02068016860
:101C700041F400610160EFF3108072B60020039020
:101C8000206841690391816903910399016821F4F6
:101C90008061016062B621E02068016821F4806102
:101CA0000160EFF3108072B6002003902068416954
:101CB0000391816903910399016841F40071016006
:101CC00062B60BE02068016841F480610160002188
:101CD000039141690391806903900398208D002846
:101CE00000F0D480042740F218094BF2895BC0F25F
:101CF0000107C2F20009C1F2F84B232617E000BF2A
:101D0000204641462A4601F0FDFC002896D1206875
:101D1000616A00690870606A218D01306062481E46
:101D20002085618D01396185010400F0AF8080B2AA
:101D3000032867D8022800F089800128E0D02046D7
:101D4000394600224346009501F08AFB00287FF4C3
:101D500075AF2068016821F480610160EFF31080A5
:101D600072B62068616A00690870606A218D01306E
:101D7000013960622185618D01396185D9F80010D2
:101D8000C908A1FB0B12110A71430491049901398E
:101D900004910499002900F0858021684A6952075E
:101DA0001ED40499013904910499002900F07A8025
:101DB00021684A69520713D404990139049104999E
:101DC00000296FD021684A69520709D40499013962
:101DD00004910499002965D021684A695207D5D534
:101DE0000A6842F400720A6009690170606A218D14
:101DF00001306062481E2085608D0138608562B6C2
:101E000085E700BF204641462A4601F07BFC0028BA
:101E10007FF414AF2068616A00690870606A226804
:101E2000411C208D616201382085638D013B6385F3
:101E300053695B077FF578AF80B2032803D1106840
:101E400020F480601060106964E700BF20463946C6
:101E500000224346009501F003FB00287FF4EEAE1C
:101E6000EFF3108072B62068616A026842F4007273
:101E7000026000690870606A218D01306062481E4E
:101E80002085608D0138608562B640E7202084F8A7
:101E90003D00002084F83E0000218AF8001005B0C3
:101EA000BDE8F08F00202021206384F83D1084F8E5
:101EB0003E00206C40F02000206462B6012000212A
:101EC0008AF8001005B0BDE8F08F000010B586B0AC
:101ED000006845F60001C4F2000188424FF000019D
:101EE000CDE90411CDE9021128D045F20041C4F238
:101EF0000001884246D141F21804C4F2020420686D
:101F000002A940F008002060206800F0080001905D
:101F10000198C0200290122003900320059040F603
:101F20000040C4F20100FFF755FC606840F4001067
:101F30006060606800F4001022E000BF41F2180405
:101F4000C4F20204206802A940F008002060206862
:101F500000F00800019001984FF4406002901220B8
:101F600003900320059040F60040C4F20100FFF703
:101F700031FC606840F480006060606800F48000BC
:101F80000190019806B010BD40F2000041F2DC1152
:101F9000C2F20000C2F2000100780A681044086032
:101FA0007047000080B542F20000C4F202000168F0
:101FB00041F010010160032000F08CF80F2000F0C8
:101FC00005F800F027F8002080BD000070B540F251
:101FD0000006C2F2000640F218013278C2F2000197
:101FE0004FF47A730968B3FBF2F20446B1FBF2F1E5
:101FF000084600F0B3FC0F2C4FF0010508D838B9A3
:102000004FF0FF3021460022002500F037F87460C1
:10201000284670BD82B041F21800C4F20200016887
:10202000022241F001010160016801F0010101910A
:102030000199416841F080514160406800F0805052
:10204000009000980420C4F20100016862F31A6154
:10205000016002B070470000002848BF704700F0E0
:102060001F01012202FA01F11C2202EAD0004EF205
:102070000012CEF2000281507047000010B54EF6FB
:102080000C5CCEF2000CDCF80030C3F3022E8EF0B4
:102090000704042C28BF0424BEF103034FF0FF3EC5
:1020A0000EFA04F438BF0023A14399400EFA03F35B
:1020B0009A43114300F00F0200F160430901043A12
:1020C00003F564436244002848BF02F10C03197011
:1020D00010BD00004EF60C51CEF200010A684FF61A
:1020E000FF031A4060F30A2242F0806040F0FD7066
:1020F0000860704701280FD002282DD0102808D181
:1021000041F20401C4F202010A6851F8040CC00152
:1021100034D40020704700BF41F20400C4F2020032
:10212000C16940F202320A40B2F5817F04BF4FF428
:102130000040704701F44071B1F5407F2AD0B1F5FD
:10214000007F1CBF00207047006A49F640418007AD
:1021500001EAE070704700BF80B500F0BFF941F2BE
:102160000401C4F2020109680222C1F3813102EBC9
:102170004101B0FBF1F0BDE880407047C2F38340FD
:1021800015A3185CD2030DD440F60012C0F23D0234
:10219000504313E050F8040C4FF22441800301EA4D
:1021A000E07070470A6810A3C2F340429A5C41F2A3
:1021B0000023C0F27A03B3FBF2F2504309684902EC
:1021C00048BF70474AF6AB214000CAF6AA21A0FBDF
:1021D00001014808704700BF02030405060708090B
:1021E0000A0B0C0D0E0F1010010200002DE9F0413A
:1021F00082B00446007841F21C06C007C4F2020611
:102200004AD030685FEAC00808D4306840F0805097
:102210003060306800F080500190019847F200076C
:10222000C4F200073868C00512D4386840F48070E2
:102230003860FFF7E5FB05463868C00508D4FFF7AE
:10224000DFFB401B6428F7D9032002B0BDE8F08112
:10225000706810F4407012D0616801F440718842D7
:102260000DD0706840F24042C4F24222012320F4B3
:10227000407113600023C0071360716026D170683D
:10228000616820F440700843B8F1000F706003D417
:10229000306820F0805030602068810707D556F8FC
:1022A000181CA26821F44041114346F8181CC006CE
:1022B00007D556F8180CE16820F48000084346F86A
:1022C000180C002002B0BDE8F08100BFFFF798FBBA
:1022D000054641F2883700BF70688007CFD4FFF70A
:1022E0008FFB401BB8424FF00300F5D9EAE700002E
:1022F000002804BF012070472DE9F04381B042F26D
:102300000008C4F202080446D8F800000D4600F0A8
:10231000070088420CD2D8F8000020F007002843BC
:10232000C8F80000D8F8000000F00700A8426CD1FF
:10233000206841F204098107C4F2020917D5410758
:1023400005D5D9F8001041F4E061C9F80010010783
:1023500005D5D9F8001041F46051C9F80010D9F83A
:102360000010A26821F0F0011143C9F80010C00765
:1023700042D1D8F8000000F00700A8420CD9D8F8E4
:10238000000020F007002843C8F80000D8F800003B
:1023900000F00700A84238D12068410707D5D9F8D6
:1023A0000010E26821F4E0611143C9F80010000751
:1023B00008D5D9F80000216920F4605040EAC10036
:1023C000C9F80000D9F8002002F00C00082841F2FA
:1023D0000020C0F27A0051D148F63643C2F383415F
:1023E000C0F60003595CD2033CD440F60010C0F2A2
:1023F0003D00484342E000BF606802280AD001283F
:102400002AD159F8041C890308D4012001B0BDE881
:10241000F08300BF59F8041C8901F6D5D9F80010E3
:1024200021F003010843C9F80000FFF7E9FA064666
:1024300041F28837D9F80000616800F00C00B0EB79
:10244000810F96D0FFF7DCFA801BB842F2D9032047
:1024500001B0BDE8F08300BF59F8041C8907D4D54A
:10246000DCE700BFD9F8002048F60433C2F340424D
:10247000C0F600039A5C4843B0FBF2F0D9F80010B4
:1024800048F6EC22C1F30311C0F60002515C40F2A1
:10249000180220FA01F140F20400C2F200000068C4
:1024A000C2F200021160FFF791FD002001B0BDE80B
:1024B000F083000040F2180041F20401C2F2000073
:1024C000C4F202010068096848F6FC22C1F3022147
:1024D000C0F60002515CC8407047000040F218008E
:1024E00041F20401C2F20000C4F20201006809686E
:1024F00048F6FC22C1F3C221C0F60002515CC8407C
:102500007047000041F2040CC4F2020CDCF8003009
:1025100003F00C00082841F20020C0F27A0018BF36
:10252000704748F63641C3F38342C0F600018A5C27
:10253000D90305D440F60010C0F23D005043704767
:10254000DCF8001048F60433C1F34041C0F6000344
:10255000595C5043B0FBF1F070470000002804BF05
:10256000012070472DE9F04182B00446007841F225
:102570000006C007C4F202060CD0706800F00C0020
:10258000042840F081803068800303D5606800280B
:1025900000F04E81207880071BD5706810F00C0F7A
:1025A00009D0706800F00C00082840F08B8070683B
:1025B000C00300F187803068800703D520690128B7
:1025C00040F036813068616920F0F80040EAC100CF
:1025D00030602078000713D4207840072CD4E569B8
:1025E000002D00F02081706800F00C00082840F0F9
:1025F000AF80012D40F00C81012002B0BDE8F081D8
:10260000A069002800F08C800020C4F24220012143
:10261000C0F88014FFF7F4F9054600BF706A800720
:1026200000F1BA80FFF7ECF9401B0228F6D903202D
:1026300002B0BDE8F08100BFF0695FEAC00808D4CD
:10264000F06940F08050F061F06900F08050009037
:10265000009847F20007C4F200073868C0054DD45F
:10266000386840F480703860FFF7CAF9054600BF4B
:102670003868C00542D4FFF7C3F9401B6428F7D976
:10268000032002B0BDE8F081706800F00C0008285B
:1026900003D17068C0033FF576AF6068002800F092
:1026A0000981B0F5A02F00F01D81B0F5803F00F04A
:1026B0001D81306820F480303060306820F4802044
:1026C00017E100BF2069002840F20000C4F2422058
:1026D00000F08C8001210160FFF792F9054600BFF0
:1026E000306880073FF56EAFFFF78AF9401B02287C
:1026F000F6D9032002B0BDE8F08100BFE0680028F1
:1027000000F09A80052800F0B180012800F0B28026
:10271000306A20F001003062306A20F00400ACE042
:102720000020C4F242200021C0F88014FFF768F9AD
:10273000054600BF706A80077FF54EAFFFF760F96E
:10274000401B0228F6D9032002B0BDE8F08100BF8B
:102750000027C4F2422700203866FFF751F9022D06
:1027600005460DD13068800140F1D680FFF748F969
:10277000401B02284FF00300F4D902B0BDE8F081FD
:10278000306880014FD5FFF73BF9401B02284FF01E
:102790000300F5D9F1E700BF40F21800C2F20000D3
:1027A000006844F6D351C1F26201A0FB0101480A5E
:1027B000019000BF00BF0198411E002801913FF425
:1027C0000BAF00BF0198411E002801913FF404AFF8
:1027D00000BF0198411E002801913FF4FDAE00BFEB
:1027E0000198411E00280191E4D1F5E60021016025
:1027F000FFF706F9054600BF306880077FF5E9AEB0
:10280000FFF7FEF8401B02284FF00300F4D9B4E7AD
:102810007068216A00F480328A4209D1616A00F44A
:102820007010884204D1002002B0BDE8F08100BFE2
:10283000012002B0BDE8F081306A20F00100306272
:10284000306A20F004003062FFF7DAF8054641F202
:10285000883700BF306A800722D5FFF7D1F8401BC8
:10286000B8424FF00300F5D987E700BF306A40F067
:1028700004003062306A40F001003062FFF7C0F8B7
:10288000054641F2883700BF306A800708D4FFF759
:10289000B7F8401BB842F7D9032002B0BDE8F08179
:1028A000B8F1000F3FF59BAEF06920F08050F06169
:1028B00095E600BF306820F480303060306820F446
:1028C00080203060FFF79CF8054600BF3068800329
:1028D0007FF560AEFFF794F8401B64284FF00300CB
:1028E000F4D94AE7306840F480203060306840F422
:1028F00080303060FFF784F8054600BF3068800301
:102900003FF548AEFFF77CF8401B6428F6D903205A
:1029100002B0BDE8F08100BF206AB0F5803F05D16C
:102920007168A26821F40031114371607168626AB4
:1029300021F4741111430843706001203866FFF7D9
:102940005FF80446306880013FF56DAFFFF758F837
:10295000001B02284FF00300F4D90EE7411E0020AF
:10296000B0EB116F1CBF012070474EF21002CEF287
:10297000000251604EF62351CEF20001F0230B709D
:102980000721906011607047704700007047000099
:1029900090F83C20012A4FF0020236D010B580F8A2
:1029A0003D200268D2F804E0D2F808C00C682EF08E
:1029B0007003234340F2FF74C4F20004A242536048
:1029C0000ADCB2F1804F13D040F20043C4F200039E
:1029D0009A420DD011E000BF42F60043C4F2010359
:1029E0009A4205D040F60003C4F200039A4204D193
:1029F00049682CF08003194391600121002280F87E
:102A00003D1080F83C20BDE81040104670470000A3
:102A1000002804BF0120704710B5044690F83D001F
:102A200028B9002084F83C00204600F06FF802200E
:102A300084F83D00206840F2FF730268C4F200038E
:102A400042F6004C9842C4F2010C15DCB0F1804F04
:102A50001AD040F20041C4F20001884214D09842DA
:102A600018DCB0F1804F1DD040F20041C4F20001EB
:102A7000884217D01AE000BF604505D040F600013B
:102A8000C4F200018842EAD1A16822F070020A4330
:102A90009842E6DD604505D040F60001C4F2000131
:102AA000884203D1216922F440720A43A36922F0CB
:102AB0008001D4F804E0E268194360450160C26215
:102AC000C0F828E002D16169CCF8301001214161E1
:102AD0000269D20703D0026922F0010202610020DC
:102AE00084F8461084F83E1084F83F1084F84010B3
:102AF00084F8411084F8421084F8431084F844109C
:102B000084F8451084F83D1010BD000010B582B067
:102B1000006840F60001C4F20001884212D0B0F112
:102B2000804F29D141F21C00C4F2020001681C242C
:102B300041F001010160006800F00100019001987E
:102B40000EE000BF41F21C00C4F2020001681E2426
:102B500041F004010160006800F00400009000985A
:102B6000204600210022FFF789FA204602B0BDE886
:102B70001040FFF771BA00BF02B010BD90F83D10D1
:102B800001291CBF01207047022180F83D10006818
:102B900040F2FF72C168C4F20002904241F00101AC
:102BA000C16009DCB0F1804F12D040F20041C4F2A4
:102BB000000188420CD012E042F60041C4F201014B
:102BC000884205D040F60001C4F20001884206D1D7
:102BD000816801F00701062904BF002070470168E1
:102BE00041F00101016000207047000090F83C2096
:102BF000012A4FF0020200F0C58080B580F83D2028
:102C0000D0F800C04FF67772DCF8083023EA0202F1
:102C1000CCF808200B684F2B28DC1F2B44DD202B21
:102C200045D0302B43D0402B40F0AE80D1F804E0AB
:102C3000C968DCF82030DCF8202022F00102CCF852
:102C40002020DCF8182022F0F00242EA011123F0E3
:102C50000A0242EA0E02CCF81810CCF82020DCF868
:102C6000081041F0470121F0300180E06F2B27DD93
:102C7000B3F5005F48D0B3F5805F7AD0702B40F099
:102C80008380D1E901E3C968DCF8082043EA0E0338
:102C900022F47F4243EA01211143CCF80810DCF80A
:102CA000081041F0770162E00BB1102B6CD1DCF819
:102CB000081021F07001194341F0070157E000BFEF
:102CC000502B35D0602B5FD1D1F804E0C968DCF817
:102CD0002030DCF8202022F01002CCF82020DCF894
:102CE000182022F4704242EA013123F0A00242EAA5
:102CF0000E12CCF81810CCF82020DCF8081041F0A7
:102D0000670121F0100132E0D1E901E3C968DCF884
:102D1000082043EA0E0322F47F4243EA01211143D3
:102D2000CCF80810DCF8081041F480411FE000BF27
:102D3000D1F804E0C968DCF82030DCF8202022F06B
:102D40000102CCF82020DCF8182022F0F00242EA40
:102D5000011123F00A0242EA0E02CCF81810CCF856
:102D60002020DCF8081041F0570121F02001CCF8B8
:102D700008100022012180F83D10002180F83C104D
:102D8000BDE88040104670470122F3E7704700001D
:102D900070B504460068C5680669B10716D515F018
:102DA000020113D06FF002010161012121778069D6
:102DB000800703D02046FFF7E9FF05E0204600F03A
:102DC0008FF8204600F00EFA00202077700719D502
:102DD00015F0040016D020686FF004010161022193
:102DE0002177806910F4407F04D02046FFF7CEFFA2
:102DF00006E000BF204600F073F8204600F0F2F92C
:102E000000202077300717D515F0080014D020686F
:102E10006FF00801016104212177C069800703D0A8
:102E20002046FFF7B3FF05E0204600F059F82046A2
:102E300000F0D8F900202077F00619D515F0100021
:102E400016D020686FF01001016108212177C06958
:102E500010F4407F04D02046FFF798FF06E000BF43
:102E6000204600F03DF8204600F0BCF90020207715
:102E7000F00718BF15F0010002D1300609D412E0A6
:102E800020686FF001010161204600F01BFA300656
:102E900009D515F0800006D020686FF0800101612F
:102EA0002046FFF771FD700609D515F0400006D0E9
:102EB00020686FF040010161204600F043FAB0063F
:102EC00058BF70BD15F0200008D021686FF02002B7
:102ED00020460A61BDE87040FFF758BD70BD000094
:102EE0007047000090F83C30012B04BF022070476F
:102EF0004FEAB202032A3DD82DE9F043DFE802F0A1
:102F000002407CB6036842F600461D6A1A6AC4F2A3
:102F1000010622F001021A621A465C6852F818CFC4
:102F2000B3428E68D1F800E025F0020545EA0605B7
:102F30000CD1CE68D1E9057824F4407425F00C0555
:102F400026F004063C43354344EA08042CF073079A
:102F500047EA0E075C609F614F6809695F631D6205
:102F60009F6947F008079F619F6927F004079F61E9
:102F7000ACE000BF0121002280F83C2008467047E9
:102F8000036842F600461D6A1A6AC4F2010622F07E
:102F900010021A621A46D3F804C052F8184FB3420E
:102FA0008E68D1F800E025F0200545EA06150FD11E
:102FB000CE68D1E905986FF0400725F0C00507EA13
:102FC000061635432CF4406748EA090647EA860CA2
:102FD00024F4E64444EA0E27C3F804C09F614F6816
:102FE00009699F631D629F6947F400679F619F693C
:102FF00027F480679F6168E0036842F600461D6A17
:103000001A6AC4F2010622F480721A621A46D3F8D0
:1030100004C052F81CEFB3428E680C6825F40075AA
:1030200045EA06250FD1CE68D1E90598360240F26F
:10303000FF4725F44065BE4335432CF4405748EA2A
:10304000090647EA061C2EF073072743C3F804C09D
:10305000DF614F680969DF631D62DF6947F00807B8
:10306000DF61DF6927F00407DF612FE0036842F6C4
:103070000047D3F820C01A6AC4F2010722F4805234
:103080001A621A465C6852F81C5FD1F800E08E683C
:10309000BB4204D14F6924F4804444EA87142CF4E1
:1030A000005747EA063725F4E64646EA0E265C60F6
:1030B000DE614E6809691E641F62DF6947F40067BC
:1030C000DF61DF6927F48067DF6109021368194354
:1030D00011600021BDE8F043002280F83C20084642
:1030E00070470000002804BF0120704710B5044657
:1030F00090F83D0028B9002084F83C00204600F0FC
:103100006FF8022084F83D00206840F2FF730268E7
:10311000C4F2000342F6004C9842C4F2010C15DCE4
:10312000B0F1804F1AD040F20041C4F20001884251
:1031300014D0984218DCB0F1804F1DD040F200410D
:10314000C4F20001884217D01AE000BF604505D0E4
:1031500040F60001C4F200018842EAD1A16822F0E1
:1031600070020A439842E6DD604505D040F6000152
:10317000C4F20001884203D1216922F440720A435B
:10318000A36922F08001D4F804E0E26819436045A5
:103190000160C262C0F828E002D16169CCF8301049
:1031A000012141610269D20703D0026922F00102C4
:1031B0000261002084F8461084F83E1084F83F1025
:1031C00084F8401084F8411084F8421084F84310C9
:1031D00084F8441084F8451084F83D1010BD0000B8
:1031E000704700007047000041B1082910D0042941
:1031F00014BF00F1410200F13F020BE090F83E20C5
:10320000012A1CBF01207047022280F83E2013E0F3
:1032100000F140021278012A1CBF012070470222EF
:10322000082907D0042914BF80F8412080F83F20E6
:1032300002E000BF80F84020006801F01F01012279
:10324000036A8A4023EA02010162036A42F64441AA
:10325000C4F201011A43A1F14403984202620FD063
:1032600040F2FF71C4F20001884213DCB0F1804FDC
:103270001CD040F20041C4F20001884216D01AE08E
:103280000A6842F400420A6040F2FF71C4F2000191
:103290008842EBDD42F60041C4F20101884205D0CC
:1032A00040F60001C4F20001884204D1816801F0B7
:1032B0000701062903D0016841F0010101600020E7
:1032C00070470000006840F60001C4F20001884227
:1032D00018BF7047F0B581B041F26C05C2F200052D
:1032E000284603F0ABFD40F21C00C2F2000001686A
:1032F000284603F047FB01F025FBD5F8541140F2B6
:103300003824C2F2000401F110060027206061CECB
:10331000C4F22017394605F0D5F9606028463946D1
:1033200005F0D0F9A0603046394605F0CBF90346E8
:10333000012021461022E36001B0BDE8F04000F01A
:10334000CBBC000070470000FEE700002DE9F0470D
:1033500082B0044600689A460B9D0A9E0368914617
:1033600043F48062026002680F4642F4807101609B
:1033700020464FF0011100223346009500F070F80E
:1033800050B120680068C00544BF4FF4007020644D
:10339000032002B0BDE8F08740F202082068C0F2C6
:1033A000010807F0FE0707612046414632462B46DA
:1033B00000F03CF920B1012002B0BDE8F08700BF69
:1033C0000020019020682A464169019180693146B8
:1033D00001900198204600F0DDF9B0B92068BAF1FB
:1033E000010F09D04FEA19210161204631462A46D2
:1033F00000F0D0F948B920685FFA89F101612046F0
:1034000031462A4600F0C6F960B1206C0428D2D1BA
:103410002068016841F400710160012002B0BDE83C
:10342000F08700BF206800220168334641F48071B4
:10343000016020464FF00111009500F011F80028BE
:103440009FD147F0010C27682046414632462B4663
:10345000C7F810C002B0BDE8F04700F0E7B80000C0
:103460002DE9F041054600681E46144601F47F022E
:1034700001338FB242D0DDF81880B2F5803F40F0C2
:10348000878040693840C01BB0FA80F04009A042F4
:1034900040F0C8804EB924E040693840C01BB0FA03
:1034A00080F04009A04240F0BD80FEF7A9FAA0EBF1
:1034B00008012868B142EFD941693940C91BB1FA06
:1034C00081F14909A142E7D19BE000BF4069384042
:1034D000C01BB0FA80F04009A0424FF0000040F05D
:1034E000A280FEF78DFA286841693940C91BB1FAFC
:1034F00081F14909A142E9D183E000BFB2F5803FE3
:1035000024D100BF41693940C91BB1FA81F1490991
:10351000A14240F0878041693940C91BB1FA81F16D
:103520004909A14240F07E8041693940C91BB1FA86
:1035300081F14909A14275D141693940C91BB1FAEC
:1035400081F14909A142DDD06CE000BF81693940B9
:10355000C91BB1FA81F14909A14263D1816939409E
:10356000C91BB1FA81F14909A1425BD18169394096
:10357000C91BB1FA81F14909A14253D1816939408E
:10358000C91BB1FA81F14909A142DFD04AE000BF6D
:1035900080693840C01BB0FA80F04009A04241D198
:1035A00046B923E080693840C01BB0FA80F040097A
:1035B000A04237D1FEF724FAA0EB08012868B142F7
:1035C000F0D981693940C91BB1FA81F14909A14299
:1035D000E8D116E080693840C01BB0FA80F040099D
:1035E000A0424FF0000018BFBDE8F081FEF708FAD6
:1035F000286881693940C91BB1FA81F14909A142A2
:10360000E8D100202021286385F83D1085F83E0090
:10361000296C41F02001296485F83C000120BDE8B7
:10362000F08100BF0020BDE8F0810000F0B581B05E
:10363000044600681D4643698FB203EA0701B94298
:1036400002D1002001B0F0BD4169164601323FD0E1
:1036500049053FD4CEB100BFFEF7D2F9411B206827
:10366000B14203D941693940B94215D14169394064
:10367000B942E6D041694905EED52BE041693940B0
:10368000B942DED04169490524D4FEF7B9F9206872
:1036900041693940B942F1D0202023E041693940E5
:1036A000B942CED04169490514D441693940B94283
:1036B000C7D0416949050DD441693940B942C0D0EC
:1036C0004169490506D441693940B942B9D04169D7
:1036D0004905E3D5016841F4007101606FF4806130
:1036E0004161042000212022216384F83D2084F8D8
:1036F0003E10226C1043206484F83C10012001B07D
:10370000F0BD000070B504460068154650F8143F3F
:103710005A063DD40E4629B926E000BF50F8141FC2
:10372000490635D40168C90621D4FEF769F9411B61
:103730002068B142F2D941694906EFD40020202126
:10374000206384F83D1084F83E00206C40F0200097
:1037500018E000BFFEF754F9206850F8141F49061E
:10376000ECD50168490613D40168C906F2D56FF09B
:103770001001016000202021206384F83D1084F8AE
:103780003E00206C2064002084F83C00012070BDC5
:10379000002070BD70B50368044653F8140F00068E
:1037A00011D40E46481C29D086BB00BF18684005BE
:1037B00027D4FEF725F9236853F8140F000637D5F0
:1037C00018680006F2D5002070BD00BF186800061A
:1037D000F9D41868400514D418680006F3D41868A2
:1037E00040050ED418680006EDD41868400508D4CA
:1037F000186800064FF0000048BF70BD186840050B
:10380000E4D56FF480601860042012E0154603E0F0
:1038100053F8140F0006D6D418684005F1D4FEF70B
:10382000EFF8401B2368B042F2D958690006EFD484
:10383000202000212022216384F83D2084F83E10BE
:10384000226C10432064012084F83C1070BD0000FD
:10385000B0B584B040F25814C2F2000442F2004104
:10386000C4F20101204640F8081F4FF48071002285
:1038700001254FF46023C0E901210221027305757F
:10388000C0E906530161FDF7D5FC002818BFFDF71C
:1038900083FB03200834CDE9010501A920460395E7
:1038A000FDF708FC002818BFFDF776FB0420019007
:1038B0000220029001A92046FDF7FCFB002818BF5A
:1038C000FDF76AFB2046FDF76DFB04B0B0BD0000BC
:1038D0002DE9F04385B041F21800C4F202000168FE
:1038E00040F6004941F0100101600168C4F201098D
:1038F00001F0100101910199016809F5806541F01D
:10390000200101600168002201F02001019101996C
:1039100001684FF4005641F004010160016801F0B4
:10392000040101910199016841F0080101600068FA
:103930004FF4005100F00800019001982846FEF76E
:1039400059F848464FF4047100224FF40478FEF70A
:1039500051F8019601AE012702242846314602970C
:10396000CDE90344FDF736FF48463146CDE90187EE
:10397000CDE90347FDF72EFF05B0BDE8F083000059
:1039800080B540F6347045F20041C2F20000C4F246
:10399000000141F6802200234FF4804CC0F2060261
:1039A00080E80E00C0E9033CC0E90533C0E90733F5
:1039B000FEF72CF8002808BF80BDBDE88040FDF769
:1039C000EBBA000080B540F6887045F60001C2F2FF
:1039D0000000C4F2000141F6802200234FF4804C25
:1039E000C0F2060280E80E00C0E9033CC0E90533DE
:1039F000C0E90733FEF70AF8002808BF80BDBDE81C
:103A00008040FDF7C9BA000010B594B040F6DC70F4
:103A10000021C2F200004FF080420E91CDE90C115E
:103A20000991CDE90711CDE90511CDE90311CDE9E2
:103A3000011120234FF4E164C0E9002101618021DC
:103A4000C0E902348161FEF7E3FF002818BFFDF7EB
:103A5000A3FA4FF480500B9040F6DC70C2F20000E5
:103A60000BA9FFF7C3F8002818BFFDF795FA40F639
:103A7000DC70C2F20000FFF735FB002818BFFDF72D
:103A80008BFA2020089040F6DC700024C2F200007F
:103A900008A90994FEF77CFF002818BFFDF77CFAFF
:103AA000702001904FF4E160CDE9020440F6DC7033
:103AB000C2F2000001A900220594FFF713FA0028C2
:103AC00018BFFDF769FA40F6DC70C2F2000001A9E8
:103AD0000422FFF707FA002818BFFDF75DFA40F649
:103AE000DC74C2F2000401A920460822FFF7FAF9AB
:103AF000002818BFFDF750FA20680021B0F1804F70
:103B0000129101D014B010BD41F21800C4F20200AD
:103B1000016841F004010160006810A900F0040090
:103B20000F900F98072010900220119003201390FF
:103B300040F60000C4F20100FDF74CFE14B010BDC9
:103B400080B586B041F224000021C2F2000040F6A8
:103B5000000240F21F3C0591CDE90311CDE90011AF
:103B6000C4F200024723C0E9021C01618021C0E9C0
:103B700000238161FEF74CFF002818BFFDF70CFA07
:103B80004FF48050029041F22400C2F2000002A9DA
:103B9000FFF72CF8002818BFFDF7FEF941F22400CA
:103BA000C2F200006946FEF7F3FE002818BFFDF7D9
:103BB000F3F906B080BD0000FEE70000FEE700005C
:103BC00070470000B0B58EB001AD044628463221E2
:103BD000FCF7FEFB204604F0EBFA02460B4605A17B
:103BE0002846FCF715FB05A100202A4600F082F9C3
:103BF0000EB0B0BD252E34660A000000257300000B
:103C00002DE9F04140F64824C2F20004164622781D
:103C100098460F46532A05463AD004F130007821E1
:103C2000FCF7D6FB03202061606148F6464140F670
:103C3000F020C0F60001C2F20000A161E0614FF483
:103C4000806020620020A0626062E062216640F233
:103C50009011C2F20001013161661021A166532169
:103C60002067E06660672170452147226170A2707D
:103C7000E2702171522120226171A271E1715421FF
:103C800021726172A072E07220736073A073E0739E
:103C9000022D84BF4FF0FF30BDE8F081069AEFF3AC
:103CA00011804FF0200181F3118855B105EB4501DA
:103CB00004EBC10100238F61CE61C1F820808B62CB
:103CC0004B6205EB450104EBC101CA6280F3118828
:103CD0000020BDE8F0810000F0B581B040F6482733
:103CE000C2F2000714463A780D46532A06463AD0E7
:103CF00007F130007821FCF76BFB03203861786115
:103D000048F6464140F6F020C0F60001C2F200003D
:103D1000B961F8614FF4806038620020B86278625F
:103D2000F862396640F29011C2F200010131796601
:103D30001021B96653213867F866786739704521D4
:103D400047227970BA70FA70397152212022797144
:103D5000BA71F971542139727972B872F872387384
:103D60007873B873F873EFF311874FF0200181F384
:103D7000118830462946224600F004F887F311885E
:103D800001B0F0BD2DE9F04F81B040F6482300EBC3
:103D90004000C2F2000303EBC006F06A144602289A
:103DA000894611D0012841D048B9354655F8247FBD
:103DB0006868B84272D9F9430844A04274D2002618
:103DC000304601B0BDE8F08F56F8245F301DA6F1F3
:103DD000040BB246A6F10808002600900098EA43BA
:103DE0000068DBF80010A842104498BF08444F1B3D
:103DF000B84238BF0746D8F80000A74228BF274678
:103E0000284449463A46FCF79EFADBF80000791947
:103E1000E41B0D1A3E44B94418BF0D46002CCAF8E5
:103E20000050DBD1304601B0BDE8F08FB04658F805
:103E3000247FD8F80410B94204D9FA43306A1144F7
:103E400004E000BF306AFA4311440144A14238BF84
:103E50000C46C51B56F81C0FAC4238440CD24946E0
:103E60002246FCF770FAE019C8F8000026463046F2
:103E700001B0BDE8F08F00BF49462A46FCF763FA5F
:103E8000671B306809EB05013A46FCF75CFAC8F895
:103E900000702646304601B0BDE8F08F316AFA4323
:103EA00010440844A0428AD356F81C0F7168384465
:103EB000A1EB070844450BD249462246FCF743FADA
:103EC000381928602646304601B0BDE8F08F00BFA3
:103ED00049464246FCF737FAA4EB0807306809EB7D
:103EE00008013A46FCF72FFA2F602646304601B00B
:103EF000BDE8F08F82B080B582B0CDE9042304AA7A
:103F0000019201AA00F006F802B0BDE8804002B0BC
:103F1000704700002DE9F04F9BB0904606AA16921C
:103F20004022002504901A900DF1580900208A467D
:103F30001792CDE9185507E000F064FB1998514637
:103F4000B0F1FF3F40F304831AF8013B252B1BD04F
:103F5000002B00F0ED82DDE91720411C914207D8CB
:103F6000169A13541998179A013019900846189107
:103F70009042E3D116991A98FFF7AEFE189988423D
:103F800040F0D0821895D9E701F1040A4FF0000BF8
:103F90001AF8031CA1F123030D2B00F25F8002220B
:103FA000DFE803F0085C5C5C5C5C5C5C0A5C0C5CFD
:103FB0005C0D00BF082202E0042200E001221AF892
:103FC000021C4BEA020BA1F123030D2B00F28C80A3
:103FD0000222DFE803F007898989898989890989AB
:103FE0000B89890C082202E0042200E001221AF861
:103FF000011C4BEA020BA1F123030D2B00F2808080
:104000000222DFE803F0077D7D7D7D7D7D7D097DDA
:104010000B7D7D0C082202E0042200E001229AF8C8
:1040200000104BEA020BA1F123030D2B5ED80222F4
:10403000DFE803F0105C5C5C5C5C5C5C125C0E5C5A
:104040005C0800BF4BEA020B0AF1040AA0E700BFBC
:104050000122F7E70822F5E70422F3E7AAF1030AB1
:10406000A1F13A0212F10A0F45D30AF1020A002621
:1040700006EB860201EB42021AF8011CA2F130069F
:10408000A1F13A0313F10A0F42D306EB860201EBCA
:1040900042029AF80010A2F13006A1F13A0313F19E
:1040A0000A0F37D306EB860201EB42029AF80110A1
:1040B000A2F13006A1F13A0313F10A0F76D306EB11
:1040C000860201EB42029AF80210A2F13006A1F139
:1040D0003A0212F10A0F0AF1040AC9D2AAF1020A3D
:1040E0002E2919D00AE000BFAAF1020AA1F13A0272
:1040F00012F10A0FB9D200262E290DD0002761E057
:10410000AAF1010AA1F13A0212F10A0FF3D3ACE7C6
:10411000AAF1010A2E29F1D1524612F8011FA1F18C
:104120003A0313F10A0F03D2002792464AE000BF78
:104130000AF1020A002700BF9AF8002007EB870364
:1041400001EB4301A2F13A0313F10A0FA1F1300789
:1041500038D39AF8011007EB870302EB4302A1F171
:104160003A0313F10A0FA2F1300725D39AF802207F
:1041700007EB870301EB4301A2F13A0313F10A0FA6
:10418000A1F130071CD307EB870102EB41029AF83B
:104190000310A2F13007A1F13A0212F10B0F0AF15C
:1041A000040AC9D8AAF1010A0CE000BF0AF1010A09
:1041B0002E29B1D0A2E700BF0AF1010A02E000BF38
:1041C0000AF1020A9AF8001001F0FB02682A41D1B4
:1041D0009AF8011001F0FB02682A40F04D809AF82D
:1041E000021001F0FB02682A40F04E809AF803109A
:1041F0000AF1040A01F0FB02682AE3D0A1F1580297
:10420000202A2DD8DFE802F02220202020202020A4
:10421000202020485820202020202020202020203E
:104220001220208820B82020220000BFD8F80000EB
:104230001022011DC8F8001001684846082308270D
:10424000CDE9007578E600BF78E600BFD8F8000039
:10425000102294E00AF1010AA1F15802202AD1D9D2
:1042600025297FF46BAEDDE91720411C91423FF612
:104270007FAE169A252374E60AF1020AA1F15802CC
:10428000202ABFD9ECE700BF0AF1030AA1F15802C6
:10429000202A7FF6B7AFE3E7DDE91720D8F8003032
:1042A000411C1F1D9142C8F800703FF661AE1A68AC
:1042B000169B1A5456E600BFD8F8001041F2597CFC
:1042C0000A1DC8F80020096848F29F640029C1F15E
:1042D00000028E4648BF11460A2942F21075CDF2FF
:1042E000B71CC0F201040392CDF8148050D34FF0F4
:1042F000020800BF642955D3B1F57A7F4CD3A94297
:104300004ED3A1FB0C23A1424FEA533108F104081C
:10431000F0D8A8F1010845E0D8F800100A1DC8F847
:1043200000200C688CA1002C08BF0C4606E000BFE2
:10433000B0F1FF3F04F101047FF700AE2778002FB2
:104340003FF4FCADDDE917214B1C934207D81698CA
:1043500047541998179A01301946189319909142A9
:10436000E6D116991A98FFF7B7FC1899884240F0E1
:10437000D98019981895DBE7D8F800000A22011DAA
:10438000C8F80010016848463B46CDE9006BD3E50C
:104390004FF0010806E000BF08F1010802E000BF8D
:1043A00008F10208B845744698BFB84676B10021B6
:1043B000002C48BF01210BF0040241EA9201A6EB58
:1043C00001095FEA8B7506D406E000BF4FF00009D3
:1043D0005FEA8B7500D55FB35FEACB7128D1B9F185
:1043E000000F25D0A9F101064E4538BFC8451FD2A0
:1043F000DDE917214B1C934208D81698202242541D
:104400001998179A013019461893199091420AD1B8
:1044100016991A98FFF760FC1899884240F082803C
:104420001998002118910028B146DBD572E000BF31
:1044300000286FD4B4F1FF3F20DD5FEA4B7130D527
:10444000DDE917214B1C934208D816982B224254C1
:104450001998179A013018931990194691421ED154
:1044600016991A98FFF738FC189988425AD10020FB
:1044700018901998002814D54CE000BFDDE91721E9
:104480004B1C934208D816982D2242541998179A1B
:104490000130194618931990039C9142E0D00028EE
:1044A00038D4002D0CD416A821460A223B46CDE96B
:1044B000009B814600F0A6F8DDF8148000253DE55C
:1044C0000BF001013943EED1B9F1000FEBD0A9F1A6
:1044D00001064E4538BFC845E5D2DDE917214B1C22
:1044E000934208D81698302242541998179A0130EE
:1044F000194618931990914209D116991A98FFF705
:10450000EBFB189988420DD11998002118910028C9
:10451000B146DCD5DDF8148000250DF15809FFF710
:104520000DBD00BF4FF0FF301BB0BDE8F08F00BFE6
:1045300040B1189A52B1049806A9FFF7CDFBDDE906
:10454000181004E000201BB0BDE8F08F00210844E3
:104550001BB0BDE8F08F00BF284E554C4C29000021
:1045600070470000FDF710BD7047000040F6DC709A
:10457000C2F20000FEF70CBC41F22400C2F20000BF
:10458000FEF706BCFEE70000B0B584B040F20800BC
:10459000C2F2000040F2A41590E81E00C2F200052D
:1045A000281D009400F00CFA4CF6C774CFF6FF7487
:1045B00005F13C00012102220423CDE900440294CC
:1045C000042500F099FD4EF20042CCF2406241F227
:1045D0006C00C2F2000007211346009202F0ECFCCE
:1045E00040F6F06041F26F210022C2F20000C3F6F3
:1045F0008321C4F248220323CDE9005401F03EFA9E
:1046000004B0B0BD2DE9F04F81B0DDF828901F4611
:1046100015468B469142044602D24FF001081FE036
:104620004FF00408584600BFB0FBF5F0A84211D384
:10463000B0FBF5F0A84211D3B0FBF5F0A8420FD3C0
:10464000B0FBF5F008F10408A842EDD2A8F1030888
:1046500006E000BFA8F1020802E000BFA8F10108CF
:104660000B99B84598BFB846B9F1000F34D011F096
:10467000010031D12026880748BF30264FF0000ABC
:104680002020002F18BF064606E000BFC4F808A08F
:10469000E068B0F1FF3F1FDDB9F1000F1CD0C84545
:1046A0001AD2D4E90120411C914207D8226816543D
:1046B000E06862680130E0600846A1609042A9F1BC
:1046C0000109E5D121682069FFF706FBA16888424E
:1046D000DCD04FF0FF30E060E068002859D40126BC
:1046E00002E000BF013F6E43022F01D3013F03E010
:1046F000BBFBF6F1A9421BD3012F05FB06F601D93E
:10470000013F03E0BBFBF6F1A94211D3012F05FBEA
:1047100006F601D9013F03E0BBFBF6F1A94207D33E
:10472000012F05FB06F6DDD8BBFBF6F1A942DAD274
:10473000A2682EA76168BBFBF6FA531C8B4209D80E
:1047400017F80A0021688854E068616801301A4649
:10475000A360E0608A4209D121682069FFF7BCFAB2
:10476000A26890420CD1E0680022A26000280AD41E
:10477000B6FBF5F10AFB16BBAE420E46DAD202E0FA
:104780004FF0FF30E0600B99C90718BFB9F1000F77
:1047900002D101B0BDE8F08F2025A9F101064E45F8
:1047A00038BFC845F5D26168531C8B4207D82068D2
:1047B0008554E068616801301A46A360E0608A426F
:1047C00009D121682069FFF787FAA168884207D1DB
:1047D000E0680022A260B0F1FF3FB146DDDCD8E71F
:1047E0004FF0FF30E06001B0BDE8F08F3031323380
:1047F00034353637383941424344454680B5014661
:1048000045F68620C5F63770A0EB510003F05AFF3D
:1048100080BD000070B540F6DB74C4F2C9042146C7
:1048200003F06FF90021054603F065FD06462846B2
:10483000214603F0E9FC002E18BF284670BD000099
:1048400010B50446084603F0A9FE214603F03AFFDE
:1048500010BD0000B0B540F6DB71C3F6C97103F0BE
:10486000D3FC40F6DB71C4F2C901044603F03CFD01
:1048700040F6DB710546CCF2C901204603F0C4FCCA
:10488000002D08BF2046BDE8B04000F001B8000090
:1048900080B503F08DFC4FF6B41245F63073C6F2C6
:1048A0004642C4F2C40303F097FA03F051FAC0F38E
:1048B00007223F2A0AD848F6B431C0F6000101EBBE
:1048C000420331F812105A882EE000BF7F2A0DD81B
:1048D00048F6B433C2F18001C0F60003C2F17F0292
:1048E00033F8111033F812201EE000BFBF2A0DD894
:1048F00048F6B431C0F6000101EB42016FF0FF024F
:104900008A5A31F8FE3C51425A420DE048F6B4331F
:10491000C2F58071C0F6000382F0FF0233F8111077
:1049200033F8122049425242C0B2521A504301EBAE
:10493000202003F033FE4FF0605103F0C3FE80BD32
:10494000FCF734BFFCF7B8BA70B514460D460646FE
:10495000FFF79EFF28603046FFF77CFF206070BDA8
:10496000B0B584B0044694F8311090F83020406B14
:1049700002230DF10E054FF0320CCDE90053490032
:104980000123CDF808C0FDF7F3F8BDF80E10054679
:1049900048BA03F003FEA16A0022CBF68072002D14
:1049A00018BF104603F0C8FC40F6DB71C4F2C90121
:1049B00003F088FE04B0B0BD416301F0FFB8000011
:1049C000F0B581B048F6083604464BF21770C0F6D1
:1049D0000006C3F6D10008361546C4E90060012080
:1049E000069F0022A8402262C4E90222C4E90422F0
:1049F000C4E9062284F8242084F8311084F8303089
:104A000003F0CCFDA062F81F291AA18589B2022209
:104A100002FA01F1013902FA00F084F82E10411E69
:104A2000204684F82F1001B0F0BD0000816070476F
:104A3000F0B585B0024600680D46836802A81146AD
:104A40009847049F029C3846002103F03FFC18BBA6
:104A50002046002103F03AFC039E18BB304600219B
:104A600003F034FCC0BB2046314603F0CDFB0146C9
:104A7000384603F0C9FB4AF6AB21C3F6AA6103F03E
:104A800021FE07462046394603F06EFF04463046B5
:104A9000394603F069FF00E003984CF63A51C3F63B
:104AA000937121E03846314603F0AEFB4CF63A51A3
:104AB000074680F00044C3F69371304603F002FECF
:104AC0004CF63A510646CBF61371384603F0FAFD20
:104AD0000146304613E000BF3846214603F094FB00
:104AE0004CF63A51CBF6937103F0ECFD4CF63A518B
:104AF0000646C3F61371204603F0E4FD314603F089
:104B000083FB06462846002103F0E0FBE0B9694636
:104B100001AA2846FFF718FFDDE90005214603F04A
:104B2000D1FD07463046294603F0CCFD394603F057
:104B30001BFF002103F0D8FB0025CBF68075002871
:104B400018BF4FF07E5501E04FF07E55304631469C
:104B500003F0B8FD06462046214603F0B3FD31467A
:104B600003F052FBFFF74AFE0146284603F0AAFD78
:104B700005B0F0BD2DE9F04786B00B6890469A6805
:104B8000814603A89047059EDDF80CA03046002121
:104B900003F09CFB20BB5046002103F097FB049FD1
:104BA00020BB3846002103F091FBC8BB5046394674
:104BB00003F02AFB0146304603F026FB4AF6AB2100
:104BC000C3F6AA6103F07EFD06465046314603F067
:104BD000CBFE82463846314603F0C6FE01E000BFF8
:104BE00004984CF63A51C3F6937121E030463946A9
:104BF00003F00AFB4CF63A51064680F0004AC3F631
:104C00009371384603F05EFD4CF63A510746CBF6F9
:104C10001371304603F056FD0146384613E000BFDD
:104C20003046514603F0F0FA4CF63A51CBF6937108
:104C300003F048FD4CF63A510646C3F61371504650
:104C400003F040FD314603F0DFFA074601A902AA4E
:104C50004046FFF779FEDDE901463846214603F07C
:104C600031FD05465046314603F02CFD294603F040
:104C7000CBFAC9F800002046514603F023FD044654
:104C80003846314603F01EFD214603F06DFEC9F89B
:104C9000040006B0BDE8F08710B5044601600020AE
:104CA000A060FFF74FFE01462046616010BD000086
:104CB0002DE9F04381B00E460446FFF743FE6168DC
:104CC0008046401A03F082FC43F2BD71C3F2865164
:104CD00003F0F8FC0021074603F01BFB20B141F272
:104CE0006F27C3F683270FE049F69A11C3F699613F
:104CF000384603F007FB38B9A6603046C4F8048094
:104D000001B0BDE8F08300BF2568D4F808903846AC
:104D1000294603F079FA0146284603F00DFB0546C3
:104D20004FF07E50294603F01FFE314603F0CAFCC7
:104D300006462846494603F0C5FC314603F064FAAE
:104D40000646A0603046C4F8048001B0BDE8F08398
:104D500010B5DDE902EC0446002084E80E40C4E909
:104D600004C0C4E90600FFF7EDFD014620462162BC
:104D700010BD00002DE9F04F85B00F460446FFF747
:104D8000E1FD216A0090401A03F020FC43F2BD715E
:104D9000C3F2865103F096FC0021834603F0B2FA79
:104DA000054658464FF07C5103F09EFA00281CBF80
:104DB00041F26F2BC3F6832B002D1CBF41F26F2BEA
:104DC000C3F6832BA168D4E900060291E16804913F
:104DD000394603F077FCE56903903046594603F005
:104DE00071FC4FF07C5103F06DFCD4F814A0064622
:104DF0005046394603F008FA0146304603F062FC9B
:104E0000294603F001FAD4F81090064689F00048CC
:104E1000414603F07EFA05463046494603F064FAFF
:104E2000002818BF4E4638465146002D18BF46464A
:104E3000019703F099FD029903F044FC594603F0F1
:104E40007BFA05460398314603F0DEF90146284611
:104E500003F0DAF94146054603F05BFA07462846B7
:104E6000494603F041FA002818BF4D46002F049F21
:104E70004FF00001384618BF454603F043FAA8B981
:104E8000D4F818802846414603F06EFD594603F0D9
:104E900053FA3946824603F035FA98B938465946EE
:104EA00003F010FC414603F0AFF90546DDE900A729
:104EB000C4E90575E6612846C4F820A005B0BDE840
:104EC000F08F00BF87F000495046494603F013FABF
:104ED000DDE900A70028EBD14846594603F0F2FB74
:104EE000414603F091F90546E2E7000070470000F3
:104EF000B0B540F6DC75C2F2000529680446C96AFF
:104F0000416049F69A10C4F24910E0602846002139
:104F1000FEF76AF928460421FEF766F928460821BB
:104F2000FEF762F9626807A10020FEF7E3FFE06880
:104F3000FEF748FE0BA10020FEF7DCFF0121012057
:104F40002177B0BD70776D5F6672657175656E6350
:104F5000793A25752C766F6C746167655F6C696D45
:104F600069743A000A00000010B5044640F600409B
:104F7000C4F201004FF400710122FCF73BFD2068F0
:104F80000021D0F80CC0204600220023E04703A1F6
:104F90000020BDE81040FEF7ADBF00BF656E616246
:104FA0006C65206D6F746F722E0A00002DE9F04F52
:104FB00081B00C468146084600219B4615464FF0BD
:104FC000000803F0A6F9D9E902A7064638462146AB
:104FD00003F09FF9002818BF3C4628460021002E08
:104FE00018BF002403F095F906463846294603F019
:104FF00090F9002818BF3D4658460021002E18BFE2
:10500000002503F086F906463846594603F081F933
:10501000002818BFBB4620465146002E18BF4FF04F
:10502000000B03F089F90021044603F072F948B936
:1050300020464FF07E514FF07E5803F055F900287E
:1050400008BFA04628465146C9F8108003F074F9FD
:1050500000210446002503F05CF948B920464FF0D2
:105060007E514FF07E5503F03FF9002808BF2546DA
:1050700058465146C9F8145003F05EF90021044621
:10508000002603F046F948B920464FF07E514FF014
:105090007E5603F029F9002808BF264640F6DC704A
:1050A000C2F2000041462A463346C9F8186001B0F2
:1050B000BDE8F04F01F0DEBF80B501680022D1F8F5
:1050C0000CC000210023E04740F60040C4F201007C
:1050D0004FF400710022FCF78DFC03A10020BDE815
:1050E0008040FEF707BF00BF64697361626C652092
:1050F0006D6F746F722E0A00F0B5002548F63436D5
:10510000C0E9085100F12801DDF81CC0DDE9054EB9
:10511000C0F6000681E81C4049F69A114EF20042A2
:105120004CF6C77308360127C4F24911CCF240622D
:10513000CFF6FF73057780F83C70C0F838C0C0E93F
:105140000063C0E90212F0BD2DE9F04F8BB0834639
:10515000007928B1012420460BB0BDE8F08F00BFD4
:10516000DBF80800F0B10B469BF80C10002900F0AA
:10517000DB83DBF82C104CF6C777CFF6FF77B9420C
:10518000CDF810B0019317D1DBF830900124B94568
:1051900040F04181DBF83400B84240F07A82DBF81D
:1051A0001C0052E30FF28C7100200024FEF7A2FED7
:1051B00020460BB0BDE8F08F01680022CF68194689
:1051C0000023B8474FF4FA60FFF7BAFBDBF80000A2
:1051D0005946826808A890474CF6CD4949F69A1A74
:1051E0006427C3F6CC69C3F6197A00BFDBF8000068
:1051F0005946826805A890470DF1140B9BE82108D9
:10520000494603F05FFA0646DDE908080A9C514664
:1052100003F058FA314602F0F7FF08902846494655
:1052200003F050FA05464046514603F04BFA294632
:1052300002F0EAFF09905846DDF810B0494603F045
:1052400041FA05462046514603F03CFA294602F051
:10525000DBFF0A900320FFF773FB013FC6D1DBF8A9
:105260000800002201680023CF6800210026B8470B
:105270000DF1200A9AE810054046002103F026F8B7
:1052800005462046414603F057F8002D4FF0000533
:1052900008BF20F000455046002103F017F80746EC
:1052A0002046514603F048F8002FDBF830904CF6CA
:1052B000C777CFF6FF7708BF20F00046B9451DD06D
:1052C00028464FF07F5103F00FF8B8B12046002177
:1052D00003F01FF805462046002103F005F80646B6
:1052E000002818BF4FF07E56002D5D461CBF0026DB
:1052F000CBF6807655F8140F012484E03846DBF8AD
:10530000347087421ED030464FF07F5102F0FAFFD2
:10531000C0B92046002102F0FCFF054620460021CE
:1053200002F0E2FF0646002818BF4FF07E56002D1F
:105330005D461CBF0026CBF6807655F8140F01247D
:105340005DE000BF4CF6C770CFF6FF70814527D0F7
:1053500043F23331C3F63371284602F0CCFFF8B97B
:105360005D4655F8146FD5E90301AF69C5E903102F
:1053700040460021C5E9069702F0CBFF04464046AF
:10538000002102F0B1FF002818BF4FF07E50002C22
:105390001CBF0020CBF680700224B9462FE000BF6E
:1053A0004CF6C770CFF6FF70874200F0BD8243F223
:1053B0003331C3F63371304602F09DFF002840F0D0
:1053C000B3825D4655F8146FD5E90501EA68296294
:1053D000E86050460021C5E9052702F09AFF04461F
:1053E0005046002102F080FF002818BF4FF07E5089
:1053F000002C4FF002041CBF0020CBF680704CF64E
:10540000C777CFF6FF77314603F05CF9019B286040
:10541000B9453FF4BFAEDBF808001A460168002327
:10542000CF6800210094B847C820FFF789FADBF85D
:1054300000005946826808A890474FF0640800BFF2
:10544000DBF800005946826805A89047DDE90804AA
:105450000A99039102F0ACFE8B4607998246DDE97A
:10546000050902914CF6CD41C3F6CC610F4603F01D
:1054700029F902F09DFE0546504643F2333AC3F641
:10548000E37A0E465946DDF810B04FF033325346FA
:1054900002F0A2FC2A46334602F0B2FB02F07EFB89
:1054A0000890204602F084FE05460E4648463946DE
:1054B000B94603F007F902F07BFE07460C46284682
:1054C00031464FF03332534602F086FC3A462346CB
:1054D00002F096FB02F062FB0990039802F068FE6E
:1054E000044602980D46494603F0ECF802F060FECF
:1054F00006460F46204629464FF03332534602F007
:105500006BFC32463B4602F07BFB02F047FB0A9005
:105510000320FFF715FAB8F1010891D1DBF8080074
:10552000002201680023CF6800210026B847DDE98A
:105530000884DDF828A04046002102F0C7FE054699
:105540002046414602F0F8FE002D4FF0000508BF4E
:1055500020F000455046002102F0B8FE07462046E4
:10556000514602F0E9FE002FDBF82C7008BF20F056
:1055700000464CF6C770CFF6FF70874205D028462C
:105580004FF07F5102F0B0FE68B9DBF834904CF672
:10559000C770CFF6FF7081451ED030464FF07F5167
:1055A00002F0B0FEC0B92046002102F0B2FE05466E
:1055B0002046002102F098FE0646002818BF4FF052
:1055C0007E56002D5D4655F8180F1CBF0026CBF601
:1055D0008076009C4FE000BF4CF6C770CFF6FF709E
:1055E000874219D043F23331C3F63371284602F0B3
:1055F00082FE88B95D4655F8186FA869D5E9021290
:10560000C5E90507C5E902214046002102F081FEF7
:105610000446404621E000BF4CF6C770CFF6FF704D
:10562000814500F0818143F23331C3F63371304656
:1056300002F061FE002840F077815D4655F8186F52
:10564000A869D5E90312C5E90690C5E903215046CA
:10565000002102F05EFE04465046002102F044FEA6
:10566000002818BF4FF07E50002C4FF002041CBFE2
:105670000020CBF68070314603F024F84CF6C77753
:10568000019BCFF6FF772860DBF83400B8423FF487
:1056900086ADDBF80800002201680094CF68002185
:1056A000B847C820FFF74CF9DBF80000594682687C
:1056B00008A890474FF0640B04990868826805A811
:1056C0009047DDE908070A99039102F071FD8846C9
:1056D00007990546DDE9050602914CF6CD41C3F672
:1056E000CC610C4602F0EEFF02F062FD89464146B5
:1056F00043F23338C3F6E378824628464FF033321C
:10570000434602F069FB52464B4602F079FA02F03A
:1057100045FA0890384602F04BFD05460F463046E4
:105720002146A14602F0CEFF02F042FD06460C469D
:10573000284639464FF03332434602F04DFB32469D
:10574000234602F05DFA02F029FA0990039802F06C
:105750002FFD044602980D46494602F0B3FF02F0C1
:1057600027FD06460F46204629464FF03332434672
:1057700002F032FB32463B4602F042FA02F00EFAE9
:105780000A900320FFF7DCF8BBF1010B94D1DDF8A0
:1057900010B00022DBF80800002301684FF0000A77
:1057A000CE680021B047DDE908980A9C48460021F0
:1057B00002F08CFD05462046494602F0BDFD002D55
:1057C0004FF0000508BF20F000454046002102F0E0
:1057D0007DFD06462046414602F0AEFD002EDBF878
:1057E0002C604CF6C777CFF6FF7708BF20F0004A51
:1057F000BE4205D028464FF07F5102F075FD50B9EA
:105800003846DBF8307087423CD050464FF07F512D
:1058100002F078FDB0BB2046002102F07AFD05467B
:105820002046002102F060FD0146002818BF4FF01D
:105830007E51DBF81C00002D1CBF0021CBF68071CF
:1058400002F040FF009CCBF81C00DBE9057500214D
:10585000A61C02F05EFD002828464FF0000118BF8C
:10586000344602F056FD002838464FF0000118BFBC
:10587000344602F04EFD002818BF344620460BB0D7
:10588000BDE8F08F4CF6C770CFF6FF7086421BD094
:1058900043F23331C3F63371284602F02CFD98B938
:1058A000DBE90740DBF82810DBF83420CBF82010C8
:1058B000CBE90A0248460021CBF8346002F029FD0A
:1058C000054648461EE000BF4CF6C770CFF6FF7095
:1058D000874229D043F23331C3F63371504602F088
:1058E0000AFD08BBDBF83400DBE90912DBF81C40D9
:1058F000CBE90C07CBE909214046002102F009FD64
:1059000005464046002102F0EFFC002818BF4FF08A
:105910007E502146002D1CBF0020CBF6807002F087
:10592000D1FE02248FE700BF002420460BB0BDE863
:10593000F08F00BF4355523A204E6F206472697653
:105940006572206C696E6B6564210A0070B54CF657
:10595000C7750446CFF6FF7500204FF47A76C4E988
:105960000800A06205E000BF0120FEF7E9FF013E4C
:1059700026D0FBF723FAE06AA84207D1206BA842A1
:105980000DD1606BA842EFD012E000BF01F056FBD2
:10599000216A02F039FC2062206BA842F1D001F0AC
:1059A0004DFB616A02F030FC6062606BA842DBD0A4
:1059B00001F044FBA16A02F027FCA062D4E700BF1B
:1059C000E06AA84206D0206A0021C4F27A4102F0BF
:1059D000B3FC2062206BA84206D0606A0021C4F2AA
:1059E0007A4102F0A9FC6062606BA84208BF70BDFA
:1059F000A06A0021C4F27A4102F09EFCA06270BD50
:105A0000F0B581B00D460446FBF7D8F9E86A01F01D
:105A100015FB296A6E692F6B02F0A6FF314602F072
:105A200051FE2060384601F009FB696AAF696E6B70
:105A300002F09AFF394602F045FE4CF6C771CFF6E8
:105A4000FF718E42606003D10020A06001B0F0BD04
:105A5000304601F0F3FAA96AEE6902F085FF31469B
:105A600002F030FEA06001B0F0BD000010B50446A9
:105A7000FFF76CFF01210120217310BDB0B5044672
:105A800000202071A0602073206148F65030C0F6DD
:105A900000001546DDE9042C083020604FF07E50F0
:105AA000C4E90B32C4E90DC1E56302F045FC2946A7
:105AB00002F042FC0146206480F00040C4E9051079
:105AC0002046E161B0BD00002DE9F04704460669BB
:105AD0008069301A02F069F94EF68D524CF2F76384
