:020000040800F2
:10000000A01C002045010008150800083D06000856
:1000100011080008BD010008390E000800000000AA
:100020000000000000000000000000001D080008A3
:100030002D0600080000000019080008210800082B
:100040005F0100085F0100085F0100085F01000810
:100050005F0100085F0100085F0100085F01000800
:100060005F0100085F0100085F0100085F010008F0
:100070005F0100085F010008F50400087105000831
:100080005F0100085F0100085F0100087D0D0008A6
:100090005F010008C10100085F0100085F0100085E
:1000A0005F0100085F0100085F0100085F010008B0
:1000B0005F0100085F0100085F0100085F010008A0
:1000C0005F0100085F0100085F0100085F01000890
:1000D0005F010008750B00085F0100085F01000860
:1000E0005F0100085F0100085F0100085F01000870
:1000F0005F0100085F0100085F0100085F01000860
:100100005F0100085F0100085F0100085F0100084F
:100110005F0100085F0100085F0100085F0100083F
:100120005F0100085F0100085F0100085F0100082F
:10013000DFF80CD000F02AF800480047F91000085A
:10014000A01C00200648804706480047FEE7FEE75F
:10015000FEE7FEE7FEE7FEE7FEE7FEE7FEE7FEE777
:10016000350900083101000840EA01039B0703D06C
:1001700009E008C9121F08C0042AFAD203E011F8E6
:10018000013B00F8013B521EF9D270471CB50948EB
:100190000090094801900546009C06E0E06840F0A8
:1001A000010394E8070098471034AC42F6D3FFF7F8
:1001B000C3FF0000F011000810120008FEE7000065
:1001C0002DE9F04F89B046F21046C4F200063068BF
:1001D000C00600F1BD803068800700F0C4800020B8
:1001E000CDE907003068800700F0BD8040F2080BC1
:1001F000EA46C2F2000B0AF11C080BF1200908E0E4
:1002000048465146242200F021FF3068800700F064
:10021000AA80DBE904010025013041F10001CBE9AE
:100220000401D6F8B031D6F8B441D6F8B821C4F3F9
:100230000727D6F8BC010697270C04F00F01059795
:1002400043F3800713F0040F0491C3F3800408BF45
:100250005D0D07EAD30708290294CDE90057C3F3DF
:10026000400328BF0821002903935DD001298DF8A0
:100270001C2059D0130A02298DF81D3054D0130CBC
:1002800003298DF81E304FD0120E04298DF81F203F
:100290004AD04A1F032A05D2042211F0030125D1B6
:1002A00042E000BF01F00C0253420022182400BFBC
:1002B000A4F110050AEB020720FA05F587F8215092
:1002C000A4F1080520FA05F587F8225020FA04F574
:1002D000043287F8200087F823509F18043704F170
:1002E0002004E5D1043211F003011DD06FF01F038B
:1002F00003EBC20320FA03F3012908F8023013D0FC
:10030000531C6FF01F0707EBC30720FA07F70229FA
:1003100008F8037008D0911C6FF01F0202EBC102B5
:10032000D04008F8010000BF306840F02000306085
:10033000484600F083FD23283FF662AFDBF80C004F
:100340000130CBF80C00484600F044FE58E700BFEF
:1003500040F20800C2F2000081680131816030681B
:1003600040F01000306009B0BDE8F08F2DE9F04397
:1003700081B0092A15468846064628BF00F058F97C
:1003800040F2080CC2F2000C9CF8000070B146F27A
:100390008053C4F2000318680024C0074FF0000126
:1003A0000DD01869C00705D1012108E0012001B076
:1003B000BDE8F083186AFF21C00708BF022103EBE4
:1003C00001100F0105F00F01DC51416001460246AA
:1003D00041F8084F42F80C4FDC59082D44EA4656C4
:1003E00028BF0825002DDE5176D098F800300F6820
:1003F000012D43EA07030B606ED098F801300F68B7
:10040000022D47EA03230B6066D098F802300F688C
:10041000032D47EA03430B605ED098F803300F6862
:10042000042D47EA03630B6056D0691F032905F0CA
:10043000030E01D2042126E005F0FC01C1F1000900
:100440000021182508EB01073C7913680431234388
:1004500013607B79A5F110041668A3403343136041
:10046000BB79A5F108041668A34033431360FB79F8
:100470001468AB402343136009EB0103043305F117
:100480002005DFD10431BEF1000F25D018F801702E
:100490006FF01F0606EBC1051468AF402743BEF19D
:1004A000010F176018D04F1C18F8075006EBC7074C
:1004B000166805FA07F73743BEF1020F17600BD035
:1004C000023118F801306FF01F0707EBC101176800
:1004D00003FA01F139431160016841F00101016043
:1004E0009CF8000001388CF80000002001B0BDE845
:1004F000F08300000420C4F2020050F8041C090438
:100500001CD450F8041C890458BF7047016841F49A
:1005100000510160016C21F00101016443F61400F7
:10052000C4F20100016821F08001016040F258002E
:10053000C2F2000000210170704700BF016841F461
:1005400000410160016C21F00101016443F61400D7
:10055000C4F20100016821F08001016040F25800FE
:10056000C2F2000000210170818801318180704752
:10057000B0B50420C4F2020050F8041C09030DD4E5
:1005800050F8041C490321D450F8041C890358BFB7
:10059000B0BD016841F400311BE000BF016841F4C7
:1005A00000210160416D21F0010141654FF480613E
:1005B0008165416D41F00101416540F25800C2F290
:1005C0000000C1880131C180B0BD00BF016841F4A5
:1005D0008021016040F25800C2F20000D0E902120E
:1005E00000F1300411F5007142F10002C0E902127D
:1005F000204600F023FCB0F5007F0BD205462046D4
:1006000000F02CFCC5F50071814228BF0146204650
:1006100000F0F6FC40F6A041C2F2000120464FF483
:100620000072BDE8B04000F011BD0000704700004E
:10063000EFF3108072B600BFFEE70000FEE7000097
:100640002DE9F04FB1F8018098FAA8F3B3FA83F3DB
:1006500038FA03F750D040F2011C4FF0011E4FF062
:100660000F0A4FF0040903E0013338FA03F243D0D4
:1006700028FA03F5ED07F7D0B3F108050EFA05F5F2
:1006800045F080664D6838BF0CFA03F6082D0DD191
:10069000370AD1F810B0C46897FAA7F7B7FA87F706
:1006A00024EA16240BFA07F73C43C460370E96FA87
:1006B000A6F6B6FA86F63C58B6000AFA06F224EA1E
:1006C000020205FA06F442EA04053D504A6842F087
:1006D0000802092AC8D18A680324B44025EA040420
:1006E000B2402243C251CC6809FA06F5AA43B4408D
:1006F0002243C251B8E700BF0020BDE8F08F0000E0
:1007000044F6D351C1F26201A0FB01014FF0FF306A
:1007100000EB91104EF21001CEF200014860002073
:10072000886005200860704740F20001C2F20001B5
:100730000860704781B04EF21001CEF200010A68E5
:1007400001300092009A28BF4FF0FF300A68D203B0
:1007500000EBE27078B10A68D20300EBE27050B1AE
:100760000A68D20300EBE27028B10A68D20300EBFA
:10077000E2700028EAD101B0704700002DE9F04195
:1007800086B041F21800C4F20200016840F600444D
:1007900041F0400101600168C4F2010401F0400130
:1007A00001910199016801AD41F004010160016806
:1007B00042F2200801F0040101910199016801272A
:1007C00041F0080101600068202100F0080001905C
:1007D000019841F61400C4F2010001606161002635
:1007E00004F540602946CDF80480CDE90277CDE9D3
:1007F0000466FFF725FF20462946CDE90187CDE9AC
:1008000003760596FFF71CFF06B0BDE8F0810000F7
:10081000FEE70000FEE700007047000070470000A0
:100820007047000010B542F20000C4F202000168F7
:10083000022262F302010160016801F0070102294E
:100840000ED0016801F00701022909D0016801F00A
:100850000701022904D0016801F007010229EBD148
:1008600041F20400C4F2020050F8041C41F480314B
:1008700040F8041C50F8041C89030CD450F8041CE4
:1008800089035CBF50F8041C5FEA813103D450F83F
:10089000041C8903EED501681D2262F31541016035
:1008A00050F8041C41F0807140F8041C50F8041CFE
:1008B00089010CD450F8041C89015CBF50F8041C59
:1008C0005FEA811103D450F8041C8901EED5016858
:1008D000042221F0F0010160016862F30A21016045
:1008E0000168022221F460510160016862F3010194
:1008F000016000BF016801F00C0108290ED00168F9
:1009000001F00C01082909D0016801F00C01082947
:1009100004D0016801F00C010829EBD14AF200244F
:10092000C0F24A442046FFF7EBFE2046BDE81040E7
:10093000FFF7FABE704700002DE9F04381B040F2A6
:100940005806C2F2000640F2A0014EF60C574EF2D5
:100950000E484EF20019442440F6040506F130001A
:10096000C2F2000140F20142CEF20007CEF20008CE
:10097000CEF20009C4F20204C4F2010500F07EFACE
:1009800040F2A04106F11800C2F2000140F6010257
:1009900000F074FA41F21800C4F20200016840F25B
:1009A000712241F480410160016841F0040101605D
:1009B0002868202120F0F0002860286840F0A0007E
:1009C0002860286820F470602860286840F48060FF
:1009D00028603868002088F81700C9F8041043F62A
:1009E0000C01C4F2010141F8042C0A6822F480527F
:1009F0000A604A6822F440524A600A6822F480621F
:100A00000A600A6842F008020A600A6842F00402BA
:100A10000A608A6822F440728A604A6822F480423E
:100A20004A604A6822F400624A608A6822F0200222
:100A30008A608A6822F002028A608A6822F00802CC
:100A40008A600A6842F010020A608A6842F0400236
:100A50008A600A6842F400520A60D4F8D01F41F05C
:100A60000101C4F8D01F396888F801004FF4004034
:100A7000C9F80000606920F0010060616069C0078A
:100A800009D06069C0071CBF60695FEAC07002D00E
:100A90006069C007F2D105F54050E06140F6A04022
:100AA000C2F2000020624FF48060A061002060610B
:100AB000616941F020016161616941F0800161611A
:100AC000616941F440516161616941F00201616114
:100AD000616941F004016161616941F00101616195
:100AE000D4F8D01F41F00101C4F8D01F3968C1F318
:100AF000022181F00702042A28BF0422033938BFEB
:100B000001464FF0FF309040022222EA0000884068
:100B1000000188F800004FF48040C9F80000206808
:100B200020F480402060206840F0100020602068A1
:100B300020F440502060206840F40050206020687D
:100B400020F020002060206820F040002060206815
:100B500040F080002060206820F440702060206811
:100B600020F440602060206840F00200206001B066
:100B7000BDE8F08310B582B043F60000C4F2010076
:100B8000016809070ED00168019140680190019841
:100B900040F25800C2F2000041880131418002B0A9
:100BA00010BD00BF0168C90642D55824C4F2020432
:100BB00001684068206820F001002060606881B210
:100BC000B1F5007F16D9B1F5806F2AD040F2580CEC
:100BD000C2F2000CC0F58060DCE9023281B2581824
:100BE00042F10002CCE9020240F6A040C2F200004D
:100BF00015E000BF15D040F2580CC2F2000CC0F551
:100C00000070DCE9023281B2581842F10002CCE9EE
:100C1000020240F6A040C2F2000000F5007000F0B1
:100C20006BF84FF480606060206840F00100206045
:100C300002B010BDF0B581B040F25807C2F2000713
:100C400007F1300000F00AF907F11806304600F00D
:100C500005F984B20CB1387810B101B0F0BD00BF15
:100C600041F2A005C2F20005B4F5006F28BF4FF4B1
:100C7000006430462946224600F056F9D7E90401BF
:100C8000001941F10001C7E9040100BF387830B113
:100C9000387820B1387810B138780028F6D144205F
:100CA0000121C4F2020039700168C90712D143F66C
:100CB0001401C4F20101A1F11002C5608260446018
:100CC0000A6842F080020A60016841F00101016097
:100CD00001B0F0BD016821F0010101600168C907A0
:100CE000E5D00168C9071CBF01685FEAC171DED0A9
:100CF0000168C907F2D1DAE7F0B581B020B3044644
:100D000040F25800C2F2000000F1300528460E46BD
:100D100000F094F80021B1EB962F074616D1BE42A1
:100D200009D9284600F09AF8F11B814228BF0146F4
:100D3000284600F065F928462146324601B0BDE854
:100D4000F04000F083B900BF01B0F0BDB6F5806F90
:100D500004D10020B0EB972F03D005E03019A0F5A7
:100D60008064284600F036F9284621464FF4806218
:100D700001B0BDE8F04000F069B9000046F208405B
:100D8000C4F200000168490140D40168090144D45B
:100D90000168C90003D5016841F080510160F0B5D8
:100DA00085B0EFF3108172B6016802680068C1F384
:100DB0008061C2F3C0621144C0F3007040F20807C2
:100DC0000844C2F2000738703878E0B101AC651D04
:100DD00007F13806304600F041F8102813D33046AA
:100DE00000212246102300F05BF801989DF80820AE
:100DF0002946FFF7BBFAC8B93046102100F000F9C8
:100E000038780028E6D162B605B0F0BD016841F03F
:100E10008061016001680901BAD5016841F0006193
:100E200001600168C900B6D4B9E700BF7868013035
:100E3000786062B605B0F0BDFEE7000060B1016801
:100E400051B1416841B1C2688068824238BF002117
:100E5000891A0844013870470020704760B1016862
:100E600051B1416841B1C268806882422EBF101AF8
:100E70001144081A704700BF00207047034600283D
:100E80004FF0000018BF002900D17047002A08BFAA
:100E90007047C3E9020018610120C3E900127047DE
:100EA000002804BF002070472DE9F0411546026874
:100EB0000646AAB31C46002B4FF0000018BF002DB9
:100EC00002D1BDE8F08100BF7368002B08BFBDE808
:100ED000F081F068B768C71B38BF1F448F421FD925
:100EE0007F1AB068A74238BF3C46CCB10844C11A4B
:100EF00038BF0146A3EB01082746A04538BF474647
:100F0000114428463A46FFF72FF9444504D9316881
:100F1000E21BE819FFF728F92046BDE8F08100BF81
:100F20000020BDE8F0810000002804BF00207047C9
:100F30002DE9F04381B00546006898B114464FF0A2
:100F400000005AB10E4649B1696839B1E868AA682B
:100F5000904238BF0844904208D1002001B0BDE85B
:100F6000F08300BF002001B0BDE8F083D5F8089001
:100F7000BFF35F8F801AD5E90012A042A2EB0907E8
:100F800038BF0446A74228BF2746494430463A4660
:100F9000FFF7EAF8B4EB070806D02968F0194246D3
:100FA000FFF7E2F802E000BF07EB09086868804538
:100FB00028BF4FF00008BFF35F8FC5F808802B698A
:100FC0001BB12846002122469847204601B0BDE8C3
:100FD000F083000090B1016881B14168002908BF29
:100FE00070470021BFF35F8FC160BFF35F8F8160E7
:100FF00003691BB102210022184700BF704700009F
:1010000010B508B30268FAB14FF00004C9B14268E4
:10101000BAB1C36884681C1B38BF14448C4228BF13
:101020000C468168BFF35F8F426821448A1A38BF3B
:101030000A46BFF35F8F8260036913B10021224625
:101040009847204610BD00BF002010BD002804BFF7
:10105000002070472DE9F04381B00546006868B371
:1010600014464FF0000052B30E4641B3696831B3E5
:10107000EA68AB68D04318449A4228BF084408B3D2
:10108000D5F80C90BFF35F8FD5E90012A042A2EB18
:10109000090738BF0446A74228BF274601EB0900CD
:1010A00031463A46FFF760F8B4EB07080ED02868DF
:1010B000F1194246FFF758F80AE000BF002001B0DE
:1010C000BDE8F083002001B0BDE8F08307EB09081C
:1010D0006868804528BF4FF00008BFF35F8FC5F8F0
:1010E0000C802B691BB128460121224698472046D7
:1010F00001B0BDE8F083000082B041F21800C4F2F4
:10110000020001684FF6FF0241F001010160016831
:101110004FF0FF3301F00101009100994168002573
:1011200041F080514160406840F60C4800F080502A
:10113000019001984EF60C50CEF200000168C4F206
:101140000108114040F20032C0F2FA52114301602E
:101150000168C1F3022181F00702042A28BF04229A
:10116000033903FA02F238BF2946D24302FA01F1E9
:101170000901C1750420C4F201000168022262F372
:101180001A610160FFF74EFBFFF7F8FAFFF7D4FB97
:1011900048F21F56C5F2EB166427002407E000BF93
:1011A000FFF748FD01200134FFF7C4FA013DA4FB1D
:1011B0000601480900FB07500028F1D1D8F80000CB
:1011C00000F0200040EA004080F02000C8F8040051
:1011D000E6E702E008C8121F08C1002AFAD17047EA
:1011E0007047002001E001C1121F002AFBD17047A7
:1011F000101200080000002008000000D2110008B2
:101200001812000808000020981C0000E2110008D5
:0812100000127A00000000004A
:0400000508000131BD
:00000001FF
