:020000040800F2
:100000001804002045010008D1060008F904000882
:10001000CD060008990100086108000800000000F2
:10002000000000000000000000000000D9060008E9
:10003000F504000800000000D5060008DD060008F1
:100040005F0100085F0100085F0100085F01000810
:100050005F0100085F0100085F0100085F01000800
:100060005F0100085F0100085F0100085F010008F0
:100070005F0100085F0100085F0100085F010008E0
:100080005F0100085F0100085F010008F507000834
:100090005F0100085F0100085F0100085F010008C0
:1000A0005F0100085F0100085F0100085F010008B0
:1000B0005F0100085F0100085F0100085F010008A0
:1000C0005F0100085F0100085F0100085F01000890
:1000D0005F0100085F0100085F0100085F01000880
:1000E0005F0100085F0100085F0100085F01000870
:1000F0005F0100085F0100085F0100085F01000860
:100100005F0100085F0100085F0100085F0100084F
:100110005F0100085F0100085F0100085F0100083F
:100120005F0100085F0100085F0100085F0100082F
:10013000DFF80CD000F018F8004800476508000808
:10014000180400200648804706480047FEE7FEE7FF
:10015000FEE7FEE7FEE7FEE7FEE7FEE7FEE7FEE777
:10016000F1070008310100081CB509480090094852
:1001700001900546009C06E0E06840F0010394E829
:10018000070098471034AC42F6D3FFF7D5FF0000C4
:100190007809000898090008FEE7000046F21841B7
:1001A000C4F200010A68C2F302138370130C437097
:1001B000130E0370C2F34003037102F00103C2F394
:1001C00080024371C2700A6822F070020A60C1782E
:1001D00000291CBF03207047017900291CBF0220A1
:1001E0007047817800291CBF0120704740790028A2
:1001F00018BF01208000704741F21800C4F20200CD
:10020000416841F000714160016841F00401016002
:1002100040F60401C4F20101086820F4704008604F
:10022000086840F400400860886840F40060886016
:10023000086820F4702008600A6846F2004042F422
:100240003022C4F200000A604168890700F19480FE
:10025000016841F0010101604168C90709D14168A5
:10026000C90704BF41685FEAC17102D14168C9078B
:10027000F2D0016821F080010160016821F04001A5
:100280000160016821F020010160016821F008018E
:100290000160016821F004010160016841F0100172
:1002A00001600321C0F22D01C161016821F001014B
:1002B00001604168C90709D04168C9071CBF41688E
:1002C0005FEAC17102D04168C907F2D1D0F80012CB
:1002D00041F00101C0F800120021C0F84012C0F83E
:1002E0004412D0F8142222F00102C0F81422D0F8EF
:1002F0001C2242F00102C0F81C22D0F8002222F099
:100300000102C0F800224EF60C52CEF20002126832
:10031000C2F3022282F00703042B28BF0423033A0E
:1003200038BF0A464FF0FF319940032323EA010109
:1003300091404EF213420901CEF2000211704EF2CA
:100340000011CEF200014FF400220A60416941F031
:1003500001014161816882688068C1F38061C2F3F4
:10036000C0621144C0F30070084440F21201C2F2AE
:1003700000010870704700BF016821F002010160B0
:10038000416889077FF564AF4168890744BF4168C8
:100390005FEA81717FF55CAF41688907F0D457E768
:1003A00040F2120CC2F2000C9CF80030002B04BF8B
:1003B000012070472DE9F04146F28C55C4F200054A
:1003C000002402F00F0345F80C4C45F8083C45F8B2
:1003D000044C2C6055F80C3C082A43EA405028BFD6
:1003E0000822002A45F80C0C76D0087855F8043C11
:1003F000012A40EA030045F8040C6DD0487855F80E
:10040000043C022A43EA002045F8040C64D08878B2
:1004100055F8043C032A43EA004045F8040C5BD03D
:10042000C87855F8043C042A43EA006045F8040CF7
:1004300052D0501F032802F0030E01D2042025E001
:1004400002F0FC00C0F10008002218248B181E796D
:100450002F6804323E432E605E79A4F110072868AD
:10046000BE40304328609879A4F108062F68B04058
:1004700038432860D8792B68A0401843286008EBDF
:100480000200043004F12004E0D1101DBEF1000F81
:1004900022D00B5C6FF01F0202EBC0042E68A34059
:1004A0003343BEF1010F2B6016D0431CCC5C02EB32
:1004B000C3022B6804FA02F21A43BEF1020F2A604B
:1004C0000AD00230095C6FF01F0202EBC0002A68FC
:1004D00001FA00F01043286055F80C0C40F00100C0
:1004E00045F80C0C9CF8000001388CF80000002046
:1004F000BDE8F08170470000FEE700002DE9F04FF5
:10050000B1F8018098FAA8F3B3FA83F338FA03F745
:1005100050D040F2011C4FF0011E4FF00F0A4FF077
:10052000040903E0013338FA03F243D028FA03F553
:10053000ED07F7D0B3F108050EFA05F545F0806632
:100540004D6838BF0CFA03F6082D0DD1370AD1F8E3
:1005500010B0C46897FAA7F7B7FA87F724EA162409
:100560000BFA07F73C43C460370E96FAA6F6B6FAC4
:1005700086F63C58B6000AFA06F224EA020205FAA8
:1005800006F442EA04053D504A6842F00802092A8E
:10059000C8D18A680324B44025EA0404B240224347
:1005A000C251CC6809FA06F5AA43B4402243C251AD
:1005B000B8E700BF0020BDE8F08F000044F6D3513B
:1005C000C1F26201A0FB01014FF0FF3000EB91107E
:1005D0004EF21001CEF20001486000208860052034
:1005E0000860704740F20001C2F2000108607047E5
:1005F00081B04EF21001CEF200010A680130009283
:10060000009A28BF4FF0FF300A68D20300EBE27077
:1006100078B10A68D20300EBE27050B10A68D203E5
:1006200000EBE27028B10A68D20300EBE270002808
:10063000EAD101B0704700002DE9F04186B041F2E7
:100640001800C4F20200016840F6004441F0400185
:1006500001600168C4F2010401F0400101910199B7
:10066000016801AD41F004010160016842F2200817
:1006700001F00401019101990168012741F008018D
:1006800001600068202100F008000190019841F607
:100690001400C4F2010001606161002604F54060AD
:1006A0002946CDF80480CDE90277CDE90466FFF74D
:1006B00025FF20462946CDE90187CDE90376059639
:1006C000FFF71CFF06B0BDE8F0810000FEE7000068
:1006D000FEE7000070470000704700007047000010
:1006E00010B542F20000C4F202000168022262F377
:1006F00002010160016801F0070102290ED00168C2
:1007000001F00701022909D0016801F0070102295F
:1007100004D0016801F007010229EBD141F2040085
:10072000C4F2020050F8041C41F4803140F8041C6B
:1007300050F8041C89030CD450F8041C89035CBFD6
:1007400050F8041C5FEA813103D450F8041C89037B
:10075000EED501681D2262F31541016050F8041CBA
:1007600041F0807140F8041C50F8041C89010CD43D
:1007700050F8041C89015CBF50F8041C5FEA811129
:1007800003D450F8041C8901EED50168042221F03D
:10079000F0010160016862F30A2101600168022230
:1007A00021F460510160016862F30101016000BF42
:1007B000016801F00C0108290ED0016801F00C015C
:1007C000082909D0016801F00C01082904D001684A
:1007D00001F00C010829EBD14AF20024C0F24A448E
:1007E0002046FFF7EBFE2046BDE81040FFF7FABEBB
:1007F0007047000046F20840C4F200000168490159
:100800001ED40168090122D40168C90003D501681A
:1008100041F080510160EFF3108172B60168026807
:100820000068C1F38061C2F3C0621144C0F300707C
:10083000084440F21201C2F20001087062B670472B
:10084000016841F08061016001680901DCD501683F
:1008500041F0006101600168C900D8D4DBE7000005
:10086000FEE7000082B041F21800C4F20200016805
:100870004FF6FF0241F00101016001684FF0FF33C4
:1008800001F0010100910099416840F60C4641F0E9
:10089000805141604068C4F2010600F08050009031
:1008A00000984EF60C50CEF200000168114040F264
:1008B0000032C0F2FA52114301600168C1F3022113
:1008C00081F00702042A28BF0422033903FA02F246
:1008D00038BF0021D24302FA01F10901C175042099
:1008E000C4F201000168022262F31A610160FFF79D
:1008F000F7FEFFF7A1FEFFF77FFC46F2556842F2D4
:10090000112940F20C0540F20807C8F67708C4F236
:1009100033496C46C2F20005C2F2000706E000BF90
:100920002846FFF73BFC3220FFF762FE3068214685
:1009300000F0200040EA004080F02000706040F2AB
:1009400023100822CDE90098FFF72AFD0028E7D000
:10095000386801303860E3E702E008C8121F08C1B8
:10096000002AFAD170477047002001E001C1121F30
:10097000002AFBD170470000980900080000002001
:100980000800000058090008A0090008080000201D
:10099000100400006809000800127A00000000003E
:0400000508000131BD
:00000001FF
