:020000040800F2
:10000000E02300209D010008AD120008A1020008B5
:10001000A9120008A504000815200008000000002F
:10002000000000000000000000000000AF01000818
:10003000A904000800000000EF010008791C000876
:10004000B7010008B7010008B7010008B7010008B0
:10005000B7010008B7010008B7010008B7010008A0
:10006000B7010008B7010008B7010008B701000890
:10007000B7010008B7010008B7010008B701000880
:10008000B7010008B7010008B7010008B701000870
:10009000B7010008B7010008B7010008B701000860
:1000A000B7010008B7010008B7010008B701000850
:1000B000B7010008B7010008B7010008B701000840
:1000C000B7010008B7010008B7010008B701000830
:1000D000B7010008B7010008B7010008B701000820
:1000E000B7010008B7010008B7010008B701000810
:1000F000B7010008DD1D0008B7010008B7010008BE
:10010000B7010008B7010008B7010008B7010008EF
:10011000B7010008B7010008B7010008B7010008DF
:10012000B7010008B7010008B7010008B7010008CF
:10013000B70100080000000000000000B70100083F
:10014000B7010008B7010008B7010008B7010008AF
:10015000B7010008B7010008B7010008B70100089F
:10016000B7010008B7010008B7010008B70100088F
:10017000B7010008B70100080000000000000000FF
:10018000B7010008B7010008DFF80CD000F03CF917
:100190000048004739040008E02300200648804753
:1001A00006480047FEE7FEE7FEE7FEE7FEE7FEE75C
:1001B000FEE7FEE7FEE7FEE7C91D0008890100082B
:1001C000EFF3108072B6704780F310887047424A90
:1001D0001368012B04D04FF0010313603F4A1060F5
:1001E0003F4A11603F484FF0805101607047EFF384
:1001F000108272B63848016851B34FF000010160B7
:100200003648016891B1EFF309811EF0100F08BF65
:1002100021ED108B21E9F00F4FF000041EF0100FBC
:1002200008BF012441F8044D006801602C490968A9
:10023000096808C9B1E8F00F002B18BFB1EC108BAA
:1002400081F309884EF0100E002B18BF2EF0100E0F
:1002500082F310884EF0040E704721490860EFF3D6
:10026000148222F0040282F314881C494FF000002B
:10027000086019494FF0010008601B481B49D0F87D
:10028000002041EA0201016016484FF080510160F0
:1002900017480068006880F3088861B662B6704746
:1002A0001EF0040F0CBFEFF30880EFF3098020E984
:1002B000F00F40F804ED40F804ED1EF0040F0CBF01
:1002C00080F3088880F3098800B504F099FC5DF894
:1002D00004EB4EF0040E7047D013002044110020B0
:1002E0004C11002004ED00E020ED00E00000FFFFD5
:1002F00008ED00E02DE9F05F0546002092469B46A0
:1003000088460646814640241BE02846414647462B
:10031000224600F069F853465A46C01A914110D35C
:1003200011461846224600F050F82D1A67EB0108D6
:100330004F4622460120002100F047F817EB000944
:100340004E41201EA4F10104DFDC484631462A4616
:100350004346BDE8F09F40EA01039B0703D009E054
:1003600008C9121F08C0042AFAD203E011F8013BA1
:1003700000F8013B521EF9D27047D2B201E000F8FA
:10038000012B491EFBD270470022F6E710B5134639
:100390000A4604461946FFF7F0FF204610BD421CEE
:1003A00010F8011B0029FBD1801A704730B50546B3
:1003B0000020034600E05B1C934205D2EC5CC85C65
:1003C000201A01D1002CF6D130BD202A04DB203ABE
:1003D00000FA02F1002070479140C2F1200320FA98
:1003E00003F3194390407047202A04DB203A21FA96
:1003F00002F00021704721FA02F3D040C2F120023E
:1004000091400843194670471CB5094800900948B7
:1004100001900546009C06E0E06840F0010394E886
:10042000070098471034AC42F6D3FFF7B1FE000046
:10043000886E0008A86E000810B584B0FFF7C0FEF3
:1004400004F0AAFB05F076F805F0DAF905F02AF9D0
:1004500040F6C0424FF48061C2F2000241F2C00493
:100460000A20CDE90021C2F2000446F6C52143F678
:1004700051724FF0140C0290C0F60001C0F6000259
:1004800020460023CDF80CC005F030FA204605F0D8
:10049000B5FA05F0BDF905F003FA05F099F9002069
:1004A00004B010BDFEE7000070470000EFF31080BD
:1004B00072B600BFFEE700002DE9F04F82B000F1F8
:1004C0003E4707F1FF77860546EA972741F6004643
:1004D000C4F20206082243F6004EB04208BF0722CB
:1004E000C4F2010E072F38BF3A46002600274FF00E
:1004F0000008009209E000BF08F101080237B8F1D6
:10050000100F06F1040600F0A3800D68012202FA24
:1005100008F415EA0409EFD0D1F804B003220BF077
:10052000030CACF10105BA40012D6FEA020A0FD8A5
:100530008268CD6802EA0A02BD402A4382604268AE
:10054000A243CBF3001404FA08F42243426005E00E
:10055000BCF1030F02D14FF0030C1EE0C2688C689F
:1005600002EA0A02BC402243BCF1020FC26014D16D
:100570006FF0030202EA58020244D2F820C006F0EB
:100580001C040F230D69A3402CEA0303A5402B4351
:100590001362D1F804B00BF0030C02680CFA07F3F5
:1005A00002EA0A021A431BF4403F0260A4D0002270
:1005B00043F644030192C4F202031A684FF6084C52
:1005C00042F480421A601A68CFF6FF7C02F480423F
:1005D0000192019A28F00302724452F80C3006F09E
:1005E0000C050F24AC40A343009C04FA05F52B43F3
:1005F00042F80C30DEF808204B6842EA090543F661
:100600000C4CDC0258BF22EA0905CEF80850C4F2AF
:10061000010CDCF800209C0242EA090558BF22EADE
:100620000905CCF80050DEF804209C0342EA0905D5
:1006300058BF22EA0905CEF80450DEF80020DB039B
:1006400042EA090558BF22EA0905CEF8005053E7EF
:1006500002B0BDE8F08F0000426902EA0103914355
:1006600041EA034181617047002A08BF09048161A2
:100670007047000041F2D830C2F2000000687047B5
:1006800040F2000041F2D831C2F20000C2F2000193
:1006900000780A68104408607047000080B543F68F
:1006A0000040C4F20200016841F400710160016879
:1006B00041F480610160016841F4807101600320B0
:1006C00000F0AAF80F2000F005F800F04BF8002029
:1006D00080BD000010B586B001462D200022002408
:1006E00000F06EF82D2000F059F843F64000019418
:1006F000C4F20200016841F480710160006869463B
:1007000000F480700190019801A800F047F900F012
:100710006BF94DF683614000C4F21B31A0FB01016F
:100720004FF0FF3000EB914140F6B03042F2000252
:10073000C2F20000C4F2000240F2E733C0E9002137
:10074000C0E90243046100F09FFB18B1012006B02C
:1007500010BD00BF40F6B030C2F2000000F0C4FB94
:1007600006B010BD82B0002043F640010190C4F2F3
:1007700002014A6842F480424A604A6802F48042B8
:100780000192019A0090086840F080500860086863
:1007900000F080500090009802B07047002848BFD9
:1007A000704700F01F01012202FA01F11C2202EA47
:1007B000D0004EF20012CEF20002815070470000CD
:1007C00010B54EF60C5CCEF2000CDCF80030C3F332
:1007D000022E8EF00704042C28BF0424BEF103036C
:1007E0004FF0FF3E0EFA04F438BF0023A1439940B6
:1007F0000EFA03F39A43114300F00F0200F1604335
:100800000901043A03F564436244002848BF02F139
:100810000C03197010BD00004EF60C51CEF2000111
:100820000A684FF6FF031A4060F30A2242F0806024
:1008300040F0FD7008607047002804BF0120704739
:100840002DE9F04143F60808C4F202080446D8F83E
:10085000F8030D4600F00700884207D288F8F853E5
:10086000D8F8F80300F00700A84277D12068810784
:1008700017D5410705D5D8F8001041F4E051C8F864
:100880000010010705D5D8F8001041F46041C8F800
:100890000010D8F80010A26821F0F0011143C8F848
:1008A0000010C00740D1D8F8F80300F00700A842B4
:1008B00007D988F8F853D8F8F80300F00700A842E1
:1008C0004CD12068410707D5D8F80010E26821F420
:1008D000E0511143C8F80010000708D5D8F800000F
:1008E000216920F4604040EAC100C8F8000000F02F
:1008F000A3F8D8F8001046F2D862C1F30311C0F68D
:100900000002515C40F2080220FA01F140F20400BA
:10091000C2F200000068C2F200021160FFF7DAFEC6
:100920000020BDE8F08100BF6068811E022907D267
:1009300058F8081C89015CBF0120BDE8F08111E076
:10094000012807D158F8081C89035CBF0120BDE8C5
:10095000F08107E058F8081C890703D40120BDE89E
:10096000F08100BFD8F8001021F003010843C8F857
:100970000000FFF77FFE064641F28837D8F80000F6
:10098000616800F00C00B0EB810F8CD0FFF772FEB5
:10099000801BB842F2D90320BDE8F0810F2202602B
:1009A00043F60802C4F20202136803F00303436033
:1009B000136803F0F0038360136803F4E053C3602B
:1009C000D2F800C04FF4E05303EADC030361D2F82D
:1009D000F80300F0070008607047000040F20800CC
:1009E000C2F200000068704740F2080043F60801B8
:1009F000C2F20000C4F202010068096846F2E8622F
:100A0000C1F38221C0F60002515CC840704700006B
:100A100040F2080043F60801C2F20000C4F20201ED
:100A20000068096846F2E862C1F34231C0F600028C
:100A3000515CC8407047000010B543F60404C4F28E
:100A40000204606800F00C0142F200400829C0F284
:100A5000F40007D0042918BF10BD41F20020C0F2F5
:100A60007A0010BD216801F03F0221682368490225
:100A7000C3F3881106D4A1FB00010023FFF73AFC61
:100A800007E000BF41F20020C0F27A004843B0FB0B
:100A9000F2F021680222C1F3014102EB4101B0FBF7
:100AA000F1F010BD002804BF012070472DE9F0418E
:100AB00082B00446007843F60006C007C4F202067E
:100AC0000CD0B06800F00C00042840F08180306841
:100AD000800303D56068002800F06A8120788007D1
:100AE0001BD5B06810F00C0F09D0B06800F00C00F6
:100AF000082840F087807068400200F183803068E9
:100B0000800703D5E068012840F0528130682169F0
:100B100020F0F80040EAC10030602078000713D4CC
:100B2000207840072AD4A569002D00F03C81B068E8
:100B300000F00C00082840F0A180012D40F0108149
:100B4000012002B0BDE8F0816069002840F2000099
:100B5000C4F2472000F07E800121C0F8801EFFF71C
:100B600089FD0546706F8007DAD4FFF783FD401BCF
:100B70000228F7D9032002B0BDE8F081306C5FEAAB
:100B8000C0080AD400200190306C40F080503064DE
:100B9000306C00F080500190019847F20007C4F2D9
:100BA00000073868C00547D4386840F48070386062
:100BB000FFF760FD054600BF3868C0053CD4FFF76D
:100BC00059FD401B0228F7D9032002B0BDE8F0818F
:100BD000B06800F00C00082803D1706840023FF5AF
:100BE00076AF6068B0F5803F07D0B0F5A02F40F039
:100BF0009B80306840F480203060306840F4803062
:100C000030609BE0E06800285CD00020C4F2472000
:100C100001210160FFF72EFD054600BF3068800707
:100C20003FF574AFFFF726FD401B0228F6D90320DD
:100C300002B0BDE8F08100BFA068012805D00528FA
:100C400054D1306F40F004003067306F40F0010045
:100C5000306755E00021C0F8801EFFF70BFD054608
:100C6000706F80077FF55CAFFFF704FD401B022823
:100C7000F6D9032002B0BDE8F08100BF0027C4F21E
:100C8000472700203866FFF7F5FC022D05460DD1F9
:100C90003068800140F19080FFF7ECFC401B022897
:100CA0004FF00300F4D902B0BDE8F0813068800154
:100CB00079D5FFF7DFFC401B02284FF00300F5D980
:100CC000F1E700BF0020C4F2472000210160FFF7D8
:100CD000D1FC0546306880077FF51FAFFFF7CAFCDF
:100CE000401B02284FF00300F4D9DCE7316F0028E5
:100CF00021F001013167316F21F0040131677DD0AE
:100D0000FFF7B8FC054641F2883700BF306F800717
:100D100000F18680FFF7AEFC401BB842F6D90320F5
:100D200002B0BDE8F08100BF3168002821F48031B5
:100D30003160316821F4802131607BD0FFF79AFC6B
:100D4000054600BF306880033FF5C8AEFFF792FC50
:100D5000401B6428F6D9032002B0BDE8F08100BF33
:100D60007068E16900F480028A4221D1216A00F0B2
:100D70003F028A421CD147F6C071626A0140B1EB62
:100D8000821F15D1A16A4FF6FF73C903994300F47E
:100D90004032A1F580318A420AD1E16A00F07060E8
:100DA000B0EB016F04D1002002B0BDE8F08100BFBC
:100DB000012002B0BDE8F08104F11C052FCD0843ED
:100DC00040EA8210D9034FF6FF729143A1F58031BA
:100DD00040EA05600843706001203866FFF74AFC6E
:100DE000044600BF30688001DDD4FFF743FC001BE0
:100DF00002284FF00300F5D955E700BFFFF73AFC92
:100E0000054641F2883700BF306F800708D5FFF7ED
:100E100031FC401BB8424FF00300F5D943E700BF57
:100E2000B8F1000F3FF57FAE306C20F08050306499
:100E300079E600BFFFF71EFC054600BF306880035F
:100E40007FF54CAEFFF716FC401B64284FF0030003
:100E5000F4D928E7411E0020B0EB116F1CBF012020
:100E600070474EF21002CEF2000251604EF623514E
:100E7000CEF20001F0230B700721906011607047E3
:100E80007047000070470000002804BF0120704731
:100E900010B5044690F83D0028B9002084F83C00C5
:100EA000204600F01FF8022084F83D002068211D34
:100EB00000F09AFF012084F8460084F83E0084F890
:100EC0003F0084F8400084F8410084F8420084F830
:100ED000430084F8440084F8450084F83D00002075
:100EE00010BD00007047000090F83D1001291CBFA4
:100EF00001207047022180F83D10006841F2FF7226
:100F0000C168C4F20002904241F00101C1600DDCF1
:100F100040F2FF71C4F20001884215DCB0F1804F4D
:100F20002AD040F20041C4F2000123E040F2FF3138
:100F3000C4F20101884213DC41F60001C4F2000151
:100F4000884219D0002113E040F60001C4F20001EC
:100F5000884211D040F60041C4F200010AE000BF0F
:100F600044F20001C4F20101884205D040F2004180
:100F7000C4F20101884206D1816801F00701062907
:100F800004BF00207047016841F0010101600020AA
:100F9000704700007047000010B5016804460869FA
:100FA000800744BFC8685FEA807039D40869400789
:100FB00044BFC8685FEA40703ED40869000744BF78
:100FC000C8685FEA007045D40869C00644BFC868B5
:100FD0005FEAC0604AD40869C0071CBFC8685FEAFE
:100FE000C07051D10869000644BFC8685FEA00605C
:100FF00052D40869400644BFC8685FEA406053D4D1
:101000000869800646BFC8685FEA806010BD6FF05F
:10101000200220460A61BDE81040FFF733BF00BF41
:101020006FF002000861012020778869800743D0B3
:101030002046FFF7AFFF45E06FF004000861022093
:101040002077886910F4407F40D02046FFF7A2FF48
:1010500042E000BF6FF00800086104202077C869F3
:1010600080073DD02046FFF795FF3FE06FF010006E
:10107000086108202077C86910F4407F3AD02046E4
:10108000FFF788FF3CE000BF6FF0010008612046D9
:1010900000F03EF82168A5E76FF080000861204667
:1010A000FFF7EEFE2168A4E76FF0400008612046DC
:1010B00000F038F82168A3E7204600F025F8204624
:1010C00000F024F82168002020776FE7204600F028
:1010D0001BF8204600F01AF82168002020776CE702
:1010E000204600F011F8204600F010F8216800209A
:1010F000207769E7204600F007F8204600F006F860
:1011000021680020207766E77047000070470000E4
:10111000006842F20001C4F20001884218BF704723
:10112000FFF7AEBA70470000002804BF01207047E7
:1011300010B5044690F83D0028B9002084F83C0022
:10114000204600F021F8242084F83D002068C16882
:1011500021F40051C160204600F0E4FE20680169DE
:1011600021F490410161416921F02A014161C16886
:1011700041F40051C16000202021206484F83D101A
:1011800084F83E1010BD0000016844F20040C4F233
:101190000000814218BF704780B586B0002143F639
:1011A00030020191C4F20202136900F5DE3043F40B
:1011B00000331361136903F400330193019B019120
:1011C000136843F001031360126802F001020192F8
:1011D000019A0C2201920222CDE9022103210491FD
:1011E0000721059101A9FFF767F906B0BDE8804026
:1011F00070470000B0B586B0002043F6300105907E
:101200000090C4F202010A6840F6004442F08002F5
:101210000A600A68C4F2020402F080020092009A96
:1012200000900A68042542F001020A600A6802F090
:1012300001020092009A00900868002240F0080025
:1012400008600868042100F008000090009820461B
:10125000FFF70AFA012002210290CDE9031001A94B
:1012600020460195FFF728F906B0B0BD80B540F6DD
:10127000F83044F20041C2F20000C4F20001002341
:101280004FF00C0C4FF4E13280E80E00C0E903335C
:10129000C0E905C3C361FFF747FF002808BF80BD51
:1012A000BDE88040FFF702B9FEE70000FEE700005E
:1012B00010B50B46EFF311844FF0200181F3118834
:1012C000194600F003F884F3118810BD2DE9F047AA
:1012D00040F20C16C2F20006144632788846532AB1
:1012E00007463DD03046A821FFF74EF80320306175
:1012F000706146F6765140F2B410C0F60001C2F2B9
:101300000000B161F0614FF4806030620020B06293
:101310007062F062316640F2B401C2F20001013144
:1013200071661021B16653213067F0667067BFF3B4
:101330005F8F3170452147227170B270F270317148
:10134000522120227171B271F17154213172717286
:10135000B072F07230737073B073F073BFF35F8F5D
:1013600007EB470006EBC007B94659F8705F59F81C
:1013700004AC554512D9D7E919014E1BA64228BF26
:101380002646411940463246FEF7E5FFB86E711910
:10139000B044A41B0D1A18BF0D4600E00026AAEBAE
:1013A0000500A04238BF04463CB1786E2246411980
:1013B0004046FEF7D0FF264425443046002E18BF95
:1013C000C9F80050BDE8F087F0B581B040F20C17C5
:1013D000C2F2000714463A780D46532A06463DD01D
:1013E0003846A821FEF7D0FF03203861786146F621
:1013F000765140F2B410C0F60001C2F20000B961AB
:10140000F8614FF4806038620020B8627862F86258
:10141000396640F2B401C2F200010131796610214F
:10142000B96653213867F8667867BFF35F8F397004
:10143000452147227970BA70FA7039715221202201
:101440007971BA71F971542139727972B872F8727E
:1014500038737873B873F873BFF35F8FEFF3118746
:101460004FF0200181F3118830462946224600F0D2
:1014700005F887F3118801B0F0BD00002DE9F04FA9
:1014800081B040F20C1300EB4000C2F2000303EB0A
:10149000C007F86A14460228894613D0012845D0AF
:1014A00058B93D4655F8246F6868B04240F27C80D8
:1014B000F1430844A04280F07E800026304601B00F
:1014C000BDE8F08F57F8245F0026381DA7F1040B04
:1014D000BA46A7F1080800900098EA430068DBF8D4
:1014E0000010A842104498BF08444F1BB84238BFB0
:1014F0000746D8F80000A74228BF27462844494697
:101500003A46FEF728FFDBF800007919E41B0D1AB4
:101510003E44B94418BF0D46002CBFF35F8FCAF894
:101520000050D9D1304601B0BDE8F08FBA465AF824
:10153000245FDAF80410A94204D9EA43386A114456
:1015400004E000BF386AEA4311440144A14238BFB5
:101550000C46461B57F81C0FB44228440ED249468D
:101560002246FEF7F8FE6019BFF35F8FCAF800004D
:101570002646304601B0BDE8F08F00BF49463246EE
:10158000FEF7E9FEA4EB0608386809EB06014246BF
:10159000FEF7E1FEBFF35F8FCAF8008026463046B3
:1015A00001B0BDE8F08F00BF396AF243104408442F
:1015B000A042FFF482AF57F81C0F79683044A1EBCA
:1015C000060A54450CD249462246FEF7C4FE30199D
:1015D000BFF35F8F28602646304601B0BDE8F08F2C
:1015E00049465246FEF7B7FEA4EB0A08386809EBF5
:1015F0000A014246FEF7AFFEBFF35F8FC5F80080D9
:101600002646304601B0BDE8F08F000082B080B5BC
:1016100082B0CDE9042304AA019201AA00F006F8E1
:1016200002B0BDE8804002B0704700002DE9F04FE5
:101630009BB0904606AA16924022002504901A906C
:101640000DF1580900208A461792CDE9185507E098
:1016500000F0E2FC19985146B0F1FF3F40F30483DB
:101660001AF8013B252B1BD0002B00F0ED82DDE9A1
:101670001720411C914207D8169A13541998179AAB
:1016800001301990084618919042E3D116991A98A2
:10169000FFF79AFE1899884240F0D0821895D9E752
:1016A00001F1040A4FF0000B1AF8031CA1F1230307
:1016B0000D2B00F25F800222DFE803F0085C5C5C27
:1016C0005C5C5C5C0A5C0C5C5C0D00BF082202E0A8
:1016D000042200E001221AF8021C4BEA020BA1F1DD
:1016E00023030D2B00F28C800222DFE803F0078930
:1016F00089898989898909890B89890C082202E0ED
:10170000042200E001221AF8011C4BEA020BA1F1AD
:1017100023030D2B00F280800222DFE803F0077D17
:101720007D7D7D7D7D7D097D0B7D7D0C082202E028
:10173000042200E001229AF800104BEA020BA1F10A
:1017400023030D2B5ED80222DFE803F0105C5C5C03
:101750005C5C5C5C125C0E5C5C0800BF4BEA020BDC
:101760000AF1040AA0E700BF0122F7E70822F5E723
:101770000422F3E7AAF1030AA1F13A0212F10A0FD7
:1017800045D30AF1020A002606EB860201EB42026B
:101790001AF8011CA2F13006A1F13A0313F10A0F65
:1017A00042D306EB860201EB42029AF80010A2F146
:1017B0003006A1F13A0313F10A0F37D306EB860284
:1017C00001EB42029AF80110A2F13006A1F13A03AE
:1017D00013F10A0F76D306EB860201EB42029AF868
:1017E0000210A2F13006A1F13A0212F10A0F0AF139
:1017F000040AC9D2AAF1020A2E2919D00AE000BFB0
:10180000AAF1020AA1F13A0212F10A0FB9D2002696
:101810002E290DD0002761E0AAF1010AA1F13A02B8
:1018200012F10A0FF3D3ACE7AAF1010A2E29F1D184
:10183000524612F8011FA1F13A0313F10A0F03D225
:10184000002792464AE000BF0AF1020A002700BFC3
:101850009AF8002007EB870301EB4301A2F13A035A
:1018600013F10A0FA1F1300738D39AF8011007EBF2
:10187000870302EB4302A1F13A0313F10A0FA2F12D
:10188000300725D39AF8022007EB870301EB4301C9
:10189000A2F13A0313F10A0FA1F130071CD307EBB1
:1018A000870102EB41029AF80310A2F13007A1F17F
:1018B0003A0212F10B0F0AF1040AC9D8AAF1010A7F
:1018C0000CE000BF0AF1010A2E29B1D0A2E700BF47
:1018D0000AF1010A02E000BF0AF1020A9AF80010B8
:1018E00001F0FB02682A41D19AF8011001F0FB02D5
:1018F000682A40F04D809AF8021001F0FB02682A35
:1019000040F04E809AF803100AF1040A01F0FB023D
:10191000682AE3D0A1F15802202A2DD8DFE802F08E
:101920002220202020202020202020485820202055
:1019300020202020202020201220208820B82020B5
:10194000220000BFD8F800001022011DC8F80010C6
:101950000168484608230827CDE9007578E600BFEE
:1019600078E600BFD8F80000102294E00AF1010ADE
:10197000A1F15802202AD1D925297FF46BAEDDE9E7
:101980001720411C91423FF67FAE169A252374E63C
:101990000AF1020AA1F15802202ABFD9ECE700BFE0
:1019A0000AF1030AA1F15802202A7FF6B7AFE3E754
:1019B000DDE91720D8F80030411C1F1D9142C8F8FE
:1019C00000703FF661AE1A68169B1A5456E600BFC7
:1019D000D8F8001041F2597C0A1DC8F800200968A7
:1019E00048F29F640029C1F100028E4648BF1146AB
:1019F0000A2942F21075CDF2B71CC0F2010403921D
:101A0000CDF8148050D34FF0020800BF642955D39D
:101A1000B1F57A7F4CD3A9424ED3A1FB0C23A1424E
:101A20004FEA533108F10408F0D8A8F1010845E065
:101A3000D8F800100A1DC8F800200C688CA1002CF2
:101A400008BF0C4606E000BFB0F1FF3F04F10104FF
:101A50007FF700AE2778002F3FF4FCADDDE91721BA
:101A60004B1C934207D8169847541998179A01307F
:101A70001946189319909142E6D116991A98FFF7D2
:101A8000A3FC1899884240F0D98019981895DBE793
:101A9000D8F800000A22011DC8F800100168484665
:101AA0003B46CDE9006BD3E54FF0010806E000BFEF
:101AB00008F1010802E000BF08F10208B8457446C9
:101AC00098BFB84676B10021002C48BF01210BF029
:101AD000040241EA9201A6EB01095FEA8B7506D484
:101AE00006E000BF4FF000095FEA8B7500D55FB3D9
:101AF0005FEACB7128D1B9F1000F25D0A9F1010619
:101B00004E4538BFC8451FD2DDE917214B1C934213
:101B100008D81698202242541998179A013019466D
:101B20001893199091420AD116991A98FFF74CFC14
:101B30001899884240F08280199800211891002855
:101B4000B146DBD572E000BF00286FD4B4F1FF3F8F
:101B500020DD5FEA4B7130D5DDE917214B1C934244
:101B600008D816982B2242541998179A01301893C6
:101B70001990194691421ED116991A98FFF724FC24
:101B8000189988425AD1002018901998002814D525
:101B90004CE000BFDDE917214B1C934208D8169892
:101BA0002D2242541998179A01301946189319900A
:101BB000039C9142E0D0002838D4002D0CD416A804
:101BC00021460A223B46CDE9009B814600F024FADB
:101BD000DDF8148000253DE50BF001013943EED11D
:101BE000B9F1000FEBD0A9F101064E4538BFC84549
:101BF000E5D2DDE917214B1C934208D81698302214
:101C000042541998179A0130194618931990914225
:101C100009D116991A98FFF7D7FB189988420DD168
:101C20001998002118910028B146DCD5DDF8148000
:101C300000250DF15809FFF70DBD00BF4FF0FF3033
:101C40001BB0BDE8F08F00BF40B1189A52B10498A4
:101C500006A9FFF7B9FBDDE9181004E000201BB06E
:101C6000BDE8F08F002108441BB0BDE8F08F00BF35
:101C7000284E554C4C29000080B503F007FA03F0BC
:101C800037FFBDE8804003F00FBA0000B0B592B056
:101C9000002443F64000CDE90A44CDE90844059408
:101CA000CDE90344CDE901440094C4F20200016887
:101CB000022541F080510160006800F080500090E2
:101CC000009847F200000094C4F20000016841F45B
:101CD00080410160006800F480400090009801207D
:101CE00006904FF4803007904FF480000D9008204C
:101CF0000E904FF4A870CDE90F050420119006A8AE
:101D00000C95FEF7CFFE28B1EFF3108072B600BF3E
:101D1000FEE700BF0F20CDE901054FF4A05004906D
:101D20004FF48050059001A805210394FEF784FD2F
:101D300020B1EFF3108072B6FEE700BF12B0B0BD65
:101D400080B543F60400C4F20200416801F00C02C1
:101D500042F20041082AC0F2F40107D0042A21D13E
:101D600041F20021C0F27A011CE000BFD0F800C0AF
:101D70000368026803F03F03C2F3881E5FEA4C2247
:101D800041F20022C0F27A0258BF0A46B2FBF3F1D8
:101D900002680223C2F301420EFB01F103EB42028F
:101DA000B1FBF2F140F20802C2F200021160406899
:101DB00046F2D863C0F30310C0F60003185C21FAA2
:101DC00000F0106080BD00004EF68850CEF200009A
:101DD000016841F4700101607047000040F6B030C6
:101DE000C2F20000FFF7D8B810B540F6FF3E036816
:101DF000C4F2000E40F2004C7045C4F2010C27DC26
:101E0000B0F1804F31D040F20042C4F20002904263
:101E10002BD040F60002C4F20002904225D041F6D9
:101E2000FF72C4F20002904229DC70453CDCB0F144
:101E3000804F5FD040F20042C4F20002904259D07D
:101E400040F60002C4F20002904253D056E000BFB8
:101E500040F60042C4F20002904206D0604504D031
:101E60000022C4F201029042D9D14A6823F07003E3
:101E7000134341F6FF72C4F200029042D5DD43F6EF
:101E8000FF72C4F20102904222DC42F20002C4F26C
:101E9000000290422ED00022C4F20102904229D0CA
:101EA000604527D02AE000BF40F60042C4F200029D
:101EB00090421FD041F60002C4F20002904219D0B5
:101EC00041F60042C4F20002904213D016E000BF77
:101ED00044F20002C4F2010290420BD044F6000228
:101EE000C4F20102904205D044F20042C4F2010261
:101EF000904203D1CA6823F44073134323F0800255
:101F00004B69D1F800E08C681A430260C46240F467
:101F10008062C0F828E0624504BF096901630121BD
:101F2000416110BD10B504460068D4E902C22369BE
:101F3000016921F4405111430161626943EA0C01D6
:101F4000E3691143C268194349F20C639A43114390
:101F5000C1604169A26921F4407141F2004311431B
:101F600040F48062C4F201039A42416102D1FEF75B
:101F70004FFD01E0FEF738FDE16963681922B1F514
:101F8000004FA0FB020123D15A00DB0FFEF7B2F98C
:101F900048F21F51C5F2EB11A0FB01235A094FF67D
:101FA0009C73C0F6FF7303F1805302FB03003223DE
:101FB00003EBC000A0FB01014FF4F87000EA111020
:101FC00000EB0210C1F3421108442168886010BD83
:101FD0009A009B0FFEF78EF948F21F51C5F2EB11E4
:101FE000A0FB01235A094FF69C73C0F6FF7302FB56
:101FF0000300322303EB0010A0FB0101F02000EAF4
:10200000511000EB0210C1F34311084421688860AD
:1020100010BD0000FEE700002DE9F04F81B0DDF8B3
:1020200028901F4615468B469142044602D24FF037
:1020300001081FE04FF00408584600BFB0FBF5F060
:10204000A84211D3B0FBF5F0A84211D3B0FBF5F0D4
:10205000A8420FD3B0FBF5F008F10408A842EDD276
:10206000A8F1030806E000BFA8F1020802E000BFE3
:10207000A8F101080B99B84598BFB846B9F1000F0F
:1020800034D011F0010031D12026880748BF302616
:102090004FF0000A2020002F18BF064606E000BFC0
:1020A000C4F808A0E068B0F1FF3F1FDDB9F1000FF0
:1020B0001CD0C8451AD2D4E90120411C914207D84E
:1020C00022681654E06862680130E0600846A1604A
:1020D0009042A9F10109E5D121682069FFF774F95F
:1020E000A1688842DCD04FF0FF30E060E068002853
:1020F00059D4012602E000BF013F6E43022F01D3F5
:10210000013F03E0BBFBF6F1A9421BD3012F05FB06
:1021100006F601D9013F03E0BBFBF6F1A94211D35A
:10212000012F05FB06F601D9013F03E0BBFBF6F1E9
:10213000A94207D3012F05FB06F6DDD8BBFBF6F15C
:10214000A942DAD2A2682EA76168BBFBF6FA531C3B
:102150008B4209D817F80A0021688854E068616842
:1021600001301A46A360E0608A4209D121682069E3
:10217000FFF72AF9A26890420CD1E0680022A26021
:1021800000280AD4B6FBF5F10AFB16BBAE420E4698
:10219000DAD202E04FF0FF30E0600B99C90718BFB8
:1021A000B9F1000F02D101B0BDE8F08F2025A9F1EF
:1021B00001064E4538BFC845F5D26168531C8B42B5
:1021C00007D820688554E068616801301A46A3602A
:1021D000E0608A4209D121682069FFF7F5F8A1681B
:1021E000884207D1E0680022A260B0F1FF3FB1460B
:1021F000DDDCD8E74FF0FF30E06001B0BDE8F08FE4
:10220000303132333435363738394142434445462C
:10221000002804BF00207047C1B209B101200CE0C2
:1022200010F47F4102D0090A092006E010F47F0172
:1022300007BF010E1920090C112046F2F062C0F60A
:102240000002515C0844704780B501F07BFA002021
:1022500080BD0000B0B584B040F2A00546F69850AD
:1022600046F68861C2F20005C0F60000C0F6000123
:10227000C5E9000140F2B450C2F2000040F2B07271
:10228000286115204FF48061C2F20002CDE90021DF
:10229000029040F2307042F2F9220A24C2F20000A9
:1022A00011A1C0F600020023039403F01FFB2A696A
:1022B00004460FA110460022002303F02BF92869E1
:1022C00090F8211041F0020180F8211014B1002093
:1022D00004B0B0BD40F23070C2F2000003F08EFBDB
:1022E000002004B0B0BD00BF747368656C6C000062
:1022F000736872780000000040F2A00AC2F2000A7F
:10230000DAF8100040F22C6490F82110C2F20004B8
:1023100041F0010280F82120880703D400202070BA
:102320001AE000BF02F030F930B10020207147F20E
:102330006D30C2F2680009E046F67300C0F220007A
:10234000C4F8030046F66610C7F26E3020602046DF
:10235000FEF725F83E212152204602F0B3FE46F654
:10236000655846F6CA374FF0010B0026C0F6000844
:10237000C0F6000702E000BF80F820B002F022FCA7
:102380008146DAF81000B9F11B0FF5D090F8201053
:1023900002290BD0012940F07780B9F15B0F40F0A2
:1023A0007180022180F82010E8E700BFA9F1410107
:1023B000022980F82060E1D3B9F1440F00F28E8049
:1023C000DFE819F046009300930093009300930018
:1023D000930093009C00E200700093009300700053
:1023E0009300930093009300930093009300930055
:1023F0009300930093009300930093009300930045
:102400009300930093009300930093009300930034
:102410009300930093009300930093009300930024
:102420009300930093009300930093009300930014
:102430009300930093009300930093009300930004
:10244000930093009300930093004800940100BF11
:1024500094E700BFB0F87410B0F872209142BFF456
:102460008DAF084490F8221046F67350C0F6000075
:1024700002F028FEDAF81000B0F874100131A0F86C
:1024800074107BE780F82060B9F10D0F26D8DFE8E3
:1024900009F0072C2C2C2C2C2C2C357B092C2C09EE
:1024A0006CE700BF02F070F801280FD1DAF81000D5
:1024B00090F82110C90704D0384602F003FEDAF87C
:1024C0001000B0F87210223001F01EFEDAF8100091
:1024D00090F82100800779D42670FDE0B9F17F0FD4
:1024E0000CD0B9F1FF0F3FF449AFB0F87220502A79
:1024F00076D30022A0F87220A6E000BFB0F87410D6
:1025000000293FF43BAFB0F872204D1E531E9AB223
:10251000A0F87230ABB29A42A0F8745040F2B68084
:1025200026463C4600F1220717FA85F03944D21AB4
:1025300027463446002602F0DFFDDAF81000B0F836
:102540007210084480F82260DAF81000B0F87410B5
:10255000084400F122017EA002F0B4FDDAF8101068
:10256000B1F87400B1F8721088423FF607AF451E0B
:10257000404602F0A7FDDAF810000135B0F872000D
:102580008542F5D3FAE600BFB0F8741051B10025CA
:10259000404602F097FDDAF810000135B0F87410EB
:1025A0008D42F5D300F12205384602F08BFD01F093
:1025B000EBFF012802D1284601F0E4FCDAF8100014
:1025C00090F8210080076DD42670AFE001F0DCFFA9
:1025D000002871D047F26D302671C2F2680075E0B4
:1025E000B0F8743093422FD2C11801F12300223188
:1025F000D21A02F081FDDAF81000B0F87410084425
:1026000080F82290DAF8100090F82110C90709D05C
:10261000B0F87410084400F1220151A002F052FDFC
:10262000DAF81000B0F87450B0F872108D421DD274
:10263000404602F047FDDAF810000135B0F872109C
:102640008D42F5D312E000BF104480F82290DAF8F2
:10265000100090F82110C90708D046F67350C0F654
:102660000000494602F02EFDDAF81000B0F87210B2
:10267000B0F874200131A0F8721089B201325029EB
:10268000A0F8742028BFC0F8726077E62FA002F08F
:1026900019FDDAF81000B0F87210084480F82260D2
:1026A0006CE600BF01F070FF80B347F26D30267119
:1026B000C2F2680034E000BF46F67300C0F22000AA
:1026C000C4F8030046F66610C7F26E30206020465C
:1026D000FDF765FE3E212152204602F0F3FCDAF8B8
:1026E000100054212230FDF74FFE47E6B0F8740089
:1026F00000283FF443AE404602F0E4FCDAF8100054
:10270000B0F874100139A0F8741037E646F673007B
:10271000C0F22000C4F8030046F66610C7F26E301F
:1027200020602046FDF73BFE3E2121520AA02146B3
:102730002A4602F0C7FCDAF8105005F12200FDF736
:102740002EFEA5F87200A5F8740017E60820080010
:102750000825732020080000257325730000000061
:102760002573000080B502A002F0ACFC002080BD03
:1027700048656C6C6F2052542D54687265616421F9
:102780000A0000002DE9F04381B016A002F09AFC87
:1027900040F2A00040F2A409C2F20000C2F2000917
:1027A0000768D9F80050AF4218D213A40FF24C08B2
:1027B00003E000BF0C37AF4210D23E6821463046DE
:1027C0000222FDF7F3FD0028F4D07A684046314636
:1027D00002F078FCD9F80050ECE700BF002001B00F
:1027E000BDE8F0832D2D46756E6374696F6E204CC5
:1027F0006973743A0A0000005F5F0000252D3136CE
:1028000073202D2D2025730A000000002DE9F04FC4
:102810008DB0042002F07AFD00F1040874A07DA2BE
:10282000082102F04FFC46F61E54C0F60004204674
:1028300002F048FC204602F045FC204602F042FC33
:10284000204602F03FFC204602F03CFC204602F00D
:1028500039FC204602F036FC204602F033FC6FA023
:1028600002F030FC46F6345746F6205400250DF1B0
:10287000140BC0F60007C0F60004CDF80C8005E08C
:10288000049DDDF80C80002D00F0AE802E46002D5A
:1028900008BF4646FDF794FC35B115F8041C01F05D
:1028A0007F01042940F09E803168414500F09A8004
:1028B0000A68059142451DD01168069241451DD018
:1028C0000A68079142451DD01168089241451DD004
:1028D0000A68099142451DD011680A9241451DD0F0
:1028E0000A680B9142451DD04FF00808114604922A
:1028F0000C921BE04FF0010816E000BF4FF00208F9
:1029000012E000BF4FF003080EE000BF4FF00408D4
:102910000AE000BF4FF0050806E000BF4FF00608D0
:1029200002E000BF4FF0070800210491FDF74CFCC6
:102930004FF000090AE000BF46F6CA30C0F60000BA
:1029400002F0C0FB09F10109C14599D05BF829A04B
:10295000FDF736FC1AF8041C01F07F05FDF734FC86
:10296000042DEFD1AAF10C035AF8080FDAF8086029
:10297000504511D0002550460068504517D00068DA
:10298000504511D00068504510D0006804355045BE
:10299000F2D1013D0BE000BF2EA0082108220096D5
:1029A00002F090FBCEE700BF013500E0023523A026
:1029B00008210822CDE9006502F084FBDAF8005016
:1029C0005545B9D0A5F11401384602F07BFB2868C3
:1029D0005045B1D0204602F075FB2D685545F1D128
:1029E000AAE700BFFDF7F0FB00200DB0BDE8F08FB7
:1029F000252D2A2E7320202020202073657420206E
:102A0000202073757370656E6420746872656164EC
:102A10000A0000006576656E7400000020202D2DF0
:102A20002D2D2D2D2D2D2D2D202D2D2D2D2D2D2DE3
:102A30002D2D2D2D2D2D2D0A00000000252D2A2EA7
:102A40002A73202030782530387820253033643AB6
:102A500000000000252D2A2E2A73202030782530F2
:102A6000387820300A0000002DE9F04F8DB00520A5
:102A700002F04CFC00F1040881A08AA2082102F0B7
:102A800021FB46F61E54C0F60004204602F01AFB55
:102A9000204602F017FB204602F014FB204602F00D
:102AA00011FB204602F00EFB204602F00BFB2046F5
:102AB00002F008FB204602F005FB7CA002F002FBBE
:102AC00046F6345746F6205400260DF1140BC0F696
:102AD0000007C0F60004CDF80C8005E0049EDDF888
:102AE0000C80002E00F0C8803546002E08BF4546F9
:102AF000FDF766FB36B116F8041C01F07F010529CD
:102B000040F0B8802968414500F0B4800A6805911A
:102B100042451DD01168069241451DD00A680791B3
:102B200042451DD01168089241451DD00A6809919F
:102B300042451DD011680A9241451DD00A680B918B
:102B400042451DD04FF00808114604920C921BE03C
:102B50004FF0010816E000BF4FF0020812E000BF7E
:102B60004FF003080EE000BF4FF004080AE000BF7A
:102B70004FF0050806E000BF4FF0060802E000BF76
:102B80004FF007080021049155A5FDF71DFB4FF0FC
:102B9000000909E046F6CA30C0F6000002F092FAD9
:102BA00009F10109C14599D05BF829A0FDF708FB9F
:102BB0001AF8041C01F07F06FDF706FB052EEFD185
:102BC000AAF10C035AF8082F0026BAF80E10BAF82A
:102BD0000C00524510D052461268524521D012685E
:102BE00052451BD0126852451AD01268043652451D
:102BF000F2D1013E15E000BF524600BF12685245B7
:102C00002FD01268524529D01268524528D0126838
:102C100004365245F2D1013E23E000BF013600E008
:102C20000236CDE9001028A008210822029602F001
:102C300049FADAF800605645ACD000BFA6F114019D
:102C4000384602F03FFA30685045A3D0204602F0E3
:102C500039FA36685645F1D19CE700BF013600E0ED
:102C60000236CDE90010284608210822029602F01B
:102C700029FA95E7FDF7A8FA00200DB0BDE8F08F1E
:102C8000252D2A2E7320656E7472792073697A65FA
:102C90002073757370656E64207468726561640A70
:102CA000000000006D61696C626F7800202D2D2D91
:102CB0002D20202D2D2D2D202D2D2D2D2D2D2D2D6B
:102CC0002D2D2D2D2D2D0A00252D2A2E2A73202560
:102CD0003034642020253034642025643A0000001C
:102CE000252D2A2E2A7320253034642020253034C7
:102CF000642025640A0000002DE9F04F8DB0062005
:102D000002F004FB00F104087FA086A2082102F073
:102D1000D9F946F61E54C0F60004204602F0D2F956
:102D2000204602F0CFF9204602F0CCF9204602F00E
:102D3000C9F9204602F0C6F9204602F0C3F9204640
:102D400002F0C0F9204602F0BDF979A002F0BAF90C
:102D500046F6345746F6205400250DF1140BC0F604
:102D60000007C0F60004CDF80C8005E0049DDDF8F6
:102D70000C80002D00F0C4802E46002D08BF464672
:102D8000FDF71EFA35B115F8041C01F07F01062984
:102D900040F0B4803168414500F0B0800A68059188
:102DA00042451DD01168069241451DD00A68079121
:102DB00042451DD01168089241451DD00A6809910D
:102DC00042451DD011680A9241451DD00A680B91F9
:102DD00042451DD04FF00808114604920C921BE0AA
:102DE0004FF0010816E000BF4FF0020812E000BFEC
:102DF0004FF003080EE000BF4FF004080AE000BFE8
:102E00004FF0050806E000BF4FF0060802E000BFE3
:102E10004FF0070800210491FDF7D6F94FF00009A3
:102E20000AE000BF46F6CA30C0F6000002F04AF9D8
:102E300009F10109C14599D05BF829A0FDF7C0F956
:102E40001AF8041C01F07F05FDF7BEF9062DEFD13D
:102E5000AAF10C035AF8080F0025BAF81060504583
:102E600010D050460068504521D0006850451BD016
:102E7000006850451AD0006804355045F2D1013D34
:102E800015E000BF504600BF006850452DD00068D7
:102E9000504527D00068504526D00068043550457D
:102EA000F2D1013D21E000BF013500E0023526A04E
:102EB00008210822CDE9006502F004F9DAF8005093
:102EC0005545AFD0A5F11401384602F0FBF828684B
:102ED0005045A7D0204602F0F5F82D685545F1D1B0
:102EE000A0E700BF013500E002351CA00821082240
:102EF000CDE9006502F0E6F89AE700BFFDF764F956
:102F000000200DB0BDE8F08F252D2A2E7320656EB0
:102F10007472792073757370656E6420746872655D
:102F200061640A006D736771756575650000000066
:102F3000202D2D2D2D20202D2D2D2D2D2D2D2D2DE8
:102F40002D2D2D2D2D0A0000252D2A2E2A7320250A
:102F5000303464202025643A00000000252D2A2EFC
:102F60002A732025303464202025640A00000000E4
:102F70002DE9F04F8FB0032002F0C8F900F10408EA
:102F80000FF204500FF22452082102F09BF846F68B
:102F90001E54C0F60004204602F094F8204602F0C9
:102FA00091F8204602F08EF8204602F08BF8204679
:102FB00002F088F8204602F085F8204602F082F8F8
:102FC000204602F07FF80FF2EC4002F07BF8002779
:102FD00015E000BF01320DF1040C8CE8070046F645
:102FE0008540A4F10C03C0F6000008210822082641
:102FF000009602F067F800BF002F00F041823C46C7
:10300000002F08BF4446FDF7DBF837B117F8041C62
:1030100001F07F01032940F031822668464500F027
:103020002D82D6F800A0C24520D0DAF80010414524
:1030300020D00A68424549D01368434500F0888093
:103040001D68454500F0C8802C68444500F00C819F
:103050002768474500F018814FF0000BD146CDE9B5
:103060000645CDE908320A91059707E000274FF0A1
:10307000000B03E000274FF0010BD1460021002593
:103080000E910D910C910B91FDF79EF8FDF798F8BC
:1030900016F8041C01F07F04FDF796F8032C32D1DA
:1030A0007069F17C06F10804002223461B68A342E4
:1030B00019D01B68A34213D01B68A34212D01B680F
:1030C0000432A342F2D1013A0DE000BF01220E9278
:1030D00000270A91D1464FF0000B00250021D0E7D0
:1030E000013200E002320DF1040C8CE8070046F6D4
:1030F0008540A6F10C03C0F600000821082208262E
:10310000009601F0DFFFC2453FF476AFFDF758F8B7
:1031100019F8041C01F07F04FDF756F8032C34D194
:10312000D9F8140099F8131009F108060022334663
:103130001B68B34219D01B68B34213D01B68B3425B
:1031400012D01B680432B342F2D1013A0DE000BF45
:10315000CDE90921002101250027D1464FF0000BC0
:103160008EE700BF013200E002320DF1040C8CE862
:10317000070046F68540A9F10C03C0F600000821BF
:1031800008220826009601F09DFFBBF1000F7FF496
:1031900033AFAB46CA46FDF713F80A9D15F8041C79
:1031A00001F07F04FDF710F8032C36D16869E97C43
:1031B00005F10806002233461B68B3421DD01B6888
:1031C000B34217D01B68B34216D01B680432B34217
:1031D000F2D1013A11E000BF01270A9100210D97B9
:1031E0000027CDE90832D1464FF0000B0E910025A3
:1031F00048E700BF013200E002320DF1040C8CE818
:10320000070046F68540A5F10C03C0F60000082132
:1032100008220826009601F055FF0E98D146002896
:103220007FF4EAAEFCF7CCFF099D15F8041C01F011
:103230007F04FCF7C9FF032C4BD16869E97C05F1D9
:1032400008060022334600BF1B68B34231D01B681A
:10325000B3422BD01B68B3422AD01B680432B3425E
:10326000F2D1013A25E000BF0127CDE90921002173
:103270000C970027CDE90753D1464FF0000B0E9174
:1032800000250D91FFE600BF01270A9100210B9751
:103290000027CDE90645CDE90832D1464FF0000BB5
:1032A0000E910025CDE90C11EEE600BF013200E0E1
:1032B00002320DF1040C8CE8070046F68540A5F1BA
:1032C0000C03C0F60000082108220826009601F031
:1032D000F9FEBBF1000F7FF48FAEFCF771FF089D84
:1032E00015F8041C01F07F04FCF76EFF032C28D1B5
:1032F0006869E97C05F10806002233461B68B34281
:103300000FD01B68B34209D01B68B34208D01B68BA
:103310000432B342F2D1013A03E000BF013200E0CF
:1033200002320DF1040C8CE8070046F68540A5F149
:103330000C03C0F60000082108220826009601F0C0
:10334000C1FE0D98D14600287FF456AEFCF738FF39
:10335000079D15F8041C01F07F04FCF735FF032CD2
:1033600029D16869E97C05F108060022334600BFCF
:103370001B68B3420FD01B68B34209D01B68B3422D
:1033800008D01B680432B342F2D1013A03E000BF17
:10339000013200E002320DF1040C8CE8070046F621
:1033A0008540A5F10C03C0F600000821082208267C
:1033B000009601F087FE0C9800287FF41DAEFCF704
:1033C000FFFE069D15F8041C01F07F04FCF7FCFECF
:1033D000032C28D16869E97C05F1080600223346F0
:1033E0001B68B3420FD01B68B34209D01B68B342BD
:1033F00008D01B680432B342F2D1013A03E000BFA7
:10340000013200E002320DF1040C8CE8070046F6B0
:103410008540A5F10C03C0F600000821082208260B
:10342000009601F04FFE0B9800287FF4E5ADFCF705
:10343000C7FE059911F8041C01F07F04FCF7C4FED7
:10344000032C7FF4D9AD059C00226069E17C04F176
:10345000080633461B68B3423FF4BDAD1B68B34258
:103460003FF4B8AD1B68B34206D01B680432B342C8
:10347000F0D1013AAFE500BF0232ACE5FCF7A4FEA3
:1034800000200FB0BDE8F08F252D2A2E73202020BC
:103490006F776E65722020686F6C6420737573702F
:1034A000656E64207468726561640A006D75746588
:1034B00078000000202D2D2D2D2D2D2D2D202D2D92
:1034C0002D2D202D2D2D2D2D2D2D2D2D2D2D2D2D39
:1034D0002D0A00002DE9F04F8DB0022001F016FFFB
:1034E00000F104087FA086A2082101F0EBFD46F65A
:1034F0001E54C0F60004204601F0E4FD204601F011
:10350000E1FD204601F0DEFD204601F0DBFD204616
:1035100001F0D8FD204601F0D5FD204601F0D2FD96
:10352000204601F0CFFD79A001F0CCFD46F63457DE
:1035300046F6205400250DF1140BC0F60007C0F626
:103540000004CDF80C8005E0049DDDF80C80002D12
:1035500000F0C4802E46002D08BF4646FCF730FE22
:1035600035B115F8041C01F07F01022940F0B48048
:103570003168414500F0B0800A68059142451DD090
:103580001168069241451DD00A68079142451DD039
:103590001168089241451DD00A68099142451DD025
:1035A00011680A9241451DD00A680B9142451DD011
:1035B0004FF00808114604920C921BE04FF00108EE
:1035C00016E000BF4FF0020812E000BF4FF0030802
:1035D0000EE000BF4FF004080AE000BF4FF00508FE
:1035E00006E000BF4FF0060802E000BF4FF00708FA
:1035F00000210491FCF7E8FD4FF000090AE000BF4C
:1036000046F6CA30C0F6000001F05CFD09F1010980
:10361000C14599D05BF829A0FCF7D2FD1AF8041C2B
:1036200001F07F05FCF7D0FD022DEFD1AAF10C03CC
:103630005AF8080F0025BAF80860504510D05046D7
:103640000068504521D0006850451BD000685045A7
:103650001AD0006804355045F2D1013D15E000BF95
:10366000504600BF006850452DD00068504527D017
:103670000068504526D0006804355045F2D1013D20
:1036800021E000BF013500E0023526A00821082214
:10369000CDE9006501F016FDDAF800505545AFD0D0
:1036A000A5F11401384601F00DFD28685045A7D05A
:1036B000204601F007FD2D685545F1D1A0E700BF78
:1036C000013500E002351BA008210822CDE9006584
:1036D00001F0F8FC9AE700BFFCF776FD00200DB082
:1036E000BDE8F08F252D2A2E7320762020207375BB
:1036F0007370656E64207468726561640A0000000E
:1037000073656D6170686F7265000000202D2D2D4E
:10371000202D2D2D2D2D2D2D2D2D2D2D2D2D2D0A09
:1037200000000000252D2A2E2A7320253033642026
:1037300025643A00252D2A2E2A7320253033642053
:1037400025640A002DE9F04F8DB0012001F0DEFD67
:10375000051D46F6A940C0F6000071A2082101F03F
:10376000B1FC46F61E54C0F60004204601F0AAFC47
:10377000204601F0A7FC204601F0A4FC204601F001
:10378000A1FC204601F09EFC204601F09BFC204657
:1037900001F098FC204601F095FC63A001F092FC3A
:1037A00000240DF1140A039505E000BF049C039D5D
:1037B000002C00F0B1802646002C08BF2E46FCF7F6
:1037C000FFFC34B114F8041C01F07F01012940F022
:1037D000A1803168A94200F09D800A680591AA4243
:1037E0001ED011680692A9421ED00A680791AA420B
:1037F0001ED011680892A9421ED00A680991AA42F7
:103800001ED011680A92A9421ED00A680B91AA42E2
:103810001ED04FF00808114604920C921CE000BF25
:103820004FF0010816E000BF4FF0020812E000BFA1
:103830004FF003080EE000BF4FF004080AE000BF9D
:103840004FF0050806E000BF4FF0060802E000BF99
:103850004FF0070800210491FCF7B6FC4FF0000977
:1038600006E000BFFCF7B0FC09F10109C1459DD09D
:103870005AF829B0FCF7A4FC1BF8041C01F07F01E6
:103880000129EFD1ABF10C06FCF79EFC9BF8294017
:1038900035A0082108223346009401F013FC9BF860
:1038A000280000F00F00042804D832A151F82000AD
:1038B00001F008FCDBF81C00014600BF0A78232A4F
:1038C0000FD14A78232A09D18A78232A08D1CA78C5
:1038D0000431232AF2D0013903E000BF013100E0B6
:1038E0000231DBE90824DBF810601718401A104495
:1038F00064214843DBF83C50B0FBF2F3B91B22A033
:10390000CDE9005401F0DEFB09F10109C145AFD159
:103910004CE700BFFCF758FC00200DB0BDE8F08F6D
:103920007468726561640000202D2D2D20202D2DDE
:103930002D2D2D2D2D202D2D2D2D2D2D2D2D2D2DC4
:10394000202D2D2D2D2D2D2D2D2D2D20202D2D2DCE
:103950002D2D2D20202D2D2D2D2D2D2D2D2D2D20BE
:103960002D2D2D0A00000000252D2A2E2A7320253A
:1039700033642000ED6C0008FF6C0008226D000825
:103980002B6D0008F66C0008203078253038782040
:1039900030782530387820202020253032642525C5
:1039A00020202030782530387820253033640A00F4
:1039B0002DE9F04F8FB00A2001F0A8FC00F10408B7
:1039C0000FF2F8400FF21C52082101F07BFB46F683
:1039D0001E54C0F60004204601F074FB204601F09E
:1039E00071FB204601F06EFB204601F06BFB204688
:1039F00001F068FB204601F065FB204601F062FB08
:103A0000204601F05FFB0FF2E44001F05BFB4FF05A
:103A1000000925E0A4F10C0AFCF7D6FB3746D4E9EF
:103A2000066546F60850C0F60000082108225346F5
:103A3000CDE900653E4601F045FB14F8030CC007D4
:103A400007BF46F69C40C0F6000046F69E40C0F612
:103A5000000001F037FB00BFB9F1000F00F0248235
:103A60004C46B9F1000F08BF4446FCF7A9FBB9F179
:103A7000000F06D019F8041C01F07F010A2940F05C
:103A800011822468444500F00D82D4F800B0C3458B
:103A900024D0DBF80010414526D00A68424500F0EA
:103AA00005811368434500F00B811F68474500F00E
:103AB0004981D7F800C0C44500F08881DCF8009047
:103AC000C14500F093814FF0000A5E46CDE904C77E
:103AD000CDE906320891CDF80C900AE04FF00009CC
:103AE0004FF0000A05E000BF4FF000094FF0010A57
:103AF0005E4600210E910D910C910B910A91FCF7FD
:103B000063FBFCF75DFB14F8041C01F07F010A293C
:103B10002CD1CDF82490C146D046B246A4F10C0772
:103B2000FCF752FBD4E9065646F60850C0F60000F2
:103B3000082108223B46CDE9005601F0C3FA14F8EB
:103B4000030CC00707BF46F69C40C0F6000046F6CF
:103B50009E40C0F6000001F0B5FA5646C246C8467F
:103B6000DDF82490C34506D176E700BFFCF72CFBB7
:103B7000C3453FF471AFFCF723FB16F8041C01F0BA
:103B80007F010A2926D1A6F10C07FCF71DFB35465B
:103B9000D6E9066446F60850C0F60000082108225F
:103BA0003B46CDE900642E4601F08CFA15F8030C73
:103BB000C00707BF46F69C40C0F6000046F69E4090
:103BC000C0F6000001F07EFABAF1000F7FF444AFB6
:103BD00006E000BFFCF7F8FABAF1000F7FF43CAF43
:103BE000FCF7EEFA089C14F8041C01F07F010A2986
:103BF00026D1B246A4F10C07FCF7E6FAD4E9066533
:103C000046F60850C0F60000082108223B46CDE9E0
:103C1000006501F057FA14F8030CC00707BF46F619
:103C20009C40C0F6000046F69E40C0F6000001F041
:103C300049FA56460E9800287FF40EAF06E000BF02
:103C4000FCF7C2FA0E9800287FF406AFFCF7B8FA2A
:103C5000079C14F8041C01F07F010A293CD1B246EC
:103C6000A4F10C07FCF7B0FAD4E9066546F6085053
:103C7000C0F60000082108223B46CDE9006501F0AE
:103C800021FA14F8030CC00707BF46F69C40C0F6A3
:103C9000000046F69E40C0F6000001F013FA5646BA
:103CA0000D9800287FF4D8AE1CE000BF01220E92D0
:103CB0004FF0000908915E464FF0000A00211AE714
:103CC0000123CDE9072100210D934FF000095E4645
:103CD0004FF0000A0E910FE7FCF776FA0D980028D6
:103CE0007FF4BAAEFCF76CFA069C14F8041C01F0E1
:103CF0007F010A2934D1B246A4F10C07FCF764FA1B
:103D0000D4E9066546F60850C0F6000008210822EE
:103D10003B46CDE9006501F0D5F914F8030CC00766
:103D200007BF46F69C40C0F6000046F69E40C0F62F
:103D3000000001F0C7F956460C9800287FF48CAEBD
:103D400014E000BF0127089100210C974FF00009F3
:103D5000CDE906325E464FF0000ACDE90D11CCE602
:103D6000FCF732FA0C9800287FF476AEFCF728FABC
:103D7000059C14F8041C01F07F010A2948D1B246C1
:103D8000A4F10C07FCF720FAD4E9066546F60850C2
:103D9000C0F60000082108223B46CDE9006501F08D
:103DA00091F914F8030CC00707BF46F69C40C0F613
:103DB000000046F69E40C0F6000001F083F956462A
:103DC0000B9800287FF448AE28E000BF0126CDE91B
:103DD000072100210B964FF00009CDE905735E46DF
:103DE0004FF0000A0E91CDE90C1187E601260891EB
:103DF00000210A964FF00009CDE904C7CDE906324B
:103E00005E464FF0000ACDE90D11CDE90B1176E6C3
:103E1000FCF7DAF90B9800287FF41EAEFCF7D0F916
:103E2000049C14F8041C01F07F010A2926D1B24633
:103E3000A4F10C07FCF7C8F9D4E9066546F608506A
:103E4000C0F60000082108223B46CDE9006501F0DC
:103E500039F914F8030CC00707BF46F69C40C0F6BA
:103E6000000046F69E40C0F6000001F02BF95646D1
:103E70000A9800287FF4F0AD06E000BFFCF7A4F933
:103E80000A9800287FF4E8ADFCF79AF9039C14F82F
:103E9000041C01F07F010A293FF4BCADFCF794F942
:103EA000DAE500BFFCF790F901F01CFE014618A00E
:103EB00001F008F900200FB0BDE8F08F252D2A2E63
:103EC000732020706572696F6469632020207469B3
:103ED0006D656F757420202020202020666C61673E
:103EE0000A00000074696D6572000000202D2D2D00
:103EF0002D2D2D2D2D2D2D202D2D2D2D2D2D2D2DFF
:103F00002D2D202D2D2D2D2D2D2D2D2D2D2D0A003E
:103F100063757272656E74207469636B3A307825CC
:103F20003038780A00000000FCF7B8FBFDF7AEFE61
:103F3000FDF760F9FDF79AF940F60044C4F2020477
:103F400020460421FCF788FB642001F063FCF7E7BE
:103F5000B0B546F6945446F68C50C0F60004C0F650
:103F60000000A04209D246F68C55C0F6000500BFFD
:103F700055F8040B8047A542FAD3BDE8B040FFF7DF
:103F8000D3BF00002DE9F04F81B083460078A8B17F
:103F900040F2A000C2F20000056840F2A400C2F2A4
:103FA0000000D0F80080454580F0A88046F65E59B4
:103FB0004FF0000AC0F6000900264CE046F63750E4
:103FC000C0F6000001F07EF840F2A00040F2A40923
:103FD000C2F20000C2F200090768D9F80050AF42EF
:103FE0001CD246F65E5446F65258C0F60004C0F69F
:103FF000000802E00C37AF4210D23E68214630463E
:104000000622FCF7D3F90028F4D17A68B11D4046A6
:1040100001F058F8D9F80050ECE700BF46F6CA3076
:10402000C0F6000001B0BDE8F04F01F04BB800BF92
:10403000481C801B5045B8BF824632A0394601F06B
:1040400041F840F2A400C2F20000D0F8008000BFA6
:104050000C35454548D22F68494638460622FCF7BC
:10406000A5F90028F4D158460637FCF798F902461E
:1040700058463946FCF79AF90028E9D1BAF1000F01
:1040800004D03178304651B9D3E700BF3846FCF749
:1040900086F982463E46317830460029C9D0002054
:1040A0003A5CDAB1914219D131184B78002BBFD06C
:1040B0003A185478002CBBD0A342B9D18B787BB18D
:1040C00094786CB1A3420BD1CB785BB1D2784AB172
:1040D000934207D1097904300029E1D13044A8E79F
:1040E000881CA6E7C81CA4E746B15846314652468C
:1040F00001B0BDE8F04F01F091BA00BF01B0BDE8DA
:10410000F08F00BF25730A00002904BF002070470C
:104110002DE9F04F8DB0CF1E8E1E4D1E002302E004
:104120000433994220D0C25C202A01D0092A1FD131
:104130009D4219D0C4186278202A01D0092A1DD1C5
:104140009E4211D0A278202A01D0092A1CD19F4278
:104150000AD0E278202AE3D0092AE1D0C81AA0F1D7
:10416000030804F1030914E000200DB0BDE8F08F4E
:10417000A1EB030800EB03090BE000BFD84300EB01
:10418000010804F1010904E0C81AA0F1020804F1D1
:104190000209A8F10300C8F100010025D2B2092AE2
:1041A00031D0202A2FD04B191CD009EB05025778AB
:1041B000092F1BD0202F19D05F1C13D09778092FFF
:1041C00018D0202F16D002331CD0D378092B15D04D
:1041D000202B13D0A84205D012790435D2B2092A77
:1041E000DFD110E045468DB940E100BF01356DB922
:1041F0003CE100BF02354DB938E100BF03352DB9B0
:1042000034E100BF4546002D00F0308140F2A000AF
:10421000C2F20000046840F2A400C2F20000066886
:10422000B44280F0238146F65E5A05F1060BC0F6D3
:10423000000A03E00C34B44280F01881276851462C
:1042400038460622FCF7B2F80028F3D1B81D4946DB
:104250002A46FCF7ABF80028ECD117F80B00002831
:10426000E8D1A0680028019000F000810022002120
:104270000025CE46CDE90B22CDE90922CDE9072262
:10428000CDE90522C2460391454588BFAA46A5EB64
:104290000A06701C00217346049002951EF8010066
:1042A000202801D0092837D116EB010B28D00EEBBE
:1042B000010460780EF80120202801D009282DD1B2
:1042C000049A12EB010C1FD0A07800222028627003
:1042D00001D0092826D11BF1020719D0E078A2707D
:1042E000202801D0092821D11BF1030712D0E27048
:1042F0000433043504311EF801002028D2D1D3E75D
:104300000EEB010317E000BF631C002213E000BFA7
:10431000A31C10E003330EE0AA460CE0013305F1C4
:10432000010A08E0023305F1020A04E0029FE31CDF
:10433000394401F1030A039E082E7BD2C24580F066
:104340008D80222806F1010020D103F1010E05A97C
:1043500041F826E05E780AF1010103E01EF8016FE2
:104360008A46013141454FF0000738BF0127222E10
:1043700040D041453ED25C2EF0D1734613F8017F08
:10438000222F04BF9E460AF10201E7E705A941F882
:1043900026304146C24588BF5146AAEB010707F1C6
:1043A000010C00215D5C092D1ED0202D1CD07D1834
:1043B00056D05C186678092E22D0202E20D01CEB17
:1043C00001064DD0A678092E20D0202E1ED0AE1C7E
:1043D00046D0E678092E1FD0202E1DD0EE1C3FD0EF
:1043E00004315D5C092DE0D103EB010E0AEB010500
:1043F00016E000BFA7B30EF8012B0AF1020513E087
:10440000514404F1010E4D1C0AE000BF514404F177
:10441000020E8D1C04E000BF514404F1030ECD1CBC
:1044200045454FF000021BD245450146FFF42AAF37
:1044300016E000BF26A000F045FE05A8041F2CA52D
:1044400054F8041F284600F03DFE013EF8D146F620
:10445000CA30C0F6000000F035FE039E30462EB193
:10446000019A05A990470DB0BDE8F08F002019F81A
:10447000001041F02001202917D009EB00014A78F3
:1044800042F02002202A13D08A7842F02002202A0B
:1044900010D0CA7842F02002202A0DD0043019F83A
:1044A000001041F020012029E7D1484405E000BF79
:1044B000481C02E0881C00E0C81C002101700DA00F
:1044C000494600F0FFFD4FF0FF300DB0BDE8F08F22
:1044D000546F6F206D616E792061726773202120A7
:1044E0005765206F6E6C79205573653A0A0000009D
:1044F0002573200025733A20636F6D6D616E642013
:104500006E6F7420666F756E642E0A002DE9F0439D
:1045100081B046F63750C0F6000000F0D3FD40F2FF
:10452000A00040F2A409C2F20000C2F2000907682C
:10453000D9F80050AF421DD246F65E5446F65258A6
:10454000C0F60004C0F6000803E000BF0C37AF421D
:1045500010D23E68214630460622FBF727FF00288E
:10456000F4D17A68B11D404600F0ACFDD9F8005096
:10457000ECE700BF46F6CA30C0F6000000F0A2FD2E
:10458000002001B0BDE8F083012070472DE9F04F15
:1045900087B0DDE911C90FF2F8465FEA49670FF20B
:1045A000045758BF37465FEAC96648BF29F001097A
:1045B0005FEAC9764FF0300E08BF4FF0200E5FEA79
:1045C000897663D40024029401244FF00008002A65
:1045D00000F09A800A2B6DD149F69A16CDE9004871
:1045E0004FF0000B0DF10C08C1F699164CF6CD43B7
:1045F000CCF6CC43A2FB0334E30803EB8304A2EB29
:1046000044043C5D0A2A08F80B40C0F08380A3FBF9
:10461000064505EB8505A3EB4503FB5C08EB0B0C9E
:10462000642A8CF8013079D348F21F53C5F2EB139A
:10463000A2FB03346309A3FB064505EB8504A3EB4A
:104640004403FB5CB2F57A7F8CF8023072D344F6F7
:10465000D353C1F26203A2FB0334A309A3FB0645B3
:1046600041F25974CDF2B714A2FB044A05EB85045C
:10467000A3EB440342F21074FB5CA2424FEA5A32AD
:104680000BF1040B8CF80330B0D255E0B2F1FF3FD0
:1046900008DD5FEA49762FD45FEA097692D54FF0BC
:1046A00020082BE001245242029400244FF02D08F0
:1046B0000A2B91D0A2464FF0000B03AE02F00F037D
:1046C000FD5C130906F80B502CD003F00F03FC5CC3
:1046D00006EB0B05130A6C7028D003F00F03FC5C8B
:1046E000130BAC702ED003F00F03FB5C120C0BF11C
:1046F000040BEB70E2D127E04FF02B0800240125DA
:104700000295002A7FF466AF30228DF80C204FF01E
:10471000010B1AE00BF1010B0EE000BF0BF1020BD5
:104720000AE000BF0BF1010B0EE000BF0BF1020B22
:104730000AE000BF0BF1030BDDF844C0DDE90048DF
:1047400003E000BF0BF1030B5446109AE345E24629
:10475000C8BFDA4619F0110FA2EB0A0260D0054675
:104760002CB98D4238BF85F80080013A01355FEAE7
:10477000C96031D4571EC0F28D8012F0030600F0DC
:1047800093808D4238BF85F800E0012E05F10100CD
:1047900040F09280971E0546042AC0F08880381D9C
:1047A0008D4205F1010238BF85F800E08A4238BF2A
:1047B00082F800E0AA1C8A4238BF82F800E0EA1CB6
:1047C0008A42A0F1040038BF82F800E0032805F116
:1047D0000405E5DC4FF0FF322846E3455EDAAAEB3C
:1047E0000B036FEA0B0713F003060AEB070457D01D
:1047F00088423CBF30230370AAF10107012E00F16B
:10480000010309D08B42AAF102073CBF30251D707D
:10481000022E00F1020365D11846032C6CD283E00E
:104820000023002AC8BF0123029D2B40D71A7A1EFD
:1048300095DB17F003064DD088423CBF2022027062
:10484000012E00F1010540F0FD80BA1E2846042F1C
:1048500042D30432202700BF884200F1010338BF51
:1048600007708B4238BF1F70831C8B4238BF1F708C
:10487000C31C8B42A2F1040238BF1F70032A00F14F
:104880000400E9DC4FF0FF320546002C3FF469AF2D
:104890006DE700BF28463A46E345A0DB034643E008
:1048A0005746032C28D23FE0042ABFF478AF4FF0DC
:1048B000FF32E34593DBF1E7884238BF80F800E040
:1048C000022E05F1020040F0CB80D71E0546042AD7
:1048D000EDD364E7042FBCD24FF0FF32002C3FF43D
:1048E00040AF44E703308B42AAF103073CBF3026B8
:1048F0001E700346032C17D3302603468B4203F168
:10490000010038BF1E70884238BF0670981C88426C
:1049100038BF0670D81C8842A7F1040738BF06705C
:10492000BB4503F10403E9DBBCF1000F3DD003A854
:10493000023807E0ABF1040B0BF10407042F03F17D
:10494000040332D98B4203D200EB0B077F781F7030
:10495000BBF1020F03F101051EDB8D423CBF10F8D5
:104960000B702F70BBF1030F03F102061CD38E42B4
:1049700004D200EB0B0717F8017C3770BBF1040F72
:1049800003F1030432D38C42D4D200EB0B0717F8A7
:10499000027C2770CEE700BF2B46012A07DA1846B3
:1049A00007B0BDE8F08F00BF3346012AF7DB12F0F5
:1049B000030717D08B423CBF20201870561E012FD2
:1049C00003F1010009D08842A2F102063CBF202574
:1049D0000570022F03F102000CD10346042A13D202
:1049E0002DE000BF1646042A29D30DE02346012AF4
:1049F000DDDAD4E703338842A2F103063CBF202767
:104A000007701846042A1AD3721E2027184600BFC2
:104A1000884200F1010338BF07708B4238BF1F7016
:104A2000831C8B4238BF1F70C31C8B42A2F104024F
:104A300038BF1F7012F1020F00F10400E8D307B075
:104A4000BDE8F08F8D423CBF20222A70022E00F17B
:104A5000020511D1FA1E2846042FFFF43DAFF8E6F7
:104A60000335884238BF80F800E0171F2846042A23
:104A7000BFF495AE1BE700BF8D423CBF20222A70D9
:104A800003303A1F0546042FBFF4E3AE24E700BF0E
:104A900030313233343536373839616263646566B4
:104AA0000000000030313233343536373839414276
:104AB0004344454600000000B0B546F68C5446F627
:104AC0008450C0F60004C0F60000A04228BFB0BD6C
:104AD00046F68455C0F6000555F8040B8047A542FC
:104AE000FAD3B0BD80B5FBF76BFB40F28001C2F298
:104AF00000014A8801324A80BDE88040FBF764BB70
:104B0000B0B5FBF75DFB40F28005C2F20005698895
:104B10000446481E01B20029688005DD2046BDE834
:104B2000B040FBF751BB00BF002068802046FBF778
:104B30004BFB6868002808BFB0BDFBF741FB6988E4
:104B400004460029EAD1A868FDF762FB421E41F243
:104B50005020C2F2000050F832106868A1F114032E
:104B60008342DBD02A7041F248126B60C2F200022D
:104B700012781C3001F1080132B1FBF728FB204606
:104B8000BDE8B040FBF720BBFBF721FB2046BDE8AA
:104B9000B040FBF719BB000080B5FBF77FFDFDF7C8
:104BA00075F8FDF7CDF8FBF719FF44F6D351C1F2C4
:104BB0006201A0FB01018809FCF74CF9BDE88040C7
:104BC000FFF77ABF80B582B00DF106010020012207
:104BD000FCF76EFBC1B29DF80600012918BFFF204B
:104BE00002B080BD10B5044600F000FD03A1002016
:104BF0002246BDE81040FCF709BD00BF2573000048
:104C000010B541F24011C2F200010968044629B111
:104C100004F128008847002808BF10BD616C46F6E3
:104C2000BF30C0F6000000F04DFAA16A46F67E30B3
:104C3000C0F6000000F046FAE16A46F68B30C0F696
:104C4000000000F03FFA216B46F69830C0F60000F5
:104C500000F038FA616B46F6A530C0F6000000F0AF
:104C600031FAA16846F6B230C0F6000000F02AFA28
:104C7000E168CBA000F026FA2169CDA000F022FA6D
:104C80006169CFA000F01EFAA169D1A000F01AFA64
:104C9000E169D3A000F016FA216AD5A000F012FA5B
:104CA000616AD7A000F00EFAA16BD9A000F00AFA51
:104CB000E16BDBA000F006FA216CDDA000F002FA47
:104CC000207840070AD446F6CA20C0F6000000F05B
:104CD000F9F92078C0060FD514E000BF00F04CFEB3
:104CE000014646F6E420C0F6000000F0EBF9FEF7BE
:104CF00029FD2078C00605D446F60130C0F6000034
:104D000000F0E0F94EF62954CEF20004D4F8030086
:104D1000800705D546F65C30C0F6000000F0D2F9F9
:104D2000D4F80300400040F1F980207830B346F613
:104D30003030C0F6000000F0C5F9217846F6434057
:104D4000C0F6000000F0BEF92078C00746D12078F8
:104D500080074CD42078400752D42078000758D4DC
:104D60002078C0065ED494F90000B0F1FF3F61DD09
:104D700046F6CA30C0F6000000F0A4F914F8010CA1
:104D8000002800F0968046F60F30C0F6000000F0D4
:104D900099F914F8011C46F65940C0F6000000F0DD
:104DA00091F914F8010CC00752D114F8010C8007D6
:104DB00058D414F8010C00075ED414F8010CC00696
:104DC00064D414F9010CB0F1FF3F6ADD46F6CA3035
:104DD000C0F6000000F076F96BE000BF46F62E400A
:104DE000C0F6000000F06EF920788007B2D546F6D4
:104DF0002340C0F6000000F065F920784007ACD5EC
:104E000046F62140C0F6000000F05CF9207800076B
:104E1000A6D546F61740C0F6000000F053F92078FA
:104E2000C006A0D586A000F04DF994F90000B0F1BD
:104E3000FF3F9DDCD4F80F1046F63C30C0F6000072
:104E400000F040F914F8010C00289CD131E000BFBB
:104E500046F6F230C0F6000000F034F914F8010C08
:104E60008007A6D546F6E830C0F6000000F02AF923
:104E700014F8010C0007A0D546F61640C0F6000055
:104E800000F020F914F8010CC0069AD546F60D4042
:104E9000C0F6000000F016F914F9010CB0F1FF3F64
:104EA00094DCD4F80B1046F64C30C0F6000000F04D
:104EB00009F9B4F8010088B346F62230C0F60000C4
:104EC00000F000F9B4F8011046F66F40C0F600009B
:104ED00000F0F8F8B4F80100C0072DD1B4F80100D3
:104EE000800733D4B4F80100400739D4B4F8010086
:104EF00000073FD4B4F80100C00545D4B4F8010060
:104F0000800505D546F6FC30C0F6000000F0DAF862
:104F100046F6CA30C0F6000000F0D4F8D4F803001A
:104F2000B0F1FF3F06DC46F67130C0F6000000F03D
:104F3000C9F800BFFEE700BF46F63740C0F60000E4
:104F400000F0C0F8B4F801008007CBD546F6DE309B
:104F5000C0F6000000F0B6F8B4F801004007C5D56F
:104F600046F6CC30C0F6000000F0ACF8B4F8010012
:104F70000007BFD546F60740C0F6000000F0A2F8D3
:104F8000B4F80100C005B9D546F6D330C0F600002C
:104F900000F098F8B4F801008005B3D4B8E700BF7A
:104FA0007230353A203078253038780A0000000019
:104FB0007230363A203078253038780A0000000008
:104FC0007230373A203078253038780A00000000F7
:104FD0007230383A203078253038780A00000000E6
:104FE0007230393A203078253038780A00000000D5
:104FF0007231303A203078253038780A00000000CD
:105000007231313A203078253038780A00000000BB
:105010007231323A203078253038780A00000000AA
:10502000206C723A203078253038780A0000000071
:105030002070633A203078253038780A000000006C
:1050400053544B455252200080B5043222F00702DF
:105050004FF0000C4BF6EF6E42F844CDCDF6AD6E3E
:10506000C2E901EEC2E903EEC2E905EEC2E907EECC
:105070004FF0807ED0631046C2E9091CC2E90BCC18
:10508000C2E90DC3C2F840E080BD000080B5FBF767
:1050900097F841F24811C2F200010A7801320A7011
:1050A000BDE88040FBF790B880B5FBF789F841F286
:1050B0004811C2F200010A78013A0A70BDE8804046
:1050C000FBF782B883B010B581B041F2501484462A
:1050D00003A8C2F200040EC003AB2046FF216246C3
:1050E000009300F0CBFE2046FFF77CFD01B0BDE849
:1050F000104003B070470000B0B5814214D28B1845
:10510000834211D9002A45D012F0030100EB020CB2
:1051100042D09E461EF8015D6446012904F8015DF7
:105120003ED1511EA4464DE0A2B312F0030309D0B4
:105130008C461CF8014B8646012B0EF8014B05D11D
:10514000531E14E08C468646134610E04D78022B21
:10515000457005D1931E01F1020C00F1020E06E02C
:1051600001F1030C8978D31E00F1030E8170042A2B
:1051700038BFB0BDACF10401AEF1040211F8045F18
:10518000043B02F8045F4D7855708D789570CD78AA
:10519000D570F3D1B0BD00BF9E46114612E000BFEE
:1051A0009E461EF8025D6446022904F8025D03D1A2
:1051B000911EA44606E000BF13F8035DD11E0CF853
:1051C000035D9E46042AE5D3ACF10402AEF102036E
:1051D0005D780439D5701D78957013F8015C5570B1
:1051E00013F8025CA3F1040302F80459F0D1D1E7EB
:1051F00070B5042A06461BD316F0030018D1C8B2B6
:105200004FF00133102A00FB03F313D3A2F1100C6B
:10521000012000EB1C1010F003000DD00128C6E99E
:105220000033B360F36009D106F11000624616E066
:10523000304650E030462EE0304610E00228C6E905
:105240000433B361F36103D106F12000203A06E094
:1052500006F13000303AC6E90833C6E90A33BCF13A
:10526000300F16D300F14004403AC0E90033C0E9E2
:105270000233C0E90433C0E90633C0E90833C0E9AA
:105280000A33C0E90C33C0E90E330F2A2046E9D8AF
:105290002046042A1FD30446151F042D40F8043B62
:1052A00018D3A2F10805042D63600DD3A2F10C05FB
:1052B000042DA3600CD304F11000103AE360032A1C
:1052C0000446E9D807E000BF04F1080002E000BF8F
:1052D00004F10C002A4622B1CBB211461A46FBF764
:1052E0004CF8304670BD000010B504460020207216
:1052F000FAF766FF54F80C1F62684A606268116032
:10530000C4E90044BDE81040FAF75EBF40F20C0269
:10531000C2F200021178814211461ED0114611F8E6
:10532000103F834219D0114611F8203F834214D018
:10533000114611F8303F83420FD0114611F8403F1B
:1053400083420AD0114611F8503F834205D012F82B
:10535000601F814218BF00221146084670470000B6
:10536000F0B581B00E4640F20C01C2F200011546C4
:105370000A780446B2420F461ED00F4617F8100FA7
:10538000B04219D00F4617F8200FB04214D00F4684
:1053900017F8300FB0420FD00F4617F8400FB04249
:1053A0000AD00F4617F8500FB04205D011F8600F21
:1053B000B04218BF00210F46FFF794FBFFF7A0FB98
:1053C00046F08000207220462946082200F026F987
:1053D000FAF7F6FE57F8041F44F80C1F4C603C60C7
:1053E000676001B0BDE8F040FAF7EEBE007AC00990
:1053F00070470000B0B5FAF7E3FE40F28005C2F254
:1054000000056988044629B12046BDE8B040FAF796
:10541000DBBE00BFA868FCF7FBFE41F2502101385B
:10542000C2F2000151F830106A68A1F114039342EE
:10543000EAD0287041F248106B60C2F20000037895
:1054400002F11C0001F1080133B1FAF7C0FE204659
:10545000BDE8B040FAF7B8BEFAF7B9FE2046BDE89D
:10546000B040FAF7B1BE000010B50446FAF7A8FE46
:1054700094F8341094F8352001F0F001013184F8EB
:10548000341041F25021C2F2000101EBC2014A681E
:1054900040F2800C04F11403C2F2000C1360A2610C
:1054A0004B60A26BDCF80830616143EA0201CCF882
:1054B0000810BDE81040FAF787BE0000B0B50546F9
:1054C000FAF77EFE294651F8142F4B6853604B685B
:1054D00049601A6091F8212041F250230960C2F21C
:1054E000000353F8324003EBC202944204D0BDE8FB
:1054F000B040FAF769BE00BF40F28002C2F200027B
:10550000A96B936823EA01019160BDE8B040FAF706
:105510005BBE000070B515460A4602211C460646D1
:10552000FFF71EFF06F11400C6E905000020B58351
:10553000747270BD80B582B00AA0FFF7C3FD0CA0E5
:10554000FFF7C0FD0FF24C0C15A00321012205232B
:10555000CDF800C0FFF7B6FD19A002B0BDE880404D
:10556000FFF7B0BD0A205C207C202F0A000000005D
:105570002D205254202D2020202020546872656157
:1055800064204F7065726174696E6720537973741B
:10559000656D0A00446563203130203230323400BA
:1055A000202F207C205C202020202025642E2564B4
:1055B0002E2564206275696C642025730A00000042
:1055C0002032303036202D203230323020436F7080
:1055D0007972696768742062792072742D746872B8
:1055E000656164207465616D0A000000014600BFBA
:1055F0000A7862B14A784AB18A785AB1CA780431D5
:10560000002AF5D10139081A704700BF0131081A84
:10561000704700BF0231081A704700002DE9F041C1
:105620008046DAB3C2F1000C00234446CF5C08F890
:105630000370DFB10CEB0306771C2FD2CF187878FC
:1056400008EB03056870A8B1B01C27D0B878A87023
:10565000B0B1F01C22D0F878E870D8B1043304342B
:105660001CEB0300A2F10402E0D117E0601C511E04
:105670000AD113E0A01C013A511E05D10EE000BF73
:10568000E01C023A511E09D0FAF77EFE4046BDE802
:10569000F08100BF033A281D511EF5D14046BDE8F8
:1056A000F081000010B541F25022C2F2000202F176
:1056B0001800C2E9060002F1200002F1080302F11D
:1056C0001001C2E9080002F14000C2E90233C2E958
:1056D000041102F1280102F1300302F13804C2E999
:1056E000100002F16000C2E90A11C2E90C33C2E9FC
:1056F0000E4402F1480102F1500302F15804C2E9DC
:10570000180002F18000C2E91211C2E91433C2E9A3
:10571000164402F1680102F1700302F17804C2E953
:10572000200002F1A000C2E91A11C2E91C33C2E94B
:105730001E4402F1880102F1900302F19804C2E9CB
:10574000280002F1C00040F2800EC2E92211C2E935
:105750002433C2E9264402F1A80102F1B00302F1A8
:10576000B804C2E9300002F1E000C2F2000EC2E962
:105770002A11C2E92C33C2E92E4402F1C80102F118
:10578000D00302F1D804C2E938001F204FF0000C0A
:10579000C2E93211C2E93433C2E9364402F1E80108
:1057A00002F1F00302F1F8048EF800000EF10C0093
:1057B000AEF802C0C2E90022C2E93A11C2E93C33A4
:1057C000C2E93E44CEE901CCCEE9030010BD0000A1
:1057D00010B540F28004C2F20004A068FCF718FD86
:1057E00041F25021C2F2000101EBC00050F8080C58
:1057F000A0F1140108306160BDE81040FAF72DBD3A
:1058000040F29400C2F20000011DC0E9011170478E
:105810007047000080B500F0B5F8002080BD0000A2
:1058200070B540F28400C2F200000568FAF7C8FCC7
:105830000446FAF7C5FCA96F064609B12846884711
:105840003046FAF7C1FC2846FFF738FE042085F8F9
:10585000340005F14C0000F05DFA2846FFF7C6FD64
:10586000012809D12846FFF73FFDFFF7C3FD204679
:10587000BDE87040FAF7A8BC40F28C00C2F200000C
:10588000016845F8141F4D6005606860FFF7B2FDC0
:105890002046BDE87040FAF797BC0000FEE7000024
:1058A00010B584B041F250328021C2F2000240F6BD
:1058B0003C441F20CDE90021C2F2000445F69D02C0
:1058C0004FF0200C029007A1C0F6000220460023F2
:1058D000CDF80CC000F00AF8204604B0BDE8104036
:1058E00000F08CB87469646C650000002DE9F04725
:1058F00082B00DF1280A16460A46DDF834909AE87F
:10590000800501211D460446FFF72AFD04F114001D
:10591000C4E90500384623214246C4E90865C4E9C4
:105920000A78FFF765FC04F120030FCB1A4445F613
:105930002103043AC0F60003FFF786FB45F659221F
:10594000E061002704F14C00C0F600022146234626
:1059500084F836A084F835A0A763C4E911992763B9
:1059600084F83470C4E91E770097019700F0EAF9D3
:10597000002002B0BDE8F08740F28400C2F20000CF
:1059800000687047F0B581B00090FAF719FC40F25A
:105990008401C2F200010C68054694F8341001F04D
:1059A0000F01012913D1FAF70BFC06462046FFF739
:1059B00085FD94F8340000F0F000023084F83400E3
:1059C00004F14C0000F03EFA3046FAF7FDFB04F11A
:1059D0004C066A4630460021002700F067F9304641
:1059E00000F0CAF92846FAF7EFFBFFF703FD206B3A
:1059F000023008BF2763002001B0F0BDB0B50446F7
:105A000090F83600012184F8350001FA00F0A06317
:105A1000022084F83400FAF7D3FB2246A16952F839
:105A2000143F05465960A16904F14C000B60A26166
:105A3000126000F007FA2846FAF7C6FB2046FFF787
:105A400013FD40F28400C2F200000068002818BF75
:105A5000FFF7D0FC0020B0BD80B50246816952F846
:105A6000143F6FF0010C59608169C0F830C00B60C1
:105A700082611260FFF7F8FCBDE88040FFF7BABC16
:105A800010B5FAF79DFB40F28401C2F200010968EB
:105A900091F8342002F00F02012A1FD10A4652F871
:105AA00014CF53689C4519D0CCF8043091F835E0F8
:105AB00041F25023C2F2000303EBCE03D1F818E009
:105AC0008A615C68CEF800C022608C615A604B61CC
:105AD000FAF77AFBFFF78EFC002010BDFAF774FB93
