:020000040800F2
:100000006825002045010008951C0008751B0008A4
:10001000911C0008BD010008012400080000000038
:10002000000000000000000000000000111D00089A
:100030007D02000800000000991C0008151D000842
:100040005F0100085F0100085F0100085F01000810
:100050005F0100085F0100085F0100085F01000800
:100060005F0100085F0100085F0100085F010008F0
:100070005F0100085F010008C101000819020008C3
:100080005F0100085F0100085F0100085F010008D0
:100090005F0100085F0100085F0100085F010008C0
:1000A0005F0100085F0100085F0100085F010008B0
:1000B0005F0100085F0100085F0100085F010008A0
:1000C0005F0100085F0100085F0100085F01000890
:1000D0005F010008D52100085F0100085F010008EA
:1000E0005F0100085F0100085F0100085F01000870
:1000F0005F0100085F0100085F0100085F01000860
:100100005F0100085F0100085F0100085F0100084F
:100110005F0100085F0100085F0100085F0100083F
:100120005F0100085F0100085F0100085F0100082F
:10013000DFF80CD000F02AF8004800473926000804
:10014000682500200648804706480047FEE7FEE78E
:10015000FEE7FEE7FEE7FEE7FEE7FEE7FEE7FEE777
:10016000191D00083101000840EA01039B0703D074
:1001700009E008C9121F08C0042AFAD203E011F8E6
:10018000013B00F8013B521EF9D270471CB50948EB
:100190000090094801900546009C06E0E06840F0A8
:1001A000010394E8070098471034AC42F6D3FFF7F8
:1001B000C3FF00006C2700088C270008FEE7000042
:1001C000B0B542F2D404C2F2000400252046C4F2C5
:1001D000020500F017F9206805F18001884209D96D
:1001E000D5F80004000458BFB0BD40F20445C4F285
:1001F000020505E055F8040B000401D4B0BD00BFB2
:100200004FF4004240F21000C2F2000001212A60C7
:10021000BDE8B04002F026B8B0B542F29004C2F298
:10022000000400252046C4F2020500F0EBF8206827
:1002300005F18001884209D9D5F80004000309D5E9
:1002400040F20445C4F202050CE000BF55F8040B6F
:10025000000307D440F21000C2F20000BDE8B04035
:1002600002F01CB84FF4002240F21000C2F200006D
:1002700000212A60BDE8B04001F0F4BF70470000E3
:10028000EFF3108072B600BFFEE70000014690F861
:100290002100022816D10868D1E90FC3026822F0B4
:1002A0000E020260026822F001020260012000FAE0
:1002B00003F2CCF8042081F821000020002281F80C
:1002C00020207047042088630120002281F820202C
:1002D0007047000090F82110022927D1026840F2EF
:1002E000040C1368C4F2020C23F00E0313601368AD
:1002F0000CF17C018A4223F0010111601AD940F20D
:100300000841C4F202018A4248D040F21C41C4F2C2
:1003100002018A4246D040F23041C4F202018A42D0
:1003200044D14FF48073CCF800345CE00421816345
:10033000012070474321C4F202018A420EDD6B2185
:10034000C4F202018A421BDC4421C4F202018A4247
:100350003CD05821C4F202018A4233E00821C4F2A1
:1003600002018A4236D01C21C4F202018A4237D0EF
:100370003021C4F202018A4224D14FF4807230E06D
:100380006C21C4F202018A4226D08021C4F202010B
:100390008A4217D14FF0807223E000BF0123CCF8CE
:1003A000003420E01023CCF800341CE00CF5886108
:1003B0004FF480338A4208BF4FF48053CCF80034A6
:1003C00011E000BF4FF480320BE000BF4FF48052C9
:1003D00007E000BF012204E04FF4801201E000BFFB
:1003E0001022CCF80020012180F82110426B00215E
:1003F00080F8201022B180B590470021BDE88040F0
:100400000846704710B5D0E90FE3D0F800C0DEF819
:100410000020DCF80010DA4054072DD511F0040458
:100420002AD0DCF80010890605D4DCF8001021F091
:100430000401CCF800100422C4F2020202F17C0193
:100440008C454BD940F20841C4F202018C4500F0C2
:10045000AF8040F21C41C4F202018C4500F0AC8038
:1004600040F23041C4F202018C4540F0A9804FF4C3
:100470008061C2F80014F3E0940745D511F002043E
:1004800042D0DCF80010890608D4DCF8001021F016
:100490000A01CCF80010012180F821100422C4F2D6
:1004A000020202F17C018C454CD940F20841C4F2B1
:1004B00002018C4500F0B48040F21C41C4F20201FC
:1004C0008C4500F0AF8040F23041C4F202018C450F
:1004D00040F0AA804FF40071AEE000BF4321C4F2A7
:1004E00002018C4544DD6B21C4F202018C4551DCD4
:1004F0004421C4F202018C4500F0A2805821C4F2CC
:1005000002018C4568E000BF120740F1C18011F084
:10051000080108BF10BDDCF8001021F00E01CCF876
:100520000010012101FA03F2CEF80420816380F863
:100530002110016B0022002980F8202040F09280D9
:10054000A6E000BF4321C4F202018C4548DD6B21C7
:10055000C4F202018C4555DC4421C4F202018C45F1
:1005600000F084805821C4F202018C4572E000BF83
:100570000821C4F202018C4566D01C21C4F202019C
:100580008C456BD03021C4F202018C4524D14FF44C
:10059000806164E06C21C4F202018C4556D0802158
:1005A000C4F202018C4517D14FF0806157E000BFC3
:1005B0000421C2F8001453E04021C2F800144FE0B7
:1005C00002F588634FF480219C4508BF4FF48041B9
:1005D000C2F8001444E000BF4FF480213FE000BFA8
:1005E0000821C4F202018C4544D01C21C4F202014E
:1005F0008C4545D03021C4F202018C452AD14FF4FC
:1006000000713EE06C21C4F202018C4534D080219F
:10061000C4F202018C451DD14FF0007131E000BFE2
:10062000022109E0202107E002F588634FF4003140
:100630009C4508BF4FF40051C2F8001422E000BFEF
:100640004FF480410BE000BF042108E04FF480012B
:1006500005E000BF4FF4003113E000BF40211160FE
:10066000C16AA9B1BDE81040084700BF4FF400516E
:1006700007E000BF022104E04FF4001101E000BFD9
:1006800020211160816A0022002980F82020E9D110
:1006900010BD0000014600284FF0010008BF704760
:1006A0002DE9F04740F2000CC4F2020C0A684FF644
:1006B000F8330CF5816ECBF6FD73724538BF03F548
:1006C000806303EB020E4CF6CD43CCF6CC43AEFB7D
:1006D000033E6FF003060CF5806506EA9E06D1E93D
:1006E00001A9D1F80C803CBF0025C4F20205C1E984
:1006F0000F56022681F82160166843F6F075AE4366
:1007000046EA0A06D1E9045746EA090646EA080617
:10071000D1E906432E43374327433B43136000226E
:100720008A6381F8210081F820200020BDE8F0478D
:100730007047000090F820C0BCF1010F04BF0220F8
:100740007047F0B54FF0010E80F820E090F821C01E
:10075000BCF1010F26D14FF0020C80F821C04FF000
:10076000000CC0F838C0D0E900C4C56AC66BDCF81C
:100770000070102C27F00107CCF80070006C0EFA06
:1007800000F070600846CCF8043004BF10460A46FA
:10079000CCF80800CCF80C20DCF8000045B140F0A3
:1007A0000E000DE0002180F820100220F0BD00BFF7
:1007B00020F00400CCF80000DCF8000040F00A0053
:1007C000CCF80000DCF8000040F00100CCF800009C
:1007D0000020F0BDB0B5044600F018F9054640F21F
:1007E0000000C2F200000078611C18BF044400BF82
:1007F00000F00CF9401BA042FAD3B0BD2DE9F04F38
:1008000082B00E68002E00F0EF80A0F18042A2F5C9
:100810008432870547EA922241F6004740F2004EB3
:10082000C4F201070625C4F2010EB84208BF05252F
:1008300000244FF001080F234FF0000A4FF0000B87
:10084000052A38BF1546009509E000BF0E680AF179
:10085000010A36FA0AF204F1040400F0C58008FA2D
:100860000AFC16EA0C09F1D04E684FF6FF72C1F28D
:100870001002964212DC122E56D8DFE806F0350B35
:100880004549555555555555555555555555554D3C
:10089000510000BFD1F80CB046E000BF4FF6FF7228
:1008A000C1F2210296420FDC0022C1F211029642EF
:1008B0001AD00022C1F21202964215D00022C1F2D3
:1008C0002102964210D02FE00022C1F2220296426D
:1008D0000AD00022C1F23102964205D00022C1F2B4
:1008E0003202964220D100BF8A684AB1012A14BF61
:1008F000C0F814C0C0F810C04FF0080B14E000BFDF
:100900004FF0040B10E000BFCA6802F1080B0BE0C7
:100910004FF0000B08E000BFCA6802F1040B03E0CF
:10092000CA6802F10C0B00BF22460646B9F5807F6B
:1009300024BF203A0436376803FA02F5AF430BFAB6
:1009400002F23A433260CA79D2067FF57FAF41F2B4
:100950001807C4F202073A684FF6084342F0010252
:100960003A603A68CFF6FF7302F001020192019AF1
:100970002AF0030272440F25D75804F00C06B54044
:10098000AF43009D05FA06F63743D7504E6840F254
:100990000C45F202DEF8082054BF22EA090242EABE
:1009A0000902C4F20105CEF808202A68B70254BF34
:1009B00022EA090242EA09022A60DEF80420B703AB
:1009C00054BF22EA090242EA0902CEF804200F23AA
:1009D000DEF80020F70354BF22EA090242EA0902C6
:1009E000CEF8002032E700BF02B0BDE8F08F000073
:1009F000C26802EA0103914341EA03410161704781
:100A0000002A08BF090401617047000042F260102B
:100A1000C2F200000068704740F2000042F260112C
:100A2000C2F20000C2F2000100780A6810440860B7
:100A30007047000080B542F20000C4F20200016875
:100A400041F010010160032000F08CF80F2000F04D
:100A500005F800F027F8002080BD000070B540F2D6
:100A60000006C2F2000640F208013278C2F200012C
:100A70004FF47A730968B3FBF2F20446B1FBF2F16A
:100A8000084600F089FB0F2C4FF0010508D838B953
:100A90004FF0FF3021460022002500F037F8746047
:100AA000284670BD82B041F21800C4F2020001680D
:100AB000022241F001010160016801F00101019190
:100AC0000199416841F080514160406800F08050D8
:100AD000009000980420C4F20100016862F31A61DA
:100AE000016002B070470000002848BF704700F066
:100AF0001F01012202FA01F11C2202EAD0004EF28B
:100B00000012CEF2000281507047000010B54EF680
:100B10000C5CCEF2000CDCF80030C3F3022E8EF039
:100B20000704042C28BF0424BEF103034FF0FF3E4A
:100B30000EFA04F438BF0023A14399400EFA03F3E0
:100B40009A43114300F00F0200F160430901043A97
:100B500003F564436244002848BF02F10C03197096
:100B600010BD00004EF60C51CEF200010A684FF69F
:100B7000FF031A4060F30A2242F0806040F0FD70EB
:100B800008607047002804BF012070472DE9F0433A
:100B900081B042F20008C4F202080446D8F800000E
:100BA0000D4600F0070088420CD2D8F8000020F073
:100BB00007002843C8F80000D8F8000000F007003C
:100BC000A8426CD1206841F204098107C4F20209ED
:100BD00017D5410705D5D9F8001041F4E061C9F8EF
:100BE0000010010705D5D9F8001041F46051C9F88B
:100BF0000010D9F80010A26821F0F0011143C9F8E3
:100C00000010C00742D1D8F8000000F00700A84249
:100C10000CD9D8F8000020F007002843C8F80000DD
:100C2000D8F8000000F00700A84238D1206841073A
:100C300007D5D9F80010E26821F4E0611143C9F842
:100C40000010000708D5D9F80000216920F4605091
:100C500040EAC100C9F80000D9F8002002F00C00F9
:100C6000082841F20020C0F27A0051D142F25A73B2
:100C7000C2F38341C0F60003595CD2033CD440F672
:100C80000010C0F23D00484342E000BF6068022807
:100C90000AD001282AD159F8041C890308D401205C
:100CA00001B0BDE8F08300BF59F8041C8901F6D5F6
:100CB000D9F8001021F003010843C9F80000FFF73C
:100CC000A5FE064641F28837D9F80000616800F0B9
:100CD0000C00B0EB810F96D0FFF798FE801BB84256
:100CE000F2D9032001B0BDE8F08300BF59F8041C1D
:100CF0008907D4D5DCE700BFD9F8002042F2587349
:100D0000C2F34042C0F600039A5C4843B0FBF2F0E5
:100D1000D9F8001042F24072C1F30311C0F600028C
:100D2000515C40F2080220FA01F140F20400C2F2E4
:100D300000000068C2F200021160FFF78FFE002081
:100D400001B0BDE8F083000040F2080041F2040168
:100D5000C2F20000C4F202010068096842F2507257
:100D6000C1F30221C0F60002515CC8407047000088
:100D700040F2080041F20401C2F20000C4F2020194
:100D80000068096842F25072C1F3C221C0F6000245
:100D9000515CC84070470000002804BF0120704724
:100DA0002DE9F04182B00446007841F20006C00708
:100DB000C4F202060CD0706800F00C00042840F069
:100DC00081803068800303D56068002800F04E8180
:100DD000207880071BD5706810F00C0F09D0706860
:100DE00000F00C00082840F08B807068C00300F110
:100DF00087803068800703D52069012840F036815C
:100E00003068616920F0F80040EAC1003060207865
:100E1000000713D4207840072CD4E569002D00F09A
:100E20002081706800F00C00082840F0AF80012D90
:100E300040F00C81012002B0BDE8F081A0690028DB
:100E400000F08C800020C4F242200121C0F8801400
:100E5000FFF7DCFD054600BF706A800700F1BA802D
:100E6000FFF7D4FD401B0228F6D9032002B0BDE8ED
:100E7000F08100BFF0695FEAC00808D4F06940F073
:100E80008050F061F06900F080500090009847F2C7
:100E90000007C4F200073868C0054DD4386840F434
:100EA00080703860FFF7B2FD054600BF3868C005A6
:100EB00042D4FFF7ABFD401B6428F7D9032002B0F2
:100EC000BDE8F081706800F00C00082803D170685C
:100ED000C0033FF576AF6068002800F00981B0F5E7
:100EE000A02F00F01D81B0F5803F00F01D8130681B
:100EF00020F480303060306820F4802017E100BF9B
:100F00002069002840F20000C4F2422000F08C80EA
:100F100001210160FFF77AFD054600BF30688007B8
:100F20003FF56EAFFFF772FD401B0228F6D9032094
:100F300002B0BDE8F08100BFE068002800F09A80B0
:100F4000052800F0B180012800F0B280306A20F05E
:100F500001003062306A20F00400ACE00020C4F2EE
:100F600042200021C0F88014FFF750FD054600BF65
:100F7000706A80077FF54EAFFFF748FD401B0228DF
:100F8000F6D9032002B0BDE8F08100BF0027C4F20B
:100F9000422700203866FFF739FD022D05460DD1A6
:100FA0003068800140F1D680FFF730FD401B0228F9
:100FB0004FF00300F4D902B0BDE8F0813068800141
:100FC0004FD5FFF723FD401B02284FF00300F5D952
:100FD000F1E700BF40F20800C2F20000006844F6EA
:100FE000D351C1F26201A0FB0101480A019000BF88
:100FF00000BF0198411E002801913FF40BAF00BFD4
:101000000198411E002801913FF404AF00BF0198F0
:10101000411E002801913FF4FDAE00BF0198411E22
:1010200000280191E4D1F5E600210160FFF7EEFC14
:10103000054600BF306880077FF5E9AEFFF7E6FCA4
:10104000401B02284FF00300F4D9B4E77068216A0E
:1010500000F480328A4209D1616A00F4701088423B
:1010600004D1002002B0BDE8F08100BF012002B031
:10107000BDE8F081306A20F001003062306A20F073
:1010800004003062FFF7C2FC054641F2883700BF1A
:10109000306A800722D5FFF7B9FC401BB8424FF0F9
:1010A0000300F5D987E700BF306A40F004003062E2
:1010B000306A40F001003062FFF7A8FC054641F2BB
:1010C000883700BF306A800708D4FFF79FFC401BB9
:1010D000B842F7D9032002B0BDE8F081B8F1000FA3
:1010E0003FF59BAEF06920F08050F06195E600BFBF
:1010F000306820F480303060306820F48020306028
:10110000FFF784FC054600BF306880037FF560AEC2
:10111000FFF77CFC401B64284FF00300F4D94AE73A
:10112000306840F480203060306840F480303060B7
:10113000FFF76CFC054600BF306880033FF548AE02
:10114000FFF764FC401B6428F6D9032002B0BDE819
:10115000F08100BF206AB0F5803F05D17168A268B8
:1011600021F40031114371607168626A21F47411D5
:1011700011430843706001203866FFF747FC0446BE
:10118000306880013FF56DAFFFF740FC001B02287F
:101190004FF00300F4D90EE7411E0020B0EB116FB1
:1011A0001CBF012070474EF21002CEF200025160C7
:1011B0004EF62351CEF20001F0230B700721906010
:1011C000116070477047000040F21001C2F2000148
:1011D0000A6B824218BF7047486A01304862704704
:1011E000B0B582B0044600680168C368426901F086
:1011F0002F05202D03F0200506D12DB1204602B089
:10120000BDE8B04000F066BF5FEA017C1EBF02F09F
:10121000010E03F4907212EB0E0243D1226BCD0645
:1012200018D5012A16D113F0100213D00021019114
:1012300001680191416801910199406940063BD4E0
:10124000A08DE18DE28D002A18BF884240F0F28126
:1012500002B0B0BD0A0640F1E78013F0800200F052
:10126000E38094F841102129F2D1A168B1F5805FA3
:1012700003D12169002900F06382216A4A1C22629D
:1012800009784160E18C01390A04E184E0D1C16848
:1012900021F08001C160C16841F04001C16002B02D
:1012A000B0BD00BFCA0718BF13F4807240F0D080F1
:1012B0004A0700F1D380D8E0E06B016849688AB240
:1012C000002AC5D0A38D9A42C2D2E1858069202828
:1012D00000F09E80206850E8030F216820F48070A1
:1012E00041E80302DAB1206850E8030F216820F4D6
:1012F000807041E8030292B1206850E8030F216832
:1013000020F4807041E803024AB1206850E8030FDE
:10131000216820F4807041E80302002ADAD12068B5
:1013200050E8050F216820F0010041E80502C2B332
:10133000206850E8050F216820F0010041E805020F
:101340007AB3206850E8050F216820F0010041E8D9
:10135000050232B3206850E8050F216820F0010033
:1013600041E80502002ADAD11BE000BF206850E8FE
:10137000050F216820F0400041E80502DAB120683D
:1013800050E8050F216820F0400041E8050292B1C5
:10139000206850E8050F216820F0400041E8050270
:1013A0004AB1206850E8050F216820F0400041E86C
:1013B0000502002ADAD1202084F8420000202063B0
:1013C000206850E8030F216820F0100041E8030274
:1013D000DAB1206850E8030F216820F0100041E8DE
:1013E000030292B1206850E8030F216820F010003A
:1013F00041E803024AB1206850E8030F216820F059
:10140000100041E80302002ADAD1E06BFEF73EFF4C
:1014100002206063A08DE18D401A81B2204602B0A7
:10142000BDE8B040FFF7CEBE49067FF511AF13F01F
:1014300040013FF40DAFC16821F04001C16020219F
:10144000204684F8411002B0BDE8B04000F082BBF5
:10145000626C42F0010262644A0706D5BEF1000FD9
:1014600003D0626C42F0020262648A0706D5BEF1C4
:10147000000F03D0626C42F004026264BCF1000F02
:1014800006D55EEA050203D0626C42F0080262648F
:10149000626C002A3FF4DCAE890604D51DB12046FB
:1014A00000F018FE20684069616C00F0400001F017
:1014B0000801401800F0B680206850E8030F21684A
:1014C00020F4907041E80302BAB3206850E8030F9B
:1014D000216820F4907041E8030272B3206850E85C
:1014E000030F216820F4907041E803022AB32068BA
:1014F00050E8030F216820F4907041E80302002AAD
:10150000DAD11AE0206850E8050F216820F00100C8
:1015100041E80502DAB1206850E8050F216820F0A3
:10152000010041E8050292B1206850E8050F2168EA
:1015300020F0010041E805024AB1206850E8050F9B
:10154000216820F0010041E80502002ADAD1206B71
:10155000012824D1206850E8030F216820F01000F2
:1015600041E80302DAB1206850E8030F216820F057
:10157000100041E8030292B1206850E8030F21688F
:1015800020F0100041E803024AB1206850E8030F40
:10159000216820F0100041E80302002ADAD120205F
:1015A00084F842000020206320684069400640F132
:1015B000C180206850E8050F216820F0400041E814
:1015C0000502DAB1206850E8050F216820F04000DC
:1015D00041E8050292B1206850E8050F216820F02B
:1015E000400041E805024AB1206850E8050F216833
:1015F00020F0400041E80502002ADAD1E06B002823
:1016000000F0988041F61D51C0F600014163FEF7DD
:1016100061FE00283FF41CAEE06B416B02B0BDE8F8
:10162000B04008472046FFF7CFFD0020606402B0BD
:10163000B0BD00BF401A00BF216851E8031F2268F7
:1016400021F4907142E80313BBB3216851E8031FF2
:10165000226821F4907142E8031373B3216851E8C2
:10166000031F226821F4907142E803132BB3216811
:1016700051E8031F226821F4907142E80313002B04
:10168000DAD11AE0216851E8051F226821F0010132
:1016900042E80513DBB1216851E8051F226821F0FB
:1016A000010142E8051393B1216851E8051F226842
:1016B00021F0010142E805134BB1216851E8051FF3
:1016C000226821F0010142E80513002BDAD1202124
:1016D00084F8421000212163216851E8031F226829
:1016E00021F0100142E80313DBB1216851E8031F28
:1016F000226821F0100142E8031393B1216851E8F8
:10170000031F226821F0100142E803134BB1216846
:1017100051E8031F226821F0100142E80313002B57
:10172000DAD1022281B22046626302B0BDE8B04045
:10173000FFF748BD204602B0BDE8B040FFF744BD0A
:10174000216A31F8022B6FF35F224260216299E532
:10175000002804BF0120704710B5044690F84100EE
:1017600028B9002084F84000204600F063F82420C7
:1017700084F841002068D4E90212C36823F40053BE
:10178000C360036923F440531A430261D4E904237C
:101790001143C268194341F20C639A431143C1607B
:1017A0004169A26921F44071114343F60002C4F279
:1017B00001029042416103D0FFF7C6FA02E000BF88
:1017C000FFF7D6FAD4E90023192148439900B0FB6A
:1017D000F1F048F21F5CC5F2EB1CA0FB0C314FF698
:1017E0009C734909C0F6FF7301FB0300322303EB2E
:1017F0000010A0FB0C03F02000EA531000EB0110D6
:10180000C3F34311084490601069202120F49040F4
:101810001061506920F02A005061D06840F40050F7
:10182000D0600020606484F8411084F84210606346
:1018300010BD00002DE9F04186B040F600050446D9
:10184000C4F20105006805F540510027884204975D
:1018500002D006B0BDE8F08141F21800C4F20200E7
:10186000016802AE41F480410160016840F2440821
:1018700001F48041019101990168C4F2020841F02C
:10188000040101600068314600F0040001900198F5
:101890004FF4007002900220039003200590284628
:1018A000FEF7ACFF4FF48060CDE9020728463146D1
:1018B0000497FEF7A3FF42F2900508F11400C2F26C
:1018C0000005802620214FF40052C5E90007284674
:1018D000C5E90276C5E90477C5E90612FEF7DAFE26
:1018E000002818BFFEF7CCFCE5636C6242F2D40519
:1018F000C2F20005102000214FF48052C5E900809B
:101900002846C5E90216C5E90411C5E90612FEF725
:10191000C1FE002818BFFEF7B3FC252001210022DC
:10192000A5636C62FFF7F2F82520FFF7DDF806B03B
:10193000BDE8F08170B582B0044690F842002028DE
:101940000AD113460A4600294FF0010018BF002BA8
:1019500006D102B070BD00BF022002B070BD00BF52
:10196000002522202563A262A385656484F84200D5
:101970002168E06B41F6A56C42F2050E41F629564E
:10198000C0F6000CC0F6000EC0F600060431C0E937
:101990000ACEC0E90C65FEF7CDFE0195206801680E
:1019A0000191406801900198206928B3206850E8AF
:1019B000030F216840F4807041E80302E2B120681F
:1019C00050E8030F216840F4807041E803029AB1A7
:1019D000206850E8030F216840F4807041E803025A
:1019E00052B1206850E8030F216840F4807041E84C
:1019F0000302002ADAD100BF206850E8050F2168F1
:101A000040F0010041E80502BAB3206850E8050F34
:101A1000216840F0010041E8050272B3206850E8F7
:101A2000050F216840F0010041E805022AB3206853
:101A300050E8050F216840F0010041E80502002A46
:101A4000DAD11AE0206850E8050F216840F0400024
:101A500041E80502DAB1206850E8050F216840F03E
:101A6000400041E8050292B1206850E8050F216866
:101A700040F0400041E805024AB1206850E8050FF7
:101A8000216840F0400041E80502002ADAD1002038
:101A900002B070BD704700007047000070B504468A
:101AA00090F8410020281CBF022070BD00294FF093
:101AB00001004DD0002A134608BF70BD4FF0000C46
:101AC00021202162A384E384C4F844C084F8410047
:101AD0002268A06B42F21D0E42F2CD0541F6295656
:101AE000C0F6000EC0F60005C0F600060432C0E9DC
:101AF0000AE5C0E90C6CFEF71DFE20686FF040019E
:101B0000016000BF206850E8050F216840F08000A8
:101B100041E80502DAB1206850E8050F216840F07D
:101B2000800041E8050292B1206850E8050F216865
:101B300040F0800041E805024AB1206850E8050FF6
:101B4000216840F0800041E80502002ADAD1002037
:101B500070BD000040F21001C2F20001096B814229
:101B600018BF704740F21000C2F2000000F0C8BB7E
:101B700070470000FEE7000080B582B041F214001B
:101B8000C4F202000168002241F001010160006816
:101B9000002100F00100019001980E20FEF7B6FF31
:101BA0000E20FEF7A1FF0F2000210022FEF7AEFF5E
:101BB0000F2002B0BDE88040FEF796BF2DE9F0434C
:101BC00085B041F21800C4F20200016840F60049F5
:101BD00041F0400101600168C4F2010901F04001D7
:101BE00001910199016809F5406541F00401016026
:101BF0000168002201F004010191019901684FF090
:101C0000200841F0080101600068202100F0080070
:101C1000019001982846FEF7F3FE48462021002255
:101C2000FEF7EEFE01AE0127022428463146CDF82C
:101C300004800297CDE90347FEF7E0FD48463146B0
:101C4000CDE90187CDE90347FEF7D8FD05B0BDE832
:101C5000F083000080B542F2181043F60001C2F292
:101C60000000C4F2010100234FF00C0C4FF4E132EC
:101C700080E80E00C0E90333C0E905C3C361FFF784
:101C800067FD002808BF80BDBDE88040FEF7F8BAB8
:101C9000FEE70000FEE70000704700002DE9F0417C
:101CA000002908BFBDE8F08100F14006878F30466B
:101CB00014460D4600F0A6FBA74280460ED94445C7
:101CC00012D9304600F0AEFBA4EB0801814228BFD8
:101CD0000146304600F034FC06E000BF0CD1B845A8
:101CE00002D2304600F016FC304629462246BDE8B6
:101CF000F04100F04BBC00BFE01B2C18304600F058
:101D000009FC304621463A46BDE8F04100F03EBCB1
:101D100070470000FEF780BE70470000406A002157
:101D2000C185C184FFF750BA406A01684A6990F8DA
:101D30004130212B2DD112F080022AD00021C18404
:101D4000016851E8031F026821F0C00142E8031353
:101D5000DBB1016851E8031F026821F0C00142E8CD
:101D6000031393B1016851E8031F026821F0C00119
:101D700042E803134BB1016851E8031F026821F0E8
:101D8000C00142E80313002BDAD1202180F8411072
:101D90000168496990F84220222A40F07D8011F0C4
:101DA000400179D00021C185016851E8031F026814
:101DB00021F4907142E80313BBB3016851E8031F9B
:101DC000026821F4907142E8031373B3016851E88B
:101DD000031F026821F4907142E803132BB30168DA
:101DE00051E8031F026821F4907142E80313002BAD
:101DF000DAD11AE0016851E8051F026821F00101FB
:101E000042E80513DBB1016851E8051F026821F0C3
:101E1000010142E8051393B1016851E8051F02680A
:101E200021F0010142E805134BB1016851E8051F9B
:101E3000026821F0010142E80513002BDAD1016BA1
:101E4000012924D1016851E8031F026821F0100123
:101E500042E80313DBB1016851E8031F026821F077
:101E6000100142E8031393B1016851E8031F0268AF
:101E700021F0100142E803134BB1016851E8031F40
:101E8000026821F0100142E80313002BDAD120216F
:101E900080F8421000210163416C41F0100141645F
:101EA000FFF792B90168406A0968890600F19F80CE
:101EB0000021C185016851E8031F026821F4807187
:101EC00042E80313E3B1016851E8031F026821F4FB
:101ED000807142E803139BB1016851E8031F026857
:101EE00021F4807142E8031353B1016851E8031FE4
:101EF000026821F4807142E80313002BDAD100BF9D
:101F0000016851E8051F026821F0010142E805134C
:101F1000BBB3016851E8051F026821F0010142E8E6
:101F2000051373B3016851E8051F026821F0010130
:101F300042E805132BB3016851E8051F026821F040
:101F4000010142E80513002BDAD11AE0016851E8DB
:101F5000051F026821F0400142E80513DBB101686A
:101F600051E8051F026821F0400142E8051393B1D2
:101F7000016851E8051F026821F0400142E805139D
:101F80004BB1016851E8051F026821F0400142E8A9
:101F90000513002BDAD1202180F84210016B0129B2
:101FA00025D100BF016851E8031F026821F010012C
:101FB00042E80313DBB1016851E8031F026821F016
:101FC000100142E8031393B1016851E8031F02684E
:101FD00021F0100142E803134BB1016851E8031FDF
:101FE000026821F0100142E80313002BDAD100212E
:101FF0004163016B012918BFFFF74CBD818DFFF7CD
:10200000E1B80000406A01214163016B012918BF5A
:10201000FFF742BD818D4908FFF7D4B80168406AD7
:102020000968890648BFFFF795BD0021C18400BF3C
:10203000016851E8051F026821F0800142E805139C
:1020400083B3016851E8051F026821F0800142E86E
:1020500005133BB3016851E8051F026821F08001B8
:1020600042E80513F3B1016851E8051F026821F049
:10207000800142E80513002BDAD113E0016851E832
:10208000031F026841F0400142E80313002B08BF20
:102090007047016851E8031F026841F0400142E8BF
:1020A000031393B1016851E8031F026841F0400136
:1020B00042E803134BB1016851E8031F026841F085
:1020C000400142E80313002BD8D17047406AFFF764
:1020D0004FBD000081B090F84210222921D18368C1
:1020E0000246B3F5805F09D152F8281F52F8183C18
:1020F000002B63D003685B680AE000BF52F8281F1A
:1021000013B90369002BF5D003685B6803F07F0304
:102110000B70116801311160C18D01390A04C1854C
:1021200002D001B0704700BF0168CA6822F02002E7
:10213000CA60CA6822F48072CA604A6922F0010249
:102140004A61202180F8421000214163026B012A7C
:102150003CD10163016851E8031F026821F01001BE
:1021600042E80313DBB1016851E8031F026821F064
:10217000100142E8031393B1016851E8031F02689C
:1021800021F0100142E803134BB1016851E8031F2D
:10219000026821F0100142E80313002BDAD1016834
:1021A0000A68D20606D5002200920A6800924968A1
:1021B00000910099818D01B0FFF704B80268526860
:1021C0006FF35F2221F8022B8162A5E701B0FFF7D0
:1021D00061BC000080B542F21810C2F20000FEF7A8
:1021E000FFFF40F21000C2F20000BDE8804000F0A6
:1021F000C9B80000002808BF7047F0B581B0044698
:10220000089DDDE90676C4E90D128387403011464A
:102210001A4600F017F904F1640031462A46C4E971
:102220001676A4F8605000F00DF9A06AFEF72EF8BB
:10223000D4E90C01A28FFFF77DFB206B0068C16819
:1022400041F01001C1600020208320702083C4E988
:102250000200C4E90400E0612062606201B0BDE8F0
:10226000F040704710B5002808BF10BD044639B1D2
:10227000E169E06A0131E161BDE81040FEF706B8AE
:10228000216AA06A01312162FEF700F8D4E90C014D
:10229000A28FBDE81040FFF74DBB0000002808BF2B
:1022A0007047F0B581B00446806A0168A08F496824
:1022B000228B461AB5B295421DD0616B95421144EE
:1022C00006D9AD1AAAB22046FFF7E8FC0BE000BF22
:1022D000871ABAB22046FFF7E1FC616B20462A4616
:1022E000FFF7DCFC3D44D4E90201401941EBE57104
:1022F000C4E90201268301B0BDE8F0407047000048
:1023000000281CBF002101707047000070B548B163
:1023100000F164060446304600F084F881B209B149
:1023200022780AB170BD00BFB4F86020914288BF26
:102330001046A16D85B230462A4600F095F8D4E9E2
:102340000401401941F10001002DC4E90401E9D064
:10235000A16D0029E6D0B4F86000A84238BF70BD76
:10236000207830B1207820B1207810B12078002872
:10237000F6D101202070206B2A46BDE87040FFF79F
:102380008DBB0000002808BF7047F0B581B004463F
:10239000006B00680168C9062DD500210091016815
:1023A0000091406800900098A06A0168A08F496879
:1023B000228B461AB5B295421DD0616B95421144ED
:1023C00006D9AD1AAAB22046FFF768FC0BE000BFA1
:1023D000871ABAB22046FFF761FC616B20462A4695
:1023E000FFF75CFC3D44D4E90201401941EBE57183
:1023F000C4E90201268301B0BDE8F0407047000047
:10240000FEE7000060B1016851B1416841B1C268A6
:102410008068824238BF0021891A08440138704719
:102420000020704760B1016851B1416841B1C26894
:10243000806882422EBF101A1144081A704700BFEC
:1024400000207047034600284FF0000018BF002905
:1024500000D17047002A08BF7047C3E90200186125
:102460000120C3E900127047002804BF0020704714
:102470002DE9F04381B00546006898B114464FF04D
:1024800000005AB10E4649B1696839B1E868AA68D6
:10249000904238BF0844904208D1002001B0BDE806
:1024A000F08300BF002001B0BDE8F083D5F80890AC
:1024B000BFF35F8F801AD5E90012A042A2EB090793
:1024C00038BF0446A74228BF2746494430463A460B
:1024D000FDF74AFEB4EB070806D02968F01942461A
:1024E000FDF742FE02E000BF07EB0908686880457F
:1024F00028BF4FF00008BFF35F8FC5F808802B6935
:102500001BB12846002122469847204601B0BDE86D
:10251000F083000090B1016881B14168002908BFD3
:1025200070470021BFF35F8FC160BFF35F8F816091
:1025300003691BB102210022184700BF7047000049
:1025400010B508B30268FAB14FF00004C9B142688F
:10255000BAB1C36884681C1B38BF14448C4228BFBE
:102560000C468168BFF35F8F426821448A1A38BFE6
:102570000A46BFF35F8F8260036913B100212246D0
:102580009847204610BD00BF002010BD002804BFA2
:10259000002070472DE9F04381B00546006868B31C
:1025A00014464FF0000052B30E4641B3696831B390
:1025B000EA68AB68D04318449A4228BF084408B37D
:1025C000D5F80C90BFF35F8FD5E90012A042A2EBC3
:1025D000090738BF0446A74228BF274601EB090078
:1025E00031463A46FDF7C0FDB4EB07080ED0286827
:1025F000F1194246FDF7B8FD0AE000BF002001B026
:10260000BDE8F083002001B0BDE8F08307EB0908C6
:102610006868804528BF4FF00008BFF35F8FC5F89A
:102620000C802B691BB12846012122469847204681
:1026300001B0BDE8F083000092B0FEF7FBF9002482
:102640000120CDE90D44CDE90B4408900C904FF4E6
:10265000E0104FF480310225119008A8CDE909144B
:10266000CDE90F51FEF798FB20B1EFF3108072B661
:10267000FEE700BF0F20CDE903054FF48060CDE9F0
:10268000060403A802210594FEF77CFA20B1EFF3BB
:10269000108072B6FEE700BFFFF790FAFFF76CFA02
:1026A000FFF7D8FA41F6900041F29001C2F2000023
:1026B000C2F2000140F21004CDE90010C2F20004A1
:1026C00040F2900140F690024FF40067C2F2000120
:1026D000C2F2000220464FF400630297FFF78AFD22
:1026E00048F6890740F600450026C8F68807C4F278
:1026F000010503E001200136FEF76CF8A6FB070197
:1027000008090001A0EB1110B6EB400F03D12846D9
:102710002021FEF76DF9F007ECD12046FFF7F6FD1A
:10272000E8E702E008C8121F08C1002AFAD1704782
:102730007047002001E001C1121F002AFBD1704741
:102740000000000000000000010203040607080961
:102750000000000001020304010202030405060751
:1027600008090A0B0C0D0E0F10100000902700082E
:102770000000002090000000222700082028000808
:1027800090000020D824000032270008000000003C
:10279000010000001000000000127A00000000009C
:1027A0000000000000000000000000000000000029
:1027B0000000000000000000000000000000000019
:1027C000000000000000000090200020D420002025
:1027D00018210020000000000000000000000000A0
:1027E00000000000000000000000000000000000E9
:1027F00000000000000000000000000000000000D9
:1028000000000000000000000000000000000000C8
:1028100000000000000000000000000000000000B8
:0400000508000131BD
:00000001FF
