:020000040800F2
:100000001814002001010008D50400083D03000871
:10001000D104000879010008490800080000000028
:10002000000000000000000000000000490500087A
:100030000503000800000000450500084D05000804
:100040001B0100081B0100081B0100081B01000820
:100050001B0100081B0100081B0100081B01000810
:100060001B0100081B0100081B0100081B01000800
:100070001B0100081B010008090200080103000819
:100080001B0100081B0100081B0100081B010008E0
:100090001B0100081B0100081B0100081B010008D0
:1000A0001B0100081B0100081B0100081B010008C0
:1000B0001B0100081B0100081B0100081B010008B0
:1000C0001B0100081B0100081B0100081B010008A0
:1000D0001B010008190700081B0100081B0100088C
:1000E0001B0100081B0100081B010008DFF80CD0F1
:1000F00000F02AF8004800470D09000818140020F5
:100100000648804706480047FEE7FEE7FEE7FEE7B1
:10011000FEE7FEE7FEE7FEE7FEE7FEE7190600085A
:10012000ED00000840EA01039B0703D009E008C97D
:10013000121F08C0042AFAD203E011F8013B00F8AC
:10014000013B521EF9D270471CB50948009009487E
:1001500001900546009C06E0E06840F0010394E849
:10016000070098471034AC42F6D3FFF7C3FF0000F6
:10017000B0090008D0090008FFE7FEE780B582B0AB
:1001800041F21401C4F20201086840F00100086065
:1001900000F074FB0022114600F09EF901460E208B
:1001A000019000F073FB019800F050FB4421C4F271
:1001B0000201086820F480400860086840F01000E0
:1001C0000860086820F440500860086840F4005057
:1001D0000860086820F020000860086820F04000EF
:1001E0000860086840F080000860086820F44070EB
:1001F0000860086820F440600860086840F0020069
:10020000086002B080BD00000020C4F20200006857
:10021000800400281DD5FFE70421C4F2020108680C
:1002200040F4005008604421C4F20201086820F044
:100230000100086043F61401C4F20101086820F0CF
:100240008000086041F21101C2F200010020087034
:10025000FFE7704780B582B041F21401C4F2020199
:10026000086840F00100086000F008FB0022114619
:1002700000F032F901460F20019000F007FB0198D1
:1002800000F0E4FA5821C4F20201086820F00100ED
:100290000860FFE75820C4F202000068C00708B1F8
:1002A000FFE7F7E76021C4F2020143F60400C4F25D
:1002B0000100086040F21000C2F200006421C4F2A4
:1002C000020108605C21C4F202014FF40060086082
:1002D0005821C4F2020100200860086840F02000A4
:1002E0000860086840F080000860086840F44050EA
:1002F0000860086840F00100086002B080BD00009E
:10030000704700007047000041F21801C4F202017A
:10031000086840F00100086041F21C02C4F20202C9
:10032000106840F080501060086840F020000860BD
:10033000086840F00400086000BF7047FFE7FEE770
:1003400042F20000C4F20200006800F007007047AB
:1003500081B0009042F20001C4F20201086820F06E
:100360000700009A1043086001B070470421C4F2EE
:1003700001010868022262F31A60086070470000F9
:1003800080B582B0019001984FF47A7100F002F8C4
:1003900002B080BD82B00190009101980099B0FB3D
:1003A000F1F001384EF21401CEF2000108604EF275
:1003B0001801CEF20001002008604EF21001CEF2CA
:1003C00000010520086002B07047000041F20400FF
:1003D000C4F20200006800F00C00704741F2000116
:1003E000C4F20201086840F48030086070470000E1
:1003F00041F20000C4F202000068C0F340407047C0
:1004000082B00190009141F20401C4F20201086837
:1004100020F47C10019A02F44032009B1A431043EE
:10042000086002B07047000041F20001C4F202010E
:10043000086840F0807008607047000041F20000DA
:10044000C4F202000068C0F34060704781B00090C1
:1004500041F20401C4F20201086820F0F000009AA1
:100460001043086001B0704781B0009041F2040170
:10047000C4F20201086820F4E060009A10430860AA
:1004800001B0704781B0009041F20401C4F2020152
:10049000086820F46050009A1043086001B070476B
:1004A00081B0009041F20401C4F20201086820F01A
:1004B0000300009A1043086001B0704781B00090BB
:1004C000009840F20001C2F20001086001B07047DC
:1004D000FFE7FEE7FFE7FEE788B007900691059289
:1004E000079800F0070004900498C0F10700052861
:1004F00003D3FFE70420019004E00498C0F1070053
:100500000190FFE70198039004980430062803D86F
:10051000FFE70020009003E0049803380090FFE715
:100520000098029006980399012202FA01F101391C
:100530000840029B984005999A40013A11400843AF
:1005400008B07047704700007047000040F2080193
:10055000C2F2000108680130086040F60840C4F2A9
:1005600001000068C006002807D5FFE740F20C0133
:10057000C2F200010120087006E040F20C01C2F254
:10058000000100200870FFE77047000080B582B0CE
:100590000220FFF7DDFEFFE7FFF7D2FE022801D0C1
:1005A000FFE7F9E7FFF71AFFFFE7FFF721FF012851
:1005B00001D0FFE7F9E74FF480304FF4E011FFF787
:1005C0001FFFFFF731FFFFE7FFF738FF012801D0DA
:1005D000FFE7F9E700200190FFF738FF4FF4806054
:1005E000FFF742FF0198FFF74DFF0220FFF758FF8A
:1005F000FFE7FFF7EBFE082801D0FFE7F9E74AF233
:100600000020C0F24A400090FFF7BAFE0098FFF7C2
:1006100055FF02B080BD00007047000080B582B079
:1006200041F21801C4F20201086840F480400860F9
:10063000086840F00400086040F60401C4F20101BB
:10064000086820F0F0000860086840F0A00008602A
:10065000086820F470600860086840F480600860F2
:1006600000F00CF901210022FFF736FF014625209A
:10067000019000F00BF9019800F0E8F843F608014A
:10068000C4F2010140F27120086043F60C01C4F28B
:100690000101086820F48050086043F61003C4F29A
:1006A0000103186820F440501860086820F4806046
:1006B0000860086840F008000860086840F004001E
:1006C000086043F61402C4F20102106820F440707E
:1006D0001060186820F480401860186820F40060EA
:1006E0001860106820F020001060106820F00200F0
:1006F0001060106820F008001060086840F01000DA
:100700000860106840F040001060086840F4005035
:10071000086002B080BD000080B584B043F60000E0
:10072000C4F201000068C00600283BD5FFE743F68D
:100730000000C4F201000068039043F60400C4F214
:100740000100006803905821C4F202010291086878
:1007500020F0010008605C20C4F2020001900068F3
:10076000C0F5006140F20E00C2F200000180028874
:1007700040F61100C2F2000040F21001C2F2000186
:10078000FFF7D0FC019A029940F61003C2F2000371
:10079000012018704FF400601060086840F00100FC
:1007A0000860FFE704B080BD82B00190ADF8021090
:1007B000FFE741F21100C2F20000007808B1FFE744
:1007C000F7E741F21101C2F2000101200870442054
:1007D000C4F202000068C00788B1FFE74421C4F2F8
:1007E0000201086820F001000860FFE74420C4F21D
:1007F00002000068C00708B1FFE7F7E7FFE70198CC
:100800005021C4F2020108604C21C4F2020143F6F7
:100810000400C4F201000860BDF802004821C4F2DF
:100820000201086043F61401C4F20101086840F0B7
:10083000800008604421C4F20201086840F0010011
:10084000086002B070470000FFE7FEE781B08DF856
:1008500003009DF9030000280ED4FFE79DF9031063
:1008600001F01F02012090404A094EF20011CEF221
:10087000000141F82200FFE701B070474EF60C502E
:10088000CEF200000068C0F30220704782B08DF8FD
:10089000070000919DF9070000280AD4FFE700989F
:1008A00000019DF907104EF20042CEF2000288547A
:1008B0000BE0009800019DF8071001F00F014EF6C3
:1008C0001452CEF200028854FFE702B070470000D5
:1008D00083B00290029800F0070000904EF60C5191
:1008E000CEF200010868019001984FF6FF02104017
:1008F00001900198009A40EA02200022C0F2FA52C8
:10090000104301900198086003B0704780B582B031
:10091000002000900190FFF7F7FC0320FFF7D8FFBD
:10092000FFF7ACFF009A0F21FFF7D6FD01464FF00D
:10093000FF30FFF7ABFFFFF719FDFFF727FE4EF281
:100940001001CEF20001086840F002000860FFF7D5
:1009500065FEFFF713FCFFF77DFCFFE740F6100094
:10096000C2F20000007890B1FFE740F20E00C2F240
:100970000000018840F61100C2F20000FFF714FFEA
:1009800040F61001C2F2000100200870FFE7E5E721
:1009900002E008C8121F08C1002AFAD17047704748
:1009A000002001E001C1121F002AFBD170470000A6
:1009B000D00900080000002008000000900900088D
:1009C000D80900080800002010140000A009000841
:0809D00000127A000000000093
:04000005080000ED02
:00000001FF
