:020000040800F2
:100000000804002045010008A5040008CD020008EE
:10001000A104000899010008C905000800000000BB
:10002000000000000000000000000000AD04000817
:10003000C902000800000000A9040008B10400087B
:100040005F0100085F0100085F0100085F01000810
:100050005F0100085F0100085F0100085F01000800
:100060005F0100085F0100085F0100085F010008F0
:100070005F0100085F0100085F0100085F010008E0
:100080005F0100085F0100085F0100085F010008D0
:100090005F0100085F0100085F0100085F010008C0
:1000A0005F0100085F0100085F0100085F010008B0
:1000B0005F0100085F0100085F0100085F010008A0
:1000C0005F0100085F0100085F0100085F01000890
:1000D0005F0100085F0100085F0100085F01000880
:1000E0005F0100085F0100085F0100085F01000870
:1000F0005F0100085F0100085F0100085F01000860
:100100005F0100085F0100085F0100085F0100084F
:100110005F0100085F0100085F0100085F0100083F
:100120005F0100085F0100085F0100085F0100082F
:10013000DFF80CD000F018F800480047CD050008A3
:10014000080400200648804706480047FEE7FEE70F
:10015000FEE7FEE7FEE7FEE7FEE7FEE7FEE7FEE777
:10016000C5050008310100081CB509480090094880
:1001700001900546009C06E0E06840F0010394E829
:10018000070098471034AC42F6D3FFF7D5FF0000C4
:100190006007000880070008FEE7000041F2180031
:1001A000C4F20200416841F000714160016841F011
:1001B0000401016040F60401C4F20101086820F462
:1001C00070400860086840F400400860886840F4A7
:1001D00000608860086820F4702008600A6846F2B1
:1001E000004042F43022C4F200000A60016841F08D
:1001F000010101604168C90709D14168C90704BF0D
:1002000041685FEAC17102D14168C907F2D0016853
:1002100021F080010160016821F040010160016866
:1002200021F020010160016821F0080101600168EE
:1002300021F004010160016841F010010160032117
:10024000C0F22D01C161016821F001010160416826
:10025000C90709D04168C9071CBF41685FEAC1717D
:1002600002D04168C907F2D1016821F002010160A2
:100270004168890709D54168890744BF41685FEA39
:10028000817102D541688907F2D4D0F8001241F09B
:100290000101C0F800120021C0F84012C0F8441259
:1002A000D0F8141221F00101C0F81412D0F81C1279
:1002B00041F00101C0F81C12D0F8001221F0010138
:1002C000C0F800127047000070470000FEE7000011
:1002D0002DE9F04FB1F8018098FAA8F3B3FA83F34F
:1002E00038FA03F750D040F2011C4FF0011E4FF0D6
:1002F0000F0A4FF0040903E0013338FA03F243D048
:1003000028FA03F5ED07F7D0B3F108050EFA05F565
:1003100045F080664D6838BF0CFA03F6082D0DD104
:10032000370AD1F810B0C46897FAA7F7B7FA87F779
:1003300024EA16240BFA07F73C43C460370E96FAFA
:10034000A6F6B6FA86F63C58B6000AFA06F224EA91
:10035000020205FA06F442EA04053D504A6842F0FA
:100360000802092AC8D18A680324B44025EA040493
:10037000B2402243C251CC6809FA06F5AA43B44000
:100380002243C251B8E700BF0020BDE8F08F000053
:1003900044F6D351C1F26201A0FB01014FF0FF30DE
:1003A00000EB91104EF21001CEF2000148600020E7
:1003B000886005200860704740F20001C2F2000129
:1003C0000860704781B04EF21001CEF200010A6859
:1003D00001300092009A28BF4FF0FF300A68D20324
:1003E00000EBE27078B10A68D20300EBE27050B122
:1003F0000A68D20300EBE27028B10A68D20300EB6E
:10040000E2700028EAD101B0704700002DE9F04108
:1004100086B041F21800C4F20200016840F60044C0
:1004200041F0400101600168C4F2010401F04001A3
:1004300001910199016801AD41F004010160016879
:1004400042F2200801F0040101910199016801279D
:1004500041F0080101600068202100F008000190CF
:10046000019841F61400C4F20100016061610026A8
:1004700004F540602946CDF80480CDE90277CDE946
:100480000466FFF725FF20462946CDE90187CDE91F
:1004900003760596FFF71CFF06B0BDE8F08100006B
:1004A000FEE70000FEE70000704700007047000014
:1004B0007047000010B542F20000C4F2020001686B
:1004C000022262F302010160016801F007010229C2
:1004D0000ED0016801F00701022909D0016801F07E
:1004E0000701022904D0016801F007010229EBD1BC
:1004F00041F20400C4F2020050F8041C41F48031BF
:1005000040F8041C50F8041C89030CD450F8041C57
:1005100089035CBF50F8041C5FEA813103D450F8B2
:10052000041C8903EED501681D2262F315410160A8
:1005300050F8041C41F0807140F8041C50F8041C71
:1005400089010CD450F8041C89015CBF50F8041CCC
:100550005FEA811103D450F8041C8901EED50168CB
:10056000042221F0F0010160016862F30A210160B8
:100570000168022221F460510160016862F3010107
:10058000016000BF016801F00C0108290ED001686C
:1005900001F00C01082909D0016801F00C010829BB
:1005A00004D0016801F00C010829EBD14AF20024C3
:1005B000C0F24A442046FFF7EBFE2046BDE810405B
:1005C000FFF7FABE70470000FEE7000082B041F27C
:1005D0001800C4F2020001684FF6FF0241F0010169
:1005E000016001684FF0FF3301F0010100910099B3
:1005F0004168002641F080514160406840F60C445B
:1006000000F08050019001984EF60C50CEF20000A0
:10061000016846F28055114040F20032C0F2FA52B1
:10062000114301600168C4F20104C1F3022181F0A9
:100630000702042A28BF0422033903FA02F238BF52
:100640003146D24302FA01F10901C1750420C4F216
:1006500001000168022262F31A61C4F20005016020
:10066000FFF728FFFFF7D2FEFFF798FD40F20008E2
:100670000427C2F260484FF00809CFF6FF7702E086
:100680006420FFF79FFE206800F0200040EA004051
:1006900080F0200060602868C00701D1002109E0D7
:1006A0002869C00702D1012104E000BF286AC00701
:1006B000E6D1022105EB011009016E50466086600B
:1006C000C6606A5842EA08026A50C0F8049082681C
:1006D00042F011028260826842F4085282608268AD
:1006E00042F44C128260826842F088428260C268A2
:1006F00042F05502C260C26842F4CC42C260C26895
:1007000042F4EE02C260C26842F00842C2606A5817
:1007100042F001026A5039460268D207B0D002683E
:10072000D2071CBF02685FEAC272A9D000291CBFB1
:1007300002685FEAC272A3D04A1C01F10401EBD146
:100740009EE702E008C8121F08C1002AFAD17047CC
:100750007047002001E001C1121F002AFBD1704741
:100760008007000800000020080000004207000881
:100770008807000808000020000400005207000855
:0807800000127A0000000000E5
:0400000508000131BD
:00000001FF
