:020000040800F2
:10000000A01C002045010008A50E00080D050008F1
:10001000A10E0008BD010008ED1500080000000059
:10002000000000000000000000000000AD0E00080D
:10003000FD04000800000000A90E0008B10E000831
:100040005F0100085F0100085F0100085F01000810
:100050005F0100085F0100085F0100085F01000800
:100060005F0100085F0100085F0100085F010008F0
:100070005F0100085F010008F5040008F9040008AA
:100080005F0100085F0100085F01000831150008EA
:100090005F010008C10100085F0100085F0100085E
:1000A0005F0100085F0100085F0100085F010008B0
:1000B0005F0100085F0100085F0100085F010008A0
:1000C0005F0100085F0100085F0100085F01000890
:1000D0005F010008D11000085F0100085F010008FF
:1000E0005F0100085F0100085F0100085F01000870
:1000F0005F0100085F0100085F0100085F01000860
:100100005F0100085F0100085F0100085F0100084F
:100110005F0100085F0100085F0100085F0100083F
:100120005F0100085F0100085F0100085F0100082F
:10013000DFF80CD000F02AF800480047AD1800089E
:10014000A01C00200648804706480047FEE7FEE75F
:10015000FEE7FEE7FEE7FEE7FEE7FEE7FEE7FEE777
:10016000C50F00083101000840EA01039B0703D0D6
:1001700009E008C9121F08C0042AFAD203E011F8E6
:10018000013B00F8013B521EF9D270471CB50948EB
:100190000090094801900546009C06E0E06840F0A8
:1001A000010394E8070098471034AC42F6D3FFF7F8
:1001B000C3FF0000281A0008481A0008FEE70000E4
:1001C0002DE9F04F89B046F21046C4F200063068BF
:1001D000C00600F1BD803068800700F0C4800020B8
:1001E000CDE907003068800700F0BD8040F2080BC1
:1001F000EA46C2F2000B0AF11C080BF1200908E0E4
:1002000048465146242201F0FBFA3068800700F08E
:10021000AA80DBE904010025013041F10001CBE9AE
:100220000401D6F8B031D6F8B441D6F8B821C4F3F9
:100230000727D6F8BC010697270C04F00F01059795
:1002400043F3800713F0040F0491C3F3800408BF45
:100250005D0D07EAD30708290294CDE90057C3F3DF
:10026000400328BF0821002903935DD001298DF8A0
:100270001C2059D0130A02298DF81D3054D0130CBC
:1002800003298DF81E304FD0120E04298DF81F203F
:100290004AD04A1F032A05D2042211F0030125D1B6
:1002A00042E000BF01F00C0253420022182400BFBC
:1002B000A4F110050AEB020720FA05F587F8215092
:1002C000A4F1080520FA05F587F8225020FA04F574
:1002D000043287F8200087F823509F18043704F170
:1002E0002004E5D1043211F003011DD06FF01F038B
:1002F00003EBC20320FA03F3012908F8023013D0FC
:10030000531C6FF01F0707EBC30720FA07F70229FA
:1003100008F8037008D0911C6FF01F0202EBC102B5
:10032000D04008F8010000BF306840F02000306085
:10033000484601F05DF923283FF662AFDBF80C0078
:100340000130CBF80C00484601F01EFA58E700BF18
:1003500040F20800C2F2000081680131816030681B
:1003600040F01000306009B0BDE8F08F2DE9F04397
:1003700081B0092A15468846064628BF00F0C0F815
:1003800040F2080CC2F2000C9CF8000070B146F27A
:100390008053C4F2000318680024C0074FF0000126
:1003A0000DD01869C00705D1012108E0012001B076
:1003B000BDE8F083186AFF21C00708BF022103EBE4
:1003C00001100F0105F00F01DC51416001460246AA
:1003D00041F8084F42F80C4FDC59082D44EA4656C4
:1003E00028BF0825002DDE5176D098F800300F6820
:1003F000012D43EA07030B606ED098F801300F68B7
:10040000022D47EA03230B6066D098F802300F688C
:10041000032D47EA03430B605ED098F803300F6862
:10042000042D47EA03630B6056D0691F032905F0CA
:10043000030E01D2042126E005F0FC01C1F1000900
:100440000021182508EB01073C7913680431234388
:1004500013607B79A5F110041668A3403343136041
:10046000BB79A5F108041668A34033431360FB79F8
:100470001468AB402343136009EB0103043305F117
:100480002005DFD10431BEF1000F25D018F801702E
:100490006FF01F0606EBC1051468AF402743BEF19D
:1004A000010F176018D04F1C18F8075006EBC7074C
:1004B000166805FA07F73743BEF1020F17600BD035
:1004C000023118F801306FF01F0707EBC101176800
:1004D00003FA01F139431160016841F00101016043
:1004E0009CF8000001388CF80000002001B0BDE845
:1004F000F083000000F0ACBF00F0B2BE7047000017
:10050000EFF3108072B600BFFEE70000FEE70000C8
:100510002DE9F04FB1F8018098FAA8F3B3FA83F30C
:1005200038FA03F750D040F2011C4FF0011E4FF093
:100530000F0A4FF0040903E0013338FA03F243D005
:1005400028FA03F5ED07F7D0B3F108050EFA05F523
:1005500045F080664D6838BF0CFA03F6082D0DD1C2
:10056000370AD1F810B0C46897FAA7F7B7FA87F737
:1005700024EA16240BFA07F73C43C460370E96FAB8
:10058000A6F6B6FA86F63C58B6000AFA06F224EA4F
:10059000020205FA06F442EA04053D504A6842F0B8
:1005A0000802092AC8D18A680324B44025EA040451
:1005B000B2402243C251CC6809FA06F5AA43B440BE
:1005C0002243C251B8E700BF0020BDE8F08F000011
:1005D00044F6D351C1F26201A0FB01014FF0FF309C
:1005E00000EB91104EF21001CEF2000148600020A5
:1005F000886005200860704741F2040CC4F2020CC8
:10060000DCF8002002F00C02082A41F20022C0F2BD
:100610007A0216D1DCF80030DB0305D440F6001274
:10062000C0F23D0207E000BFDCF80030C3F34043F6
:100630000133B2FBF3F2DCF80030C3F3834302333F
:100640005A430260DCF8003041F61021C3F3031373
:10065000C0F60001C95C41F6202322FA01F1416095
:10066000DCF80020C0F60003C2F302229A5C21FAF3
:1006700002F28260DCF80020C2F3C2229A5CD14010
:10068000C160704740F20001C2F20001086070478B
:1006900080B58A688446087BD1E900E322F4F842F9
:1006A000104323F4F04210432EF4E0421043CA8971
:1006B0004B69096922F4C04221F480410843104388
:1006C00040EA03010020CCF8441080BD80B540F61C
:1006D000FF3E0368C4F2000E43F2004C0246704530
:1006E000C4F2010C20DCB2F1804F2BD040F200406C
:1006F000C4F20000824225D040F60000C4F200009F
:1007000082421FD0724523DCB2F1804F2ED040F2DE
:100710000040C4F20000824228D040F60000C4F23B
:100720000000824222D025E040F60040C4F20000E2
:10073000824207D0624505D042F60040C4F2010073
:100740008242DFD1486823F0700303437245DBDD4A
:1007500040F60040C4F20000824207D0624505D056
:1007600042F60040C4F20100824203D1C86823F47B
:1007700040730343136088686245D06208889062C2
:1007800005D042F60040C4F20100824201D108695E
:100790001063506940F001010020516180BD0000EC
:1007A0002DE9F041FF294FF0010345DC012979D003
:1007B000102940F0F480016A6FF0100621F010015A
:1007C0000162036A4168D0F818C0156923F030034C
:1007D00006EA0515D2E900E42B4343F20045C4F2D2
:1007E0000105A84243EA041305D042F60044C4F2CE
:1007F0000104A04216D102F1140898E860016FF0DC
:10080000400723F0C003946807EA85152B4343EAA9
:100810008413B40040F6030521F44061AC43214346
:1008200041EAC8012CF4E64747EA0E274160876198
:10083000D1688163B1E000BFB1F5807F6ED0B1F5C2
:10084000805F40F0AC80016A43F2004621F48051A1
:100850000162046A4368C169D2E900EC1569C4F217
:100860000106B04205D042F60046C4F20106B0428D
:1008700004D1966923F4804343EA861321F4E641C8
:100880002D0341F6FF7641EA0E2124F44054B5438E
:100890004360C1612C43D16844EA0C3201640262B6
:1008A0007CE000BF016A21F001010162036A416836
:1008B000D0F818C0156923F0030325F00105D2E92B
:1008C00000E42B4343F20045C4F20105A84243EA89
:1008D000040305D042F60044C4F20104A04214D13E
:1008E00002F1140898E860016FF0040723F00C038C
:1008F000946807EA85052B4343EA840321F4407199
:1009000026F40074214341EA48012CF0730747EABA
:100910000E0741608761D16841633EE0016A40F2A1
:10092000FF1621F480710162036A4168D0F81CC08F
:10093000156923F440732D02B543D2E900E42B433B
:1009400043F20045C4F20105A84243EA042305D05E
:1009500042F60044C4F20104A04216D102F1140888
:1009600098E8600140F2FF77AD0223F44063946899
:10097000BD432B4343EA8423340142F20F0521F4A3
:100980004051AC43214341EA48112CF0730747EA38
:100990000E074160C761D168C16303620023184636
:1009A000BDE8F08170B584B00446C068800471D49D
:1009B0000D46E06841F20C6105F1040C88439CE8A7
:1009C0004E10084318433043E06020696E4620F41F
:1009D000405010432061606920F4407040EA0C00F0
:1009E00060613046FFF708FE44F6FF30C4F20000B5
:1009F00084424FF0010017DD44F60041C4F20001CB
:100A00008C421DD045F20001C4F200018C4217D087
:100A100043F60001C4F201018C4239D106F10C0009
:100A2000006888B936E000BF44F20041C4F200011A
:100A30008C4205D044F60001C4F200018C4227D15B
:100A400006F10800006828B3296819B31922504339
:100A50008900B0FBF1F048F21F51C5F2EB11A0FB89
:100A600001235A094FF69C73C0F6FF7302FB030083
:100A7000322303EB0010A0FB0101F02000EA51102B
:100A800000EB0210C1F3431180B20844A0600020C3
:100A900004B070BD012004B070BD000081B04EF202
:100AA0001001CEF200010A6801300092009A28BFBE
:100AB0004FF0FF300A68D20300EBE27078B10A68A9
:100AC000D20300EBE27050B10A68D20300EBE2708F
:100AD00028B10A68D20300EBE2700028EAD101B025
:100AE0007047000081B041F21400C4F202000168B6
:100AF0004EF60C5C41F0010101600068CEF2000C82
:100B000000F0010000900098DCF800104EF20E4159
:100B10004EF20013CEF200010022CEF200034FF499
:100B200080400A701860DCF800004FF400404A7002
:100B3000186001B0704700002DE9F04186B041F225
:100B40001800C4F20200016840F6004441F0400180
:100B500001600168C4F2010401F0400101910199B2
:100B6000016801AD41F004010160016842F2200812
:100B700001F00401019101990168012741F0080188
:100B800001600068202100F008000190019841F602
:100B90001400C4F2010001606161002604F54060A8
:100BA0002946CDF80480CDE90277CDE90466FFF748
:100BB000AFFC20462946CDE90187CDE903760596AD
:100BC000FFF7A6FC06B0BDE8F08100002DE9F04378
:100BD00099B0002641F21809139608960496C4F2BB
:100BE0000209D9F8000042F6184740F40060C9F83D
:100BF0000000D9F80000C4F2010700F400600B9077
:100C00000B98402014904FF46160A7F11804CDE9CF
:100C100015064FF0010813A92046ADF84C60CDF839
:100C20005C80FFF753FD57F8180C44F2070140F0C1
:100C3000800047F8180C57F8100C0BAD884347F8A4
:100C4000100C3868012140F0080038607020CDE9B0
:100C50000B064FF49660CDE90E0620462A460D9607
:100C6000CDE910661296FFF79BFD3868102120F041
:100C70000400386038682A4640F400603860204636
:100C8000FFF78EFD38684FF4807120F48060386083
:100C900078682A4640F0080078602046FFF780FD1B
:100CA0007868022120F00400786057F8140C61F392
:100CB000061047F8140C57F8100C05A920F0800016
:100CC00047F8100C64208DF820004FF40050CDE957
:100CD00009062046CDE905660796ADF82260FFF7C4
:100CE000D7FCD9F80000694640F04000C9F8000080
:100CF000D9F8000000F04000189018983F20C0F28A
:100D00003F4000900920CDE9010841F60000C4F2FF
:100D100001000396FFF7FCFB0420C4F20100016808
:100D200041F0E06141F0C001016019B0BDE8F0831D
:100D3000F0B58DB0002641F218000596C4F202000D
:100D4000016840F6000441F4804101600168022717
:100D500001F48041069106990168C4F2010441F052
:100D600004010160006801AD00F0040006900698DF
:100D7000092002900320C0F20247CDE90306204675
:100D800029460197FFF7C4FB07F1021001900427E1
:100D9000204629460297FFF7BBFB4420C4F202001D
:100DA00041694BF6EF72CFF6FF7211404161416924
:100DB000022363F30D314161416941F0200141613A
:100DC000416921F040014161416941F08001416187
:100DD000416921F440714161416921F440614161FF
:100DE00001681140103101600268012161F30D3288
:100DF0000260026822F020020260026822F04002D3
:100E00000260026842F080020260026822F44072CE
:100E10000260026822F4406202604EF60C50CEF28C
:100E200000000068C0F3022080F00702042A38BFE7
:100E300017464FF0FF32033802FA07F238BF304648
:100E4000914301FA00F04EF225410001CEF200017B
:100E500008704EF20410CEF20000202101604FF421
:100E6000E130CDE906060C20CDE90A0604F5405034
:100E700006A9CDE908660C96FFF794FD43F60C0031
:100E8000C4F20100416821F490414160816821F081
:100E90002A018160016841F4005101600DB0F0BD8C
:100EA000FEE70000FEE7000070470000704700000A
:100EB0007047000010B542F20000C4F20200016861
:100EC000022262F302010160016801F007010229B8
:100ED0000ED0016801F00701022909D0016801F074
:100EE0000701022904D0016801F007010229EBD1B2
:100EF00041F20400C4F2020050F8041C41F48031B5
:100F000040F8041C50F8041C89030CD450F8041C4D
:100F100089035CBF50F8041C5FEA813103D450F8A8
:100F2000041C8903EED501681D2262F3154101609E
:100F300050F8041C41F0807140F8041C50F8041C67
:100F400089010CD450F8041C89015CBF50F8041CC2
:100F50005FEA811103D450F8041C8901EED50168C1
:100F6000042221F0F0010160016862F30A210160AE
:100F70000168022221F460510160016862F30101FD
:100F8000016000BF016801F00C0108290ED0016862
:100F900001F00C01082909D0016801F00C010829B1
:100FA00004D0016801F00C010829EBD14AF20024B9
:100FB000C0F24A442046FFF70BFB2046BDE8104034
:100FC000FFF760BB7047000010B540F25804C2F252
:100FD000000440F2A00104F13000C2F2000140F22E
:100FE000014200F025FB40F2A04104F11800C2F2DA
:100FF000000140F6010200F01BFB43F61400C4F2AE
:10100000010000BF50E8001F41F0400140E800121D
:10101000AAB150E8001F41F0400140E8001272B14F
:1010200050E8001F41F0400140E800123AB150E89A
:10103000001F41F0400140E80012002AE2D143F6CF
:101040000C00C4F2010000BF50E8001F41F0100185
:1010500040E80012AAB150E8001F41F0100140E83A
:10106000001272B150E8001F41F0100140E8001278
:101070003AB150E8001F41F0100140E80012002A88
:10108000E2D15820C4F2020001684FF4806241F0BE
:1010900004010160016841F00201016050F8141C74
:1010A00041F0020140F8141C40F6A041C2F20001D8
:1010B000C16043F60401C4F201018160416862F33A
:1010C0000F014160016841F00101016010BD0000A5
:1010D00000F052B9F0B581B040F25807C2F20007F3
:1010E00007F1300000F094FA07F11806304600F0DE
:1010F0008FFA84B20CB1387810B101B0F0BD00BFE6
:1011000041F2A005C2F20005B4F5006F28BF4FF40C
:10111000006430462946224600F0E0FAD7E904018F
:10112000001941F10001C7E9040100BF387830B16E
:10113000387820B1387810B138780028F6D14420BA
:101140000121C4F2020039700168C90734D143F6A5
:101150000401C4F20101C560816041684FF6FF726D
:1011600091432144416043F61401C4F2010100BFE0
:1011700051E8002F42F0800241E80023ABB151E872
:10118000002F42F0800241E8002373B151E8002FA4
:1011900042F0800241E800233BB151E8002F42F0C9
:1011A000800241E80023002BE2D1016841F00101F7
:1011B000016001B0F0BD00BF016821F001010160D4
:1011C0000168C907C3D00168C9071CBF01685FEA8D
:1011D000C171BCD00168C907F2D1B8E7F0B581B0E0
:1011E00020B3044640F25800C2F2000000F130057E
:1011F00028460E4600F0FCF90021B1EB962F074679
:1012000016D1BE4209D9284600F002FAF11B8142EC
:1012100028BF0146284600F0CDFA2846214632462E
:1012200001B0BDE8F04000F0EBBA00BF01B0F0BD86
:10123000B6F5806F04D10020B0EB972F03D005E006
:101240003019A0F58064284600F09EFA2846214611
:101250004FF4806201B0BDE8F04000F0D1BA000068
:10126000B0B55820C4F2020050F8581C090339D414
:1012700050F8581C49034FD450F8581C890358BFE4
:10128000B0BD4FF4003140F8541C40F25800C2F297
:101290000000D0E9021200F1300411F5007142F1B2
:1012A0000002C0E90212204600F0A2F9B0F5007F6A
:1012B0000BD20546204600F0ABF9C5F5007181421E
:1012C00028BF0146204600F075FA40F6A040C2F261
:1012D000000000F5007120464FF40072BDE8B040F8
:1012E00000F08EBA4FF4002140F8541C01684FF40E
:1012F000806221F001010160416862F30F014160E9
:10130000016841F00101016040F25800C2F20000A2
:10131000C1880131C180B0BD4FF4802140F8541C18
:1013200040F25800C2F20000D0E9021200F130048D
:1013300011F5007142F10002C0E90212204600F0EE
:1013400057F9B0F5007F0BD20546204600F060F952
:10135000C5F50071814228BF0146204600F02AFAF7
:1013600040F6A041C2F2000120464FF40072BDE8F1
:10137000B04000F045BA000010B582B043F600005E
:10138000C4F201000168090706D4016849075CBF7F
:1013900001685FEA81710DD5016801914068019093
:1013A000019840F25800C2F20000418801314180AA
:1013B00002B010BD0168C907EED10168C90644D565
:1013C0005824C4F2020401684068206820F001003B
:1013D0002060606881B2B1F5007F15D9B1F5806FEA
:1013E00029D040F2580CC2F2000CC0F58060DCE954
:1013F000023281B2581842F10002CCE9020240F6F2
:10140000A040C2F2000014E015D040F2580CC2F225
:10141000000CC0F50070DCE9023281B2581842F1CC
:101420000002CCE9020240F6A040C2F2000000F542
:101430000070FFF7D3FE60684FF4806161F30F0026
:101440006060206840F00100206002B010BD000024
:101450004420C4F2020050F8441C090434D450F86B
:10146000441C890458BF70474FF4005140F8401C99
:10147000016821F00101016043F61400C4F201008B
:1014800050E8001F21F0800140E80012AAB150E8A6
:10149000001F21F0800140E8001272B150E8001FE7
:1014A00021F0800140E800123AB150E8001F21F01D
:1014B000800140E80012002AE2D140F25800C2F256
:1014C00000000021017070474FF4004140F8401CBB
:1014D000016821F00101016043F61400C4F201002B
:1014E00050E8001F21F0800140E80012AAB150E846
:1014F000001F21F0800140E8001272B150E8001F87
:1015000021F0800140E800123AB150E8001F21F0BC
:10151000800140E80012002AE2D140F25800C2F2F5
:101520000000002101708188013181807047000036
:1015300046F20840C4F200000168490140D4016845
:10154000090144D40168C90003D5016841F0805104
:101550000160F0B585B0EFF3108172B601680268E2
:101560000068C1F38061C2F3C0621144C0F300702F
:1015700040F208070844C2F2000738703878E0B13A
:1015800001AC651D07F13806304600F041F810281F
:1015900013D3304600212246102300F05BF8019857
:1015A0009DF808202946FEF7E1FEC8B93046102113
:1015B00000F000F938780028E6D162B605B0F0BD39
:1015C000016841F08061016001680901BAD50168D4
:1015D00041F0006101600168C900B6D4B9E700BFFD
:1015E00078680130786062B605B0F0BDFEE70000B3
:1015F00060B1016851B1416841B1C26880688242FE
:1016000038BF0021891A084401387047002070470C
:1016100060B1016851B1416841B1C26880688242DD
:101620002EBF101A1144081A704700BF00207047DF
:10163000034600284FF0000018BF002900D1704772
:10164000002A08BF7047C3E9020018610120C3E9FE
:1016500000127047002804BF002070472DE9F041B8
:10166000154602680646AAB31C46002B4FF0000040
:1016700018BF002D02D1BDE8F08100BF7368002BB8
:1016800008BFBDE8F081F068B768C71B38BF1F44CA
:101690008F421FD97F1AB068A74238BF3C46CCB1F1
:1016A0000844C11A38BF0146A3EB01082746A045EC
:1016B00038BF4746114428463A46FEF755FD444593
:1016C00004D93168E21BE819FEF74EFD2046BDE85B
:1016D000F08100BF0020BDE8F0810000002804BFB9
:1016E000002070472DE9F04381B00546006898B1AD
:1016F00014464FF000005AB10E4649B1696839B13D
:10170000E868AA68904238BF0844904208D1002097
:1017100001B0BDE8F08300BF002001B0BDE8F08358
:10172000D5F80890BFF35F8F801AD5E90012A04268
:10173000A2EB090738BF0446A74228BF2746494401
:1017400030463A46FEF710FDB4EB070806D029688C
:10175000F0194246FEF708FD02E000BF07EB09085A
:101760006868804528BF4FF00008BFF35F8FC5F859
:1017700008802B691BB12846002122469847204645
:1017800001B0BDE8F083000090B1016881B141680B
:10179000002908BF70470021BFF35F8FC160BFF30E
:1017A0005F8F816003691BB102210022184700BFCF
:1017B0007047000010B508B30268FAB14FF000049A
:1017C000C9B14268BAB1C36884681C1B38BF1444ED
:1017D0008C4228BF0C468168BFF35F8F426821446A
:1017E0008A1A38BF0A46BFF35F8F8260036913B15C
:1017F000002122469847204610BD00BF002010BDA2
:10180000002804BF002070472DE9F04381B0054651
:10181000006868B314464FF0000052B30E4641B35F
:10182000696831B3EA68AB68D04318449A4228BF6C
:10183000084408B3D5F80C90BFF35F8FD5E90012C8
:10184000A042A2EB090738BF0446A74228BF27469B
:1018500001EB090031463A46FEF786FCB4EB070877
:101860000ED02868F1194246FEF77EFC0AE000BF60
:10187000002001B0BDE8F083002001B0BDE8F08396
:1018800007EB09086868804528BF4FF00008BFF3E0
:101890005F8FC5F80C802B691BB1284601212246B9
:1018A0009847204601B0BDE8F083000082B041F2C5
:1018B0001800C4F2020001684FF6FF0241F0010176
:1018C000016001684FF0FF3301F0010100910099C0
:1018D0004168002541F080514160406840F60C4865
:1018E00000F08050019001984EF60C50CEF20000AE
:1018F0000168C4F20108114040F20032C0F2FA520D
:10190000114301600168C1F3022181F00702042A3A
:1019100028BF0422033903FA02F238BF2946D24312
:1019200002FA01F10901C1750420C4F20100016845
:10193000022262F31A610160FFF7BCFAFFF7FCF8BC
:10194000FFF7D0F8FFF7F4F9FFF740F9FFF73CFB9A
:1019500042F62040C4F20100016848F21F5641F0EF
:10196000010101600168C5F2EB1641F0040101605C
:101970000168642741F0100101600168002441F012
:1019800040010160016841F480710160016841F427
:1019900080610160416A41F40041416250F8201CBD
:1019A00041F0010140F8201C4FF4617141618161F7
:1019B000C16150F80C1C41F0010140F80C1C06E01C
:1019C000FFF788FB01200134FFF768F8013DA4FB15
:1019D0000601480900FB07500028F1D1D8F80000A3
:1019E00000F0200040EA004080F02000C8F8040029
:1019F000E6E702E008C8121F08C1002AFAD17047C2
:101A00007047002001E001C1121F002AFBD170477E
:101A1000000000000000000001020304060708099E
:101A20000000000001020304481A00080000002022
:101A300008000000F2190008501A000808000020F1
:101A4000981C0000021A000800127A000000000032
:0400000508000131BD
:00000001FF
